:100000000C94FC0F0C9421100C9421100C942110D2
:100010000C9421100C9421100C9421100C9421109C
:100020000C9421100C9421100C9421100C9421108C
:100030000C9480730C9421100C9421100C942110BA
:100040000C9421100C9438130C940D120C94411143
:100050000C94E4100C9421100C9421100C94211099
:100060000C9421100C9421100C9421100C9421104C
:100070000C9421100C9421100C94C8110C94FD10B8
:100080000C9421100C9421100C942110206C6F639F
:100090006B657220256400206F70656E2020200043
:1000A000206C6F636B656420002028746872657330
:1000B000686F6C642025642C2041432076616C7548
:1000C00065202564290D0A00416C6C204F4B0D0AF8
:1000D000004E6F2046696C650D0A000D0A000D0A7E
:1000E000000D0A000D0A00784D6F64656D204352C3
:1000F00043206572726F720D0A0052656D6F7465F0
:1001000020736964652063616E63656C6C6564204F
:100110006174206672616D65206E6F2025640D0A22
:1001200000784D6F64656D20756E6B6E6F776E2015
:10013000726573706F6E736520307825780D0A00D4
:10014000446576696365202564206973206E6F7449
:1001500020726573706F6E64696E6720282564294C
:100160000D0A00426F6F746C6F6164657220697371
:10017000206E6F7420726573706F6E64696E670DA8
:100180000A0043616E2774206F70656E2066696C8B
:10019000652025730D0A0053797374656D2073749F
:1001A0006174653A0D0A0020204E756D62657220FB
:1001B0006F66207461736B73203A2025640D0A000A
:1001C00020204672656552746F73206865617020E7
:1001D00020203A2025642066726565206F66202500
:1001E000642062797465730D0A0020204D616C6C87
:1001F0006F63206865617020202020203A202564EC
:100200002066726565206F662025642062797465BA
:10021000730D0A00202052616D206469736320739E
:100220007061636520203A20256420667265652030
:100230006F6620256420636C7573746572730D0A94
:1002400000202054656D70657261747572652020A0
:100250002020203A20256420430D0A002020566FDC
:100260006C746167652020202020202020203A2007
:10027000256420560D0A0053797374656D207365EB
:100280007474696E67733A0D0A0020204D61632013
:100290006164647265737320202020203A2000205E
:1002A00020495020616464726573732020202020EF
:1002B000203A200020206D61736B20202020202018
:1002C0002020202020203A200020206761746577BC
:1002D00061792020202020202020203A2000446521
:1002E0007465637465642052532034383520646526
:1002F00076696365733A0D0A00202043616E2774A6
:100300002066696E6420616E792064657669636534
:100310000D0A004C6F636B65722073656E736F72AC
:1003200073207374617465733A0D0A0020204C6F5A
:10033000636B65722073656E736F7273206469738B
:1003400061626C65640D0A0057726974696E67209A
:10035000746F2066696C652E20507265737320433C
:1003600054524C2B4320746F20717569740D0A0030
:1003700046696C65206C656E6774683A2025640D6B
:100380000A00586D6F64656D3A205472616E736D2A
:10039000697373696F6E2073746172740D0A005013
:1003A0006F646E6F737A656E696520726F6C6574C9
:1003B000790D0A09737465726F776E696B20256415
:1003C0000D0A09726F6C6574612020202025640D70
:1003D0000A004F7075737A637A616E696520726F77
:1003E0006C6574790D0A09737465726F776E696B49
:1003F0002025640D0A09726F6C657461202020202D
:1004000025640D0A0009706F7A79636A61202020E3
:1004100025640D0A00456E61626C656420257320B9
:1004200064656275670D0A0044697361626C656496
:100430002025732064656275670D0A0068656C701D
:10044000005072696E742068656C702073747269F4
:100450006E6700737461747573007B66696C656E9A
:10046000616D657D205072696E7420646576696384
:100470006520737461747573206F6E205654592013
:100480006F7220777269746520746F2066696C657D
:1004900000656E6373746174005072696E742045F8
:1004A0006E632032386A363020726567697374650E
:1004B00072730074696D65005072696E742074699E
:1004C0006D65006465627567005B6172707C69636D
:1004D0006D707C69707C7463707C7564705D205B8A
:1004E0006C6576656C5D2077726974652064656201
:1004F000756720696E666F2E204C6576656C2030BE
:100500002064697361626C65206465627567696EF9
:1005100067007270696E67005B4465766963652089
:100520006E6F5D2053656E642070696E6720746F16
:1005300020527334383520646576696365007069CC
:100540006E67005B41315D205B41325D205B413372
:100550005D205B41345D2053656E64732070696E6D
:1005600067207468726F7567687420657468657257
:100570006E65740078726563005B66696C65206EF9
:10058000616D655D20726563656976652066696C7D
:1005900065207573696E6720784D6F64656D0078AE
:1005A00073656E64005B66696C65206E616D655D88
:1005B0002073656E642066696C65207573696E676B
:1005C00020784D6F64656D0078666C617368005BC0
:1005D000646576696365206E6F5D205B66696C6536
:1005E000206E616D655D20666C6173682064657660
:1005F00069636520636F6E6E656374656420746FF4
:100600002052733438350064697272660050726922
:100610006E742072616D6469736B2066696C6573BA
:1006200000637266005B66696C65206E616D655D76
:10063000206372656174652072616D2066696C6506
:100640000065726173657266005B66696C65206E39
:10065000616D655D2065726173652066696C6520FA
:1006600066726F6D2072616D206469736B006564E2
:1006700069747266005B66696C65206E616D655DAC
:1006800020656469742066696C65206C6F636174B1
:100690006564206F6E2072616D206469736B0072F7
:1006A0006561647266005B66696C65206E616D658C
:1006B0005D20726561642066696C65206C6F6361A2
:1006C000746564206F6E2072616D206469736B00C5
:1006D0007570005B647269766572206E6F5D205B79
:1006E0006368616E6E656C5D207B76616C75657D9F
:1006F000206D6F766520757000646F776E005B64A7
:100700007269766572206E6F5D205B6368616E6EE4
:10071000656C5D207B76616C75657D206D6F76659F
:1007200020646F776E00737061005B76616C756535
:100730005D2073657420706F727420410073706265
:10074000005B76616C75655D2073657420706F72F7
:100750007420420073657474696D65005B685D2088
:100760005B6D5D205B735D207365742074696D65DE
:10077000202832346820666F726D617429006163CD
:10078000005B6368616E6E656C20302D375D207292
:1007900065616420616E616C6F672076616C756560
:1007A00000656E61626C6500456E61626C65206D0E
:1007B0006F64650064697361626C65005669657792
:1007C000206D6F646500636F6E66696700436F6ECE
:1007D000666967757265206D6F6465006970005B9E
:1007E00041315D205B41325D205B41335D205B41E7
:1007F000345D2073657420495020616464726573B0
:100800007300756470005B41315D205B41325D2097
:100810005B41335D205B41345D205B73726320700C
:100820006F72745D207B64737420706F72747D20AE
:100830007365742075647020636C69656E742049FB
:1008400050206164647265737320616E6420706F00
:10085000727473006D61736B005B6D61736B5D200F
:10086000736574206D61736B006777005B41315D68
:10087000205B41325D205B41335D205B41345D2074
:100880007365742064656661756C74206761746556
:10089000776179006D6163005B41315D205B4132BE
:1008A0005D205B41335D205B41345D205B41355D04
:1008B000205B41365D20736574204D4143206164A7
:1008C00064726573730073617665005361766520A9
:1008D000636F6E66696775726174696F6E007365C8
:1008E0007472005B76616C75655D2073657420724F
:1008F0006573697374616E63652076616C756500FC
:100900004F4B0D0A000D0A0021212120572062754E
:10091000646F727A6520527334383520706F7A6F45
:100920007374616C6F2025642062616A746F770D47
:100930000A00C800D100DB00DE00E100E400E700AF
:10094000FA0021014001630182013C044104D91EE7
:1009500053045A04B620B304B804641E12051805E3
:10096000511A3E054305D31507060D065C1E9F066A
:10097000A606B91DA107A807691500000000000020
:100980003C044104D91E53045A04B620910499042E
:10099000B11DB304B804641EC304C904CC1C120501
:1009A0001805511A3E054305D31574057905D81A63
:1009B0009F05A5054B19C805CF05771A07060D0633
:1009C0005C1E21062506341A410649061D1A6E06CC
:1009D00075069D199F06A606B91DD006D306C9182F
:1009E000F906FE06531826072A0741183D07410756
:1009F0002F18DE08E3081D1854075C07B6177E079A
:100A000081073F17B407BC077A15C607CD078615BF
:100A10000000000000003C044104D91E53045A04A5
:100A2000B620B304B804641E54075C07B617DC078D
:100A3000DF07E71654085908C71669086C086F16CF
:100A400002080608F215940898089C15C608CB08F9
:100A50009715A107A8076915B407BC077A15000008
:100A600000000000576172746F73632070726F62D0
:100A70006B69206E612077656A73636975202564F0
:100A80003A2025640D0A00586D6F64656D3A207236
:100A90006F7A706F637A796E616E6965206F6462D8
:100AA000696F72750D0A0075647000746370006977
:100AB000636D70006970006172700075647000741D
:100AC00063700069636D700069700061727000414D
:100AD0006B7475616C6E7920637A61732025643A5A
:100AE00025643A25640D0A000D0A000D0A000D0A5E
:100AF000000D0A004672656552746F732B2076658F
:100B00007220302E3331206275696C643A20417551
:100B10006720323520323031312C2030323A3239B0
:100B20003A32340D0A003D3D3D3D3D3D3D3D3D3DAC
:100B30003D3D3D3D3D3D3D3D3D3D3D3D3D3D3D3DE5
:100B40003D3D3D3D0D0A00556E6B6E6F776E20701A
:100B500061636B65740D0A000D0A00253032783A26
:100B6000000D0A005061636B657420696E2C206C67
:100B7000656E6774683D25642C207061636B6574D5
:100B80004E6F3A2025640D0A00495020737461634A
:100B90006B207265616479200D0A0052657374617F
:100BA00072740D0A00446F6D4F733E00446F6D4FB9
:100BB000732300446F6D4F734000636D646C696E06
:100BC000653A200023206E6B000D0A0009004F706B
:100BD00065726174696F6E206E6F7420616C6C6FEA
:100BE0007765640D0A004F7065726174696F6E20DD
:100BF0006661696C65640D0A000D0A002000537976
:100C00006E746178204572726F722E205573653A4A
:100C100020004F4B0D0A00094D4141445235203010
:100C20007825780D0A00094D41414452342030782E
:100C300025780D0A00094D41414452332030782572
:100C4000780D0A00094D4141445232203078257810
:100C50000D0A00094D414144523120307825780D6C
:100C60000A00094D414144523020307825780D0A60
:100C700000454E4332386A3630207374616E2072FC
:100C8000656A657374726F773A0D0A004E494320A6
:100C90007265672064756D70206E6F7420696D7069
:100CA0006C656D656E7465640D0A000D0A00555221
:100CB00047200041434B20005053482000525354DA
:100CC000200053594E200046494E2000466C616773
:100CD000732020203A200041636B204E756D203A2E
:100CE00020307825780D0A00536571204E756D20EF
:100CF0003A20307825780044737420506F72743A2B
:100D00002025640D0A0053726320506F72743A20DC
:100D100025640D0A00544350204865616465720DD6
:100D20000A000D0A0044657374202049503A2000DF
:100D30000D0A00536F7572636549503A2000507276
:100D40006F746F636F6C3A2025640D0A0050726FE8
:100D5000746F636F6C3A205544500D0A0050726FE7
:100D6000746F636F6C3A205443500D0A0050726FD9
:100D7000746F636F6C3A2049434D500D0A004C6507
:100D80006E67746820203A2025640D0A005665724B
:100D900020202020203A2025640D0A0049502048B8
:100DA00065616465720D0A002D3E4453543A00207B
:100DB0005352433A00457468205061636B65742058
:100DC000547970653A20307825780025642E2564A2
:100DD0002E25642E256400253032783A253032786D
:100DE0003A253032783A253032783A253032783A1E
:100DF00025303278000D0A004761746577617920EB
:100E00003A20000D0A004E65746D61736B203A2024
:100E1000000D0A0049502041646472203A200064A9
:100E2000656275675072696E744865785461626C6A
:100E300065286C656E2D4554485F484541444552D0
:100E40005F4C454E2C2026646174615B4554485FBD
:100E50004845414445525F4C454E5D293B00646521
:100E60006275675072696E744865785461626C652A
:100E7000284554485F4845414445525F4C454E2CF7
:100E80002026646174615B305D293B0053656E64AC
:100E9000696E67204950207061636B657420746FC0
:100EA00020676174657761790D0A0053656E646926
:100EB0006E67204950207061636B6574206F6E20EF
:100EC0006C6F63616C206E65740D0A004E45542092
:100ED00052783A20556E6B6E6F776E2049502070B5
:100EE00061636B65740D0A004E45542052783A20B8
:100EF0005443502F4950207061636B65740D0A0094
:100F00004E45542052783A205544502F4950207075
:100F100061636B65740D0A004E45542052783A2087
:100F200049434D502F4950207061636B65740D0A21
:100F300000436F64652020203A20307825780D0A20
:100F4000000D0A004543484F205245504C5900457A
:100F500043484F20524551554553540054797065CC
:100F60002020203A20000D0A004473744970416427
:100F700064723A20000D0A00537263497041646440
:100F8000723A200049434D50205061636B65743ABA
:100F90000D0A0053656E64696E672049434D502009
:100FA000504F4E470D0A00526563656976656420AF
:100FB00049434D5020726571756573743A20005530
:100FC0006E6B6E6F776E2049434D5020747970655B
:100FD00052656365697665642049434D50207265AA
:100FE00071756573743A20000D0A002020002533C6
:100FF000642020000D0A00202000204D59202000F0
:101000002D2D2D2D2D2D2D2D2D2D2D2D2D2D2D2D10
:101010002D2D2D2D2D2D2D2D2D2D2D2D2D2D2D2D00
:101020002D2D2D0D0A0054696D65204574682041F1
:101030006464726573732020202020202020495092
:1010400020416464726573730D0A000D0A004473D5
:101050007450726F746F416464723A20000D0A001C
:101060004473744877416464722020203A20000D54
:101070000A0053726350726F746F416464723A2055
:10108000000D0A0053726348774164647220202087
:101090003A20000D0A00554E4B4E4F574E00524518
:1010A000504C590052455155455354004F7065728C
:1010B0006174696F6E2020203A2000415250205008
:1010C00061636B65743A0D0A000D0A002049503ABD
:1010D000200041525020495020696E204D41433A32
:1010E000200053656E64696E67204152502052653E
:1010F000706C790D0A0052656365697665642041FC
:10110000525020526571756573740D0A004854542D
:1011100050206E6F7420696D706C656D656E7465BE
:10112000640D0A004F70656E696E6720544350204D
:10113000636F6E6E656374696F6E204552524F52D5
:101140003A2061636B20666C6167207761736E275C
:1011500074207365740D0A004F70656E696E6720A8
:1011600054435020636F6E6E656374696F6E2073B5
:101170006F636B6574207374617465206368616E5E
:1011800067652053594E5F52454345495645442DA6
:101190003E4553544142494C49534845440D0A0089
:1011A0004F70656E696E672054435020636F6E6E9A
:1011B000656374696F6E204552524F523A207379BD
:1011C0006E20666C6167207761736E27742073658B
:1011D000740D0A004F70656E696E6720544350208D
:1011E000636F6E6E656374696F6E20736F636B659A
:1011F00074207374617465206368616E6765204C48
:10120000495354454E2D3E53594E5F52454345492F
:101210005645440D0A0043616E27742066696E646A
:101220002054435020736F636B6574207769746832
:10123000206C6F63616C506F72742025640D0A001E
:10124000466F756E642054435020736F636B6574F2
:10125000206E6F202564207374617465204C49539F
:1012600054454E0D0A00466F756E6420544350205D
:10127000736F636B65742073746174652025640DEE
:101280000A0025640D0A00414E590D0A000D0A207E
:101290002073726320706F7274202020203A202502
:1012A000640D0A202064737420706F7274202020F3
:1012B000203A20000D0A2020495020202020202004
:1012C000202020203A200055445020636F6E66692C
:1012D000673A000D0A005544502054582062756644
:1012E00066657220627573790D0A00307825327850
:1012F0000D0A0052656365697665642064617461F6
:101300003A200050726F632E205544502070616364
:101310006B6574202864617461206C656E67746805
:10132000202564290D0A0053656E64696E67205597
:101330004450207061636B6574202864617461207F
:101340006C656E677468202564290D0A0053656E0C
:1013500064696E67204970207061636B65740D0A63
:1013600000094950763620616464723A2025303293
:1013700078253032783A25303278253032783A255F
:10138000303278253032783A25303278253032784C
:101390003A25303278253032783A25303278253087
:1013A00032783A25303278253032783A2530327822
:1013B00025303278200D0A0009536F6C6963697417
:1013C0006564206E6F6465206D6361737420616471
:1013D00064726573733A000949507636206164641B
:1013E000723A2025303278253032783A25303278FA
:1013F000253032783A25303278253032783A253027
:101400003278253032783A25303278253032783AC1
:1014100025303278253032783A253032782530320E
:10142000783A2530327825303278200D0A0009418B
:101430006464726573732025643A09090009416484
:10144000647265737365733A0A0D002A496E746598
:101450007266616365204950763620636F6E6669F7
:10146000673A0A0D000D0A00253032783A0009006B
:101470000D0A0009002A49507636205061796C6FB8
:101480006164205241573A0D0A00094950763620CE
:10149000616464723A2025303278253032783A25FA
:1014A000303278253032783A25303278253032782B
:1014B0003A25303278253032783A25303278253066
:1014C00032783A25303278253032783A2530327801
:1014D000253032783A2530327825303278200D0A9E
:1014E000000944657374696E6174696F6E2061648C
:1014F00064726573733A2009000949507636206199
:101500006464723A2025303278253032783A2530BA
:101510003278253032783A25303278253032783AB0
:1015200025303278253032783A25303278253032FD
:10153000783A25303278253032783A25303278259D
:101540003032783A2530327825303278200D0A0052
:1015500009536F7572636520616464726573733AD1
:10156000200900092564200A0D00095061796C6F7B
:101570006164204C656E6774683A2009000925642F
:10158000200A0D0009466C6F77204C6162656C3A49
:1015900020090900092564200A0D000954726166BA
:1015A00066696320436C6173733A20090900092559
:1015B00064200A0D000956657273696F6E3A20093E
:1015C00009002A49507636204865616465723A0DF3
:1015D0000A000D0A00253032783A0009000D0A0091
:1015E00009002A49507636204865616465722052A8
:1015F00041573A0D0A0069703A207061636B657457
:101600002073686F72746572207468616E207265F1
:10161000706F7274656420696E204950206865613E
:101620006465722E0A0D00544350207061636B652F
:101630007420696E2C200D0A000D0A0025303278C6
:101640003A000D0A005061636B6574206F75742C4D
:10165000206C656E6774683D25642C200D0A000DB2
:101660000A00253032783A000D0A004E532C206CC7
:10167000656E6774683D25642C200D0A002A495068
:101680007636207061636B657420696E2E204C6520
:101690006E6774683A2025640D0A004563686F2000
:1016A000726571756573740A0D00094950763620AC
:1016B000616464723A2025303278253032783A25D8
:1016C000303278253032783A253032782530327809
:1016D0003A25303278253032783A25303278253044
:1016E00032783A25303278253032783A25303278DF
:1016F000253032783A2530327825303278200D0A7C
:10170000007769746820746172676574206164642D
:10171000726573730A0D000949507636206164645E
:10172000723A2025303278253032783A25303278B6
:10173000253032783A25303278253032783A2530E3
:101740003278253032783A25303278253032783A7E
:1017500025303278253032783A25303278253032CB
:10176000783A2530327825303278200D0A00094940
:1017700050763620616464723A2025303278253004
:1017800032783A25303278253032783A253032783E
:10179000253032783A25303278253032783A253083
:1017A0003278253032783A25303278253032783A1E
:1017B00025303278253032783A253032782530326B
:1017C00078200D0A0066726F6D0A0D000949507687
:1017D0003620616464723A202530327825303278C0
:1017E0003A25303278253032783A25303278253033
:1017F00032783A25303278253032783A25303278CE
:10180000253032783A25303278253032783A253012
:101810003278253032783A253032782530327820C7
:101820000D0A00094950763620616464723A202519
:10183000303278253032783A253032782530327897
:101840003A25303278253032783A253032782530D2
:1018500032783A25303278253032783A253032786D
:10186000253032783A25303278253032783A2530B2
:10187000327825303278200D0A0053656E64696E27
:1018800067204E4120746F0A0D000D0A002530328A
:10189000783A000D0A004E53207061636B65742026
:1018A00041465445523A0D0A006E6963537461749F
:1018B000652E6C61796572342E69636D702D3E6999
:1018C000636D7063686B73756D2020253034780A02
:1018D0000D006E696353746174652E6C6179657275
:1018E000342E69636D702D3E69636D7063686B7330
:1018F000756D2020253034780A0D00266E696353FB
:10190000746174652E6D61632E616464722025308C
:101910003278200A0D000D0A00253032783A000D89
:101920000A004E53207061636B6574206265666FB8
:1019300072653A0D0A000949507636206164647276
:101940003A2025303278253032783A2530327825E1
:101950003032783A25303278253032783A253032B4
:1019600078253032783A25303278253032783A2569
:10197000303278253032783A253032782530327856
:101980003A2530327825303278200D0A0009495046
:10199000763620616464723A202530327825303200
:1019A000783A25303278253032783A253032782529
:1019B0003032783A25303278253032783A25303254
:1019C00078253032783A25303278253032783A2509
:1019D000303278253032783A2530327825303278F6
:1019E000200D0A004D4F4420616464723A200D0AB4
:1019F00000094950763620616464723A20253032FD
:101A000078253032783A25303278253032783A25C8
:101A1000303278253032783A2530327825303278B5
:101A20003A25303278253032783A253032782530F0
:101A300032783A25303278253032783A253032788B
:101A400025303278200D0A0009495076362061642D
:101A500064723A2025303278253032783A25303297
:101A600078253032783A25303278253032783A2568
:101A7000303278253032783A253032782530327855
:101A80003A25303278253032783A25303278253090
:101A900032783A2530327825303278200D0A004FDE
:101AA000524720616464723A200D0A007569705FC4
:101AB0006E657469665F616464725F6C6F6F6B758D
:101AC000703A200D0A00094950763620616464722C
:101AD0003A2025303278253032783A253032782550
:101AE0003032783A25303278253032783A25303223
:101AF00078253032783A25303278253032783A25D8
:101B0000303278253032783A2530327825303278C4
:101B10003A2530327825303278200D0A00094950B4
:101B2000763620616464723A20253032782530326E
:101B3000783A25303278253032783A253032782597
:101B40003032783A25303278253032783A253032C2
:101B500078253032783A25303278253032783A2577
:101B6000303278253032783A253032782530327864
:101B7000200D0A006966616464723A202A2A2025D1
:101B8000303478200D0A004E44206F7074696F6EF7
:101B9000206E6F7420737570706F72746564206945
:101BA0006E204E53000D0A00253032783A0049432A
:101BB0004D507636207061796C6F61643A200D0A61
:101BC000007569705F6C325F6C335F69636D705F65
:101BD0006864725F6C656E20253034783B207061DC
:101BE000636B65744C656E676874202025303478AB
:101BF000203B205549505F4E44365F4F50545F485C
:101C000044525F42554620253034782C206E64368D
:101C10005F6F70745F6F666673657420253034780B
:101C20000D0A00094950763620616464723A202515
:101C3000303278253032783A253032782530327893
:101C40003A25303278253032783A253032782530CE
:101C500032783A25303278253032783A2530327869
:101C6000253032783A25303278253032783A2530AE
:101C7000327825303278200D0A0077697468207434
:101C8000617267657420616464726573730A0D0024
:101C9000094950763620616464723A2025303278E2
:101CA000253032783A25303278253032783A25306E
:101CB0003278253032783A25303278253032783A09
:101CC00025303278253032783A2530327825303256
:101CD000783A25303278253032783A2530327825F6
:101CE000303278200D0A00746F0A0D0009495076D1
:101CF0003620616464723A2025303278253032789B
:101D00003A25303278253032783A2530327825300D
:101D100032783A25303278253032783A25303278A8
:101D2000253032783A25303278253032783A2530ED
:101D30003278253032783A253032782530327820A2
:101D40000D0A005265636569766564204E5320660E
:101D5000726F6D0A0D00454E54524945532025645B
:101D60002025643A0048545450206E6F7420696DE9
:101D7000706C656D656E7465640D0A004F70656EFC
:101D8000696E672054435020636F6E6E656374699B
:101D90006F6E204552524F523A2061636B20666C41
:101DA0006167207761736E2774207365740D0A0074
:101DB0004F70656E696E672054435020636F6E6E7E
:101DC000656374696F6E20736F636B6574207374E1
:101DD000617465206368616E67652053594E5F5278
:101DE000454345495645442D3E4553544142494C8F
:101DF00049534845440D0A004553544142494C4912
:101E0000534845440D0A0053594E5F5245434549D6
:101E10005645440D0A004F70656E696E6720544345
:101E20005020636F6E6E656374696F6E2045525209
:101E30004F523A2073796E20666C61672077617328
:101E40006E2774207365740D0A0053656E742053F9
:101E5000594E5F41434B0D0A0053656E64696E67CE
:101E60002053594E5F41434B0D0A004F70656E6918
:101E70006E672054435020636F6E6E656374696FA4
:101E80006E20736F636B6574207374617465206377
:101E900068616E6765204C495354454E2D3E535939
:101EA0004E5F52454345495645440D0A0054435040
:101EB00020504F52545320737263202530347820C1
:101EC0003B206465737420253034780D0A0043612B
:101ED0006E27742066696E642054435020736F63CC
:101EE0006B65742077697468206C6F63616C506FE8
:101EF00072742025640D0A00466F756E6420544389
:101F00005020736F636B6574206E6F20256420739F
:101F100074617465204C495354454E0D0A00466F58
:101F2000756E642054435020736F636B6574207327
:101F3000746174652025640D0A0020256420726F89
:101F40006C6C6572206472697665723A20726F6C8F
:101F50006C6572203120706F736974696F6E202513
:101F6000642C20726F6C6C6572203220706F736904
:101F700074696F6E202564002C206669726D77612C
:101F800072652025730D0A000D0A4F4B0D0A006281
:101F90006F6F746C6F61646572206E696520726F1B
:101FA0007A706F637A616C206F6462696F727520FA
:101FB00064616E7963680D0A006E612075727A61E2
:101FC000647A656E697520776772616E79206A65DB
:101FD00073742074796C6B6F20626F6F746C6F61B7
:101FE0006465720D0A0072464C4153482074696D55
:101FF000656F75740D0A000011241FBECFEFD0E18C
:10200000DEBFCDBF11E0A0E0B1E0ECE9F6EF00E00B
:102010000BBF02C007900D92A838B107D9F785B75A
:10202000806885BF85B78E6085BF10E1A8E8B1E004
:1020300001C01D92A130B107E1F70E9433100C944A
:102040004C7B0C9400008091000181508093000132
:10205000882329F484E6809300010E94FC3C0895C3
:102060000E943971FDCFAF92BF92CF92DF92EF9273
:10207000FF920F931F930E94E9250E940C158BEF8E
:1020800092E10E94CF220E94AA1283E290E00E9475
:10209000F9229093B60E8093B50E83E290E00E94F1
:1020A000F92290937E0F80937D0F0E9464150E9409
:1020B000CB1000E81EE0C8010E94D6108091B50E3A
:1020C0009091B60EB8010E941D210E944D460E94BB
:1020D000E05CE091B90EF091BA0E05EA1EE042858F
:1020E000538524853585C8016EED7EE00E94FF335F
:1020F00080917D0F90917E0FB8010E941D21E0918B
:10210000B50EF091B60E228D338D8EE291E260E035
:1021100070E044EF51E000E0A2E6EA2EAFE0FA2ED4
:10212000CC24DD24AA24BB240E94F36B2091B50E9D
:102130003091B60E82E792E260E070E04CEB52E044
:1021400001E0F3EDEF2EFEE0FF2E0E94F36B2091F5
:102150007D0F30917E0F84E692E260E070E04CEB00
:1021600052E0EAECEE2EEEE0FE2E0E94F36B0E94AF
:10217000106D80E090E01F910F91FF90EF90DF9045
:10218000CF90BF90AF9008950E949B340E940D3B6A
:102190000E94994408958091B70E9091B80E60E026
:1021A00070E048E150E00E94457A0895FC0180EA21
:1021B00091E1918780878CE892E19387828783E021
:1021C00083831586148608951F920F920FB60F927F
:1021D00011248F93559905C0809165008F7E80935F
:1021E00065008F910F900FBE0F901F901895EAE930
:1021F000F0E080818062808308951F920F920FB675
:102200000F920BB60F9211242F933F934F935F932E
:102210006F937F938F939F93AF93BF93EF93FF93AE
:102220008091920E9091930E69E871E04AE851E036
:102230000E94656D813029F48091890180939C0012
:1022400007C010928A0180919A008F7D80939A0036
:1022500080918A01882311F00E940374FF91EF910D
:10226000BF91AF919F918F917F916F915F914F91AE
:102270003F912F910F900BBE0F900FBE0F901F90AC
:1022800018951F920F920FB60F920BB60F92112452
:102290002F933F934F935F936F937F938F939F936E
:1022A000AF93BF93EF93FF938091DC0E9091DD0E7F
:1022B0006CE871E04DE851E00E94656D813049F4B1
:1022C0008091650080618093650080918C018CB95C
:1022D00003C010928D01559880918D01882311F0D3
:1022E0000E940374FF91EF91BF91AF919F918F91E5
:1022F0007F916F915F914F913F912F910F900BBE06
:102300000F900FBE0F901F901895DF93CF930F92F1
:10231000CDB7DEB789838091920E9091930EBE0166
:102320006F5F7F4F4FEF5FEF20E00E94196FEAE988
:10233000F0E08081806280830F90CF91DF910895DB
:102340000E94851180E090E008958091C60E9091E2
:10235000C70E60E070E040E050E020E00E94196F9E
:102360000895DF93CF930F92CDB7DEB78983809125
:10237000DC0E9091DD0EBE016F5F7F4F4FEF5FEF80
:1023800020E00E94196F559A0F90CF91DF91089528
:102390001F920F920FB60F920BB60F9211242F932C
:1023A0003F934F935F936F937F938F939F93AF93DD
:1023B000BF93EF93FF93DF93CF930F92CDB7DEB729
:1023C00080919C00898310928B018091C40E909122
:1023D000C50EBE016F5F7F4F4BE851E020E00E94C9
:1023E000E56D80918B01882311F00E9403740F909A
:1023F000CF91DF91FF91EF91BF91AF919F918F911D
:102400007F916F915F914F913F912F910F900BBEF4
:102410000F900FBE0F901F9018951F920F920FB63E
:102420000F920BB60F9211242F933F934F935F930C
:102430006F937F938F939F93AF93BF93EF93FF938C
:10244000DF93CF930F92CDB7DEB78CB18983109213
:1024500001018091B30E9091B40EBE016F5F7F4F6A
:1024600041E051E020E00E94E56D80910101882368
:1024700011F00E9403740F90CF91DF91FF91EF91C3
:10248000BF91AF919F918F917F916F915F914F918C
:102490003F912F910F900BBE0F900FBE0F901F908A
:1024A00018958091C60E9091C70E60E070E04FEFD6
:1024B0005FEF20E00E944D6E0895EF92FF921F9310
:1024C000DF93CF930F92CDB7DEB710E07E01089473
:1024D000E11CF11C01C01F5F8091B30E9091B40EFE
:1024E000B7014AE050E020E00E944D6E813099F340
:1024F000812F0F90CF91DF911F91FF90EF90089562
:102500009C01462F8091B30E9091B40EB90150E01A
:1025100020E00E944D6E0895DF93CF930F92CDB7C8
:10252000DEB78091C40E9091C50EBE016F5F7F4FE4
:102530004FEF5FEF20E00E944D6E882319F42FEFDC
:102540003FEF03C08981282F30E0C9010F90CF9160
:10255000DF9108950FB6F8940F9280E461E00E9435
:1025600011709093C50E8093C40E80E261E00E94CA
:1025700011709093930E8093920E80E161E00E941F
:1025800011709093B40E8093B30E84E061E00E94CA
:1025900011709093DD0E8093DC0E81E060E00E946C
:1025A00011709093C70E8093C60E009739F060E0CB
:1025B00070E040E050E020E00E94196F0F900FBEE5
:1025C00087E089B91092900080939900109298004A
:1025D00088ED8AB996E89093950088E980939A00EF
:1025E00090939D0008958FB96F98779BFECF8EB121
:1025F0008FB16F9A089588B3806C88BBC5981B9A79
:10260000E5E6F0E080818860808308951B98089556
:102610001B9A0895E5E6F0E08081877F8083089526
:10262000E5E6F0E08081886080830895C79808958A
:10263000C79A08958DB183608DB9C69808958DB1FC
:102640008C7F8DB9C69A08958DB183608DB9C69877
:1026500008958DB18C7F8DB9C69A08958DB185602E
:102660008DB9C59A08958DB18A7F8DB9C5980895A1
:102670001F920F920FB60F920BB60F9211242F9349
:102680003F934F935F936F937F938F939F93AF93FA
:10269000BF93EF93FF938FB180938E0180917F0F53
:1026A0009091800F6EE871E04FE851E020E00E94C9
:1026B000E56D80918F01882311F00E940374FF91D2
:1026C000EF91BF91AF919F918F917F916F915F91AA
:1026D0004F913F912F910F900BBE0F900FBE0F9017
:1026E0001F901895DF93CF930F92CDB7DEB78FB9B8
:1026F00080917F0F9091800FBE016F5F7F4F4AE006
:1027000050E020E00E944D6E89810F90CF91DF91C3
:1027100008950F931F93E091B70EF091B80E80814A
:10272000882341F180E460E00E94B52F8EE190E0C3
:102730000E94586B0091B70E1091B80E84E00E9471
:102740002930F8019483838380E460E00E94962F0F
:10275000E091B70EF091B80E40E023813481818181
:1027600092818217930708F441E045838AE090E064
:102770000E94586BE091B70EF091B80E86818823C5
:1027800059F180E260E00E94B52F8EE190E00E9456
:10279000586B0091B70E1091B80E0A5F1F4F85E07D
:1027A0000E942930F8019483838380E260E00E94D4
:1027B000962FE091B70EF091B80E369640E0238147
:1027C0003481818192818217930708F441E0458327
:1027D0008AE090E00E94586BE091B70EF091B80E3D
:1027E0008485882359F180E160E00E94B52F8EE155
:1027F00090E00E94586B0091B70E1091B80E045FE4
:102800001F4F86E00E942930F8019483838380E182
:1028100060E00E94962FE091B70EF091B80E3C96C2
:1028200040E023813481818192818217930708F4EB
:1028300041E045838AE090E00E94586BE091B70E3A
:10284000F091B80E8289882359F188E060E00E94F7
:10285000B52F8EE190E00E94586B0091B70E109159
:10286000B80E0E5E1F4F87E00E942930F801948356
:10287000838388E060E00E94962FE091B70EF0918C
:10288000B80E729640E02381348181819281821753
:10289000930708F441E045838AE090E00E94586B7A
:1028A0001F910F9108954F925F926F927F928F9236
:1028B0009F92AF92BF92DF92EF92FF920F931F937E
:1028C000CF93DF937C010091B70E1091B80EDD24F9
:1028D000C0E0D0E03CE8432E30E0532E29EA622EDF
:1028E00020E0722E90EA892E90E0992E87E9A82E9A
:1028F00080E0B82ED8018C91882309F46CC000D0F8
:1029000000D000D0EDB7FEB73196ADB7BEB7129686
:10291000FC92EE921197538242822196D583C48312
:1029200021970E949977EDB7FEB736960FB6F894C7
:10293000FEBF0FBEEDBFD80111962D913C911297AD
:1029400013968D919C9114978217930748F400D0A9
:1029500000D0EDB7FEB7F282E182B482A3820CC050
:1029600000D000D0ADB7BEB71296FC92EE92119790
:1029700014969C928E9213970E9499770F900F90C5
:102980000F900F90EDB7FEB738970FB6F894FEBFD3
:102990000FBEEDBF3196ADB7BEB71296FC92EE9268
:1029A000119773826282D80111968D919C91129732
:1029B0009583848313968D919C9114979783868336
:1029C0000E949977D394EDB7FEB738960FB6F89476
:1029D000FEBF0FBEEDBF2196C430D10519F00A5FCE
:1029E0001F4F88CF8D2DDF91CF911F910F91FF90B9
:1029F000EF90DF90BF90AF909F908F907F906F90FF
:102A00005F904F90089588E190E00E94F9229093A2
:102A1000B80E8093B70E08950FB6F8940F9281E028
:102A200061E00E9411709093800F80937F0F0F9050
:102A30000FBE87EF87BB81ED88BB11BA8EE082B9EC
:102A40008CE083B9109261008FE180936400089557
:102A50001F9380E060E00E940C3080E060E00E9404
:102A6000F12F80E00E94293065E0969587956A9560
:102A7000E1F78093C30E8AE090E00E94586B81E0FA
:102A80000E9429309C0153E0880F991F5A95E1F765
:102A9000220F331F820F931F68E170E00E94687459
:102AA0006093BB0E8AE090E00E94586B0E948913ED
:102AB00011E0812F0E9463648AE090E00E94586BCD
:102AC0001F5F1032B1F7CDCF0E9403150E94396607
:102AD0000895FC0180A1833019F425E030E008C09E
:102AE00080E899E092A381A381E080A320E030E018
:102AF000C9010895FC018AE499E092A381A380A111
:102B0000833009F010A280E090E00895FC0180A1DC
:102B1000813019F025E030E008C086E19AE092A308
:102B200081A382E080A320E030E0C90108950E94E3
:102B3000C41080E090E00895CF93DF93EC01898D7D
:102B4000863018F422E030E02AC081E0BE010E9405
:102B50001F296093970E82E0BE010E941F29609397
:102B6000980E83E0BE010E941F296093990E84E0B5
:102B7000BE010E941F2960939A0E85E0BE010E944B
:102B80001F2960939B0E86E0BE010E941F2960935F
:102B90009C0E87E99EE00E94D53020E030E0C9011C
:102BA000DF91CF910895CF93DF93EC01898D84302D
:102BB00018F422E030E012C081E0BE010E94322908
:102BC00082E0BE010E94322983E0BE010E943229C8
:102BD00084E0BE010E94322920E030E0C901DF918B
:102BE000CF9108956F927F928F929F92AF92BF92F2
:102BF000CF92DF92EF92FF920F931F93CF93DF93C9
:102C0000EC01898D853018F422E030E058C081E075
:102C1000BE010E9432293B014C0182E0BE010E94AC
:102C200032297B018C0183E0BE010E9432295B01C5
:102C30006C0184E0BE010E943229E091B90EF0914E
:102C4000BA0E102F0F2DFE2CEE246501BB24AA24F2
:102C5000EA0CFB1C0C1D1D1DE60CF71C081D191DA4
:102C6000962F882777276627E60EF71E081F191F5D
:102C7000E682F7820087118785E0BE010E94322933
:102C8000DC01CB010091B90E1091BA0E0E94A43460
:102C9000F80195838483898D863078F086E0BE01C3
:102CA0000E943229DC01CB010091B90E1091BA0EBD
:102CB0000E94A434F8019383828320E030E0C901AC
:102CC000DF91CF911F910F91FF90EF90DF90CF9008
:102CD000BF90AF909F908F907F906F9008956F926C
:102CE0007F928F929F92AF92BF92CF92DF92EF929C
:102CF000FF920F931F93CF93DF93EC01898D843064
:102D000018F422E030E033C081E0BE010E94322995
:102D10003B014C0182E0BE010E9432297B018C0103
:102D200083E0BE010E9432295B016C0184E0BE0198
:102D30000E943229102F0F2DFE2CEE246501BB249A
:102D4000AA24EA0CFB1C0C1D1D1DE60CF71C081D1B
:102D5000191D962F882777276627E60EF71E081F6E
:102D6000191FC801B7010E94D33820E030E0C90123
:102D7000DF91CF911F910F91FF90EF90DF90CF9057
:102D8000BF90AF909F908F907F906F900895FC01BF
:102D9000818D882319F422E030E017C081E0BF0163
:102DA0000E94322920E230E0261B370B6FEF7FEFC5
:102DB0008FEF9FEF04C096958795779567952A9535
:102DC000D2F70E94CA3820E030E0C90108956F921E
:102DD0007F928F929F92AF92BF92CF92DF92EF92AB
:102DE000FF920F931F93CF93DF93EC01898D843073
:102DF00018F422E030E033C081E0BE010E943229A5
:102E00003B014C0182E0BE010E9432297B018C0112
:102E100083E0BE010E9432295B016C0184E0BE01A7
:102E20000E943229102F0F2DFE2CEE246501BB24A9
:102E3000AA24EA0CFB1C0C1D1D1DE60CF71C081D2A
:102E4000191D962F882777276627E60EF71E081F7D
:102E5000191FC801B7010E94C13820E030E0C90144
:102E6000DF91CF911F910F91FF90EF90DF90CF9066
:102E7000BF90AF909F908F907F906F900895FF923A
:102E80000F931F938C0181E0B8010E943229F62E26
:102E9000862F0E9429302DB73EB7285030400FB6FC
:102EA000F8943EBF0FBE2DBFEDB7FEB73196D801E7
:102EB0005A962D913C915B97ADB7BEB712963C9355
:102EC0002E93119724E63AE033832283F48215820D
:102ED000978386830E9499772DB73EB7285F3F4F2F
:102EE0000FB6F8943EBF0FBE2DBF80E090E01F915B
:102EF0000F91FF900895CF93DF93EC018C8D882381
:102F000071F1E82FF0E0EE0FFF1FEE5CF64F259118
:102F100034918DB79EB708970FB6F8949EBF0FBE39
:102F20008DBFEDB7FEB731968A8D9B8DADB7BEB71D
:102F300012969C938E931197338322838D8D9E8D51
:102F4000958384838F8D868317820E9499778DB7AE
:102F50009EB708960FB6F8949EBF0FBE8DBF1C8E0D
:102F60001E8E1D8E1F8EDF91CF910895EF92FF92DE
:102F70000F931F938C0181E0B8010E943229F62E35
:102F800082E0B8010E943229E62E83E0B8010E9457
:102F90003229162F0E94AA2E8F2D6AE00E945C749F
:102FA000282F2370AEECBEE02295207F9091CE0EAC
:102FB0009F7C922B9093CE0E46EF5FEF849F802DE7
:102FC00011248F0D8F709091CE0E907F982B90933F
:102FD000CE0E8E2D0E945C74282F2770FD01229545
:102FE000207F92919F78922B9083849F802D112433
:102FF0008E0D8F709081907F982B9083812F0E94EF
:103000005C74282F277012972295207F9C919F78BF
:10301000922B9C93849F802D1124810F8F709C9103
:10302000907F982B9C93CD010E94DD2E80E090E054
:103030001F910F91FF90EF900895FC01818D8823DF
:1030400019F422E030E009C081E0BF010E9432297A
:10305000862F0E94753020E030E0C90108951F934B
:10306000BC0181E00E943229162F80E060E00E94BE
:10307000F12F812F60E00E947B2F80E090E01F9174
:1030800008951F93BC0181E00E943229162F80E031
:1030900060E00E940C30812F60E00E94D32F80E01E
:1030A00090E01F910895FF920F931F93CF93DF93AA
:1030B000EC0181E0BE010E943229F62E82E0BE01C1
:1030C0000E943229162F117083E0BE010E9432291E
:1030D000062F2DB73EB7285030400FB6F8943EBFAC
:1030E0000FBE2DBFEDB7FEB731968A8D9B8DADB764
:1030F000BEB712969C938E93119782ED93E09383C3
:103100008283F4821582812F90E0019697838683D3
:103110000E949977802F81502DB73EB7285F3F4F8F
:103120000FB6F8943EBF0FBE2DBF8436F8F400D022
:1031300000D000D0EDB7FEB731968A8D9B8DADB72C
:10314000BEB712969C938E93119785E094E093837B
:103150008283048315820E9499772DB73EB72A5F38
:103160003F4F0FB6F8943EBF0FBE2DBF8F2D612F7E
:10317000402F0E94185E882319F023E030E002C03F
:1031800021E030E0C901DF91CF911F910F91FF90B5
:103190000895FF920F931F93CF93DF93EC01898DD6
:1031A000823018F422E030E06FC081E0BE010E945E
:1031B0003229F62E2FE3F22282E0BE010E9432294C
:1031C000062F0170898D833010F41FEF05C083E056
:1031D000BE010E943229162F8DB79EB708970FB6F1
:1031E000F8949EBF0FBE8DBFEDB7FEB731968A8DA6
:1031F0009B8DADB7BEB712969C938E9311978FE9B6
:1032000093E093838283F4821582802F90E001966D
:10321000978386830E949977812F81502DB73EB77F
:10322000285F3F4F0FB6F8943EBF0FBE2DBF8436C8
:10323000F8F400D000D000D0EDB7FEB731968A8DFB
:103240009B8DADB7BEB712969C938E93119785E078
:1032500094E093838283148315820E9499772DB71B
:103260003EB72A5F3F4F0FB6F8943EBF0FBE2DBF4B
:103270008F2D602F412F0E94545D882319F023E089
:1032800030E002C021E030E0C901DF91CF911F9111
:103290000F91FF9008950F931F93CF93DF93EC014D
:1032A00000D000D08A8D9B8DADB7BEB712969C938F
:1032B0008E93119782E893E014969C938E931397C4
:1032C0000E9499770F900F900F900F9081E0BE01B0
:1032D0000E94752861E87FE00E94BD27882319F4C9
:1032E00020E030E024C00A8D1B8D81E0BE010E94E9
:1032F000752800D000D000D0EDB7FEB73196ADB73D
:10330000BEB712961C930E93119722E831E03383D7
:103310002283958384830E94997724E030E0EDB77F
:10332000FEB736960FB6F894FEBF0FBEEDBFC901CB
:10333000DF91CF911F910F910895EF92FF920F931C
:103340001F93DF93CF930F92CDB7DEB77C0181E05F
:10335000B7010E94752861E87FE00E94BD2788239D
:1033600041F1D7015A960D911C915B9781E0B7010D
:103370000E94752800D000D000D0EDB7FEB731967E
:10338000ADB7BEB712961C930E93119722E831E0A9
:1033900033832283958384830E94997724E030E0ED
:1033A000EDB7FEB736960FB6F894FEBF0FBEEDBF71
:1033B0003BC081E89FE00E946724198200D000D0C2
:1033C000D7015A968D919C915B97EDB7FEB792838A
:1033D000818388E493E0948383830E9499770F909C
:1033E0000F900F900F907E010894E11CF11C8091CA
:1033F000C40E9091C50EB7014FEF5FEF20E00E9421
:103400004D6E8823A1F38981833041F00E9485119C
:1034100081E89FE069810E943325E9CF81E89FE040
:103420000E94BE2520E030E0C9010F90CF91DF91CE
:103430001F910F91FF90EF900895CF93DF93EC01D0
:1034400081E0BE010E9475280E949527882319F407
:1034500021E030E005C0CE010E947B1724E030E07F
:10346000C901DF91CF910895CF93DF93EC01898D4E
:10347000813019F022E030E010C081E0BE010E94EE
:1034800075280E94F427882319F421E030E005C054
:10349000CE010E947B1724E030E0C901DF91CF917B
:1034A00008951F93CF93DF93EC01898D882319F43E
:1034B00022E030E017C081E0BE010E943229162FC1
:1034C000862F0E94A1628F8F882319F421E030E0BB
:1034D00009C089E08C8F1D8F1E8ECE010E947B1744
:1034E00020E030E0C901DF91CF911F910895FF9254
:1034F0000F931F93CF93DF93EC01898D823019F0E6
:1035000022E030E04EC081E0BE010E943229F62E5A
:1035100082E0BE010E9475288C018F2D0E94A1625D
:10352000882331F089E08C8FCE010E947B1737C051
:10353000C80161E87FE00E94BD274A8D5B8D88232A
:10354000F9F000D000D000D0EDB7FEB73196ADB79E
:10355000BEB712965C934E93119782E891E09383E5
:103560008283158304830E94997724E030E08DB72D
:103570009EB706960FB6F8949EBF0FBE8DBF11C0C2
:1035800081E89FE06F2D0E944D5F182F81E89FE03A
:103590000E94BE25112319F420E030E002C024E08F
:1035A00030E0C901DF91CF911F910F91FF900895F5
:1035B0002F923F924F925F926F927F928F929F9243
:1035C000AF92BF92CF92DF92EF92FF920F931F9331
:1035D000DF93CF9300D000D000D0CDB7DEB77C0111
:1035E00000D000D0DC015A968D919C915B97EDB78D
:1035F000FEB79283818387E89AE0948383830E9455
:1036000099770F900F900F900F9081E0B7010E9473
:10361000752861E87FE00E94BD27882341F1D7012A
:103620005A960D911C915B9781E0B7010E94752815
:1036300000D000D000D0EDB7FEB73196ADB7BEB721
:1036400012961C930E93119722E831E03383228364
:10365000958384830E94997724E030E0EDB7FEB72C
:1036600036960FB6F894FEBF0FBEEDBF7BC1D701F3
:103670005E961C921E925D975F961C9204E1B2E0EA
:10368000CB2ED12CCC0EDD1EF701628D738D83E421
:1036900090E00E94B77780919B0086FFFCCF8091DD
:1036A000C40E9091C50EB60144E650E020E00E94A1
:1036B0004D6E882319F08A81813061F0015021F725
:1036C00081E89FE00E94BE25D7015C961C9224E011
:1036D00030E048C181E89FE061E070E00E94012491
:1036E0006C015C01AAE09A2E11E0F3E08F2EE5E078
:1036F0002E2E312C2C0E3D1E76E0472E512C4C0EDA
:103700005D1E3E010894611C711C8091C40E909155
:10371000C50EBE016D5F7F4F44E650E020E00E9481
:103720004D6E882309F4DDC08091C40E9091C50EC2
:10373000BE016C5F7F4F41E050E020E00E944D6E83
:10374000882319F483E0D701BDC09C81892F80951F
:103750008A830B81081739F085E0F701848F058F84
:10376000168E978FF9C0812F81508A83081711F028
:10377000012F08C081E89FE0602F70E00E940124C3
:103780006C015C011B81101779F084E0D7015C9615
:103790008C935C978C815D968C935D975E961C9262
:1037A0005E975F960C93D8C000E08091C40E909114
:1037B000C50EBE016E5F7F4F4AE050E020E00E94E0
:1037C0004D6E882341F08A81F60181936F010F5F6E
:1037D000003859F703C0D7015C968C928091C40ED3
:1037E0009091C50EB1014AE050E020E00E944D6E7C
:1037F000882341F486E0F701848F82E090E0968F81
:10380000858FAAC08091C40E9091C50EB2014AE086
:1038100050E020E00E944D6E882361F486E0D701DD
:103820005C968C935C9781E090E05E969C938E937F
:103830005D9792C090E040E050E0F50181915F011A
:103840005827052E0294802D8F708527252F20253F
:10385000220F207E8227202D2527207F2695052ECA
:10386000000C221F5695569556955F715227542786
:10387000482F9F5F903809F78D8190E0252F3327DF
:103880008217930761F48E8190E05070841795073A
:1038900031F486E00E9485114AE0942E16C09A9475
:1038A000115085E10E948511992079F48B81D7010F
:1038B0005D968C935D975E961C925E975F961C93C7
:1038C0005F9784E05C968C9347C08091C40E909182
:1038D000C50EB30144E650E020E00E944D6E8823FF
:1038E00019F482E0F70116C09981913069F41F5FE5
:1038F00081E89FE0612F70E00E9401246C01D701F4
:103900005C961C925C0101CF983131F4F701158F60
:10391000168E87E0848F20C09430C9F485E10E9420
:1039200085118091C40E9091C50EB3014AE050E01C
:1039300020E00E944D6E882331F08981843019F493
:1039400086E00E948511D7015C961C9205C088E034
:10395000F701848F958F168E81E89FE00E94BE2527
:1039600020E030E0C90126960FB6F894DEBF0FBE06
:10397000CDBFCF91DF911F910F91FF90EF90DF901E
:10398000CF90BF90AF909F908F907F906F905F90FF
:103990004F903F902F900895FF920F931F93CF93D6
:1039A000DF93EC01898D823008F4D2C082E0BE0141
:1039B0000E943229F62E81E0BE010E9475288C01FA
:1039C000FF2009F05BC06BEC7AE043E050E00E941E
:1039D000C176892B31F480E090E060E00E94EF3CFA
:1039E0002CC0C80168EC7AE042E050E00E94C17649
:1039F000892B31F480E090E060E00E9493381DC094
:103A0000C80163EC7AE042E050E00E94C176892B65
:103A100031F480E090E060E00E94643B0EC0C80199
:103A20006FEB7AE042E050E00E94C176892BB1F45E
:103A300080E090E060E00E94424100D000D000D0E1
:103A4000EDB7FEB731968A8D9B8DADB7BEB7129696
:103A50009C938E93119788E294E05AC0C8016BEB57
:103A60007AE042E050E00E94C176892B09F070C0F4
:103A700080E090E060E00E940444DFCF67EB7AE0F2
:103A800043E050E00E94C176892B31F48A8D9B8DF2
:103A90006F2D0E94EF3C2CC0C80164EB7AE042E03D
:103AA00050E00E94C176892B31F48A8D9B8D6F2D59
:103AB0000E9493381DC0C8016FEA7AE042E050E0EE
:103AC0000E94C176892B31F48A8D9B8D6F2D0E94C7
:103AD000643B0EC0C8016BEA7AE042E050E00E940D
:103AE000C176892B31F58A8D9B8D6F2D0E944241C5
:103AF00000D000D000D0EDB7FEB731968A8D9B8DF7
:103B0000ADB7BEB712969C938E93119785E194E062
:103B100093838283158304830E94997720E030E0A9
:103B20008DB79EB706960FB6F8949EBF0FBE8DBF99
:103B300011C0C80167EA7AE042E050E00E94C17615
:103B4000892B31F48A8D9B8D6F2D0E940444D0CF38
:103B500022E030E0C901DF91CF911F910F91FF90DA
:103B60000895FC01828D938D0E94223180E090E0C7
:103B70000895CF92DF92EF92FF920F931F93DF93FE
:103B8000CF930F92CDB7DEB78C0180E2898381E0BD
:103B9000B8010E94752861E87FE00E94BD27D80126
:103BA0005A96ED90FC905B97882319F181E0B8015B
:103BB0000E94752800D000D000D0EDB7FEB7319636
:103BC000ADB7BEB71296FC92EE92119722E831E0A3
:103BD00033832283958384830E94997724E030E0A5
:103BE000EDB7FEB736960FB6F894FEBF0FBEEDBF29
:103BF00058C02091850F3091860F00D000D000D0A2
:103C0000ADB7BEB71196EDB7FEB7F282E18280E79D
:103C100093E013969C938E931297F901928180E022
:103C20002181820F911D15969C938E9314970E946B
:103C300099778DB79EB706960FB6F8949EBF0FBEC4
:103C40008DBF6E010894C11CD11C81E89FE0B601B4
:103C50000E94E124F82E89810E94851189818D308E
:103C600019F48AE00E948511FF2079F300D000D07A
:103C7000D8015A968D919C915B97EDB7FEB79283D0
:103C8000818385E099E0948383830E9499770F90E4
:103C90000F900F900F9081E89FE00E94BE2520E0DA
:103CA00030E0C9010F90CF91DF911F910F91FF90EC
:103CB000EF90DF90CF900895FC01828D938D0E944C
:103CC000152380E090E008950F931F93CF93DF9327
:103CD0008C018CEC9EE00E94052F2091CE0E229547
:103CE0002F704091CE0E4F707091CD0E72957F70F7
:103CF0005091CD0E5F70A091CC0EA295AF706091E7
:103D0000CC0E6F708DB79EB70A970FB6F8949EBF12
:103D10000FBE8DBFEDB7FEB73196E8018A8D9B8D42
:103D2000CDB7DEB79A8389838FEC9AE09383828341
:103D3000822F837090E09C0113E0220F331F1A95AD
:103D4000E1F7880F991F280F391F420F448315820E
:103D5000872F877090E09C0173E0220F331F7A95C4
:103D6000E1F7880F991F280F391F520F56831782CA
:103D70008A2F877090E09C0103E0220F331F0A9581
:103D8000E1F7880F991F280F391F620F608711868E
:103D90000E9499778DB79EB70A960FB6F8949EBF8A
:103DA0000FBE8DBF80E090E0DF91CF911F910F910A
:103DB00008950E949C2880E090E00895CF93DF93BF
:103DC000EC0100D000D0ADB7BEB712969C938E9395
:103DD000119784EF9AE014969C938E9313970E9408
:103DE0009977EDB7FEB7D283C18387E991E09483D9
:103DF00083830E9499770F900F900F900F900E94ED
:103E00007C6600D000D000D0EDB7FEB73196ADB7DC
:103E1000BEB71296DC93CE93119727EA31E0338335
:103E20002283848315820E949977EDB7FEB7369678
:103E30000FB6F894FEBF0FBEEDBF0E94D0722DB733
:103E40003EB7285030400FB6F8943EBF0FBE2DBF8E
:103E5000EDB7FEB73196ADB7BEB71296DC93CE93F1
:103E6000119720EC31E033832283958384838CE1A6
:103E70009CE0978386830E949977EDB7FEB73896CA
:103E80000FB6F894FEBF0FBEEDBF0E94EB222DB718
:103E90003EB7285030400FB6F8943EBF0FBE2DBF3E
:103EA000EDB7FEB73196ADB7BEB71296DC93CE93A1
:103EB00011972AEE31E0338322839583848380E057
:103EC00097E1978386830E9499772091BB0E0F908C
:103ED0000F90EDB7FEB73196ADB7BEB71296DC9333
:103EE000CE93119781E492E0938382832483158299
:103EF0000E9499772091C30EEDB7FEB73196ADB70A
:103F0000BEB71296DC93CE9311978CE592E0938323
:103F10008283248315820E949977EDB7FEB7369687
:103F20000FB6F894FEBF0FBEEDBF0E9407232DB75A
:103F30003EB7285030400FB6F8943EBF0FBE2DBF9D
:103F4000EDB7FEB73196ADB7BEB71296DC93CE9300
:103F5000119724E132E0338322838483158280E841
:103F600090E0978386830E9499770F900F900F902F
:103F70000F90EDB7FEB7D283C18387E792E09483B9
:103F800083830E949977ADB7BEB71296DC93CE9328
:103F900011978AE892E014969C938E9313970E944F
:103FA00099770F900F900F900F90CE0167E97EE008
:103FB0000E949F3700D000D0EDB7FEB7D283C183F7
:103FC00081EF9AE0948383830E949977ADB7BEB75F
:103FD0001296DC93CE9311978FE992E014969C93FE
:103FE0008E9313970E9499770F900F900F900F90D8
:103FF0000E94DC38FC014081518162817381CE01D5
:104000000E943D3600D000D0EDB7FEB7D283C18309
:104010008EEE9AE0948383830E949977ADB7BEB702
:104020001296DC93CE93119784EB92E014969C93B6
:104030008E9313970E9499770F900F900F900F9087
:104040000E94DC38FC014481558166817781CE0174
:104050000E943D3600D000D0ADB7BEB71296DC93BB
:10406000CE9311978BEE9AE014969C938E931397B0
:104070000E949977EDB7FEB7D283C18389EC92E0B5
:10408000948383830E9499770F900F900F900F90E5
:104090000E94DC38DC0118964D915D916D917C9108
:1040A0001B97CE010E943D3600D000D0EDB7FEB781
:1040B000D283C18388EE9AE0948383830E949977A8
:1040C000ADB7BEB71296DC93CE9311978EED92E00A
:1040D00014969C938E9313970E9499770F900F904C
:1040E0000F900F90CE010E94DC5E882381F400D0F7
:1040F00000D0EDB7FEB7D283C18389EF92E09483FD
:1041000083830E9499770F900F900F900F9000D0AB
:1041100000D0ADB7BEB71296DC93CE93119783E172
:1041200093E014969C938E9313970E9499770F9027
:104130000F900F900F90CE010E945314882381F4AA
:1041400000D000D0EDB7FEB7D283C1838CE293E0FC
:10415000948383830E9499770F900F900F900F9014
:10416000CE010E940B44DF91CF910895EF92FF9210
:104170000F931F93DF93CF93CDB7DEB72E970FB674
:10418000F894DEBF0FBECDBF7C01DC0159968C9147
:104190005997882339F45A968D919C915B970E9488
:1041A000DE1E3BC081E0B7010E94752861E87FE018
:1041B0008E010F5F1F4FA80123E00E94D52788239F
:1041C00031F1F701028D138D81E0B7010E9475284E
:1041D00000D000D000D0EDB7FEB73196ADB7BEB776
:1041E00012961C930E93119722E831E033832283B9
:1041F000958384830E94997724E030E0EDB7FEB781
:1042000036960FB6F894FEBF0FBEEDBF08C0C801CA
:104210000E94DE1EC8010E94CE2520E030E0C901C8
:104220002E960FB6F894DEBF0FBECDBFCF91DF91B3
:104230001F910F91FF90EF900895EF920F931F93AE
:104240009B0160E078E240E051E00AE419E0EE24EE
:104250000E94A92A1F910F91EF9008952F923F92EB
:104260004F925F926F927F928F929F92AF92BF9286
:10427000CF92DF92FF920F931F93CF93DF93EC01C6
:104280000E9473340E94323B0E9468400E945D3B52
:10429000CE010E948F46CE010E94634D00D000D017
:1042A000ADB7BEB71296DC93CE93119789E89BE029
:1042B00014969C938E9313970E9499770F900F906A
:1042C0000F900F90CE0164E070E00E9491590E941F
:1042D0008E460E94A34ECC24DD2441E6242E4BE0E2
:1042E000342E3BE5432E3BE0532E28E5622E2BE097
:1042F000722E96E2892E9BE0992E87E4A82E8BE001
:10430000B82E80E090E00E94586B0E942432909377
:10431000C90E8093C80E009729F40E941E460E9481
:104320004941EFCF0894C11CD11CEDB7FEB73897B7
:104330000FB6F894FEBF0FBEEDBF3196ADB7BEB756
:104340001296DC93CE93119724E63BE033832283CD
:1043500095838483D782C6820E949977FF248DB784
:104360009EB708960FB6F8949EBF0FBE8DBF3BC098
:10437000FF20B9F0C8018F709070892B91F400D0A4
:1043800000D0ADB7BEB71296DC93CE9311971496BA
:104390003C922E9213970E9499770F900F900F9056
:1043A0000F9000D000D000D0EDB7FEB73196ADB77A
:1043B000BEB71296DC93CE93119753824282A0919E
:1043C0009D0EB0919E0EA00FB11F8C91848315821B
:1043D0000E949977F394EDB7FEB736960FB6F8942E
:1043E000FEBF0FBEEDBF0F2D10E08091C80E909163
:1043F000C90E0817190708F4BBCF00D000D0ADB71D
:10440000BEB71296DC93CE93119714967C926E925F
:1044100013970E949977E0919D0EF0919E0E04856E
:1044200015850F900F900F900F9080E098E00E94FC
:10443000A4340817190729F40E941D3E0E94463A29
:1044400030C0E0919D0EF0919E0E0485158586E0AA
:1044500098E00E94A4340817190719F40E947440C8
:1044600020C0E0919D0EF0919E0E048515858DED86
:1044700096E80E94A4340817190719F40E94864B85
:1044800010C0209771F000D000D0EDB7FEB7D283F6
:10449000C183B482A3820E9499770F900F900F90EE
:1044A0000F9000D000D0ADB7BEB71296DC93CE937C
:1044B000119714969C928E9213970E9499770F9061
:1044C0000F900F900F901DCFCF93DF93EC018A8D4B
:1044D0009B8D0E944677BE010E94162BCE010E9442
:1044E0006D29F5CFEF92FF920F931F93DF93CF9338
:1044F0000F92CDB7DEB78C0100D000D0FC01828DC9
:10450000938DEDB7FEB7928381838BE99BE0948313
:1045100083830E9499770F900F900F900F908DE0FA
:10452000B8010E94162B7E010894E11CF11C8091B9
:10453000C40E9091C50EB7014FEF5FEF20E00E94CF
:104540004D6E8823A1F38981B8010E94162BC80102
:104550000E946D29ECCF6A9A08956A9808956B9A23
:1045600008956B98089580E0089580E00895809103
:10457000D70E9091D80E60E070E040E050E020E06F
:104580000E94196F08958091D70E9091D80E60E027
:1045900070E04FEF5FEF20E00E944D6E0895FC0148
:1045A00009950FB6F8940F9281E060E00E941170B7
:1045B0009093D80E8093D70E009739F060E070E0AA
:1045C00040E050E020E00E94196F80ED8DB9709AB4
:1045D0000F900FBE089520918601309187012F5FC3
:1045E0003F4F8091020190910301281B390BC901B3
:1045F00008950F931F938C010E947C74080F191F5C
:1046000010930301009302011F910F910895E1E6B9
:10461000FFE090E08081882309F49F5F31978EE06E
:10462000E23EF807B9F7892F08952F923F924F92F3
:104630005F927F928F929F92AF92BF92CF92DF92C2
:10464000EF92FF920F931F93CF93DF934C0184E07F
:1046500091E0B4010E94E37777242DE1222E21E03E
:10466000322EE72CFF2420E830E0E20EF31EDE2D90
:10467000CC2780E89FEFE80EF91E80EF482E512CE2
:104680004C0E5D1E1C81112309F44BC0812F90E05C
:10469000B4010E94B7776E0101E0112359F0D601F1
:1046A00015961C91112331F0812F90E0B4010E94E6
:1046B000B77706C080E290E0B4010E94B77710E0BF
:1046C0000F5F0894C11CD11C083039F7EDB7FEB755
:1046D00038970FB6F894FEBF0FBEEDBF3196ADB759
:1046E000BEB712969C928E92119733822282BA8024
:1046F000AA2489819501280F311D358324838B815C
:10470000868317820E9488778DB79EB708960FB66A
:10471000F8949EBF0FBE8DBFC415D50511F06096ED
:10472000B1CFA2EEBEE0EA0EFB1EF7018081871535
:1047300011F0782E96CFDF91CF911F910F91FF90BE
:10474000EF90DF90CF90BF90AF909F908F907F9031
:104750005F904F903F902F90089521E0422F50E0BE
:10476000FA01EE51F14F8081882369F42083E0E063
:10477000F22FF05880E091E0DF01AC011D92415032
:104780005040E1F704C02F5F203841F720E0822F2E
:104790000895A82FB0E0FD01EE51F14F20812817B8
:1047A000F9F421E0E22FF0E0EE51F14F808188230F
:1047B00019F02F5F2038B1F7AE51B14F2C93822FF3
:1047C00090E0FC01EE51F14F2083E0E0F22FF05831
:1047D00080E091E0DF01AC011D9241505040E1F7D3
:1047E000822F08950F931F93062F10E005C00E949B
:1047F000C923882319F01F5F1017C8F31F910F9169
:104800000895CF92DF92EF92FF921F93CF93DF93A1
:104810007C016B016115710509F44EC0DC01149631
:10482000CD91DC9115978881882319F40E94AD23DE
:104830008883D7011496ED91FC9115978081882388
:10484000D9F10894C108D108E601D695C7951C2F67
:104850006C2F0E94F223982F882371F1D7011496B0
:10486000ED91FC911597C0FE0FC08281C81738F0FA
:104870001F5F12831496ED91FC9115971182392FC9
:1048800020E020583F471AC082818C1738F4C28339
:10489000D7011496ED91FC91159705C08C1729F45A
:1048A000818187FD02C080E88183892F90E0805854
:1048B0009F4F382F222702C020E030E0C901DF914E
:1048C000CF911F91FF90EF90DF90CF900895CF93FD
:1048D000DF93EC01009711F481E017C0EC81FD81BA
:1048E00091819A8382818B83992371F08081628187
:1048F0000E94F22390E080589F4F982F88272A81AA
:10490000820F911D9983888380E0DF91CF91089574
:10491000EF92FF920F931F93CF93DF93EC016115FA
:10492000710519F41A821B8244C08B01015010409A
:10493000EC80FD80F7018081882321F40E94AD2363
:10494000F70180830A831B83EC81FD818081612FC5
:104950000E94F223382F882311F481E02BC0EC81D0
:10496000FD8192818B81981729F49A818181891721
:1049700008F49183EC81FD8192818B81981730F44A
:104980008A818183EC81FD818B8182832A812F5FE3
:104990002A83222321F48B818F5F8B830AC0832F8C
:1049A00090E080589F4F982F8827820F911D998300
:1049B000888380E0DF91CF911F910F91FF90EF905E
:1049C00008950F931F93CF93DF93EC018B01EC813C
:1049D000FD8182816B81681730F0861721F5918106
:1049E0008A81981700F18A81882341F480810E948E
:1049F000F22390E080589F4F18828983E881F981E3
:104A00008081F80180838A818F5F8A83882321F4E3
:104A10008B818F5F8B8305C08881998101969983F3
:104A2000888380E001C081E0DF91CF911F910F91D9
:104A30000895DF93CF930F92CDB7DEB7FC01848545
:104A40009585BE016F5F7F4F0E94E124882319F096
:104A50002FEF3FEF03C08981282F30E0C9010F906D
:104A6000CF91DF9108951F93CF93DF93EC01162F21
:104A7000EC81FD818081882349F40E94AD23882345
:104A800011F481E03EC0EC81FD8180838A8188231E
:104A900079F4EC81FD8180816B810E94F22388236F
:104AA00011F482E02EC090E080589F4F18828983D5
:104AB000E881F98110838A818F5F8A83882321F4BA
:104AC0008B818F5F8B8305C0888199810196998343
:104AD0008883EC81FD8192818B81981729F49A81DA
:104AE0008181891708F49183EC81FD8192818B810A
:104AF000981730F48A818183EC81FD818B818283D8
:104B000080E0DF91CF911F910895282FFB018485CC
:104B10009585622F0E94332590E00895CF93DF930F
:104B20009C010EC0A82FB0E0FD01EE51F14FE081D5
:104B3000E81711F4188201C0E883AE51B14F1C92FE
:104B4000D9011496CD91DC9115978881882351F76E
:104B500019821496ED91FC91159712821496ED919D
:104B6000FC9115971486158616861786F901108212
:104B7000118212821382DF91CF910895DC01149685
:104B8000ED91FC9115978381882339F081508383BF
:104B900086E0FD0111928A95E9F70895EF92FF9260
:104BA0000F931F938C01DC011C96ED90FC901D97D8
:104BB000C7010E94BE25C8010E941B77D701149629
:104BC000ED91FC91159783811F910F91FF90EF90CC
:104BD000089580E8E2EEFEE0DF011D928A95E9F794
:104BE00080E091E0E0E0F0E8DF019C011D922150BF
:104BF0003040E1F708959F92AF92BF92CF92DF923B
:104C0000EF92FF920F931F93CF93DF93EC015B0121
:104C10006A01EC81FD818081882329F4FA011182E7
:104C2000108281E077C022813B81321740F0231748
:104C300009F07CC091818A81981708F477C0822F8F
:104C400090E0831B91092181422F50E02A81421B71
:104C50005109480F591FF601E080F1804E155F059C
:104C600008F47A01F601118210828A8100E011E0D5
:104C7000081B1109992449C08A818823B1F499201D
:104C800039F4EC81FD8180816B810E94F22303C0A5
:104C9000892D0E94C923982E882311F483E03AC0FD
:104CA00090E080589F4F18828983688179810E1522
:104CB0001F05B0F4C501A8010E94DC76A00EB11E4C
:104CC0001A828B818F5F8B83E01AF10AF601808153
:104CD0009181800F911F9183808300E011E015C0C6
:104CE000C501A7010E94DC76888199818E0D9F1DE8
:104CF000998388838A818E0D8A83F60180819181D0
:104D00008E0D9F1D9183808304C0E114F10409F08E
:104D1000B3CF80E0DF91CF911F910F91FF90EF9083
:104D2000DF90CF90BF90AF909F900895F6011182D1
:104D3000108282E0EFCF8F929F92BF92CF92DF924C
:104D4000EF92FF920F931F93CF93DF93EC016B01D0
:104D50004A010C811D81F8018081882321F40E9481
:104D6000AD23F80180838A8100E011E0081B11095E
:104D7000F401E080F18011821082BB244EC08A8150
:104D80008823B1F4BB2039F4EC81FD8180816B81F3
:104D90000E94F22303C08B2D0E94C923B82E8823C2
:104DA00011F481E056C090E080589F4F18828983AB
:104DB000888199810E151F05B0F4B601A8010E94E3
:104DC000DC76C00ED11E1A82E01AF10AF40180814D
:104DD0009181800F911F918380838B818F5F8B8363
:104DE00000E011E01AC0B601A7010E94DC768A81BA
:104DF0008E0D8A83F401808191818E0D9F1D918398
:104E000080838B2D90E080589F4F982F88272A8190
:104E1000820F911D9983888304C0E114F10409F085
:104E2000AECFEC81FD8192818B81981729F49A8114
:104E30008181891708F49183EC81FD8192818B81B6
:104E4000981730F48A818183EC81FD818B81828384
:104E500080E0DF91CF911F910F91FF90EF90DF9055
:104E6000CF90BF909F908F900895AF92BF92CF92B6
:104E7000DF92EF92FF920F931F93CF93DF936C011A
:104E8000FC0101900020E9F73197FE2EF81A88E026
:104E90008F1510F4A8E0FA2EF601EF0DF11D3197F1
:104EA0008081882309F4FA94F60191E007C081819A
:104EB0003196803211F4F92E05C09F5F9F15B8F32B
:104EC000FF2029F1EE240E2D10E000581F4FD02FA7
:104ED000CC2700581040E0EFAE2EB12CAC0EBD1E1A
:104EE000BE016C5F7F4FC6014F2D50E00E94FE76E1
:104EF000009779F0CA15DB0511F06096F1CF0E51DD
:104F0000114FF8018081E81611F0E82EDCCFC0E0E7
:104F1000D0E0CE01DF91CF911F910F91FF90EF90E4
:104F2000DF90CF90BF90AF900895CF93DF930E9412
:104F30003527EC01009711F481E01CC08B81882398
:104F400081F082E017C0A82FB0E0FD01EE51F14FD3
:104F5000E081E81711F4188201C0E883AE51B14F27
:104F60001C928881882379F780E1FE0111928A954D
:104F7000E9F780E0DF91CF910895CF93DF93EB01C4
:104F80000E943527FC01009711F481E00BC083E0FB
:104F9000DE011D928A95E9F7FD83EC8383818F5FA3
:104FA000838380E0DF91CF910895FF920F931F9349
:104FB000CF93DF938B01EA01F22E0E94BD27282FA9
:104FC000882359F485E895E29987888789E195E2F5
:104FD0009B878A87FB821D870C87822FDF91CF9169
:104FE0001F910F91FF900895FF920F931F93CF93FE
:104FF000DF93082FF92EA82FB92FFD010190002073
:10500000E9F731971E2F181B193008F018E0802F90
:105010009F2D9C01F90190E006C08191803211F42E
:10502000192F03C09F5F9117C0F3112309F43FC0EC
:10503000802F9F2D0E943527892BC9F590E0292FBD
:1050400030E020583F4FD22FCC2720583040AE01BF
:1050500040515F4F8C818823B9F0C417D50711F0F8
:105060006096F8CFE901CE51D14F8881981711F0A1
:10507000982FE5CF0E94AD2388838823D1F090E05C
:1050800080589F4FD82FCC27209799F08CE0FE01B5
:1050900011928A95E9F7CE010496602F7F2D412F5A
:1050A00050E00E940C771C861D861E861F8680E0BD
:1050B00001C081E0DF91CF911F910F91FF90089582
:1050C000DC011296ED91FC91139780E021E009C07C
:1050D000903211F020E004C0222309F48F5F21E018
:1050E000319690819923A1F70895582FFB012281D1
:1050F000338190E001C09F5FF901E90FF11D8081CC
:105100008032C9F340E012C09F5FF901E90FF11D41
:10511000E081EE2321F0E032B9F701C09F5FF90191
:10512000E90FF11D80818032C9F34F5F451768F3A5
:10513000290F311DC90108956F927F928F929F921E
:10514000BF92CF92DF92EF92FF920F931F93DF9364
:10515000CF9300D000D000D0CDB7DEB77C01FC01EA
:10516000C1A0D2A08E010F5F1F4FC801B60146E05B
:1051700050E00E94B8769CEC692E9BE0792E89EC79
:10518000882E8BE0982EB02E012F00D000D0F70192
:10519000828D938DEDB7FEB79283818389819A8149
:1051A000948383830E949977F701828D938DEDB765
:1051B000FEB792838183748263820E949977F7019C
:1051C000828D938DEDB7FEB7928381838B819C8115
:1051D000948383830E949977F701828D938DEDB735
:1051E000FEB792838183948283820E94997786E0BE
:1051F00090E0C80ED91E0F900F900F900F908B2D3E
:10520000902FB60146E050E00E94B8768D819E81D5
:10521000892B09F0BACF26960FB6F894DEBF0FBEE1
:10522000CDBFCF91DF911F910F91FF90EF90DF9055
:10523000CF90BF909F908F907F906F900895DF9355
:10524000CF9300D0CDB7DEB70E947528BE016F5F47
:105250007F4F40E150E00E9481750F900F90CF91F9
:10526000DF910895DF93CF9300D0CDB7DEB70E94D2
:105270007528BE016F5F7F4F4AE050E00E94817544
:105280000F900F90CF91DF9108950F931F93CF93BD
:10529000DF938C01FC0180A1813019F0823021F470
:1052A00006C0CCEADBE00FC0C5EADBE00CC0C3EB14
:1052B000DBE009C02196F9018491F801628D738DBC
:1052C00090E00E94B7779E01FE018491882391F7B8
:1052D000DF91CF911F910F910895CF93DF93EC0150
:1052E0008F89988D892B09F486C0CE010E94602891
:1052F000898FEF89F88DCE01099582309105D1F023
:105300008330910520F4019709F06CC008C0843007
:10531000910509F44AC0059709F064C051C000D056
:1053200000D08A8D9B8DEDB7FEB79283818382E199
:105330009CE050C000D000D08A8D9B8DEDB7FEB7A9
:10534000928381838EEF9BE0948383830E9499777D
:105350008A8D9B8DEDB7FEB7928381838B899C8963
:10536000948383830E9499778A8D9B8DEDB7FEB7D6
:10537000928381838CEF9BE0948383830E9499774F
:105380008A8D9B8DEDB7FEB7928381838D899E892F
:10539000948383830E9499778A8D9B8DEDB7FEB7A6
:1053A0009283818389EF9BE015C000D000D08A8D65
:1053B0009B8DEDB7FEB79283818386EE9BE00AC09A
:1053C00000D000D08A8D9B8DEDB7FEB7928381838C
:1053D0008EEC9BE0948383830E9499770F900F90CB
:1053E0000F900F90188E1F8A1C8A1B8A1E8A1D8A96
:1053F000CE010E944529DF91CF910895EF92FF924F
:105400001F93CF93DF93EC017B016A8D7B8D8DE041
:1054100090E00E94B777CE010E9445291D850BC000
:10542000F70181917F016A8D7B8D992787FD90958A
:105430000E94B7771150112399F71C858D85181B91
:1054400007C06A8D7B8D80E290E00E94B777115093
:105450001123B9F71C858D85181B07C06A8D7B8DBC
:1054600088E090E00E94B77711501123B9F7DF91DF
:10547000CF911F91FF90EF900895CF93DF93EB01B1
:105480008130F1F0813020F0823009F05FC03FC000
:105490001D861E86198AE881F9818081882309F496
:1054A00055C0EF85EF5FE370EF87F0E03296EE0FC7
:1054B000FF1FE60FF71F808191819983888346C083
:1054C0009889933009F442C08F858150891B83707D
:1054D000E82FF0E03296EE0FFF1FE60FF71F208156
:1054E0003181D9018C91882389F19F5F9370988BCA
:1054F000A081B181FD0101900020E9F73197EA1BFD
:10550000FB0BED87EE87198ACB01B9011DC0888995
:105510008823E1F08150888BEF85E81BE370F0E091
:105520003296EE0FFF1FE60FF71F80819181DC019D
:105530000D900020E9F71197A81BB90BAD87AE8736
:10554000198A60817181CE010E94FE29DF91CF917D
:1055500008958F929F92BF92CF92DF92EF92FF9227
:105560000F931F93CF93DF93EC01F62EB72E6A01B2
:10557000490183E2FE0111928A95E9F7862F972F60
:1055800060E070E00E94E576F882B982D694C79414
:10559000D694C794CC86E8A21AA309A3FE012F2DA6
:1055A0003B2DC9019C01AE01485F5F4F35832483C9
:1055B0008C85280F311D3296E417F507B9F79B8EBD
:1055C0008A8EDF91CF911F910F91FF90EF90DF9026
:1055D000CF90BF909F908F9008950F931F93CF937C
:1055E000DF93EC0188898823C9F00F85081B0370BD
:1055F0004C858881998160E070E050E00E94E576FA
:1056000010E00E5F1F4F000F111F0C0F1D1FF80140
:1056100060817181888199810E94F776188A81E082
:10562000898BDF91CF911F910F9108959F92AF9237
:10563000BF92CF92DF92EF92FF920F931F93DF936F
:10564000CF9300D000D000D0CDB7DEB7182F7B01AC
:10565000DB0152968C91823009F05DC0123471F0FA
:10566000133424F4113409F053C006C0133459F034
:10567000143409F04DC031C081E001C082E0B701AF
:105680000E943D2A45C0FB018189882319F4CB0182
:105690000E94ED2AD7011E969C911E971D968C9113
:1056A0001D975A966D917C915B97981768F59F5F4F
:1056B0001E969C938BE190E00E94B777F701628D74
:1056C000738D8BE590E00E94B777D7015A966D9164
:1056D0007C915B9783E490E019C0FB01818988236A
:1056E00019F4CB010E94ED2AD7011E968C911E97CA
:1056F0005A966D917C915B97882331F081501E966C
:105700008C9388E090E002C087E090E00E94B77739
:10571000F701128A1EC2813039F41B3511F482E080
:1057200015C2FB01128A03C0DB0152961C92F701DD
:1057300095858485981789F49150958791E009C0E3
:10574000D701ED91FC91E90FF11D808131978083A4
:105750009F5FF7018485981798F3812F80528F35CA
:1057600008F05BC0D70151968C91882319F4C701CA
:105770000E94ED2AF701958586858917E9F4628DE7
:10578000738D812F992787FD90950E94B777D70158
:105790001E968C911E97ED91FC911197E80FF11DCB
:1057A00010838F5F1E968C931E971D968C911D976C
:1057B0008F5F1D968C93CDC19F5FF701958706C0C3
:1057C000E90FF11D8291319680839150D7011E9689
:1057D0008C911E97ED91FC911197891788F3E80F32
:1057E000F11D10838F5F1E968C931E976D917C9197
:1057F000C7010E94FE29F70116850AC0D7015A96F3
:105800006D917C915B9788E090E00E94B7771F5F75
:10581000F7018585181790F39CC11D3009F025C14B
:10582000D70151968C915197882309F049C0509621
:105830002C915097222379F11F96EC911F97F0E05D
:10584000E21BF109E370F0703296EE0FFF1FEE0DD0
:10585000FF1D808191818D939C931BC0D7011F9662
:10586000EC91F0E0E21BF109DF01A370B070129639
:10587000AA0FBB1FAE0DBF1D3197E370F0703296BB
:10588000EE0FFF1FEE0DFF1D808191818D939C9384
:105890002F5F243018F3D7011F96EC911F97F0E08B
:1058A0003296EE0FFF1FEE0DFF1D8D919C9111970B
:1058B0009183808350961C92509781E051968C93EF
:1058C000F701628D738D8DE090E00E94B777D7016C
:1058D0005A966D917C915B978AE090E00E94B77731
:1058E000F70185850190F081E02DE80FF11D108210
:1058F0008F5FD7011D968C931D971E968C911E97D6
:105900008F5F1E968C931E978D919C911197139685
:105910009C938E931297BB2401C0B394FC01EB0DB2
:10592000F11DE081E03211F0EE23B9F7BB2009F45C
:1059300092C0F701C1A0D2A08E010F5F1F4FC80116
:10594000B60146E050E00E94B876902EA12E098163
:105950001A81D70112968D919C911397B8014B2D06
:1059600050E00E94C176892B81F48D819E81F701E0
:10597000908F878B148B038B8B819C81968B858B6F
:1059800080E0B7010E943D2A69C086E090E0C80E21
:10599000D91E892D9A2DB60146E050E00E94B876B6
:1059A00089819A81892B99F60AEB1BE00CC00F5F65
:1059B0001F4FF9018491D7015A966D917C915B97A5
:1059C00090E00E94B7779801F8018491882379F7D5
:1059D000D7010D911C910AC00F5F1F4FF701628D17
:1059E000738D992787FD90950E94B777D8018C9188
:1059F000882311F0803281F7F701628D738D8AE37D
:105A000090E00E94B777D7015A966D917C915B9791
:105A100080E290E00E94B77704EC1BE007C00F5FC4
:105A20001F4FF901849190E00E94B7779801F80127
:105A30008491D7015A966D917C915B97882379F771
:105A40008DE090E00E94B777F701628D738D8AE058
:105A500090E00E94B777C7010E944529D7011D96A3
:105A60001C921D971E961C9274C0183009F069C0D4
:105A7000F7019685992309F45CC08585981729F567
:105A8000628D738D88E090E00E94B777D7015A96B7
:105A90006D917C915B9780E290E00E94B777F7016F
:105AA000628D738D88E090E00E94B777D7011D96D4
:105AB0008C911D9781501D968C931D971E968C91ED
:105AC0001E9781501E968C9344C08150F7018587A4
:105AD0009150968705C0E90FF11D818180839F5FFA
