:100000000C94E60E0C940B0F0C940B0F0C940B0F2E
:100010000C940B0F0C940B0F0C940B0F0C940B0FF8
:100020000C940B0F0C940B0F0C940B0F0C940B0FE8
:100030000C94786D0C940B0F0C940B0F0C940B0F0D
:100040000C940B0F0C9412120C94E7100C941B10D0
:100050000C94BE0F0C940B0F0C940B0F0C940B0F05
:100060000C940B0F0C940B0F0C940B0F0C940B0FA8
:100070000C940B0F0C940B0F0C94A2100C94D70F34
:100080000C940B0F0C940B0F0C940B0F206C6F63E4
:100090006B657220256400206F70656E2020200043
:1000A000206C6F636B656420002028746872657330
:1000B000686F6C642025642C2041432076616C7548
:1000C00065202564290D0A00416C6C204F4B0D0AF8
:1000D000004E6F2046696C650D0A000D0A000D0A7E
:1000E000000D0A000D0A00784D6F64656D204352C3
:1000F00043206572726F720D0A0052656D6F7465F0
:1001000020736964652063616E63656C6C6564204F
:100110006174206672616D65206E6F2025640D0A22
:1001200000784D6F64656D20756E6B6E6F776E2015
:10013000726573706F6E736520307825780D0A00D4
:10014000446576696365202564206973206E6F7449
:1001500020726573706F6E64696E6720282564294C
:100160000D0A00426F6F746C6F6164657220697371
:10017000206E6F7420726573706F6E64696E670DA8
:100180000A0043616E2774206F70656E2066696C8B
:10019000652025730D0A0053797374656D2073749F
:1001A0006174653A0D0A0020204E756D62657220FB
:1001B0006F66207461736B73203A2025640D0A000A
:1001C00020204672656552746F73206865617020E7
:1001D00020203A2025642066726565206F66202500
:1001E000642062797465730D0A0020204D616C6C87
:1001F0006F63206865617020202020203A202564EC
:100200002066726565206F662025642062797465BA
:10021000730D0A00202052616D206469736320739E
:100220007061636520203A20256420667265652030
:100230006F6620256420636C7573746572730D0A94
:1002400000202054656D70657261747572652020A0
:100250002020203A20256420430D0A002020566FDC
:100260006C746167652020202020202020203A2007
:10027000256420560D0A0053797374656D207365EB
:100280007474696E67733A0D0A0020204D61632013
:100290006164647265737320202020203A2000205E
:1002A00020495020616464726573732020202020EF
:1002B000203A200020206D61736B20202020202018
:1002C0002020202020203A200020206761746577BC
:1002D00061792020202020202020203A2000446521
:1002E0007465637465642052532034383520646526
:1002F00076696365733A0D0A00202043616E2774A6
:100300002066696E6420616E792064657669636534
:100310000D0A004C6F636B65722073656E736F72AC
:1003200073207374617465733A0D0A0020204C6F5A
:10033000636B65722073656E736F7273206469738B
:1003400061626C65640D0A0057726974696E67209A
:10035000746F2066696C652E20507265737320433C
:1003600054524C2B4320746F20717569740D0A0030
:1003700046696C65206C656E6774683A2025640D6B
:100380000A00586D6F64656D3A205472616E736D2A
:10039000697373696F6E2073746172740D0A005013
:1003A0006F646E6F737A656E696520726F6C6574C9
:1003B000790D0A09737465726F776E696B20256415
:1003C0000D0A09726F6C6574612020202025640D70
:1003D0000A004F7075737A637A616E696520726F77
:1003E0006C6574790D0A09737465726F776E696B49
:1003F0002025640D0A09726F6C657461202020202D
:1004000025640D0A0009706F7A79636A61202020E3
:1004100025640D0A00456E61626C656420257320B9
:1004200064656275670D0A0044697361626C656496
:100430002025732064656275670D0A0068656C701D
:10044000005072696E742068656C702073747269F4
:100450006E6700737461747573007B66696C656E9A
:10046000616D657D205072696E7420646576696384
:100470006520737461747573206F6E205654592013
:100480006F7220777269746520746F2066696C657D
:1004900000656E6373746174005072696E742045F8
:1004A0006E632032386A363020726567697374650E
:1004B00072730074696D65005072696E742074699E
:1004C0006D65006465627567005B6172707C69636D
:1004D0006D707C69707C7463707C7564705D205B8A
:1004E0006C6576656C5D2077726974652064656201
:1004F000756720696E666F2E204C6576656C2030BE
:100500002064697361626C65206465627567696EF9
:1005100067007270696E67005B4465766963652089
:100520006E6F5D2053656E642070696E6720746F16
:1005300020527334383520646576696365007069CC
:100540006E67005B41315D205B41325D205B413372
:100550005D205B41345D2053656E64732070696E6D
:1005600067207468726F7567687420657468657257
:100570006E65740078726563005B66696C65206EF9
:10058000616D655D20726563656976652066696C7D
:1005900065207573696E6720784D6F64656D0078AE
:1005A00073656E64005B66696C65206E616D655D88
:1005B0002073656E642066696C65207573696E676B
:1005C00020784D6F64656D0078666C617368005BC0
:1005D000646576696365206E6F5D205B66696C6536
:1005E000206E616D655D20666C6173682064657660
:1005F00069636520636F6E6E656374656420746FF4
:100600002052733438350064697272660050726922
:100610006E742072616D6469736B2066696C6573BA
:1006200000637266005B66696C65206E616D655D76
:10063000206372656174652072616D2066696C6506
:100640000065726173657266005B66696C65206E39
:10065000616D655D2065726173652066696C6520FA
:1006600066726F6D2072616D206469736B006564E2
:1006700069747266005B66696C65206E616D655DAC
:1006800020656469742066696C65206C6F636174B1
:100690006564206F6E2072616D206469736B0072F7
:1006A0006561647266005B66696C65206E616D658C
:1006B0005D20726561642066696C65206C6F6361A2
:1006C000746564206F6E2072616D206469736B00C5
:1006D0007570005B647269766572206E6F5D205B79
:1006E0006368616E6E656C5D207B76616C75657D9F
:1006F000206D6F766520757000646F776E005B64A7
:100700007269766572206E6F5D205B6368616E6EE4
:10071000656C5D207B76616C75657D206D6F76659F
:1007200020646F776E00737061005B76616C756535
:100730005D2073657420706F727420410073706265
:10074000005B76616C75655D2073657420706F72F7
:100750007420420073657474696D65005B685D2088
:100760005B6D5D205B735D207365742074696D65DE
:10077000202832346820666F726D617429006163CD
:10078000005B6368616E6E656C20302D375D207292
:1007900065616420616E616C6F672076616C756560
:1007A00000656E61626C6500456E61626C65206D0E
:1007B0006F64650064697361626C65005669657792
:1007C000206D6F646500636F6E66696700436F6ECE
:1007D000666967757265206D6F6465006970005B9E
:1007E00041315D205B41325D205B41335D205B41E7
:1007F000345D2073657420495020616464726573B0
:100800007300756470005B41315D205B41325D2097
:100810005B41335D205B41345D205B73726320700C
:100820006F72745D207B64737420706F72747D20AE
:100830007365742075647020636C69656E742049FB
:1008400050206164647265737320616E6420706F00
:10085000727473006D61736B005B6D61736B5D200F
:10086000736574206D61736B006777005B41315D68
:10087000205B41325D205B41335D205B41345D2074
:100880007365742064656661756C74206761746556
:10089000776179006D6163005B41315D205B4132BE
:1008A0005D205B41335D205B41345D205B41355D04
:1008B000205B41365D20736574204D4143206164A7
:1008C00064726573730073617665005361766520A9
:1008D000636F6E66696775726174696F6E007365C8
:1008E0007472005B76616C75655D2073657420724F
:1008F0006573697374616E63652076616C756500FC
:100900004F4B0D0A000D0A0021212120572062754E
:10091000646F727A6520527334383520706F7A6F45
:100920007374616C6F2025642062616A746F770D47
:100930000A00C800D100DB00DE00E100E400E700AF
:10094000FA0021014001630182013C044104B31D0E
:1009500053045A04901FB304B8043E1D1205180531
:100960002B193E054305AD1407060D06361D9F06DF
:10097000A606931CA107A80743140000000000006E
:100980003C044104B31D53045A04901F910499047C
:100990008B1CB304B8043E1DC304C904A61B120576
:1009A00018052B193E054305AD1474057905B219D8
:1009B0009F05A5052518C805CF05511907060D0681
:1009C000361D210625060E1941064906F7186E0642
:1009D000750677189F06A606931CD006D306A317A4
:1009E000F906FE062D1726072A071B173D074107A4
:1009F0000917DE08E308F71654075C0790167E0710
:100A000081071916B407BC075414C607CD07601434
:100A10000000000000003C044104B31D53045A04CC
:100A2000901FB304B8043E1D54075C079016DC0702
:100A3000DF07C11554085908A11569086C08491544
:100A400002080608CC14940898087614C608CB0847
:100A50007114A107A8074314B407BC07541400007D
:100A600000000000576172746F73632070726F62D0
:100A70006B69206E612077656A73636975202564F0
:100A80003A2025640D0A00586D6F64656D3A207236
:100A90006F7A706F637A796E616E6965206F6462D8
:100AA000696F72750D0A0075647000746370006977
:100AB000636D70006970006172700075647000741D
:100AC00063700069636D700069700061727000414D
:100AD0006B7475616C6E7920637A61732025643A5A
:100AE00025643A25640D0A000D0A000D0A000D0A5E
:100AF000000D0A004672656552746F732B2076658F
:100B00007220302E3331206275696C643A20417551
:100B10006720323120323031312C2031363A3330B7
:100B20003A33310D0A003D3D3D3D3D3D3D3D3D3DAE
:100B30003D3D3D3D3D3D3D3D3D3D3D3D3D3D3D3DE5
:100B40003D3D3D3D0D0A00556E6B6E6F776E20701A
:100B500061636B65740D0A00495020737461636BA7
:100B6000207265616479200D0A00526573746172A8
:100B7000740D0A00446F6D4F733E00446F6D4F73E8
:100B80002300446F6D4F734000636D646C696E6544
:100B90003A200023206E6B000D0A0009004F70659B
:100BA000726174696F6E206E6F7420616C6C6F7708
:100BB00065640D0A004F7065726174696F6E20661E
:100BC00061696C65640D0A000D0A00200053796E9E
:100BD000746178204572726F722E205573653A20C9
:100BE000004F4B0D0A00094D4141445235203078E9
:100BF00025780D0A00094D414144523420307825B2
:100C0000780D0A00094D414144523320307825784F
:100C10000D0A00094D414144523220307825780DAB
:100C20000A00094D414144523120307825780D0A9F
:100C300000094D414144523020307825780D0A009A
:100C4000454E4332386A3630207374616E207265C7
:100C50006A657374726F773A0D0A004E49432072C9
:100C600065672064756D70206E6F7420696D706C9F
:100C7000656D656E7465640D0A000D0A0055524776
:100C8000200041434B200050534820005253542031
:100C90000053594E200046494E2000466C61677350
:100CA0002020203A200041636B204E756D203A20B1
:100CB000307825780D0A00536571204E756D203A05
:100CC00020307825780044737420506F72743A2075
:100CD00025640D0A0053726320506F72743A202508
:100CE000640D0A00544350204865616465720D0A22
:100CF000000D0A0044657374202049503A20000D0D
:100D00000A00536F7572636549503A200050726F44
:100D1000746F636F6C3A2025640D0A0050726F7413
:100D20006F636F6C3A205544500D0A0050726F7417
:100D30006F636F6C3A205443500D0A0050726F7409
:100D40006F636F6C3A2049434D500D0A004C656E3D
:100D500067746820203A2025640D0A0056657220C9
:100D6000202020203A2025640D0A004950204865A3
:100D7000616465720D0A002D3E4453543A002053BD
:100D800052433A00457468205061636B6574205487
:100D90007970653A20307825780025642E25642EF8
:100DA00025642E256400253032783A253032783A91
:100DB000253032783A253032783A253032783A2563
:100DC000303278000D0A0047617465776179203A06
:100DD00020000D0A004E65746D61736B203A20008F
:100DE0000D0A0049502041646472203A2000646575
:100DF0006275675072696E744865785461626C659B
:100E0000286C656E2D4554485F4845414445525F06
:100E10004C454E2C2026646174615B4554485F4804
:100E200045414445525F4C454E5D293B0064656237
:100E300075675072696E744865785461626C652894
:100E40004554485F4845414445525F4C454E2C202F
:100E500026646174615B305D293B0053656E646993
:100E60006E67204950207061636B657420746F2039
:100E7000676174657761790D0A0053656E64696E08
:100E800067204950207061636B6574206F6E206C21
:100E90006F63616C206E65740D0A004E45542052DC
:100EA000783A20556E6B6E6F776E204950207061D6
:100EB000636B65740D0A004E45542052783A2054F5
:100EC00043502F4950207061636B65740D0A004ECA
:100ED00045542052783A205544502F495020706193
:100EE000636B65740D0A004E45542052783A2049D0
:100EF000434D502F4950207061636B65740D0A009B
:100F0000436F64652020203A20307825780D0A0050
:100F10000D0A004543484F205245504C5900454367
:100F2000484F20524551554553540054797065201F
:100F300020203A20000D0A00447374497041646413
:100F4000723A20000D0A0053726349704164647262
:100F50003A200049434D50205061636B65743A0D4F
:100F60000A0053656E64696E672049434D502050F6
:100F70004F4E470D0A0052656365697665642049E6
:100F8000434D5020726571756573743A2000556E3B
:100F90006B6E6F776E2049434D50207479706552A7
:100FA000656365697665642049434D5020726571BB
:100FB000756573743A20000D0A0020200025336403
:100FC0002020000D0A00202000204D592020002D57
:100FD0002D2D2D2D2D2D2D2D2D2D2D2D2D2D2D2D41
:100FE0002D2D2D2D2D2D2D2D2D2D2D2D2D2D2D2D31
:100FF0002D2D0D0A0054696D6520457468204164EB
:101000006472657373202020202020202049502006
:10101000416464726573730D0A000D0A00447374B1
:1010200050726F746F416464723A20000D0A00447C
:1010300073744877416464722020203A20000D0ABE
:101040000053726350726F746F416464723A20008F
:101050000D0A005372634877416464722020203A7D
:1010600020000D0A00554E4B4E4F574E0052455032
:101070004C590052455155455354004F70657261AB
:1010800074696F6E2020203A200041525020506138
:10109000636B65743A0D0A000D0A002049503A202E
:1010A0000041525020495020696E204D41433A2062
:1010B0000053656E64696E6720415250205265701E
:1010C0006C790D0A0052656365697665642041524A
:1010D0005020526571756573740D0A004854545060
:1010E000206E6F7420696D706C656D656E746564DB
:1010F0000D0A004F70656E696E672054435020637F
:101100006F6E6E656374696F6E204552524F523A2E
:101110002061636B20666C6167207761736E277452
:10112000207365740D0A004F70656E696E672054F8
:10113000435020636F6E6E656374696F6E20736FCA
:10114000636B6574207374617465206368616E6796
:10115000652053594E5F52454345495645442D3EFF
:101160004553544142494C49534845440D0A004FA8
:1011700070656E696E672054435020636F6E6E65B4
:101180006374696F6E204552524F523A2073796EE4
:1011900020666C6167207761736E277420736574B5
:1011A0000D0A004F70656E696E67205443502063CE
:1011B0006F6E6E656374696F6E20736F636B6574B9
:1011C000207374617465206368616E6765204C49A3
:1011D0005354454E2D3E53594E5F52454345495653
:1011E00045440D0A0043616E27742066696E6420D1
:1011F00054435020736F636B657420776974682063
:101200006C6F63616C506F72742025640D0A004628
:101210006F756E642054435020736F636B65742048
:101220006E6F202564207374617465204C4953549B
:10123000454E0D0A00466F756E642054435020736E
:101240006F636B65742073746174652025640D0A87
:101250000025640D0A00414E590D0A000D0A202098
:1012600073726320706F7274202020203A202564EE
:101270000D0A202064737420706F72742020202067
:101280003A20000D0A202049502020202020202034
:101290002020203A200055445020636F6E66696715
:1012A0003A000D0A00554450205458206275666675
:1012B000657220627573790D0A0030782532780DD9
:1012C0000A00526563656976656420646174613AF9
:1012D000200050726F632E20554450207061636B64
:1012E0006574202864617461206C656E6774682081
:1012F0002564290D0A0053656E64696E67205544A4
:1013000050207061636B6574202864617461206C87
:10131000656E677468202564290D0A0009495076B6
:101320003620616464723A20253032782530327874
:101330003A25303278253032783A253032782530E7
:1013400032783A25303278253032783A2530327882
:10135000253032783A25303278253032783A2530C7
:101360003278253032783A2530327825303278207C
:101370000D0A0009536F6C696369746564206E6FB0
:101380006465206D63617374206164647265737356
:101390003A00094950763620616464723A2025305B
:1013A0003278253032783A25303278253032783A22
:1013B00025303278253032783A253032782530326F
:1013C000783A25303278253032783A25303278250F
:1013D0003032783A25303278253032783A2530323A
:1013E0007825303278200D0A0009416464726573F3
:1013F000732025643A0909000941646472657373B6
:1014000065733A0A0D002A496E74657266616365F8
:10141000204950763620636F6E6669673A0A0D0080
:101420000D0A00253032783A0009000D0A00090043
:101430002A49507636205061796C6F6164205241A0
:10144000573A0D0A00094950763620616464723AB1
:101450002025303278253032783A253032782530E0
:1014600032783A25303278253032783A2530327861
:10147000253032783A25303278253032783A2530A6
:101480003278253032783A25303278253032783A41
:101490002530327825303278200D0A0009446573F2
:1014A00074696E6174696F6E2061646472657373D0
:1014B0003A200900094950763620616464723A2066
:1014C00025303278253032783A253032782530325E
:1014D000783A25303278253032783A2530327825FE
:1014E0003032783A25303278253032783A25303229
:1014F00078253032783A25303278253032783A25DE
:1015000030327825303278200D0A0009536F757219
:10151000636520616464726573733A20090009256C
:1015200064200A0D00095061796C6F6164204C657C
:101530006E6774683A200900092564200A0D0009C5
:10154000466C6F77204C6162656C3A20090900098E
:101550002564200A0D0009547261666669632043A0
:101560006C6173733A20090900092564200A0D0093
:101570000956657273696F6E3A200909002A49504D
:101580007636204865616465723A0D0A000D0A00DE
:10159000253032783A0009000D0A0009002A495026
:1015A000763620486561646572205241573A0D0ACB
:1015B0000069703A207061636B65742073686F72A4
:1015C000746572207468616E207265706F727465E4
:1015D0006420696E204950206865616465722E0A36
:1015E0000D000D0A00253032783A000D0A005061D6
:1015F000636B6574206F75742C206C656E677468FE
:101600003D25642C200D0A000D0A00253032783A61
:10161000000D0A004E532C206C656E6774683D25E2
:10162000642C200D0A002A49507636207061636BC5
:10163000657420696E2E204C656E6774683A2025AB
:10164000640D0A004563686F207265717565737477
:101650000A0D00094950763620616464723A2025EB
:10166000303278253032783A253032782530327869
:101670003A25303278253032783A253032782530A4
:1016800032783A25303278253032783A253032783F
:10169000253032783A25303278253032783A253084
:1016A000327825303278200D0A007769746820740A
:1016B000617267657420616464726573730A0D00FA
:1016C000094950763620616464723A2025303278B8
:1016D000253032783A25303278253032783A253044
:1016E0003278253032783A25303278253032783ADF
:1016F00025303278253032783A253032782530322C
:10170000783A25303278253032783A2530327825CB
:10171000303278200D0A0009495076362061646421
:10172000723A2025303278253032783A25303278B6
:10173000253032783A25303278253032783A2530E3
:101740003278253032783A25303278253032783A7E
:1017500025303278253032783A25303278253032CB
:10176000783A2530327825303278200D0A006672BA
:101770006F6D0A0D00094950763620616464723A33
:101780002025303278253032783A253032782530AD
:1017900032783A25303278253032783A253032782E
:1017A000253032783A25303278253032783A253073
:1017B0003278253032783A25303278253032783A0E
:1017C0002530327825303278200D0A0009495076CC
:1017D0003620616464723A202530327825303278C0
:1017E0003A25303278253032783A25303278253033
:1017F00032783A25303278253032783A25303278CE
:10180000253032783A25303278253032783A253012
:101810003278253032783A253032782530327820C7
:101820000D0A0053656E64696E67204E4120746F27
:101830000A0D000D0A00253032783A000D0A004EDC
:1018400053207061636B65742041465445523A0DD4
:101850000A006E696353746174652E6C61796572F8
:10186000342E69636D702D3E69636D7063686B73B0
:10187000756D2020253034780A0D006E696353742D
:101880006174652E6C61796572342E69636D702D9B
:101890003E69636D7063686B73756D20202530340D
:1018A000780A0D00266E696353746174652E6D614C
:1018B000632E616464722025303278200A0D000D99
:1018C0000A00253032783A000D0A004E532070612C
:1018D000636B6574206265666F72653A0D0A000974
:1018E0004950763620616464723A2025303278257A
:1018F0003032783A25303278253032783A25303215
:1019000078253032783A25303278253032783A25C9
:10191000303278253032783A2530327825303278B6
:101920003A25303278253032783A253032782530F1
:101930003278200D0A0009495076362061646472BD
:101940003A2025303278253032783A2530327825E1
:101950003032783A25303278253032783A253032B4
:1019600078253032783A25303278253032783A2569
:10197000303278253032783A253032782530327856
:101980003A2530327825303278200D0A004D4F4408
:1019900020616464723A200D0A00094950763620AD
:1019A000616464723A2025303278253032783A25E5
:1019B000303278253032783A253032782530327816
:1019C0003A25303278253032783A25303278253051
:1019D00032783A25303278253032783A25303278EC
:1019E000253032783A2530327825303278200D0A89
:1019F00000094950763620616464723A20253032FD
:101A000078253032783A25303278253032783A25C8
:101A1000303278253032783A2530327825303278B5
:101A20003A25303278253032783A253032782530F0
:101A300032783A25303278253032783A253032788B
:101A400025303278200D0A004F52472061646472BD
:101A50003A200D0A007569705F6E657469665F6192
:101A60006464725F6C6F6F6B75703A200D0A0009C9
:101A70004950763620616464723A202530327825E8
:101A80003032783A25303278253032783A25303283
:101A900078253032783A25303278253032783A2538
:101AA000303278253032783A253032782530327825
:101AB0003A25303278253032783A25303278253060
:101AC0003278200D0A00094950763620616464722C
:101AD0003A2025303278253032783A253032782550
:101AE0003032783A25303278253032783A25303223
:101AF00078253032783A25303278253032783A25D8
:101B0000303278253032783A2530327825303278C4
:101B10003A2530327825303278200D0A0069666126
:101B20006464723A202A2A2025303478200D0A0075
:101B30004E44206F7074696F6E206E6F74207375E1
:101B400070706F7274656420696E204E53000D0AC8
:101B500000253032783A0049434D50763620706186
:101B6000796C6F61643A200D0A007569705F6C32A0
:101B70005F6C335F69636D705F6864725F6C656E24
:101B800020253034783B207061636B65744C656E42
:101B9000676874202025303478203B205549505FF9
:101BA0004E44365F4F50545F4844525F4255462082
:101BB000253034782C206E64365F6F70745F6F66EA
:101BC0006673657420253034780D0A000949507613
:101BD0003620616464723A202530327825303278BC
:101BE0003A25303278253032783A2530327825302F
:101BF00032783A25303278253032783A25303278CA
:101C0000253032783A25303278253032783A25300E
:101C10003278253032783A253032782530327820C3
:101C20000D0A0077697468207461726765742061B9
:101C30006464726573730A0D000949507636206139
:101C40006464723A2025303278253032783A253073
:101C50003278253032783A25303278253032783A69
:101C600025303278253032783A25303278253032B6
:101C7000783A25303278253032783A253032782556
:101C80003032783A2530327825303278200D0A000B
:101C9000746F0A0D00094950763620616464723A07
:101CA0002025303278253032783A25303278253088
:101CB00032783A25303278253032783A2530327809
:101CC000253032783A25303278253032783A25304E
:101CD0003278253032783A25303278253032783AE9
:101CE0002530327825303278200D0A005265636540
:101CF00069766564204E532066726F6D0A0D00454B
:101D00004E54524945532025642025643A0020252D
:101D10006420726F6C6C6572206472697665723AC9
:101D200020726F6C6C6572203120706F73697469FA
:101D30006F6E2025642C20726F6C6C6572203220CF
:101D4000706F736974696F6E202564002C2066695A
:101D5000726D776172652025730D0A000D0A4F4B75
:101D60000D0A00626F6F746C6F61646572206E693A
:101D70006520726F7A706F637A616C206F6462693C
:101D80006F72752064616E7963680D0A006E612060
:101D900075727A61647A656E697520776772616EB3
:101DA00079206A6573742074796C6B6F20626F6F31
:101DB000746C6F616465720D0A0072464C41534841
:101DC0002074696D656F75740D0A000011241FBEC3
:101DD000CFEFD0E1DEBFCDBF11E0A0E0B1E0ECE895
:101DE000FAEE00E00BBF02C007900D92A838B107D1
:101DF000D9F785B7806885BF85B78E6085BF10E14C
:101E0000A8E8B1E001C01D92A130B107E1F70E943E
:101E10001D0F0C9444750C940000809100018150BA
:101E200080930001882329F484E6809300010E94B6
:101E3000353B08950E94316BFDCFAF92BF92CF9298
:101E4000DF92EF92FF920F931F930E9422240E9431
:101E5000E61385ED91E10E9408210E94841183E23E
:101E600090E00E9432219093B60E8093B50E83E2EB
:101E700090E00E94322190937E0F80937D0F0E940C
:101E80003E140E94A50F00E81EE0C8010E94B00F9A
:101E90008091B50E9091B60EB8010E94F71F0E9476
:101EA00086440E94EC41E091B90EF091BA0E05EA29
:101EB0001EE04285538524853585C8016EED7EE0A0
:101EC0000E94383280917D0F90917E0FB8010E9460
:101ED000F71FE091B50EF091B60E228D338D88E09C
:101EE00090E260E070E044EF51E000E0F2E6EF2EB7
:101EF000FFE0FF2ECC24DD24AA24BB240E94EB6546
:101F00002091B50E3091B60E8BEA90E260E070E061
:101F10004CEB52E001E0E3EDEE2EEEE0FE2E0E94EF
:101F2000EB650E94086780E090E01F910F91FF90A1
:101F3000EF90DF90CF90BF90AF9008950E94D43281
:101F40000E9446390E94D24208958091B70E909126
:101F5000B80E60E070E048E150E00E943D740895E2
:101F6000FC018AE790E19187808786E691E193877B
:101F7000828783E083831586148608951F920F92CB
:101F80000FB60F9211248F93559905C0809165006B
:101F90008F7E809365008F910F900FBE0F901F90E2
:101FA0001895EAE9F0E080818062808308951F92AD
:101FB0000F920FB60F920BB60F9211242F933F93EF
:101FC0004F935F936F937F938F939F93AF93BF9341
:101FD000EF93FF938091920E9091930E69E871E0D8
:101FE0004AE851E00E945D67813029F480918901BF
:101FF00080939C0007C010928A0180919A008F7D87
:1020000080939A0080918A01882311F00E94FB6DD1
:10201000FF91EF91BF91AF919F918F917F916F91C0
:102020005F914F913F912F910F900BBE0F900FBE7C
:102030000F901F9018951F920F920FB60F920BB62C
:102040000F9211242F933F934F935F936F937F933E
:102050008F939F93AF93BF93EF93FF938091DC0E89
:102060009091DD0E6CE871E04DE851E00E945D67F3
:10207000813049F480916500806180936500809192
:102080008C018CB903C010928D01559880918D01FF
:10209000882311F00E94FB6DFF91EF91BF91AF91EA
:1020A0009F918F917F916F915F914F913F912F9170
:1020B0000F900BBE0F900FBE0F901F901895DF93DF
:1020C000CF930F92CDB7DEB789838091920E909116
:1020D000930EBE016F5F7F4F4FEF5FEF20E00E94D6
:1020E0001169EAE9F0E08081806280830F90CF91EE
:1020F000DF9108950E945F1080E090E00895809144
:10210000C60E9091C70E60E070E040E050E020E025
:102110000E9411690895DF93CF930F92CDB7DEB778
:1021200089838091DC0E9091DD0EBE016F5F7F4F41
:102130004FEF5FEF20E00E941169559A0F90CF9109
:10214000DF9108951F920F920FB60F920BB60F9268
:1021500011242F933F934F935F936F937F938F93AC
:102160009F93AF93BF93EF93FF93DF93CF930F9220
:10217000CDB7DEB780919C00898310928B0180914E
:10218000C40E9091C50EBE016F5F7F4F4BE851E0CA
:1021900020E00E94DD6780918B01882311F00E946E
:1021A000FB6D0F90CF91DF91FF91EF91BF91AF91B8
:1021B0009F918F917F916F915F914F913F912F915F
:1021C0000F900BBE0F900FBE0F901F9018951F928F
:1021D0000F920FB60F920BB60F9211242F933F93CD
:1021E0004F935F936F937F938F939F93AF93BF931F
:1021F000EF93FF93DF93CF930F92CDB7DEB78CB100
:102200008983109201018091B30E9091B40EBE01AA
:102210006F5F7F4F41E051E020E00E94DD678091D9
:102220000101882311F00E94FB6D0F90CF91DF9187
:10223000FF91EF91BF91AF919F918F917F916F919E
:102240005F914F913F912F910F900BBE0F900FBE5A
:102250000F901F9018958091C60E9091C70E60E068
:1022600070E04FEF5FEF20E00E9445680895EF9225
:10227000FF921F93DF93CF930F92CDB7DEB710E09D
:102280007E010894E11CF11C01C01F5F8091B30E18
:102290009091B40EB7014AE050E020E00E944568FA
:1022A000813099F3812F0F90CF91DF911F91FF9093
:1022B000EF9008959C01462F8091B30E9091B40E3B
:1022C000B90150E020E00E9445680895DF93CF9364
:1022D0000F92CDB7DEB78091C40E9091C50EBE01AE
:1022E0006F5F7F4F4FEF5FEF20E00E9445688823CC
:1022F00019F42FEF3FEF03C08981282F30E0C90187
:102300000F90CF91DF9108950FB6F8940F9280E46B
:1023100061E00E94096A9093C50E8093C40E80E22A
:1023200061E00E94096A9093930E8093920E80E17F
:1023300061E00E94096A9093B40E8093B30E84E02A
:1023400061E00E94096A9093DD0E8093DC0E81E0CB
:1023500060E00E94096A9093C70E8093C60E0097B2
:1023600039F060E070E040E050E020E00E94116948
:102370000F900FBE87E089B910929000809399006A
:102380001092980088ED8AB996E89093950088E9B4
:1023900080939A0090939D0008958FB96F98779BD2
:1023A000FECF8EB18FB16F9A089588B3806C88BBD1
:1023B000C5981B9AE5E6F0E08081886080830895E7
:1023C0001B9808951B9A0895E5E6F0E08081877FC9
:1023D00080830895E5E6F0E0808188608083089539
:1023E000C7980895C79A08958DB183608DB9C6982E
:1023F00008958DB18C7F8DB9C69A08958DB1836093
:102400008DB9C69808958DB18C7F8DB9C69A0895FF
:102410008DB185608DB9C59A08958DB18A7F8DB9CA
:10242000C59808951F920F920FB60F920BB60F9298
:1024300011242F933F934F935F936F937F938F93C9
:102440009F93AF93BF93EF93FF938FB180938E01D0
:1024500080917F0F9091800F6EE871E04FE851E01E
:1024600020E00E94DD6780918F01882311F00E9497
:10247000FB6DFF91EF91BF91AF919F918F917F91F4
:102480006F915F914F913F912F910F900BBE0F90E5
:102490000FBE0F901F901895DF93CF930F92CDB77B
:1024A000DEB78FB980917F0F9091800FBE016F5F73
:1024B0007F4F4AE050E020E00E94456889810F90FC
:1024C000CF91DF9108950F931F93E091B70EF09194
:1024D000B80E8081882341F180E460E00E94EE2DF7
:1024E0008EE190E00E9450650091B70E1091B80EF9
:1024F00084E00E94622EF8019483838380E460E08C
:102500000E94CF2DE091B70EF091B80E40E02381EC
:102510003481818192818217930708F441E04583D9
:102520008AE090E00E945065E091B70EF091B80EFD
:102530008681882359F180E260E00E94EE2D8EE1D1
:1025400090E00E9450650091B70E1091B80E0A5F9E
:102550001F4F85E00E94622EF8019483838380E2FE
:1025600060E00E94CF2DE091B70EF091B80E369644
:1025700040E023813481818192818217930708F49E
:1025800041E045838AE090E00E945065E091B70EFB
:10259000F091B80E8485882359F180E160E00E94B3
:1025A000EE2D8EE190E00E9450650091B70E1091E3
:1025B000B80E045F1F4F86E00E94622EF8019483DC
:1025C000838380E160E00E94CF2DE091B70EF0910F
:1025D000B80E3C9640E0238134818181928182173C
:1025E000930708F441E045838AE090E00E9450653B
:1025F000E091B70EF091B80E8289882359F188E0F6
:1026000060E00E94EE2D8EE190E00E945065009106
:10261000B70E1091B80E0E5E1F4F87E00E94622E1B
:10262000F8019483838388E060E00E94CF2DE091DD
:10263000B70EF091B80E729640E02381348181810B
:1026400092818217930708F441E045838AE090E085
:102650000E9450651F910F9108954F925F926F9263
:102660007F928F929F92AF92BF92DF92EF92FF92F2
:102670000F931F93CF93DF937C010091B70E1091BE
:10268000B80EDD24C0E0D0E03CE8432E30E0532E0D
:1026900029EA622E20E0722E90EA892E90E0992E8F
:1026A00087E9A82E80E0B82ED8018C91882309F400
:1026B0006CC000D000D000D0EDB7FEB73196ADB7FA
:1026C000BEB71296FC92EE921197538242822196E7
:1026D000D583C48321970E949171EDB7FEB73696DA
:1026E0000FB6F894FEBF0FBEEDBFD80111962D9125
:1026F0003C91129713968D919C9114978217930792
:1027000048F400D000D0EDB7FEB7F282E182B48287
:10271000A3820CC000D000D0ADB7BEB71296FC9219
:10272000EE92119714969C928E9213970E9491713B
:102730000F900F900F900F90EDB7FEB738970FB630
:10274000F894FEBF0FBEEDBF3196ADB7BEB712967F
:10275000FC92EE92119773826282D80111968D914C
:102760009C9112979583848313968D919C911497D5
:10277000978386830E949171D394EDB7FEB7389604
:102780000FB6F894FEBF0FBEEDBF2196C430D10541
:1027900019F00A5F1F4F88CF8D2DDF91CF911F91C8
:1027A0000F91FF90EF90DF90BF90AF909F908F9030
:1027B0007F906F905F904F90089588E190E00E9425
:1027C00032219093B80E8093B70E08950FB6F89407
:1027D0000F9281E061E00E94096A9093800F8093DC
:1027E0007F0F0F900FBE87EF87BB81ED88BB11BABB
:1027F0008EE082B98CE083B9109261008FE1809302
:10280000640008951F9380E060E00E94452E80E000
:1028100060E00E942A2E80E00E94622E65E096957C
:1028200087956A95E1F78093C30E8AE090E00E9455
:10283000506581E00E94622E9C0153E0880F991F31
:102840005A95E1F7220F331F820F931F68E170E062
:102850000E94606E6093BB0E8AE090E00E9450651B
:102860000E94631211E0812F0E945B5E8AE090E07B
:102870000E9450651F5F1032B1F7CDCF0E94DD136B
:102880000E9431600895FC0180A1833019F425E095
:1028900030E008C080E899E092A381A381E080A3A2
:1028A00020E030E0C9010895FC018AE499E092A398
:1028B00081A380A1833009F010A280E090E0089508
:1028C000FC0180A1813019F025E030E008C086E1EC
:1028D0009AE092A381A382E080A320E030E0C901C6
:1028E00008950E949E0F80E090E00895CF93DF93BB
:1028F000EC01898D863018F422E030E02AC081E0B6
:10290000BE010E9458276093970E82E0BE010E948C
:1029100058276093980E83E0BE010E945827609369
:10292000990E84E0BE010E94582760939A0E85E0BC
:10293000BE010E94582760939B0E86E0BE010E9454
:10294000582760939C0E87E99EE00E940E2F20E09E
:1029500030E0C901DF91CF910895CF93DF93EC016F
:10296000898D843018F422E030E012C081E0BE018D
:102970000E946B2782E0BE010E946B2783E0BE01AC
:102980000E946B2784E0BE010E946B2720E030E0AC
:10299000C901DF91CF9108956F927F928F929F929C
:1029A000AF92BF92CF92DF92EF92FF920F931F935D
:1029B000CF93DF93EC01898D853018F422E030E06D
:1029C00058C081E0BE010E946B273B014C0182E0B0
:1029D000BE010E946B277B018C0183E0BE010E9437
:1029E0006B275B016C0184E0BE010E946B27E091C4
:1029F000B90EF091BA0E102F0F2DFE2CEE246501AA
:102A0000BB24AA24EA0CFB1C0C1D1D1DE60CF71CA4
:102A1000081D191D962F882777276627E60EF71EB3
:102A2000081F191FE682F7820087118785E0BE0123
:102A30000E946B27DC01CB010091B90E1091BA0EF8
:102A40000E94DD32F80195838483898D863078F089
:102A500086E0BE010E946B27DC01CB010091B90E1C
:102A60001091BA0E0E94DD32F8019383828320E038
:102A700030E0C901DF91CF911F910F91FF90EF904E
:102A8000DF90CF90BF90AF909F908F907F906F908E
:102A900008956F927F928F929F92AF92BF92CF9242
:102AA000DF92EF92FF920F931F93CF93DF93EC018E
:102AB000898D843018F422E030E033C081E0BE011B
:102AC0000E946B273B014C0182E0BE010E946B27F4
:102AD0007B018C0183E0BE010E946B275B016C01CE
:102AE00084E0BE010E946B27102F0F2DFE2CEE24D8
:102AF0006501BB24AA24EA0CFB1C0C1D1D1DE60C61
:102B0000F71C081D191D962F882777276627E60EC4
:102B1000F71E081F191FC801B7010E940C3720E0DB
:102B200030E0C901DF91CF911F910F91FF90EF909D
:102B3000DF90CF90BF90AF909F908F907F906F90DD
:102B40000895FC01818D882319F422E030E017C03C
:102B500081E0BF010E946B2720E230E0261B370B8B
:102B60006FEF7FEF8FEF9FEF04C096958795779576
:102B700067952A95D2F70E94033720E030E0C9011B
:102B800008956F927F928F929F92AF92BF92CF9251
:102B9000DF92EF92FF920F931F93CF93DF93EC019D
:102BA000898D843018F422E030E033C081E0BE012A
:102BB0000E946B273B014C0182E0BE010E946B2703
:102BC0007B018C0183E0BE010E946B275B016C01DD
:102BD00084E0BE010E946B27102F0F2DFE2CEE24E7
:102BE0006501BB24AA24EA0CFB1C0C1D1D1DE60C70
:102BF000F71C081D191D962F882777276627E60ED4
:102C0000F71E081F191FC801B7010E94FA3620E0FD
:102C100030E0C901DF91CF911F910F91FF90EF90AC
:102C2000DF90CF90BF90AF909F908F907F906F90EC
:102C30000895FF920F931F938C0181E0B8010E94C9
:102C40006B27F62E862F0E94622E2DB73EB7285096
:102C500030400FB6F8943EBF0FBE2DBFEDB7FEB7A4
:102C60003196D8015A962D913C915B97ADB7BEB77E
:102C700012963C932E93119724E63AE033832283F5
:102C8000F4821582978386830E9491712DB73EB797
:102C9000285F3F4F0FB6F8943EBF0FBE2DBF80E0B8
:102CA00090E01F910F91FF900895CF93DF93EC0177
:102CB0008C8D882371F1E82FF0E0EE0FFF1FEE5CA2
:102CC000F64F259134918DB79EB708970FB6F894BB
:102CD0009EBF0FBE8DBFEDB7FEB731968A8D9B8D1F
:102CE000ADB7BEB712969C938E9311973383228310
:102CF0008D8D9E8D958384838F8D868317820E9410
:102D000091718DB79EB708960FB6F8949EBF0FBE0F
:102D10008DBF1C8E1E8E1D8E1F8EDF91CF9108954C
:102D2000EF92FF920F931F938C0181E0B8010E94F4
:102D30006B27F62E82E0B8010E946B27E62E83E017
:102D4000B8010E946B27162F0E94E32C8F2D6AE09A
:102D50000E94546E282F2370AEECBEE02295207F97
:102D60009091CE0E9F7C922B9093CE0E46EF5FEF0C
:102D7000849F802D11248F0D8F709091CE0E907FA7
:102D8000982B9093CE0E8E2D0E94546E282F277074
:102D9000FD012295207F92919F78922B9083849FB2
:102DA000802D11248E0D8F709081907F982B9083B1
:102DB000812F0E94546E282F277012972295207F12
:102DC0009C919F78922B9C93849F802D1124810F3E
:102DD0008F709C91907F982B9C93CD010E94162D13
:102DE00080E090E01F910F91FF90EF900895FC011B
:102DF000818D882319F422E030E009C081E0BF0111
:102E00000E946B27862F0E94AE2E20E030E0C90181
:102E100008951F93BC0181E00E946B27162F80E06C
:102E200060E00E942A2E812F60E00E94B42D80E095
:102E300090E01F9108951F93BC0181E00E946B27D1
:102E4000162F80E060E00E94452E812F60E00E94F6
:102E50000C2E80E090E01F910895FF920F931F9336
:102E6000CF93DF93EC0181E0BE010E946B27F62E29
:102E700082E0BE010E946B27162F117083E0BE0115
:102E80000E946B27062F2DB73EB7285030400FB653
:102E9000F8943EBF0FBE2DBFEDB7FEB731968A8DB9
:102EA0009B8DADB7BEB712969C938E93119782ED12
:102EB00093E093838283F4821582812F90E00196C0
:102EC000978386830E949171802F81502DB73EB7E2
:102ED000285F3F4F0FB6F8943EBF0FBE2DBF84361C
:102EE000F8F400D000D000D0EDB7FEB731968A8D4F
:102EF0009B8DADB7BEB712969C938E93119785E0CC
:102F000094E093838283048315820E9491712DB78C
:102F10003EB72A5F3F4F0FB6F8943EBF0FBE2DBF9E
:102F20008F2D612F402F0E941058882319F023E025
:102F300030E002C021E030E0C901DF91CF911F9164
:102F40000F91FF900895FF920F931F93CF93DF93FC
:102F5000EC01898D823018F422E030E06FC081E00E
:102F6000BE010E946B27F62E2FE3F22282E0BE0103
:102F70000E946B27062F0170898D833010F41FEF9C
:102F800005C083E0BE010E946B27162F8DB79EB748
:102F900008970FB6F8949EBF0FBE8DBFEDB7FEB772
:102FA00031968A8D9B8DADB7BEB712969C938E934A
:102FB00011978FE993E093838283F4821582802FA7
:102FC00090E00196978386830E949171812F8150B2
:102FD0002DB73EB7285F3F4F0FB6F8943EBF0FBEE8
:102FE0002DBF8436F8F400D000D000D0EDB7FEB786
:102FF00031968A8D9B8DADB7BEB712969C938E93FA
:10300000119785E094E093838283148315820E9454
:1030100091712DB73EB72A5F3F4F0FB6F8943EBF70
:103020000FBE2DBF8F2D602F412F0E944C5788233C
:1030300019F023E030E002C021E030E0C901DF9167
:10304000CF911F910F91FF9008950F931F93CF93EE
:10305000DF93EC0100D000D08A8D9B8DADB7BEB759
:1030600012969C938E93119782E893E014969C930A
:103070008E9313970E9491710F900F900F900F9065
:1030800081E0BE010E94AE2661E87FE00E94F62545
:10309000882319F420E030E024C00A8D1B8D81E0E4
:1030A000BE010E94AE2600D000D000D0EDB7FEB722
:1030B0003196ADB7BEB712961C930E93119722E8C6
:1030C00031E033832283958384830E94917124E0CD
:1030D00030E0EDB7FEB736960FB6F894FEBF0FBEE0
:1030E000EDBFC901DF91CF911F910F910895EF922C
:1030F000FF920F931F93DF93CF930F92CDB7DEB75D
:103100007C0181E0B7010E94AE2661E87FE00E9469
:10311000F625882341F1D7015A960D911C915B97B2
:1031200081E0B7010E94AE2600D000D000D0EDB7FC
:10313000FEB73196ADB7BEB712961C930E9311979A
:1031400022E831E033832283958384830E94917146
:1031500024E030E0EDB7FEB736960FB6F894FEBF28
:103160000FBEEDBF3BC081E89FE00E94A022198204
:1031700000D000D0D7015A968D919C915B97EDB706
:10318000FEB79283818388E493E0948383830E94D3
:1031900091710F900F900F900F907E010894E11C99
:1031A000F11C8091C40E9091C50EB7014FEF5FEFF7
:1031B00020E00E9445688823A1F38981833041F093
:1031C0000E945F1081E89FE069810E946C23E9CF33
:1031D00081E89FE00E94F72320E030E0C9010F90D2
:1031E000CF91DF911F910F91FF90EF900895CF93B2
:1031F000DF93EC0181E0BE010E94AE260E94CE2545
:10320000882319F421E030E005C0CE010E94551654
:1032100024E030E0C901DF91CF910895CF93DF938F
:10322000EC01898D813019F022E030E010C081E09E
:10323000BE010E94AE260E942D26882319F421E0AB
:1032400030E005C0CE010E94551624E030E0C901EF
:10325000DF91CF9108951F93CF93DF93EC01898D78
:10326000882319F422E030E017C081E0BE010E94FB
:103270006B27162F862F0E94995C8F8F882319F455
:1032800021E030E009C089E08C8F1D8F1E8ECE01B9
:103290000E94551620E030E0C901DF91CF911F91C7
:1032A0000895FF920F931F93CF93DF93EC01898DC5
:1032B000823019F022E030E04EC081E0BE010E9471
:1032C0006B27F62E82E0BE010E94AE268C018F2D68
:1032D0000E94995C882331F089E08C8FCE010E9496
:1032E000551637C0C80161E87FE00E94F6254A8D77
:1032F0005B8D8823F9F000D000D000D0EDB7FEB789
:103300003196ADB7BEB712965C934E93119782E893
:1033100091E093838283158304830E94917124E05A
:1033200030E08DB79EB706960FB6F8949EBF0FBEDD
:103330008DBF11C081E89FE06F2D0E944559182F65
:1033400081E89FE00E94F723112319F420E030E088
:1033500002C024E030E0C901DF91CF911F910F91AD
:10336000FF9008952F923F924F925F926F927F92BB
:103370008F929F92AF92BF92CF92DF92EF92FF9285
:103380000F931F93DF93CF9300D000D000D0CDB721
:10339000DEB77C0100D000D0DC015A968D919C9163
:1033A0005B97EDB7FEB79283818387E89AE09483B9
:1033B00083830E9491710F900F900F900F9081E086
:1033C000B7010E94AE2661E87FE00E94F6258823BF
:1033D00041F1D7015A960D911C915B9781E0B7019D
:1033E0000E94AE2600D000D000D0EDB7FEB73196D7
:1033F000ADB7BEB712961C930E93119722E831E039
:1034000033832283958384830E94917124E030E08A
:10341000EDB7FEB736960FB6F894FEBF0FBEEDBF00
:103420007BC1D7015E961C921E925D975F961C929F
:1034300004E1B2E0CB2ED12CCC0EDD1EF701628D63
:10344000738D83E490E00E94AF7180919B0086FFB2
:10345000FCCF8091C40E9091C50EB60144E650E0B9
:1034600020E00E944568882319F08A81813061F04C
:10347000015021F781E89FE00E94F723D7015C9675
:103480001C9224E030E048C181E89FE061E070E0F8
:103490000E943A226C015C01AAE09A2E11E0F3E04E
:1034A0008F2EE5E02E2E312C2C0E3D1E76E0472E81
:1034B000512C4C0E5D1E3E010894611C711C8091C4
:1034C000C40E9091C50EBE016D5F7F4F44E650E083
:1034D00020E00E944568882309F4DDC08091C40E75
:1034E0009091C50EBE016C5F7F4F41E050E020E03F
:1034F0000E944568882319F483E0D701BDC09C81F0
:10350000892F80958A830B81081739F085E0F701B0
:10351000848F058F168E978FF9C0812F81508A83F3
:10352000081711F0012F08C081E89FE0602F70E0BC
:103530000E943A226C015C011B81101779F084E033
:10354000D7015C968C935C978C815D968C935D978C
:103550005E961C925E975F960C93D8C000E08091B7
:10356000C40E9091C50EBE016E5F7F4F4AE050E0E1
:1035700020E00E944568882341F08A81F60181930A
:103580006F010F5F003859F703C0D7015C968C922A
:103590008091C40E9091C50EB1014AE050E020E048
:1035A0000E944568882341F486E0F701848F82E019
:1035B00090E0968F858FAAC08091C40E9091C50E21
:1035C000B2014AE050E020E00E944568882361F49F
:1035D00086E0D7015C968C935C9781E090E05E96E4
:1035E0009C938E935D9792C090E040E050E0F5018F
:1035F00081915F015827052E0294802D8F708527B9
:10360000252F2025220F207E8227202D2527207F71
:103610002695052E000C221F5695569556955F71DE
:1036200052275427482F9F5F903809F78D8190E0EB
:10363000252F33278217930761F48E8190E0507015
:103640008417950731F486E00E945F104AE0942EBB
:1036500016C09A94115085E10E945F10992079F468
:103660008B81D7015D968C935D975E961C925E97D9
:103670005F961C935F9784E05C968C9347C0809123
:10368000C40E9091C50EB30144E650E020E00E94C4
:103690004568882319F482E0F70116C099819130BA
:1036A00069F41F5F81E89FE0612F70E00E943A2279
:1036B0006C01D7015C961C925C0101CF983131F40A
:1036C000F701158F168E87E0848F20C09430C9F4DF
:1036D00085E10E945F108091C40E9091C50EB301E8
:1036E0004AE050E020E00E944568882331F089815B
:1036F000843019F486E00E945F10D7015C961C921A
:1037000005C088E0F701848F958F168E81E89FE0D1
:103710000E94F72320E030E0C90126960FB6F89406
:10372000DEBF0FBECDBFCF91DF911F910F91FF90F4
:10373000EF90DF90CF90BF90AF909F908F907F9051
:103740006F905F904F903F902F900895FF920F934E
:103750001F93CF93DF93EC01898D823008F4D2C0A0
:1037600082E0BE010E946B27F62E81E0BE010E941E
:10377000AE268C01FF2009F05BC06BEC7AE043E0E1
:1037800050E00E94B970892B31F480E090E060E055
:103790000E94283B2CC0C80168EC7AE042E050E06F
:1037A0000E94B970892B31F480E090E060E00E94C3
:1037B000CC361DC0C80163EC7AE042E050E00E94C4
:1037C000B970892B31F480E090E060E00E949D396F
:1037D0000EC0C8016FEB7AE042E050E00E94B97081
:1037E000892BB1F480E090E060E00E947B3F00D044
:1037F00000D000D0EDB7FEB731968A8D9B8DADB766
:10380000BEB712969C938E93119788E294E05AC0AB
:10381000C8016BEB7AE042E050E00E94B970892B5E
:1038200009F070C080E090E060E00E943D42DFCF90
:1038300067EB7AE043E050E00E94B970892B31F4E5
:103840008A8D9B8D6F2D0E94283B2CC0C80164EB94
:103850007AE042E050E00E94B970892B31F48A8D01
:103860009B8D6F2D0E94CC361DC0C8016FEA7AE097
:1038700042E050E00E94B970892B31F48A8D9B8D13
:103880006F2D0E949D390EC0C8016BEA7AE042E0BC
:1038900050E00E94B970892B31F58A8D9B8D6F2D78
:1038A0000E947B3F00D000D000D0EDB7FEB731962C
:1038B0008A8D9B8DADB7BEB712969C938E93119750
:1038C00085E194E093838283158304830E94917140
:1038D00020E030E08DB79EB706960FB6F8949EBFF5
:1038E0000FBE8DBF11C0C80167EA7AE042E050E028
:1038F0000E94B970892B31F48A8D9B8D6F2D0E94A7
:103900003D42D0CF22E030E0C901DF91CF911F913D
:103910000F91FF900895FC01828D938D0E945B2F83
:1039200080E090E00895CF92DF92EF92FF920F93A4
:103930001F93DF93CF930F92CDB7DEB78C0180E258
:10394000898381E0B8010E94AE2661E87FE00E9491
:10395000F625D8015A96ED90FC905B97882319F1D3
:1039600081E0B8010E94AE2600D000D000D0EDB7B3
:10397000FEB73196ADB7BEB71296FC92EE92119794
:1039800022E831E033832283958384830E949171FE
:1039900024E030E0EDB7FEB736960FB6F894FEBFE0
:1039A0000FBEEDBF58C02091850F3091860F00D01B
:1039B00000D000D0ADB7BEB71196EDB7FEB7F2821A
:1039C000E18280E793E013969C938E931297F9011E
:1039D000928180E02181820F911D15969C938E9398
:1039E00014970E9491718DB79EB706960FB6F89402
:1039F0009EBF0FBE8DBF6E010894C11CD11C81E813
:103A00009FE0B6010E941A23F82E89810E945F1060
:103A100089818D3019F48AE00E945F10FF2079F3CC
:103A200000D000D0D8015A968D919C915B97EDB74C
:103A3000FEB79283818385E099E0948383830E941B
:103A400091710F900F900F900F9081E89FE00E946E
:103A5000F72320E030E0C9010F90CF91DF911F9153
:103A60000F91FF90EF90DF90CF900895FC01828D31
:103A7000938D0E944E2180E090E008950F931F9354
:103A8000CF93DF938C018CEC9EE00E943E2D209121
:103A9000CE0E22952F704091CE0E4F707091CD0EAC
:103AA00072957F705091CD0E5F70A091CC0EA29553
:103AB000AF706091CC0E6F708DB79EB70A970FB63E
:103AC000F8949EBF0FBE8DBFEDB7FEB73196E801EB
:103AD0008A8D9B8DCDB7DEB79A8389838FEC9AE070
:103AE00093838283822F837090E09C0113E0220FE6
:103AF000331F1A95E1F7880F991F280F391F420FBE
:103B000044831582872F877090E09C0173E0220F19
:103B1000331F7A95E1F7880F991F280F391F520F2D
:103B2000568317828A2F877090E09C0103E0220F52
:103B3000331F0A95E1F7880F991F280F391F620F6D
:103B4000608711860E9491718DB79EB70A960FB655
:103B5000F8949EBF0FBE8DBF80E090E0DF91CF91C3
:103B60001F910F9108950E94D52680E090E008955E
:103B7000CF93DF93EC0100D000D0ADB7BEB7129663
:103B80009C938E93119784EF9AE014969C938E9356
:103B900013970E949171EDB7FEB7D283C18387E975
:103BA00091E0948383830E9491710F900F900F9006
:103BB0000F900E94746000D000D000D0EDB7FEB727
:103BC0003196ADB7BEB71296DC93CE93119727EA24
:103BD00031E033832283848315820E949171EDB793
:103BE000FEB736960FB6F894FEBF0FBEEDBF0E942B
:103BF000C86C2DB73EB7285030400FB6F8943EBF82
:103C00000FBE2DBFEDB7FEB73196ADB7BEB712965A
:103C1000DC93CE93119720EC31E03383228395839C
:103C200084838CE19CE0978386830E949171EDB739
:103C3000FEB738960FB6F894FEBF0FBEEDBF0E94D8
:103C400024212DB73EB7285030400FB6F8943EBF20
:103C50000FBE2DBFEDB7FEB73196ADB7BEB712960A
:103C6000DC93CE9311972AEE31E033832283958340
:103C7000848380E097E1978386830E9491712091ED
:103C8000BB0E0F900F90EDB7FEB73196ADB7BEB734
:103C90001296DC93CE93119781E492E09383828312
:103CA000248315820E9491712091C30EEDB7FEB757
:103CB0003196ADB7BEB71296DC93CE9311978CE5D3
:103CC00092E093838283248315820E949171EDB7E1
:103CD000FEB736960FB6F894FEBF0FBEEDBF0E943A
:103CE00040212DB73EB7285030400FB6F8943EBF64
:103CF0000FBE2DBFEDB7FEB73196ADB7BEB712966A
:103D0000DC93CE93119724E132E0338322838483C2
:103D1000158280E890E0978386830E9491710F90CE
:103D20000F900F900F90EDB7FEB7D283C18387E756
:103D300092E0948383830E949171ADB7BEB71296CF
:103D4000DC93CE9311978AE892E014969C938E931D
:103D500013970E9491710F900F900F900F90CE01CA
:103D600067E97EE00E94D83500D000D0EDB7FEB7FD
:103D7000D283C18381EF9AE0948383830E949171FF
:103D8000ADB7BEB71296DC93CE9311978FE992E050
:103D900014969C938E9313970E9491710F900F909D
:103DA0000F900F900E941537FC0140815181628174
:103DB0007381CE010E94763400D000D0EDB7FEB7FB
:103DC000D283C1838EEE9AE0948383830E949171A3
:103DD000ADB7BEB71296DC93CE93119784EB92E009
:103DE00014969C938E9313970E9491710F900F904D
:103DF0000F900F900E941537FC0144815581668118
:103E00007781CE010E94763400D000D0ADB7BEB726
:103E10001296DC93CE9311978BEE9AE014969C93B6
:103E20008E9313970E949171EDB7FEB7D283C18331
:103E300089EC92E0948383830E9491710F900F909C
:103E40000F900F900E941537DC0118964D915D91EF
:103E50006D917C911B97CE010E94763400D000D0EA
:103E6000EDB7FEB7D283C18388EE9AE09483838353
:103E70000E949171ADB7BEB71296DC93CE931197A5
:103E80008EED92E014969C938E9313970E949171FD
:103E90000F900F900F900F90CE010E94D45888235E
:103EA00081F400D000D0EDB7FEB7D283C18389EF93
:103EB00092E0948383830E9491710F900F900F90F2
:103EC0000F9000D000D0ADB7BEB71296DC93CE9362
:103ED000119783E193E014969C938E9313970E941D
:103EE00091710F900F900F900F90CE010E942D13A3
:103EF000882381F400D000D0EDB7FEB7D283C18310
:103F00008CE293E0948383830E9491710F900F90D1
:103F10000F900F90CE010E944442DF91CF910895FF
:103F2000EF92FF920F931F93DF93CF93CDB7DEB73E
:103F30002E970FB6F894DEBF0FBECDBF7C01DC011B
:103F400059968C915997882339F45A968D919C9162
:103F50005B970E94B81D3BC081E0B7010E94AE266E
:103F600061E87FE08E010F5F1F4FA80123E00E94F0
:103F70000E26882331F1F701028D138D81E0B70100
:103F80000E94AE2600D000D000D0EDB7FEB731962B
:103F9000ADB7BEB712961C930E93119722E831E08D
:103FA00033832283958384830E94917124E030E0DF
:103FB000EDB7FEB736960FB6F894FEBF0FBEEDBF55
:103FC00008C0C8010E94B81DC8010E94072420E053
:103FD00030E0C9012E960FB6F894DEBF0FBECDBFFC
:103FE000CF91DF911F910F91FF90EF900895EF9285
:103FF0000F931F939B0160E078E240E051E00AE4F8
:1040000019E0EE240E94E2281F910F91EF9008958D
:10401000CF92DF92EF92FF920F931F93CF93DF9394
:10402000EC010E94AC320E946B390E94A13E0E94BA
:104030009639CE010E94C844CE010E94194B00D08F
:1040400000D0EDB7FEB7D283C18388E59BE09483AF
:1040500083830E9491710F900F900F900F900E9498
:10406000C7440E94594C96E2C92E9BE0D92E87E4A2
:10407000E82E8BE0F82E80E090E00E9450650E94D0
:104080005D309093C90E8093C80E892B29F40E944D
:1040900057440E94823FEFCFE0919D0EF0919E0E1B
:1040A0000485158580E098E00E94DD320817190725
:1040B00029F40E94563C0E947F3830C0E0919D0E4A
:1040C000F0919E0E0485158586E098E00E94DD3211
:1040D0000817190719F40E94AD3E20C0E0919D0E0B
:1040E000F0919E0E048515858DED96E80E94DD32D7
:1040F0000817190719F40E945D4910C0209771F044
:1041000000D000D0EDB7FEB7D283C183F482E38242
:104110000E9491710F900F900F900F9000D000D0DF
:10412000EDB7FEB7D283C183D482C3820E9491715E
:104130000F900F900F900F909ECFCF93DF93EC01D5
:104140008A8D9B8D0E943E71BE010E944F29CE0137
:104150000E94A627F5CFEF92FF920F931F93DF9354
:10416000CF930F92CDB7DEB78C0100D000D0FC0109
:10417000828D938DEDB7FEB7928381838AE69BE0B3
:10418000948383830E9491710F900F900F900F90F2
:104190008DE0B8010E944F297E010894E11CF11CBA
:1041A0008091C40E9091C50EB7014FEF5FEF20E0F4
:1041B0000E9445688823A1F38981B8010E944F2994
:1041C000C8010E94A627ECCF6A9A08956A980895BC
:1041D0006B9A08956B98089580E0089580E00895A3
:1041E0008091D70E9091D80E60E070E040E050E0F2
:1041F00020E00E94116908958091D70E9091D80E09
:1042000060E070E04FEF5FEF20E00E9445680895A6
:10421000FC0109950FB6F8940F9281E060E00E94CE
:10422000096A9093D80E8093D70E009739F060E01A
:1042300070E040E050E020E00E94116980ED8DB90F
:10424000709A0F900FBE08952091860130918701DA
:104250002F5F3F4F8091020190910301281B390B82
:10426000C90108950F931F938C010E94746E080F6B
:10427000191F10930301009302011F910F910895DC
:10428000E1E6FFE090E08081882309F49F5F3197A9
:104290008EE0E23EF807B9F7892F08952F923F92FA
:1042A0004F925F927F928F929F92AF92BF92CF92E6
:1042B000DF92EF92FF920F931F93CF93DF934C0106
:1042C00084E091E0B4010E94DB7177242DE1222E7D
:1042D00021E0322EE72CFF2420E830E0E20EF31E2E
:1042E000DE2DCC2780E89FEFE80EF91E80EF482EE8
:1042F000512C4C0E5D1E1C81112309F44BC0812FE3
:1043000090E0B4010E94AF716E0101E0112359F0F9
:10431000D60115961C91112331F0812F90E0B40144
:104320000E94AF7106C080E290E0B4010E94AF71BC
:1043300010E00F5F0894C11CD11C083039F7EDB7AD
:10434000FEB738970FB6F894FEBF0FBEEDBF31969B
:10435000ADB7BEB712969C928E921197338222828D
:10436000BA80AA2489819501280F311D35832483C1
:104370008B81868317820E9480718DB79EB70896C5
:104380000FB6F8949EBF0FBE8DBFC415D50511F0B2
:104390006096B1CFA2EEBEE0EA0EFB1EF70180816F
:1043A000871511F0782E96CFDF91CF911F910F9145
:1043B000FF90EF90DF90CF90BF90AF909F908F9045
:1043C0007F905F904F903F902F90089521E0422F73
:1043D00050E0FA01EE51F14F8081882369F4208387
:1043E000E0E0F22FF05880E091E0DF01AC011D9297
:1043F00041505040E1F704C02F5F203841F720E0E2
:10440000822F0895A82FB0E0FD01EE51F14F2081D9
:104410002817F9F421E0E22FF0E0EE51F14F80810E
:10442000882319F02F5F2038B1F7AE51B14F2C938C
:10443000822F90E0FC01EE51F14F2083E0E0F22F5B
:10444000F05880E091E0DF01AC011D9241505040F6
:10445000E1F7822F08950F931F93062F10E005C0F8
:104460000E940222882319F01F5F1017C8F31F91C2
:104470000F910895CF92DF92EF92FF921F93CF9307
:10448000DF937C016B016115710509F44EC0DC01FD
:104490001496CD91DC9115978881882319F40E9498
:1044A000E6218883D7011496ED91FC9115978081C0
:1044B0008823D9F10894C108D108E601D695C7959B
:1044C0001C2F6C2F0E942B22982F882371F1D7016B
:1044D0001496ED91FC911597C0FE0FC08281C8170C
:1044E00038F01F5F12831496ED91FC91159711829D
:1044F000392F20E020583F471AC082818C1738F4AA
:10450000C283D7011496ED91FC91159705C08C17C5
:1045100029F4818187FD02C080E88183892F90E0A2
:1045200080589F4F382F222702C020E030E0C90179
:10453000DF91CF911F91FF90EF90DF90CF90089582
:10454000CF93DF93EC01009711F481E017C0EC8169
:10455000FD8191819A8382818B83992371F080817F
:1045600062810E942B2290E080589F4F982F8827CD
:104570002A81820F911D9983888380E0DF91CF91FA
:104580000895EF92FF920F931F93CF93DF93EC0167
:104590006115710519F41A821B8244C08B01015008
:1045A0001040EC80FD80F7018081882321F40E9477
:1045B000E621F70180830A831B83EC81FD818081E2
:1045C000612F0E942B22382F882311F481E02BC009
:1045D000EC81FD8192818B81981729F49A818181E8
:1045E000891708F49183EC81FD8192818B81981762
:1045F00030F48A818183EC81FD818B8182832A81E1
:104600002F5F2A83222321F48B818F5F8B830AC043
:10461000832F90E080589F4F982F8827820F911DFD
:104620009983888380E0DF91CF911F910F91FF9054
:10463000EF9008950F931F93CF93DF93EC018B01BD
:10464000EC81FD8182816B81681730F0861721F53E
:1046500091818A81981700F18A81882341F48081B1
:104660000E942B2290E080589F4F18828983E88116
:10467000F9818081F80180838A818F5F8A83882312
:1046800021F48B818F5F8B8305C08881998101968E
:104690009983888380E001C081E0DF91CF911F91F1
:1046A0000F910895DF93CF930F92CDB7DEB7FC0142
:1046B00084859585BE016F5F7F4F0E941A238823F2
:1046C00019F02FEF3FEF03C08981282F30E0C90197
:1046D0000F90CF91DF9108951F93CF93DF93EC015B
:1046E000162FEC81FD818081882349F40E94E62108
:1046F000882311F481E03EC0EC81FD8180838A81B2
:10470000882379F4EC81FD8180816B810E942B22CA
:10471000882311F482E02EC090E080589F4F1882C9
:104720008983E881F98110838A818F5F8A83882356
:1047300021F48B818F5F8B8305C0888199810196DD
:1047400099838883EC81FD8192818B81981729F46C
:104750009A818181891708F49183EC81FD8192818E
:104760008B81981730F48A818183EC81FD818B8164
:10477000828380E0DF91CF911F910895282FFB0164
:1047800084859585622F0E946C2390E00895CF93D5
:10479000DF939C010EC0A82FB0E0FD01EE51F14F58
:1047A000E081E81711F4188201C0E883AE51B14FDF
:1047B0001C92D9011496CD91DC911597888188239C
:1047C00051F719821496ED91FC9115971282149667
:1047D000ED91FC9115971486158616861786F901BA
:1047E0001082118212821382DF91CF910895DC0131
:1047F0001496ED91FC9115978381882339F08150AF
:10480000838386E0FD0111928A95E9F70895EF927E
:10481000FF920F931F938C01DC011C96ED90FC908E
:104820001D97C7010E94F723C8010E941371D70189
:104830001496ED91FC91159783811F910F91FF9034
:10484000EF90089580E8E2EEFEE0DF011D928A9588
:10485000E9F780E091E0E0E0F0E8DF019C011D92E3
:1048600021503040E1F708959F92AF92BF92CF92CE
:10487000DF92EF92FF920F931F93CF93DF93EC01A0
:104880005B016A01EC81FD818081882329F4FA01B2
:104890001182108281E077C022813B81321740F083
:1048A000231709F07CC091818A81981708F477C09A
:1048B000822F90E0831B91092181422F50E02A81B1
:1048C000421B5109480F591FF601E080F1804E1537
:1048D0005F0508F47A01F601118210828A8100E0F6
:1048E00011E0081B1109992449C08A818823B1F479
:1048F000992039F4EC81FD8180816B810E942B220B
:1049000003C0892D0E940222982E882311F483E08F
:104910003AC090E080589F4F1882898368817981DE
:104920000E151F05B0F4C501A8010E94D470A00E99
:10493000B11E1A828B818F5F8B83E01AF10AF60118
:1049400080819181800F911F9183808300E011E02D
:1049500015C0C501A7010E94D470888199818E0D70
:104960009F1D998388838A818E0D8A83F6018081B9
:1049700091818E0D9F1D9183808304C0E114F10409
:1049800009F0B3CF80E0DF91CF911F910F91FF909D
:10499000EF90DF90CF90BF90AF909F900895F60179
:1049A0001182108282E0EFCF8F929F92BF92CF92BE
:1049B000DF92EF92FF920F931F93CF93DF93EC015F
:1049C0006B014A010C811D81F8018081882321F44B
:1049D0000E94E621F80180838A8100E011E0081B33
:1049E0001109F401E080F18011821082BB244EC0D5
:1049F0008A818823B1F4BB2039F4EC81FD81808168
:104A00006B810E942B2203C08B2D0E940222B82EA4
:104A1000882311F481E056C090E080589F4F18829F
:104A20008983888199810E151F05B0F4B601A8010C
:104A30000E94D470C00ED11E1A82E01AF10AF4014D
:104A400080819181800F911F918380838B818F5F03
:104A50008B8300E011E01AC0B601A7010E94D47058
:104A60008A818E0D8A83F401808191818E0D9F1D34
:104A7000918380838B2D90E080589F4F982F8827BB
:104A80002A81820F911D9983888304C0E114F10467
:104A900009F0AECFEC81FD8192818B81981729F4CA
:104AA0009A818181891708F49183EC81FD8192813B
:104AB0008B81981730F48A818183EC81FD818B8111
:104AC000828380E0DF91CF911F910F91FF90EF9053
:104AD000DF90CF90BF909F908F900895AF92BF923C
:104AE000CF92DF92EF92FF920F931F93CF93DF93BA
:104AF0006C01FC0101900020E9F73197FE2EF81AB5
:104B000088E08F1510F4A8E0FA2EF601EF0DF11DE4
:104B100031978081882309F4FA94F60191E007C067
:104B200081813196803211F4F92E05C09F5F9F1567
:104B3000B8F3FF2029F1EE240E2D10E000581F4F8E
:104B4000D02FCC2700581040E0EFAE2EB12CAC0E89
:104B5000BD1EBE016C5F7F4FC6014F2D50E00E940D
:104B6000F670009779F0CA15DB0511F06096F1CF69
:104B70000E51114FF8018081E81611F0E82EDCCFBC
:104B8000C0E0D0E0CE01DF91CF911F910F91FF9057
:104B9000EF90DF90CF90BF90AF900895CF93DF93C9
:104BA0000E946E25EC01009711F481E01CC08B81FE
:104BB000882381F082E017C0A82FB0E0FD01EE51FC
:104BC000F14FE081E81711F4188201C0E883AE517B
:104BD000B14F1C928881882379F780E1FE01119200
:104BE0008A95E9F780E0DF91CF910895CF93DF9325
:104BF000EB010E946E25FC01009711F481E00BC0CF
:104C000083E0DE011D928A95E9F7FD83EC838381C1
:104C10008F5F838380E0DF91CF910895FF920F93A0
:104C20001F93CF93DF938B01EA01F22E0E94F625AA
:104C3000282F882359F48EEB93E29987888782E5A1
:104C400093E29B878A87FB821D870C87822FDF91E7
:104C5000CF911F910F91FF900895FF920F931F9393
:104C6000CF93DF93082FF92EA82FB92FFD010190C4
:104C70000020E9F731971E2F181B193008F018E0B3
:104C8000802F9F2D9C01F90190E006C08191803218
:104C900011F4192F03C09F5F9117C0F3112309F47A
:104CA0003FC0802F9F2D0E946E25892BC9F590E073
:104CB000292F30E020583F4FD22FCC2720583040AA
:104CC000AE0140515F4F8C818823B9F0C417D507DE
:104CD00011F06096F8CFE901CE51D14F8881981735
:104CE00011F0982FE5CF0E94E62188838823D1F028
:104CF00090E080589F4FD82FCC27209799F08CE0D8
:104D0000FE0111928A95E9F7CE010496602F7F2D5E
:104D1000412F50E00E9404711C861D861E861F864E
:104D200080E001C081E0DF91CF911F910F91FF9052
:104D30000895DC011296ED91FC91139780E021E03B
:104D400009C0903211F020E004C0222309F48F5FE3
:104D500021E0319690819923A1F70895582FFB0106
:104D60002281338190E001C09F5FF901E90FF11DBD
:104D700080818032C9F340E012C09F5FF901E90FE2
:104D8000F11DE081EE2321F0E032B9F701C09F5F11
:104D9000F901E90FF11D80818032C9F34F5F45179A
:104DA00068F3290F311DC90108956F927F928F9288
:104DB0009F92BF92CF92DF92EF92FF920F931F9339
:104DC000DF93CF9300D000D000D0CDB7DEB77C0109
:104DD000FC01C1A0D2A08E010F5F1F4FC801B60118
:104DE00046E050E00E94B0709BE9692E9BE0792E6E
:104DF00088E9882E8BE0982EB02E012F00D000D0AD
:104E0000F701828D938DEDB7FEB7928381838981FF
:104E10009A81948383830E949171F701828D938D8F
:104E2000EDB7FEB792838183748263820E94917191
:104E3000F701828D938DEDB7FEB7928381838B81CD
:104E40009C81948383830E949171F701828D938D5D
:104E5000EDB7FEB792838183948283820E94917121
:104E600086E090E0C80ED91E0F900F900F900F9023
:104E70008B2D902FB60146E050E00E94B0708D81DE
:104E80009E81892B09F0BACF26960FB6F894DEBF23
:104E90000FBECDBFCF91DF911F910F91FF90EF908B
:104EA000DF90CF90BF909F908F907F906F900895EC
:104EB000DF93CF9300D0CDB7DEB70E94AE26BE0100
:104EC0006F5F7F4F40E150E00E94796F0F900F902D
:104ED000CF91DF910895DF93CF9300D0CDB7DEB7A8
:104EE0000E94AE26BE016F5F7F4F4AE050E00E94F5
:104EF000796F0F900F90CF91DF9108950F931F93CB
:104F0000CF93DF938C01FC0180A1813019F08230B6
:104F100021F406C0CBE7DBE00FC0C4E7DBE00CC048
:104F2000C2E8DBE009C02196F9018491F801628DA5
:104F3000738D90E00E94AF719E01FE0184918823E1
:104F400091F7DF91CF911F910F910895CF93DF9348
:104F5000EC018F89988D892B09F486C0CE010E94BF
:104F60009926898FEF89F88DCE01099582309105B8
:104F7000D1F08330910520F4019709F06CC008C08E
:104F80008430910509F44AC0059709F064C051C006
:104F900000D000D08A8D9B8DEDB7FEB792838183C0
:104FA00081EE9BE050C000D000D08A8D9B8DEDB784
:104FB000FEB7928381838DEC9BE0948383830E9470
:104FC00091718A8D9B8DEDB7FEB7928381838B891A
:104FD0009C89948383830E9491718A8D9B8DEDB708
:104FE000FEB7928381838BEC9BE0948383830E9442
:104FF00091718A8D9B8DEDB7FEB7928381838D89E8
:105000009E89948383830E9491718A8D9B8DEDB7D5
:10501000FEB79283818388EC9BE015C000D000D05E
:105020008A8D9B8DEDB7FEB79283818385EB9BE0E4
:105030000AC000D000D08A8D9B8DEDB7FEB7928359
:1050400081838DE99BE0948383830E9491710F900B
:105050000F900F900F90188E1F8A1C8A1B8A1E8A31
:105060001D8ACE010E947E27DF91CF910895EF9295
:10507000FF921F93CF93DF93EC017B016A8D7B8DB1
:105080008DE090E00E94AF71CE010E947E271D85C9
:105090000BC0F70181917F016A8D7B8D992787FD78
:1050A00090950E94AF711150112399F71C858D8541
:1050B000181B07C06A8D7B8D80E290E00E94AF7163
:1050C00011501123B9F71C858D85181B07C06A8DF7
:1050D0007B8D88E090E00E94AF7111501123B9F7E9
:1050E000DF91CF911F91FF90EF900895CF93DF93C1
:1050F000EB018130F1F0813020F0823009F05FC0A7
:105100003FC01D861E86198AE881F9818081882327
:1051100009F455C0EF85EF5FE370EF87F0E032965A
:10512000EE0FFF1FE60FF71F80819181998388831F
:1051300046C09889933009F442C08F858150891BFD
:105140008370E82FF0E03296EE0FFF1FE60FF71F97
:1051500020813181D9018C91882389F19F5F9370DF
:10516000988BA081B181FD0101900020E9F7319772
:10517000EA1BFB0BED87EE87198ACB01B9011DC035
:1051800088898823E1F08150888BEF85E81BE370E4
:10519000F0E03296EE0FFF1FE60FF71F808191813E
:1051A000DC010D900020E9F71197A81BB90BAD8722
:1051B000AE87198A60817181CE010E943728DF9104
:1051C000CF9108958F929F92BF92CF92DF92EF92EC
:1051D000FF920F931F93CF93DF93EC01F62EB72E20
:1051E0006A01490183E2FE0111928A95E9F7862F4F
:1051F000972F60E070E00E94DD70F882B982D6944B
:10520000C794D694C794CC86E8A21AA309A3FE013A
:105210002F2D3B2DC9019C01AE01485F5F4F3583A7
:1052200024838C85280F311D3296E417F507B9F7D2
:105230009B8E8A8EDF91CF911F910F91FF90EF90FF
:10524000DF90CF90BF909F908F9008950F931F9302
:10525000CF93DF93EC0188898823C9F00F85081B61
:1052600003704C858881998160E070E050E00E9475
:10527000DD7010E00E5F1F4F000F111F0C0F1D1F80
:10528000F80160817181888199810E94EF70188A8C
:1052900081E0898BDF91CF911F910F9108959F92AB
:1052A000AF92BF92CF92DF92EF92FF920F931F9334
:1052B000DF93CF9300D000D000D0CDB7DEB7182F4A
:1052C0007B01DB0152968C91823009F05DC0123473
:1052D00071F0133424F4113409F053C006C01334B0
:1052E00059F0143409F04DC031C081E001C082E0B2
:1052F000B7010E94762845C0FB018189882319F4F3
:10530000CB010E942629D7011E969C911E971D96BF
:105310008C911D975A966D917C915B97981768F5C3
:105320009F5F1E969C938BE190E00E94AF71F70106
:10533000628D738D8BE590E00E94AF71D7015A9614
:105340006D917C915B9783E490E019C0FB018189AA
:10535000882319F4CB010E942629D7011E968C912F
:105360001E975A966D917C915B97882331F08150FE
:105370001E968C9388E090E002C087E090E00E9447
:10538000AF71F701128A1EC2813039F41B3511F456
:1053900082E015C2FB01128A03C0DB0152961C9207
:1053A000F70195858485981789F49150958791E048
:1053B00009C0D701ED91FC91E90FF11D8081319772
:1053C00080839F5FF7018485981798F3812F80521F
:1053D0008F3508F05BC0D70151968C91882319F462
:1053E000C7010E942629F701958586858917E9F46A
:1053F000628D738D812F992787FD90950E94AF71E3
:10540000D7011E968C911E97ED91FC911197E80F94
:10541000F11D10838F5F1E968C931E971D968C91A5
:105420001D978F5F1D968C93CDC19F5FF701958768
:1054300006C0E90FF11D8291319680839150D7010A
:105440001E968C911E97ED91FC911197891788F308
:10545000E80FF11D10838F5F1E968C931E976D9140
:105460007C91C7010E943728F70116850AC0D70131
:105470005A966D917C915B9788E090E00E94AF71A5
:105480001F5FF7018585181790F39CC11D3009F047
:1054900025C1D70151968C915197882309F049C0B5
:1054A00050962C915097222379F11F96EC911F97DB
:1054B000F0E0E21BF109E370F0703296EE0FFF1F8F
:1054C000EE0DFF1D808191818D939C931BC0D701B0
:1054D0001F96EC91F0E0E21BF109DF01A370B070C0
:1054E0001296AA0FBB1FAE0DBF1D3197E370F0706F
:1054F0003296EE0FFF1FEE0DFF1D808191818D937F
:105500009C932F5F243018F3D7011F96EC911F97BF
:10551000F0E03296EE0FFF1FEE0DFF1D8D919C9176
:1055200011979183808350961C92509781E05196F9
:105530008C93F701628D738D8DE090E00E94AF71C6
:10554000D7015A966D917C915B978AE090E00E941A
:10555000AF71F70185850190F081E02DE80FF11D15
:1055600010828F5FD7011D968C931D971E968C918C
:105570001E978F5F1E968C931E978D919C9111970D
:1055800013969C938E931297BB2401C0B394FC0195
:10559000EB0DF11DE081E03211F0EE23B9F7BB20F5
:1055A00009F492C0F701C1A0D2A08E010F5F1F4F76
:1055B000C801B60146E050E00E94B070902EA12EC6
:1055C00009811A81D70112968D919C911397B80188
:1055D0004B2D50E00E94B970892B81F48D819E8102
:1055E000F701908F878B148B038B8B819C81968B1B
:1055F000858B80E0B7010E94762869C086E090E044
:10560000C80ED91E892D9A2DB60146E050E00E94A1
:10561000B07089819A81892B99F609E81BE00CC04A
:105620000F5F1F4FF9018491D7015A966D917C91BC
:105630005B9790E00E94AF719801F80184918823F4
:1056400079F7D7010D911C910AC00F5F1F4FF70129
:10565000628D738D992787FD90950E94AF71D80157
:105660008C91882311F0803281F7F701628D738D60
:105670008AE390E00E94AF71D7015A966D917C91B8
:105680005B9780E290E00E94AF7103E91BE007C0E6
:105690000F5F1F4FF901849190E00E94AF71980154
:1056A000F8018491D7015A966D917C915B9788237C
:1056B00079F78DE090E00E94AF71F701628D738DF4
:1056C0008AE090E00E94AF71C7010E947E27D70157
:1056D0001D961C921D971E961C9274C0183009F0DE
:1056E00069C0F7019685992309F45CC085859817F0
:1056F00029F5628D738D88E090E00E94AF71D7012B
:105700005A966D917C915B9780E290E00E94AF7118
:10571000F701628D738D88E090E00E94AF71D70130
:105720001D968C911D9781501D968C931D971E96EA
:105730008C911E9781501E968C9344C08150F70126
:1057400085879150968705C0E90FF11D818180837F
:105750009F5FD7011D968C911D97ED91FC91981735
:1057600098F3C701BF010E943728F701628D738D3E
:1057700080E290E00E94AF71D7011E961C9108C094
:10578000F701628D738D88E090E00E94AF711F5F1A
:10579000D7011D968C9190E0212F30E0821793075E
:1057A0007CF710C0F701628D738D87E090E00E9456
:1057B000AF7108C01F3731F01B3121F481E0D701F0
:1057C00052968C9326960FB6F894DEBF0FBECDBFCF
:1057D000CF91DF911F910F91FF90EF90DF90CF90CD
:1057E000BF90AF909F900895DA012DB73EB7285033
:1057F00030400FB6F8943EBF0FBE2DBFEDB7FEB7D9
:1058000031965A962D913C915B97ADB7BEB71296E3
:105810003C932E93119726E231E0338322838483D5
:105820001582668317820E9491712DB73EB7285F5B
:105830003F4F0FB6F8943EBF0FBE2DBF0895FB013A
:10584000228D338D882349F000D000D0EDB7FEB70C
:10585000328321838FE291E008C000D000D0EDB701
:10586000FEB73283218386E391E0948383830E9491
:1058700091710F900F900F900F900895DB0100D061
:1058800000D000D0EDB7FEB731965A962D913C91DD
:105890005B97ADB7BEB712963C932E9311972DE34D
:1058A00031E033832283848315820E9491718DB706
:1058B0009EB706960FB6F8949EBF0FBE8DBF089593
:1058C00000D000D0FC01828D938DEDB7FEB792839E
:1058D000818383E491E0948383830E9491710F908C
:1058E0000F900F900F90089500D000D0FC01828D92
:1058F000938DEDB7FEB79283818388E491E0948322
:1059000083830E9491710F900F900F900F900895D4
:10591000089508950F931F93CF93DF93182F062FA9
:10592000EA01803610F081E01DC090E0860F911DE5
:105930008036910514F082E015C00E94FC200E9480
:105940000812812F805E0E944C1205C080E00E94E8
:105950004C12899301500023C9F70E940D120E9436
:10596000F02080E0DF91CF911F910F9108950F9368
:105970001F93CF93DF93182F062FEA01803610F084
:1059800081E01CC090E0860F911D8036910514F0D7
:1059900082E014C00E94FC200E940812812F8056D1
:1059A0000E944C1204C089910E944C1201500023A5
:1059B000D1F70E940D120E94F02080E0DF91CF917C
:1059C0001F910F9108950E94FC200E9408128FE8F9
:1059D0000E944C1280E00E944C120E940D120E9404
:1059E000F02008950F931F93CF93DF93182F092F63
:1059F0000E94FC200E940812212F302FC901EC01C7
:105A000080E80E944C1210E089910E944C121F5FA6
:105A10001730D1F70E940D120E94F020DF91CF9134
:105A20001F910F9108950E94F22C08950E94F22C6C
:105A300008950F931F93CF93DF93182F092F0E9480
:105A4000FC200E940812212F302FC901EC0180E0B8
:105A50000E944C1210E0812F0E944C1289931F5F0C
:105A60001730C9F70E940D120E94F020DF91CF91EC
:105A70001F910F9108950E94192D08950E94192DCC
:105A80000895089508951F93182F110F1E70116423
:105A90000E94FC200E94F011812F0E944C1283E191
:105AA0000E944C12812F0E944C12182F0E94F2115A
:105AB0000E94F020812F1F9108951F93182F110F1E
:105AC0001E7011640E94FC200E94F011812F0E9420
:105AD0004C1282E10E944C12812F0E944C12182F0E
