:100000000C94990A0C94BE0A0C94BE0A0C94BE0A75
:100010000C94BE0A0C94BE0A0C94BE0A0C94BE0A40
:100020000C94BE0A0C94BE0A0C94BE0A0C94BE0A30
:100030000C9407590C94BE0A0C94BE0A0C94BE0A88
:100040000C94BE0A0C94C50D0C949A0C0C94CE0B17
:100050000C94710B0C94BE0A0C94BE0A0C94BE0A4C
:100060000C94BE0A0C94BE0A0C94BE0A0C94BE0AF0
:100070000C94BE0A0C94BE0A0C94550C0C948A0B7A
:100080000C94BE0A0C94BE0A0C94BE0A206C6F63DA
:100090006B657220256400206F70656E2020200043
:1000A000206C6F636B656420002028746872657330
:1000B000686F6C642025642C2041432076616C7548
:1000C00065202564290D0A00416C6C204F4B0D0AF8
:1000D000004E6F2046696C650D0A000D0A000D0A7E
:1000E000000D0A000D0A00784D6F64656D204352C3
:1000F00043206572726F720D0A0052656D6F7465F0
:1001000020736964652063616E63656C6C6564204F
:100110006174206672616D65206E6F2025640D0A22
:1001200000784D6F64656D20756E6B6E6F776E2015
:10013000726573706F6E736520307825780D0A00D4
:10014000446576696365202564206973206E6F7449
:1001500020726573706F6E64696E6720282564294C
:100160000D0A00426F6F746C6F6164657220697371
:10017000206E6F7420726573706F6E64696E670DA8
:100180000A0043616E2774206F70656E2066696C8B
:10019000652025730D0A0053797374656D2073749F
:1001A0006174653A0D0A0020204E756D62657220FB
:1001B0006F66207461736B73203A2025640D0A000A
:1001C00020204672656552746F73206865617020E7
:1001D00020203A2025642066726565206F66202500
:1001E000642062797465730D0A0020204D616C6C87
:1001F0006F63206865617020202020203A202564EC
:100200002066726565206F662025642062797465BA
:10021000730D0A00202052616D206469736320739E
:100220007061636520203A20256420667265652030
:100230006F6620256420636C7573746572730D0A94
:1002400000202054656D70657261747572652020A0
:100250002020203A20256420430D0A002020566FDC
:100260006C746167652020202020202020203A2007
:10027000256420560D0A0053797374656D207365EB
:100280007474696E67733A0D0A0020204D61632013
:100290006164647265737320202020203A2000205E
:1002A00020495020616464726573732020202020EF
:1002B000203A200020206D61736B20202020202018
:1002C0002020202020203A200020206761746577BC
:1002D00061792020202020202020203A2000446521
:1002E0007465637465642052532034383520646526
:1002F00076696365733A0D0A00202043616E2774A6
:100300002066696E6420616E792064657669636534
:100310000D0A004C6F636B65722073656E736F72AC
:1003200073207374617465733A0D0A0020204C6F5A
:10033000636B65722073656E736F7273206469738B
:1003400061626C65640D0A0057726974696E67209A
:10035000746F2066696C652E20507265737320433C
:1003600054524C2B4320746F20717569740D0A0030
:1003700046696C65206C656E6774683A2025640D6B
:100380000A00586D6F64656D3A205472616E736D2A
:10039000697373696F6E2073746172740D0A005013
:1003A0006F646E6F737A656E696520726F6C6574C9
:1003B000790D0A09737465726F776E696B20256415
:1003C0000D0A09726F6C6574612020202025640D70
:1003D0000A004F7075737A637A616E696520726F77
:1003E0006C6574790D0A09737465726F776E696B49
:1003F0002025640D0A09726F6C657461202020202D
:1004000025640D0A0009706F7A79636A61202020E3
:1004100025640D0A00456E61626C656420257320B9
:1004200064656275670D0A0044697361626C656496
:100430002025732064656275670D0A0068656C701D
:10044000005072696E742068656C702073747269F4
:100450006E6700737461747573007B66696C656E9A
:10046000616D657D205072696E7420646576696384
:100470006520737461747573206F6E205654592013
:100480006F7220777269746520746F2066696C657D
:1004900000656E6373746174005072696E742045F8
:1004A0006E632032386A363020726567697374650E
:1004B00072730074696D65005072696E742074699E
:1004C0006D65006465627567005B6172707C69636D
:1004D0006D707C69707C7463707C7564705D205B8A
:1004E0006C6576656C5D2077726974652064656201
:1004F000756720696E666F2E204C6576656C2030BE
:100500002064697361626C65206465627567696EF9
:1005100067007270696E67005B4465766963652089
:100520006E6F5D2053656E642070696E6720746F16
:1005300020527334383520646576696365007069CC
:100540006E67005B41315D205B41325D205B413372
:100550005D205B41345D2053656E64732070696E6D
:1005600067207468726F7567687420657468657257
:100570006E65740078726563005B66696C65206EF9
:10058000616D655D20726563656976652066696C7D
:1005900065207573696E6720784D6F64656D0078AE
:1005A00073656E64005B66696C65206E616D655D88
:1005B0002073656E642066696C65207573696E676B
:1005C00020784D6F64656D0078666C617368005BC0
:1005D000646576696365206E6F5D205B66696C6536
:1005E000206E616D655D20666C6173682064657660
:1005F00069636520636F6E6E656374656420746FF4
:100600002052733438350064697272660050726922
:100610006E742072616D6469736B2066696C6573BA
:1006200000637266005B66696C65206E616D655D76
:10063000206372656174652072616D2066696C6506
:100640000065726173657266005B66696C65206E39
:10065000616D655D2065726173652066696C6520FA
:1006600066726F6D2072616D206469736B006564E2
:1006700069747266005B66696C65206E616D655DAC
:1006800020656469742066696C65206C6F636174B1
:100690006564206F6E2072616D206469736B0072F7
:1006A0006561647266005B66696C65206E616D658C
:1006B0005D20726561642066696C65206C6F6361A2
:1006C000746564206F6E2072616D206469736B00C5
:1006D0007570005B647269766572206E6F5D205B79
:1006E0006368616E6E656C5D207B76616C75657D9F
:1006F000206D6F766520757000646F776E005B64A7
:100700007269766572206E6F5D205B6368616E6EE4
:10071000656C5D207B76616C75657D206D6F76659F
:1007200020646F776E00737061005B76616C756535
:100730005D2073657420706F727420410073706265
:10074000005B76616C75655D2073657420706F72F7
:100750007420420073657474696D65005B685D2088
:100760005B6D5D205B735D207365742074696D65DE
:10077000202832346820666F726D617429006163CD
:10078000005B6368616E6E656C20302D375D207292
:1007900065616420616E616C6F672076616C756560
:1007A00000656E61626C6500456E61626C65206D0E
:1007B0006F64650064697361626C65005669657792
:1007C000206D6F646500636F6E66696700436F6ECE
:1007D000666967757265206D6F6465006970005B9E
:1007E00041315D205B41325D205B41335D205B41E7
:1007F000345D2073657420495020616464726573B0
:100800007300756470005B41315D205B41325D2097
:100810005B41335D205B41345D205B73726320700C
:100820006F72745D207B64737420706F72747D20AE
:100830007365742075647020636C69656E742049FB
:1008400050206164647265737320616E6420706F00
:10085000727473006D61736B005B6D61736B5D200F
:10086000736574206D61736B006777005B41315D68
:10087000205B41325D205B41335D205B41345D2074
:100880007365742064656661756C74206761746556
:10089000776179006D6163005B41315D205B4132BE
:1008A0005D205B41335D205B41345D205B41355D04
:1008B000205B41365D20736574204D4143206164A7
:1008C00064726573730073617665005361766520A9
:1008D000636F6E66696775726174696F6E007365C8
:1008E0007472005B76616C75655D2073657420724F
:1008F0006573697374616E63652076616C756500FC
:100900004F4B0D0A000D0A0021212120572062754E
:10091000646F727A6520527334383520706F7A6F45
:100920007374616C6F2025642062616A746F770D47
:100930000A00C800D100DB00DE00E100E400E700AF
:10094000FA0021014001630182013C04410466195F
:1009500053045A04431BB304B804F11812051805D4
:10096000DE143E054305601007060D06E9189F06D4
:10097000A6064618A107A807F60F00000000000011
:100980003C044104661953045A04431B910499041E
:100990003E18B304B804F118C304C904591712056A
:1009A0001805DE143E0543056010740579056515CC
:1009B0009F05A505D813C805CF05041507060D0624
:1009C000E91821062506C11441064906AA146E0637
:1009D00075062A149F06A6064618D006D306561397
:1009E000F906FE06E01226072A07CE123D07410748
:1009F000BC12DE08E308AA1254075C0743127E0704
:100A00008107CC11B407BC070710C607CD07131028
:100A10000000000000003C044104661953045A041D
:100A2000431BB304B804F11854075C074312DC07F6
:100A3000DF07741154085908541169086C08FC1038
:100A4000020806087F10940898082910C608CB08E9
:100A50002410A107A807F60FB407BC070710000071
:100A600000000000576172746F73632070726F62D0
:100A70006B69206E612077656A73636975202564F0
:100A80003A2025640D0A00586D6F64656D3A207236
:100A90006F7A706F637A796E616E6965206F6462D8
:100AA000696F72750D0A0075647000746370006977
:100AB000636D70006970006172700075647000741D
:100AC00063700069636D700069700061727000414D
:100AD0006B7475616C6E7920637A61732025643A5A
:100AE00025643A25640D0A000D0A000D0A000D0A5E
:100AF000000D0A004672656552746F732B2076658F
:100B00007220302E3331206275696C643A20417551
:100B10006720313920323031312C2031353A3033B1
:100B20003A31360D0A003D3D3D3D3D3D3D3D3D3DAB
:100B30003D3D3D3D3D3D3D3D3D3D3D3D3D3D3D3DE5
:100B40003D3D3D3D0D0A00556E6B6E6F776E20701A
:100B500061636B65740D0A00495020737461636BA7
:100B6000207265616479200D0A00526573746172A8
:100B7000740D0A00446F6D4F733E00446F6D4F73E8
:100B80002300446F6D4F734000636D646C696E6544
:100B90003A200023206E6B000D0A0009004F70659B
:100BA000726174696F6E206E6F7420616C6C6F7708
:100BB00065640D0A004F7065726174696F6E20661E
:100BC00061696C65640D0A000D0A00200053796E9E
:100BD000746178204572726F722E205573653A20C9
:100BE000004F4B0D0A00094D4141445235203078E9
:100BF00025780D0A00094D414144523420307825B2
:100C0000780D0A00094D414144523320307825784F
:100C10000D0A00094D414144523220307825780DAB
:100C20000A00094D414144523120307825780D0A9F
:100C300000094D414144523020307825780D0A009A
:100C4000454E4332386A3630207374616E207265C7
:100C50006A657374726F773A0D0A004E49432072C9
:100C600065672064756D70206E6F7420696D706C9F
:100C7000656D656E7465640D0A000D0A0055524776
:100C8000200041434B200050534820005253542031
:100C90000053594E200046494E2000466C61677350
:100CA0002020203A200041636B204E756D203A20B1
:100CB000307825780D0A00536571204E756D203A05
:100CC00020307825780044737420506F72743A2075
:100CD00025640D0A0053726320506F72743A202508
:100CE000640D0A00544350204865616465720D0A22
:100CF000000D0A0044657374202049503A20000D0D
:100D00000A00536F7572636549503A200050726F44
:100D1000746F636F6C3A2025640D0A0050726F7413
:100D20006F636F6C3A205544500D0A0050726F7417
:100D30006F636F6C3A205443500D0A0050726F7409
:100D40006F636F6C3A2049434D500D0A004C656E3D
:100D500067746820203A2025640D0A0056657220C9
:100D6000202020203A2025640D0A004950204865A3
:100D7000616465720D0A002D3E4453543A002053BD
:100D800052433A00457468205061636B6574205487
:100D90007970653A20307825780025642E25642EF8
:100DA00025642E256400253032783A253032783A91
:100DB000253032783A253032783A253032783A2563
:100DC000303278000D0A0047617465776179203A06
:100DD00020000D0A004E65746D61736B203A20008F
:100DE0000D0A0049502041646472203A2000646575
:100DF0006275675072696E744865785461626C659B
:100E0000286C656E2D4554485F4845414445525F06
:100E10004C454E2C2026646174615B4554485F4804
:100E200045414445525F4C454E5D293B0064656237
:100E300075675072696E744865785461626C652894
:100E40004554485F4845414445525F4C454E2C202F
:100E500026646174615B305D293B0053656E646993
:100E60006E67204950207061636B657420746F2039
:100E7000676174657761790D0A0053656E64696E08
:100E800067204950207061636B6574206F6E206C21
:100E90006F63616C206E65740D0A004E45542052DC
:100EA000783A20556E6B6E6F776E204950207061D6
:100EB000636B65740D0A004E45542052783A2054F5
:100EC00043502F4950207061636B65740D0A004ECA
:100ED00045542052783A205544502F495020706193
:100EE000636B65740D0A004E45542052783A2049D0
:100EF000434D502F4950207061636B65740D0A009B
:100F0000436F64652020203A20307825780D0A0050
:100F10000D0A004543484F205245504C5900454367
:100F2000484F20524551554553540054797065201F
:100F300020203A20000D0A00447374497041646413
:100F4000723A20000D0A0053726349704164647262
:100F50003A200049434D50205061636B65743A0D4F
:100F60000A0053656E64696E672049434D502050F6
:100F70004F4E470D0A0052656365697665642049E6
:100F8000434D5020726571756573743A2000556E3B
:100F90006B6E6F776E2049434D50207479706552A7
:100FA000656365697665642049434D5020726571BB
:100FB000756573743A20000D0A0020200025336403
:100FC0002020000D0A00202000204D592020002D57
:100FD0002D2D2D2D2D2D2D2D2D2D2D2D2D2D2D2D41
:100FE0002D2D2D2D2D2D2D2D2D2D2D2D2D2D2D2D31
:100FF0002D2D0D0A0054696D6520457468204164EB
:101000006472657373202020202020202049502006
:10101000416464726573730D0A000D0A00447374B1
:1010200050726F746F416464723A20000D0A00447C
:1010300073744877416464722020203A20000D0ABE
:101040000053726350726F746F416464723A20008F
:101050000D0A005372634877416464722020203A7D
:1010600020000D0A00554E4B4E4F574E0052455032
:101070004C590052455155455354004F70657261AB
:1010800074696F6E2020203A200041525020506138
:10109000636B65743A0D0A000D0A002049503A202E
:1010A0000041525020495020696E204D41433A2062
:1010B0000053656E64696E6720415250205265701E
:1010C0006C790D0A0052656365697665642041524A
:1010D0005020526571756573740D0A004854545060
:1010E000206E6F7420696D706C656D656E746564DB
:1010F0000D0A004F70656E696E672054435020637F
:101100006F6E6E656374696F6E204552524F523A2E
:101110002061636B20666C6167207761736E277452
:10112000207365740D0A004F70656E696E672054F8
:10113000435020636F6E6E656374696F6E20736FCA
:10114000636B6574207374617465206368616E6796
:10115000652053594E5F52454345495645442D3EFF
:101160004553544142494C49534845440D0A004FA8
:1011700070656E696E672054435020636F6E6E65B4
:101180006374696F6E204552524F523A2073796EE4
:1011900020666C6167207761736E277420736574B5
:1011A0000D0A004F70656E696E67205443502063CE
:1011B0006F6E6E656374696F6E20736F636B6574B9
:1011C000207374617465206368616E6765204C49A3
:1011D0005354454E2D3E53594E5F52454345495653
:1011E00045440D0A0043616E27742066696E6420D1
:1011F00054435020736F636B657420776974682063
:101200006C6F63616C506F72742025640D0A004628
:101210006F756E642054435020736F636B65742048
:101220006E6F202564207374617465204C4953549B
:10123000454E0D0A00466F756E642054435020736E
:101240006F636B65742073746174652025640D0A87
:101250000025640D0A00414E590D0A000D0A202098
:1012600073726320706F7274202020203A202564EE
:101270000D0A202064737420706F72742020202067
:101280003A20000D0A202049502020202020202034
:101290002020203A200055445020636F6E66696715
:1012A0003A000D0A00554450205458206275666675
:1012B000657220627573790D0A0030782532780DD9
:1012C0000A00526563656976656420646174613AF9
:1012D000200050726F632E20554450207061636B64
:1012E0006574202864617461206C656E6774682081
:1012F0002564290D0A0053656E64696E67205544A4
:1013000050207061636B6574202864617461206C87
:10131000656E677468202564290D0A004950763689
:1013200020616464723A2025303278253032783A70
:1013300025303278253032783A25303278253032EF
:10134000783A25303278253032783A25303278258F
:101350003032783A25303278253032783A253032BA
:1013600078253032783A2530327825303278200DA1
:101370000A0044657374696E6174696F6E206164FC
:1013800064726573733A20090049507636206164AF
:1013900064723A2025303278253032783A2530325E
:1013A00078253032783A25303278253032783A252F
:1013B000303278253032783A25303278253032781C
:1013C0003A25303278253032783A25303278253057
:1013D00032783A2530327825303278200D0A0053A1
:1013E0006F7572636520616464726573733A200976
:1013F000002564200A0D005061796C6F6164204CF7
:10140000656E6774683A2009002564200A0D00465D
:101410006C6F77204C6162656C3A20090900256485
:10142000200A0D005472616666696320436C617323
:10143000733A200909002564200A0D00566572736D
:10144000696F6E3A200909000D0A00253032783A9A
:10145000000D0A0049507636204865616465720DBA
:101460000A0049507636207061636B657420696E9E
:101470002E0D0A0020256420726F6C6C657220644A
:1014800072697665723A20726F6C6C6572203120D9
:10149000706F736974696F6E2025642C20726F6C95
:1014A0006C6572203220706F736974696F6E2025CD
:1014B00064002C206669726D776172652025730D5A
:1014C0000A000D0A4F4B0D0A00626F6F746C6F615A
:1014D000646572206E696520726F7A706F637A61DD
:1014E0006C206F6462696F72752064616E796368E5
:1014F0000D0A006E612075727A61647A656E697595
:1015000020776772616E79206A6573742074796CD4
:101510006B6F20626F6F746C6F616465720D0A008F
:1015200072464C4153482074696D656F75740D0A9D
:10153000000011241FBECFEFD0E1DEBFCDBF11E010
:10154000A0E0B1E0E0E9F1EC00E00BBF02C00790E1
:101550000D92A838B107D9F785B7806885BF85B7E0
:101560008E6085BF1FE0A8E8B1E001C01D92A93ED2
:10157000B107E1F70E94D00A0C94C6600C940000F9
:1015800080910001815080930001882329F484E632
:10159000809300010E94DF3608950E94C056FDCF5F
:1015A000AF92BF92CF92DF92EF92FF920F931F9371
:1015B0000E94CC1F0E94990F88E89DE00E94B21CF7
:1015C0000E94370D83E290E00E94DC1C90939F0EF6
:1015D00080939E0E83E290E00E94DC1C9093660F45
:1015E0008093650F0E94F10F0E94580B0BE61EE0DE
:1015F000C8010E94630B80919E0E90919F0EB801CE
:101600000E94AA1B0E9430400E94963DE091A20ECB
:10161000F091A30E0EE81EE04285538524853585A2
:10162000C8016AEC7EE00E94E22D8091650F9091E6
:10163000660FB8010E94AA1BE0919E0EF0919F0ECA
:10164000228D338D8BEB9BE160E070E044EF51E045
:1016500000E0FEE4EF2EFFE0FF2ECC24DD24AA24E0
:10166000BB240E947A5120919E0E30919F0E85E5F9
:101670009CE160E070E04CEB52E001E0EAEBEE2E22
:10168000EEE0FE2E0E947A510E94975280E090E098
:101690001F910F91FF90EF90DF90CF90BF90AF9090
:1016A00008950E947E2E0E94F0340E947C3E089590
:1016B0008091A00E9091A10E60E070E048E150E0B2
:1016C0000E94BF5F0895FC018DE29CE091878087B6
:1016D00089E19DE09387828783E083831586148662
:1016E00008951F920F920FB60F9211248F93559960
:1016F00005C0809165008F7E809365008F910F906B
:101700000FBE0F901F901895EAE9F0E0808180628B
:10171000808308951F920F920FB60F920BB60F920F
:1017200011242F933F934F935F936F937F938F93E6
:101730009F93AF93BF93EF93FF9380917B0E909114
:101740007C0E69E871E04AE851E00E94EC52813079
:1017500029F48091890180939C0007C010928A012E
:1017600080919A008F7D80939A0080918A018823CE
:1017700011F00E948A59FF91EF91BF91AF919F9113
:101780008F917F916F915F914F913F912F910F902A
:101790000BBE0F900FBE0F901F9018951F920F92C7
:1017A0000FB60F920BB60F9211242F933F934F93C6
:1017B0005F936F937F938F939F93AF93BF93EF93B9
:1017C000FF938091C80E9091C90E6CE871E04DE8CE
:1017D00051E00E94EC52813049F4809165008061B3
:1017E0008093650080918C018CB903C010928D01AB
:1017F000559880918D01882311F00E948A59FF919C
:10180000EF91BF91AF919F918F917F916F915F9178
:101810004F913F912F910F900BBE0F900FBE0F90E5
:101820001F901895DF93CF930F92CDB7DEB78983C2
:1018300080917B0E90917C0EBE016F5F7F4F4FEFCA
:101840005FEF20E00E94A054EAE9F0E0808180622E
:1018500080830F90CF91DF9108950E94120C80E059
:1018600090E008958091AF0E9091B00E60E070E02E
:1018700040E050E020E00E94A0540895DF93CF9311
:101880000F92CDB7DEB789838091C80E9091C90EB3
:10189000BE016F5F7F4F4FEF5FEF20E00E94A054CB
:1018A000559A0F90CF91DF9108951F920F920FB626
:1018B0000F920BB60F9211242F933F934F935F9388
:1018C0006F937F938F939F93AF93BF93EF93FF9308
:1018D000DF93CF930F92CDB7DEB780919C008983C1
:1018E00010928B018091AD0E9091AE0EBE016F5F94
:1018F0007F4F4BE851E020E00E946C5380918B01B8
:10190000882311F00E948A590F90CF91DF91FF91A7
:10191000EF91BF91AF919F918F917F916F915F9167
:101920004F913F912F910F900BBE0F900FBE0F90D4
:101930001F9018951F920F920FB60F920BB60F9231
:1019400011242F933F934F935F936F937F938F93C4
:101950009F93AF93BF93EF93FF93DF93CF930F9238
:10196000CDB7DEB78CB189831092010180919C0EB6
:1019700090919D0EBE016F5F7F4F41E051E020E0EE
:101980000E946C5380910101882311F00E948A59B2
:101990000F90CF91DF91FF91EF91BF91AF919F9108
:1019A0008F917F916F915F914F913F912F910F9008
:1019B0000BBE0F900FBE0F901F9018958091AF0E29
:1019C0009091B00E60E070E04FEF5FEF20E00E947A
:1019D000D4530895EF92FF921F93DF93CF930F920A
:1019E000CDB7DEB710E07E010894E11CF11C01C008
:1019F0001F5F80919C0E90919D0EB7014AE050E0D0
:101A000020E00E94D453813099F3812F0F90CF9121
:101A1000DF911F91FF90EF9008959C01462F8091D8
:101A20009C0E90919D0EB90150E020E00E94D4538D
:101A30000895DF93CF930F92CDB7DEB78091AD0EAF
:101A40009091AE0EBE016F5F7F4F4FEF5FEF20E0D2
:101A50000E94D453882319F42FEF3FEF03C08981EC
:101A6000282F30E0C9010F90CF91DF9108950FB674
:101A7000F8940F9280E461E00E9498559093AE0E26
:101A80008093AD0E80E261E00E94985590937C0EA9
:101A900080937B0E80E161E00E94985590939D0EAB
:101AA00080939C0E84E061E00E9498559093C90E4B
:101AB0008093C80E81E060E00E9498559093B00E2C
:101AC0008093AF0E009739F060E070E040E050E0A6
:101AD00020E00E94A0540F900FBE87E089B91092B9
:101AE0009000809399001092980088ED8AB996E84A
:101AF0009093950088E980939A0090939D000895B3
:101B00008FB96F98779BFECF8EB18FB16F9A089582
:101B100088B3806C88BBC5981B9AE5E6F0E08081AD
:101B20008860808308951B9808951B9A0895E5E6C0
:101B3000F0E08081877F80830895E5E6F0E0808192
:101B4000886080830895C7980895C79A08958DB1D5
:101B500083608DB9C69808958DB18C7F8DB9C69A72
:101B600008958DB183608DB9C69808958DB18C7F2D
:101B70008DB9C69A08958DB185608DB9C59A0895BD
:101B80008DB18A7F8DB9C59808951F920F920FB6B7
:101B90000F920BB60F9211242F933F934F935F93A5
:101BA0006F937F938F939F93AF93BF93EF93FF9325
:101BB0008FB180938E018091670F9091680F6EE8CE
:101BC00071E04FE851E020E00E946C5380918F015A
:101BD000882311F00E948A59FF91EF91BF91AF9134
:101BE0009F918F917F916F915F914F913F912F9135
:101BF0000F900BBE0F900FBE0F901F901895DF93A4
:101C0000CF930F92CDB7DEB78FB98091670F9091C8
:101C1000680FBE016F5F7F4F4AE050E020E00E94F6
:101C2000D45389810F90CF91DF9108950F931F9323
:101C3000E091A00EF091A10E8081882341F180E413
:101C400060E00E9498298EE190E00E94DF500091B0
:101C5000A00E1091A10E84E00E940C2AF80194833A
:101C6000838380E460E00E947929E091A00EF091E6
:101C7000A10E40E0238134818181928182179307F4
:101C800008F441E045838AE090E00E94DF50E09153
:101C9000A00EF091A10E8681882359F180E260E0C8
:101CA0000E9498298EE190E00E94DF500091A00EE2
:101CB0001091A10E0A5F1F4F85E00E940C2AF801C7
:101CC0009483838380E260E00E947929E091A00EF2
:101CD000F091A10E369640E023813481818192817A
:101CE0008217930708F441E045838AE090E00E9460
:101CF000DF50E091A00EF091A10E8485882359F168
:101D000080E160E00E9498298EE190E00E94DF501F
:101D10000091A00E1091A10E045F1F4F86E00E945B
:101D20000C2AF8019483838380E160E00E94792982
:101D3000E091A00EF091A10E3C9640E02381348109
:101D4000818192818217930708F441E045838AE0FC
:101D500090E00E94DF50E091A00EF091A10E8289E8
:101D6000882359F188E060E00E9498298EE190E094
:101D70000E94DF500091A00E1091A10E0E5E1F4F29
:101D800087E00E940C2AF8019483838388E060E056
:101D90000E947929E091A00EF091A10E729640E088
:101DA00023813481818192818217930708F441E075
:101DB00045838AE090E00E94DF501F910F910895C3
:101DC0004F925F926F927F928F929F92AF92BF924B
:101DD000DF92EF92FF920F931F93CF93DF937C01DB
:101DE0000091A00E1091A10EDD24C0E0D0E03CE8EF
:101DF000432E30E0532E29EA622E20E0722E90EA24
:101E0000892E90E0992E87E9A82E80E0B82ED8017F
:101E10008C91882309F46CC000D000D000D0EDB7BD
:101E2000FEB73196ADB7BEB71296FC92EE921197FF
:101E3000538242822196D583C48321970E94135DE9
:101E4000EDB7FEB736960FB6F894FEBF0FBEEDBFE6
:101E5000D80111962D913C91129713968D919C91DA
:101E600014978217930748F400D000D0EDB7FEB75F
:101E7000F282E182B482A3820CC000D000D0ADB760
:101E8000BEB71296FC92EE92119714969C928E9287
:101E900013970E94135D0F900F900F900F90EDB766
:101EA000FEB738970FB6F894FEBF0FBEEDBF319660
:101EB000ADB7BEB71296FC92EE9211977382628212
:101EC000D80111968D919C911297958384831396D6
:101ED0008D919C911497978386830E94135DD39470
:101EE000EDB7FEB738960FB6F894FEBF0FBEEDBF44
:101EF0002196C430D10519F00A5F1F4F88CF8D2D70
:101F0000DF91CF911F910F91FF90EF90DF90BF90E5
:101F1000AF909F908F907F906F905F904F900895BB
:101F200088E190E00E94DC1C9093A10E8093A00EAB
:101F300008950FB6F8940F9281E061E00E949855E1
:101F40009093680F8093670F0F900FBE87EF87BB4A
:101F500081ED88BB11BA8EE082B98CE083B9109212
:101F600061008FE18093640008951F9380E060E03A
:101F70000E94EF2980E060E00E94D42980E00E9466
:101F80000C2A65E0969587956A95E1F78093AC0EEB
:101F90008AE090E00E94DF5081E00E940C2A9C01C0
:101FA00053E0880F991F5A95E1F7220F331F820FD4
:101FB000931F68E170E00E94EF596093A40E8AE0DD
:101FC00090E00E94DF500E94160E11E0812F0E94C7
:101FD000EA498AE090E00E94DF501F5F1032B1F7BB
:101FE000CDCF0E94900F0E94C04B0895FC0180A1AC
:101FF000833019F425E030E008C080E899E092A32E
:1020000081A381E080A320E030E0C9010895FC01B4
:102010008AE499E092A381A380A1833009F010A201
:1020200080E090E00895FC0180A1813019F025E066
:1020300030E008C086E19AE092A381A382E080A309
:1020400020E030E0C90108950E94510B80E090E04B
:102050000895CF93DF93EC01898D863018F422E048
:1020600030E02AC081E0BE010E9402236093800E0E
:1020700082E0BE010E9402236093810E83E0BE01D4
:102080000E9402236093820E84E0BE010E9402231C
:102090006093830E85E0BE010E9402236093840E4C
:1020A00086E0BE010E9402236093850E80E89EE0D8
:1020B0000E94B82A20E030E0C901DF91CF91089555
:1020C000CF93DF93EC01898D843018F422E030E067
:1020D00012C081E0BE010E94152382E0BE010E9471
:1020E000152383E0BE010E94152384E0BE010E94F7
:1020F000152320E030E0C901DF91CF9108956F9260
:102100007F928F929F92AF92BF92CF92DF92EF9287
:10211000FF920F931F93CF93DF93EC01898D85304E
:1021200018F422E030E058C081E0BE010E9415237F
:102130003B014C0182E0BE010E9415237B018C0112
:1021400083E0BE010E9415235B016C0184E0BE01A7
:102150000E941523E091A20EF091A30E102F0F2DD7
:10216000FE2CEE246501BB24AA24EA0CFB1C0C1DEA
:102170001D1DE60CF71C081D191D962F88277727B3
:102180006627E60EF71E081F191FE682F7820087F2
:10219000118785E0BE010E941523DC01CB0100916F
:1021A000A20E1091A30E0E94872EF80195838483BE
:1021B000898D863078F086E0BE010E941523DC010F
:1021C000CB010091A20E1091A30E0E94872EF80160
:1021D0009383828320E030E0C901DF91CF911F918A
:1021E0000F91FF90EF90DF90CF90BF90AF909F90B6
:1021F0008F907F906F9008956F927F928F929F92B1
:10220000AF92BF92CF92DF92EF92FF920F931F9304
:10221000CF93DF93EC01898D843018F422E030E015
:1022200033C081E0BE010E9415233B014C0182E0D6
:10223000BE010E9415237B018C0183E0BE010E9438
:1022400015235B016C0184E0BE010E941523102F51
:102250000F2DFE2CEE246501BB24AA24EA0CFB1CE6
:102260000C1D1D1DE60CF71C081D191D962F882737
:1022700077276627E60EF71E081F191FC801B7014A
:102280000E94B63220E030E0C901DF91CF911F916A
:102290000F91FF90EF90DF90CF90BF90AF909F9005
:1022A0008F907F906F900895FC01818D882319F4A1
:1022B00022E030E017C081E0BF010E94152320E238
:1022C00030E0261B370B6FEF7FEF8FEF9FEF04C0DF
:1022D00096958795779567952A95D2F70E94AD32A6
:1022E00020E030E0C90108956F927F928F929F9213
:1022F000AF92BF92CF92DF92EF92FF920F931F9314
:10230000CF93DF93EC01898D843018F422E030E024
:1023100033C081E0BE010E9415233B014C0182E0E5
:10232000BE010E9415237B018C0183E0BE010E9447
:1023300015235B016C0184E0BE010E941523102F60
:102340000F2DFE2CEE246501BB24AA24EA0CFB1CF5
:102350000C1D1D1DE60CF71C081D191D962F882746
:1023600077276627E60EF71E081F191FC801B70159
:102370000E94A43220E030E0C901DF91CF911F918B
:102380000F91FF90EF90DF90CF90BF90AF909F9014
:102390008F907F906F900895FF920F931F938C0101
:1023A00081E0B8010E941523F62E862F0E940C2A88
:1023B0002DB73EB7285030400FB6F8943EBF0FBE41
:1023C0002DBFEDB7FEB73196D8015A962D913C91AD
:1023D0005B97ADB7BEB712963C932E93119724E648
:1023E0003AE033832283F4821582978386830E94A6
:1023F000135D2DB73EB7285F3F4F0FB6F8943EBF31
:102400000FBE2DBF80E090E01F910F91FF900895C7
:10241000CF93DF93EC018C8D882371F1E82FF0E0EE
:10242000EE0FFF1FEE5CF64F259134918DB79EB7EE
:1024300008970FB6F8949EBF0FBE8DBFEDB7FEB7DD
:1024400031968A8D9B8DADB7BEB712969C938E93B5
:102450001197338322838D8D9E8D958384838F8DF9
:10246000868317820E94135D8DB79EB708960FB6BC
:10247000F8949EBF0FBE8DBF1C8E1E8E1D8E1F8EAC
:10248000DF91CF910895EF92FF920F931F938C01EC
:1024900081E0B8010E941523F62E82E0B8010E9467
:1024A0001523E62E83E0B8010E941523162F0E9403
:1024B0008D288F2D6AE00E94E359282F2370A5EB09
:1024C000BEE02295207F9091B50E9F7C922B909339
:1024D000B50E46EF5FEF849F802D11248F0D8F7016
:1024E0009091B50E907F982B9093B50E8E2D0E94F3
:1024F000E359282F2770FD012295207F92919F7824
:10250000922B9083849F802D11248E0D8F7090814B
:10251000907F982B9083812F0E94E359282F27705A
:1025200012972295207F9C919F78922B9C93849F59
:10253000802D1124810F8F709C91907F982B9C93FC
:10254000CD010E94C02880E090E01F910F91FF9084
:10255000EF900895FC01818D882319F422E030E08A
:1025600009C081E0BF010E941523862F0E94582ACE
:1025700020E030E0C90108951F93BC0181E00E9472
:102580001523162F80E060E00E94D429812F60E09F
:102590000E945E2980E090E01F9108951F93BC0186
:1025A00081E00E941523162F80E060E00E94EF2951
:1025B000812F60E00E94B62980E090E01F9108958D
:1025C000FF920F931F93CF93DF93EC0181E0BE0145
:1025D0000E941523F62E82E0BE010E941523162FBD
:1025E000117083E0BE010E941523062F2DB73EB760
:1025F000285030400FB6F8943EBF0FBE2DBFEDB748
:10260000FEB731968A8D9B8DADB7BEB712969C935F
:102610008E93119782ED93E093838283F4821582E7
:10262000812F90E00196978386830E94135D802F0F
:1026300081502DB73EB7285F3F4F0FB6F8943EBF8D
:102640000FBE2DBF8436F8F400D000D000D0EDB717
:10265000FEB731968A8D9B8DADB7BEB712969C930F
:102660008E93119785E094E093838283048315828F
:102670000E94135D2DB73EB72A5F3F4F0FB6F89407
:102680003EBF0FBE2DBF8F2D612F402F0E949F4355
:10269000882319F023E030E002C021E030E0C901D6
:1026A000DF91CF911F910F91FF900895FF920F93AB
:1026B0001F93CF93DF93EC01898D823018F422E0D1
:1026C00030E06FC081E0BE010E941523F62E2FE39B
:1026D000F22282E0BE010E941523062F0170898D2F
:1026E000833010F41FEF05C083E0BE010E94152364
:1026F000162F8DB79EB708970FB6F8949EBF0FBEE2
:102700008DBFEDB7FEB731968A8D9B8DADB7BEB745
:1027100012969C938E9311978FE993E09383828313
:10272000F4821582802F90E00196978386830E9421
:10273000135D812F81502DB73EB7285F3F4F0FB6F5
:10274000F8943EBF0FBE2DBF8436F8F400D000D001
:1027500000D0EDB7FEB731968A8D9B8DADB7BEB771
:1027600012969C938E93119785E094E093838283D5
:10277000148315820E94135D2DB73EB72A5F3F4F29
:102780000FB6F8943EBF0FBE2DBF8F2D602F412F87
:102790000E94DB42882319F023E030E002C021E0F0
:1027A00030E0C901DF91CF911F910F91FF90089503
:1027B0000F931F93CF93DF93EC0100D000D08A8D4D
:1027C0009B8DADB7BEB712969C938E93119782E8FE
:1027D00093E014969C938E9313970E94135D0F9031
:1027E0000F900F900F9081E0BE010E94582269E681
:1027F0007FE00E94A021882319F420E030E024C06B
:102800000A8D1B8D81E0BE010E94582200D000D0AD
:1028100000D0EDB7FEB73196ADB7BEB712961C9398
:102820000E93119722E831E03383228395838483CA
:102830000E94135D24E030E0EDB7FEB736960FB688
:10284000F894FEBF0FBEEDBFC901DF91CF911F917C
:102850000F910895EF92FF920F931F93DF93CF9301
:102860000F92CDB7DEB77C0181E0B7010E945822FC
:1028700069E67FE00E94A021882341F1D7015A96A2
:102880000D911C915B9781E0B7010E94582200D006
:1028900000D000D0EDB7FEB73196ADB7BEB71296F7
:1028A0001C930E93119722E831E0338322839583A2
:1028B00084830E94135D24E030E0EDB7FEB73696C6
:1028C0000FB6F894FEBF0FBEEDBF3BC089E69FE098
:1028D0000E944A1E198200D000D0D7015A968D91CD
:1028E0009C915B97EDB7FEB79283818388E493E078
:1028F000948383830E94135D0F900F900F900F902D
:102900007E010894E11CF11C8091AD0E9091AE0EF9
:10291000B7014FEF5FEF20E00E94D4538823A1F36B
:102920008981833041F00E94120C89E69FE0698121
:102930000E94161FE9CF89E69FE00E94A11F20E0B8
:1029400030E0C9010F90CF91DF911F910F91FF905F
:10295000EF900895CF93DF93EC0181E0BE010E94D8
:1029600058220E947821882319F421E030E005C024
:10297000CE010E94081224E030E0C901DF91CF911E
:102980000895CF93DF93EC01898D813019F022E017
:1029900030E010C081E0BE010E9458220E94D72181
:1029A000882319F421E030E005C0CE010E9408120E
:1029B00024E030E0C901DF91CF9108951F93CF93B8
:1029C000DF93EC01898D882319F422E030E017C0F1
:1029D00081E0BE010E941523162F862F0E942848F1
:1029E0008F8F882319F421E030E009C089E08C8FB3
:1029F0001D8F1E8ECE010E94081220E030E0C9011A
:102A0000DF91CF911F910895FF920F931F93CF9362
:102A1000DF93EC01898D823019F022E030E04EC066
:102A200081E0BE010E941523F62E82E0BE010E94C5
:102A300058228C018F2D0E942848882331F089E08C
:102A40008C8FCE010E94081237C0C80169E67FE072
:102A50000E94A0214A8D5B8D8823F9F000D000D020
:102A600000D0EDB7FEB73196ADB7BEB712965C9306
:102A70004E93119782E891E09383828315830483B8
:102A80000E94135D24E030E08DB79EB706960FB626
:102A9000F8949EBF0FBE8DBF11C089E69FE06F2DD9
:102AA0000E94D444182F89E69FE00E94A11F1123A1
:102AB00019F420E030E002C024E030E0C901DF91E9
:102AC000CF911F910F91FF9008952F923F924F92B7
:102AD0005F926F927F928F929F92AF92BF92CF92AE
:102AE000DF92EF92FF920F931F93DF93CF9300D06B
:102AF00000D000D0CDB7DEB77C0100D000D0DC0123
:102B00005A968D919C915B97EDB7FEB79283818326
:102B100087E89AE0948383830E94135D0F900F905F
:102B20000F900F9081E0B7010E94582269E67FE084
:102B30000E94A021882341F1D7015A960D911C9142
:102B40005B9781E0B7010E94582200D000D000D0EE
:102B5000EDB7FEB73196ADB7BEB712961C930E9384
:102B6000119722E831E033832283958384830E9486
:102B7000135D24E030E0EDB7FEB736960FB6F8945B
:102B8000FEBF0FBEEDBF7BC1D7015E961C921E92A9
:102B90005D975F961C9204E1B2E0CB2ED12CCC0E57
:102BA000DD1EF701628D738D83E490E00E94315D3C
:102BB00080919B0086FFFCCF8091AD0E9091AE0E70
:102BC000B60144E650E020E00E94D453882319F077
:102BD0008A81813061F0015021F789E69FE00E94EF
:102BE000A11FD7015C961C9224E030E048C189E621
:102BF0009FE061E070E00E94E41D6C015C01AAE0CE
:102C00009A2E11E0F3E08F2EE5E02E2E312C2C0EC3
:102C10003D1E76E0472E512C4C0E5D1E3E01089461
:102C2000611C711C8091AD0E9091AE0EBE016D5F66
:102C30007F4F44E650E020E00E94D453882309F4FB
:102C4000DDC08091AD0E9091AE0EBE016C5F7F4FE6
:102C500041E050E020E00E94D453882319F483E03F
:102C6000D701BDC09C81892F80958A830B8108176D
:102C700039F085E0F701848F058F168E978FF9C0A4
:102C8000812F81508A83081711F0012F08C089E62F
:102C90009FE0602F70E00E94E41D6C015C011B81CD
:102CA000101779F084E0D7015C968C935C978C8147
:102CB0005D968C935D975E961C925E975F960C93E3
:102CC000D8C000E08091AD0E9091AE0EBE016E5F57
:102CD0007F4F4AE050E020E00E94D453882341F027
:102CE0008A81F60181936F010F5F003859F703C0A5
:102CF000D7015C968C928091AD0E9091AE0EB10191
:102D00004AE050E020E00E94D453882341F486E05A
:102D1000F701848F82E090E0968F858FAAC0809122
:102D2000AD0E9091AE0EB2014AE050E020E00E945C
:102D3000D453882361F486E0D7015C968C935C972A
:102D400081E090E05E969C938E935D9792C090E0B8
:102D500040E050E0F50181915F015827052E029473
:102D6000802D8F708527252F2025220F207E8227FA
:102D7000202D2527207F2695052E000C221F5695F5
:102D8000569556955F7152275427482F9F5F90386C
:102D900009F78D8190E0252F33278217930761F47F
:102DA0008E8190E050708417950731F486E00E9480
:102DB000120C4AE0942E16C09A94115085E10E949C
:102DC000120C992079F48B81D7015D968C935D97D5
:102DD0005E961C925E975F961C935F9784E05C966C
:102DE0008C9347C08091AD0E9091AE0EB30144E636
:102DF00050E020E00E94D453882319F482E0F701C8
:102E000016C09981913069F41F5F89E69FE0612FB8
:102E100070E00E94E41D6C01D7015C961C925C017D
:102E200001CF983131F4F701158F168E87E0848F2A
:102E300020C09430C9F485E10E94120C8091AD0E3F
:102E40009091AE0EB3014AE050E020E00E94D453CE
:102E5000882331F08981843019F486E00E94120CB5
:102E6000D7015C961C9205C088E0F701848F958F8E
:102E7000168E89E69FE00E94A11F20E030E0C90184
:102E800026960FB6F894DEBF0FBECDBFCF91DF916F
:102E90001F910F91FF90EF90DF90CF90BF90AF9078
:102EA0009F908F907F906F905F904F903F902F906A
:102EB0000895FF920F931F93CF93DF93EC01898DB9
:102EC000823008F4D2C082E0BE010E941523F62EA3
:102ED00081E0BE010E9458228C01FF2009F05BC0F6
:102EE0006BEC7AE043E050E00E94485C892B31F4BF
:102EF00080E090E060E00E94D2362CC0C80168EC0F
:102F00007AE042E050E00E94485C892B31F480E096
:102F100090E060E00E9476321DC0C80163EC7AE068
:102F200042E050E00E94485C892B31F480E090E060
:102F300060E00E9447350EC0C8016FEB7AE042E0C6
:102F400050E00E94485C892BB1F480E090E060E0A2
:102F50000E94253B00D000D000D0EDB7FEB73196DF
:102F60008A8D9B8DADB7BEB712969C938E931197A9
:102F700088E294E05AC0C8016BEB7AE042E050E08E
:102F80000E94485C892B09F070C080E090E060E00E
:102F90000E94E73DDFCF67EB7AE043E050E00E941C
:102FA000485C892B31F48A8D9B8D6F2D0E94D2361F
:102FB0002CC0C80164EB7AE042E050E00E94485C1B
:102FC000892B31F48A8D9B8D6F2D0E9476321DC026
:102FD000C8016FEA7AE042E050E00E94485C892B29
:102FE00031F48A8D9B8D6F2D0E9447350EC0C8012C
:102FF0006BEA7AE042E050E00E94485C892B31F5B0
:103000008A8D9B8D6F2D0E94253B00D000D000D073
:10301000EDB7FEB731968A8D9B8DADB7BEB71296D0
:103020009C938E93119785E194E09383828315831B
:1030300004830E94135D20E030E08DB79EB70696B2
:103040000FB6F8949EBF0FBE8DBF11C0C80167EACE
:103050007AE042E050E00E94485C892B31F48A8D8E
:103060009B8D6F2D0E94E73DD0CF22E030E0C9015B
:10307000DF91CF911F910F91FF900895FC01828DF8
:10308000938D0E94052B80E090E00895CF92DF920F
:10309000EF92FF920F931F93DF93CF930F92CDB7D1
:1030A000DEB78C0180E2898381E0B8010E9458225A
:1030B00069E67FE00E94A021D8015A96ED90FC902D
:1030C0005B97882319F181E0B8010E94582200D053
:1030D00000D000D0EDB7FEB73196ADB7BEB71296AF
:1030E000FC92EE92119722E831E03383228395839C
:1030F00084830E94135D24E030E0EDB7FEB736967E
:103100000FB6F894FEBF0FBEEDBF58C020916D0FF3
:1031100030916E0F00D000D000D0ADB7BEB7119681
:10312000EDB7FEB7F282E18280E793E013969C93BD
:103130008E931297F901928180E02181820F911D77
:1031400015969C938E9314970E94135D8DB79EB72E
:1031500006960FB6F8949EBF0FBE8DBF6E01089401
:10316000C11CD11C89E69FE0B6010E94C41EF82E46
:1031700089810E94120C89818D3019F48AE00E94A5
:10318000120CFF2079F300D000D0D8015A968D910F
:103190009C915B97EDB7FEB79283818385E099E0C0
:1031A000948383830E94135D0F900F900F900F9074
:1031B00089E69FE00E94A11F20E030E0C9010F9046
:1031C000CF91DF911F910F91FF90EF90DF90CF9003
:1031D0000895FC01828D938D0E94F81C80E090E0A0
:1031E00008950F931F93CF93DF938C0183EB9EE0A1
:1031F0000E94E8282091B50E22952F704091B50EBF
:103200004F707091B40E72957F705091B40E5F70D4
:10321000A091B30EA295AF706091B30E6F708DB791
:103220009EB70A970FB6F8949EBF0FBE8DBFEDB73D
:10323000FEB73196E8018A8D9B8DCDB7DEB79A83B4
:1032400089838FEC9AE093838283822F837090E04E
:103250009C0113E0220F331F1A95E1F7880F991F85
:10326000280F391F420F44831582872F877090E003
:103270009C0173E0220F331F7A95E1F7880F991FA5
:10328000280F391F520F568317828A2F877090E0BC
:103290009C0103E0220F331F0A95E1F7880F991F65
:1032A000280F391F620F608711860E94135D8DB74A
:1032B0009EB70A960FB6F8949EBF0FBE8DBF80E0F2
:1032C00090E0DF91CF911F910F9108950E947F228E
:1032D00080E090E00895CF93DF93EC0100D000D020
:1032E000ADB7BEB712969C938E93119784EF9AE078
:1032F00014969C938E9313970E94135DEDB7FEB7BF
:10330000D283C18387E991E0948383830E94135D14
:103310000F900F900F900F900E94034C00D000D0A0
:1033200000D0EDB7FEB73196ADB7BEB71296DC93BD
:10333000CE93119727EA31E0338322838483158269
:103340000E94135DEDB7FEB736960FB6F894FEBF38
:103350000FBEEDBF0E9457582DB73EB728503040E2
:103360000FB6F8943EBF0FBE2DBFEDB7FEB7319636
:10337000ADB7BEB71296DC93CE93119720EC31E037
:1033800033832283958384838CE19CE097838683B7
:103390000E94135DEDB7FEB738960FB6F894FEBFE6
:1033A0000FBEEDBF0E94CE1C2DB73EB72850304057
:1033B0000FB6F8943EBF0FBE2DBFEDB7FEB73196E6
:1033C000ADB7BEB71296DC93CE9311972AEE31E0DB
:1033D000338322839583848380E097E19783868378
:1033E0000E94135D2091A40E0F900F90EDB7FEB7D1
:1033F0003196ADB7BEB71296DC93CE93119781E4A8
:1034000092E093838283248315820E94135D20912E
:10341000AC0EEDB7FEB73196ADB7BEB71296DC93E2
:10342000CE9311978CE592E0938382832483158257
:103430000E94135DEDB7FEB736960FB6F894FEBF47
:103440000FBEEDBF0E94EA1C2DB73EB7285030409A
:103450000FB6F8943EBF0FBE2DBFEDB7FEB7319645
:10346000ADB7BEB71296DC93CE93119724E132E04C
:10347000338322838483158280E890E09783868358
:103480000E94135D0F900F900F900F90EDB7FEB755
:10349000D283C18387E792E0948383830E94135D84
:1034A000ADB7BEB71296DC93CE9311978AE892E03F
:1034B00014969C938E9313970E94135D0F900F9018
:1034C0000F900F90CE0160E87EE00E94823100D024
:1034D00000D0EDB7FEB7D283C18381EF9AE0948329
:1034E00083830E94135DADB7BEB71296DC93CE9373
:1034F00011978FE992E014969C938E9313970E94F4
:10350000135D0F900F900F900F900E94BF32FC013F
:103510004081518162817381CE010E94203000D0B0
:1035200000D0EDB7FEB7D283C1838EEE9AE09483CC
:1035300083830E94135DADB7BEB71296DC93CE9322
:10354000119784EB92E014969C938E9313970E94AC
:10355000135D0F900F900F900F900E94BF32FC01EF
:103560004481558166817781CE010E94203000D050
:1035700000D0ADB7BEB71296DC93CE9311978BEE09
:103580009AE014969C938E9313970E94135DEDB767
:10359000FEB7D283C18389EC92E0948383830E9437
:1035A000135D0F900F900F900F900E94BF32DC01BF
:1035B00018964D915D916D917C911B97CE010E9463
:1035C000203000D000D0EDB7FEB7D283C18388EEA3
:1035D0009AE0948383830E94135DADB7BEB71296C1
:1035E000DC93CE9311978EED92E014969C938E937C
:1035F00013970E94135D0F900F900F900F90CE01C4
:103600000E946344882381F400D000D0EDB7FEB758
:10361000D283C18389EF92E0948383830E94135DF8
:103620000F900F900F900F9000D000D0ADB7BEB7A5
:103630001296DC93CE93119783E193E014969C93BA
:103640008E9313970E94135D0F900F900F900F9021
:10365000CE010E94E00E882381F400D000D0EDB7A7
:10366000FEB7D283C1838CE293E0948383830E946C
:10367000135D0F900F900F900F90CE010E94EE3DC2
:10368000DF91CF910895EF92FF920F931F93DF93F5
:10369000CF93CDB7DEB72E970FB6F894DEBF0FBE2F
:1036A000CDBF7C01DC0159968C915997882339F460
:1036B0005A968D919C915B970E946B193BC081E05B
:1036C000B7010E94582269E67FE08E010F5F1F4F0D
:1036D000A80123E00E94B821882331F1F701028D6F
:1036E000138D81E0B7010E94582200D000D000D095
:1036F000EDB7FEB73196ADB7BEB712961C930E93D9
:10370000119722E831E033832283958384830E94DA
:10371000135D24E030E0EDB7FEB736960FB6F894AF
:10372000FEBF0FBEEDBF08C0C8010E946B19C801E3
:103730000E94B11F20E030E0C9012E960FB6F89428
:10374000DEBF0FBECDBFCF91DF911F910F91FF90D4
:10375000EF900895EF920F931F939B0160E078E242
:1037600040E051E00AE419E0EE240E948C241F910D
:103770000F91EF900895CF92DF92EF92FF920F9307
:103780001F93CF93DF93EC010E94562E0E941535B4
:103790000E944B3A0E944035CE010E94714000D0F9
:1037A00000D0EDB7FEB7D283C18388E59BE0948358
:1037B00083830E94135D0F900F900F900F900E94D3
:1037C000C04296E2C92E9BE0D92E87E4E82E8BE01A
:1037D000F82E80E090E00E94DF500E94072C892B99
:1037E00029F40E9401400E942C3BF3CFE091860E09
:1037F000F091870E0485158580E098E00E94872E61
:103800000817190729F40E9400380E94293430C093
:10381000E091860EF091870E0485158586E098E08C
:103820000E94872E0817190719F40E94573A20C0E2
:10383000E091860EF091870E048515858DED96E852
:103840000E94872E0817190719F40E94A54210C07C
:10385000209771F000D000D0EDB7FEB7D283C183BE
:10386000F482E3820E94135D0F900F900F900F90EF
:1038700000D000D0EDB7FEB7D283C183D482C3821B
:103880000E94135D0F900F900F900F90A2CFCF93D7
:10389000DF93EC018A8D9B8D0E94C05CBE010E946B
:1038A000F924CE010E945023F5CFEF92FF920F939F
:1038B0001F93DF93CF930F92CDB7DEB78C0100D06B
:1038C00000D0FC01828D938DEDB7FEB7928381838A
:1038D0008AE69BE0948383830E94135D0F900F9090
:1038E0000F900F908DE0B8010E94F9247E0108949A
:1038F000E11CF11C8091AD0E9091AE0EB7014FEF1F
:103900005FEF20E00E94D4538823A1F38981B8019E
:103910000E94F924C8010E945023ECCF6A9A0895AE
:103920006A9808956B9A08956B98089580E00895B9
:1039300080E008958091C30E9091C40E60E070E025
:1039400040E050E020E00E94A05408958091C30E12
:103950009091C40E60E070E04FEF5FEF20E00E94B6
:10396000D4530895FC0109950FB6F8940F9281E0A5
:1039700060E00E9498559093C40E8093C30E009708
:1039800039F060E070E040E050E020E00E94A05498
:1039900080ED8DB9709A0F900FBE08952091860129
:1039A000309187012F5F3F4F809102019091030179
:1039B000281B390BC90108950F931F938C010E9496
:1039C000035A080F191F10930301009302011F915E
:1039D0000F910895EDE4FFE090E08081882309F4E1
:1039E0009F5F31978EE0EE3CF807B9F7892F089575
:1039F0002F923F924F925F927F928F929F92AF92BF
:103A0000BF92CF92DF92EF92FF920F931F93CF93CB
:103A1000DF934C0184E091E0B4010E945D5D772466
:103A20002DE1222E21E0322EE72CFF2420E830E089
:103A3000E20EF31EDE2DCC2780E89FEFE80EF91E84
:103A400080EF482E512C4C0E5D1E1C81112309F471
:103A50004BC0812F90E0B4010E94315D6E0101E006
:103A6000112359F0D60115961C91112331F0812FA5
:103A700090E0B4010E94315D06C080E290E0B401A4
:103A80000E94315D10E00F5F0894C11CD11C08300A
:103A900039F7EDB7FEB738970FB6F894FEBF0FBEF3
:103AA000EDBF3196ADB7BEB712969C928E9211972C
:103AB00033822282BA80AA2489819501280F311D80
:103AC000358324838B81868317820E94025D8DB7A4
:103AD0009EB708960FB6F8949EBF0FBE8DBFC41553
:103AE000D50511F06096B1CFAEECBEE0EA0EFB1E3C
:103AF000F7018081871511F0782E96CFDF91CF9155
:103B00001F910F91FF90EF90DF90CF90BF90AF90FB
:103B10009F908F907F905F904F903F902F9008954F
:103B200021E0422F50E0FA01E253F14F80818823D7
:103B300069F42083E0E0F22FF05880E091E0DF01AB
:103B4000AC011D9241505040E1F704C02F5F203876
:103B500041F720E0822F0895A82FB0E0FD01E25345
:103B6000F14F20812817F9F421E0E22FF0E0E25331
:103B7000F14F8081882319F02F5F2038B1F7A253CD
:103B8000B14F2C93822F90E0FC01E253F14F208340
:103B9000E0E0F22FF05880E091E0DF01AC011D92EF
:103BA00041505040E1F7822F08950F931F93062F45
:103BB00010E005C00E94AC1D882319F01F5F10178C
:103BC000C8F31F910F910895CF92DF92EF92FF9269
:103BD0001F93CF93DF937C016B016115710509F48D
:103BE0004EC0DC011496CD91DC9115978881882315
:103BF00019F40E94901D8883D7011496ED91FC91D1
:103C0000159780818823D9F10894C108D108E6016D
:103C1000D695C7951C2F6C2F0E94D51D982F8823F1
:103C200071F1D7011496ED91FC911597C0FE0FC06C
:103C30008281C81738F01F5F12831496ED91FC91B2
:103C400015971182392F20E020583F471AC08281F2
:103C50008C1738F4C283D7011496ED91FC91159717
:103C600005C08C1729F4818187FD02C080E881831B
:103C7000892F90E080589F4F382F222702C020E0E4
:103C800030E0C901DF91CF911F91FF90EF90DF905D
:103C9000CF900895CF93DF93EC01009711F481E06A
:103CA00017C0EC81FD8191819A8382818B83992356
:103CB00071F0808162810E94D51D90E080589F4FF5
:103CC000982F88272A81820F911D9983888380E00D
:103CD000DF91CF910895EF92FF920F931F93CF93AF
:103CE000DF93EC016115710519F41A821B8244C03F
:103CF0008B0101501040EC80FD80F701808188230A
:103D000021F40E94901DF70180830A831B83EC81BC
:103D1000FD818081612F0E94D51D382F882311F4E9
:103D200081E02BC0EC81FD8192818B81981729F471
:103D30009A818181891708F49183EC81FD819281B8
:103D40008B81981730F48A818183EC81FD818B818E
:103D500082832A812F5F2A83222321F48B818F5F24
:103D60008B830AC0832F90E080589F4F982F88271D
:103D7000820F911D9983888380E0DF91CF911F91FD
:103D80000F91FF90EF9008950F931F93CF93DF93C0
:103D9000EC018B01EC81FD8182816B81681730F031
:103DA000861721F591818A81981700F18A818823ED
:103DB00041F480810E94D51D90E080589F4F188269
:103DC0008983E881F9818081F80180838A818F5F0E
:103DD0008A83882321F48B818F5F8B8305C0888140
:103DE000998101969983888380E001C081E0DF9109
:103DF000CF911F910F910895DF93CF930F92CDB77D
:103E0000DEB7FC0184859585BE016F5F7F4F0E9400
:103E1000C41E882319F02FEF3FEF03C08981282F9C
:103E200030E0C9010F90CF91DF9108951F93CF9398
:103E3000DF93EC01162FEC81FD818081882349F40A
:103E40000E94901D882311F481E03EC0EC81FD8129
:103E500080838A81882379F4EC81FD8180816B8164
:103E60000E94D51D882311F482E02EC090E0805876
:103E70009F4F18828983E881F98110838A818F5F3F
:103E80008A83882321F48B818F5F8B8305C088818F
:103E90009981019699838883EC81FD8192818B8140
:103EA000981729F49A818181891708F49183EC810C
:103EB000FD8192818B81981730F48A818183EC8116
:103EC000FD818B81828380E0DF91CF911F910895E6
:103ED000282FFB0184859585622F0E94161F90E094
:103EE0000895CF93DF939C010EC0A82FB0E0FD0191
:103EF000E253F14FE081E81711F4188201C0E88322
:103F0000A253B14F1C92D9011496CD91DC91159713
:103F10008881882351F719821496ED91FC911597A9
:103F200012821496ED91FC911597148615861686CB
:103F30001786F9011082118212821382DF91CF91CC
:103F40000895DC011496ED91FC91159783818823E7
:103F500039F08150838386E0FD0111928A95E9F75B
:103F60000895EF92FF920F931F938C01DC011C9632
:103F7000ED90FC901D97C7010E94A11FC8010E94EF
:103F8000955CD7011496ED91FC91159783811F9153
:103F90000F91FF90EF90089580E8EEECFEE0DF01D6
:103FA0001D928A95E9F780E091E0E0E0F0E8DF011A
:103FB0009C011D9221503040E1F708959F92AF92ED
:103FC000BF92CF92DF92EF92FF920F931F93CF9306
:103FD000DF93EC015B016A01EC81FD818081882324
:103FE00029F4FA011182108281E077C022813B819D
:103FF000321740F0231709F07CC091818A8198170D
:1040000008F477C0822F90E0831B91092181422F11
:1040100050E02A81421B5109480F591FF601E080E8
:10402000F1804E155F0508F47A01F60111821082C5
:104030008A8100E011E0081B1109992449C08A8196
:104040008823B1F4992039F4EC81FD8180816B8162
:104050000E94D51D03C0892D0E94AC1D982E882377
:1040600011F483E03AC090E080589F4F1882898312
:10407000688179810E151F05B0F4C501A8010E9461
:10408000565CA00EB11E1A828B818F5F8B83E01A63
:10409000F10AF60180819181800F911F91838083C5
:1040A00000E011E015C0C501A7010E94565C88819F
:1040B00099818E0D9F1D998388838A818E0D8A83B5
:1040C000F601808191818E0D9F1D9183808304C0B4
:1040D000E114F10409F0B3CF80E0DF91CF911F919B
:1040E0000F91FF90EF90DF90CF90BF90AF909F9097
:1040F0000895F6011182108282E0EFCF8F929F9295
:10410000BF92CF92DF92EF92FF920F931F93CF93C4
:10411000DF93EC016B014A010C811D81F801808164
:10412000882321F40E94901DF80180838A8100E099
:1041300011E0081B1109F401E080F1801182108266
:10414000BB244EC08A818823B1F4BB2039F4EC81B2
:10415000FD8180816B810E94D51D03C08B2D0E9443
:10416000AC1DB82E882311F481E056C090E0805831
:104170009F4F18828983888199810E151F05B0F49D
:10418000B601A8010E94565CC00ED11E1A82E01A28
:10419000F10AF40180819181800F911F91838083C6
:1041A0008B818F5F8B8300E011E01AC0B601A701FD
:1041B0000E94565C8A818E0D8A83F40180819181F0
:1041C0008E0D9F1D918380838B2D90E080589F4F93
:1041D000982F88272A81820F911D9983888304C094
:1041E000E114F10409F0AECFEC81FD8192818B8165
:1041F000981729F49A818181891708F49183EC81B9
:10420000FD8192818B81981730F48A818183EC81C2
:10421000FD818B81828380E0DF91CF911F910F918F
:10422000FF90EF90DF90CF90BF909F908F90089578
:10423000AF92BF92CF92DF92EF92FF920F931F93B4
:10424000CF93DF936C01FC0101900020E9F73197D7
:10425000FE2EF81A88E08F1510F4A8E0FA2EF60169
:10426000EF0DF11D31978081882309F4FA94F6014E
:1042700091E007C081813196803211F4F92E05C09A
:104280009F5F9F15B8F3FF2029F1EE240E2D10E05B
:1042900000581F4FD02FCC2700581040E0EFAE2E13
:1042A000B12CAC0EBD1EBE016C5F7F4FC6014F2D01
:1042B00050E00E94785C009779F0CA15DB0511F098
:1042C0006096F1CF0253114FF8018081E81611F08A
:1042D000E82EDCCFC0E0D0E0CE01DF91CF911F917E
:1042E0000F91FF90EF90DF90CF90BF90AF90089527
:1042F000CF93DF930E941821EC01009711F481E025
:104300001CC08B81882381F082E017C0A82FB0E009
:10431000FD01E253F14FE081E81711F4188201C06A
:10432000E883A253B14F1C928881882379F780E1FA
:10433000FE0111928A95E9F780E0DF91CF9108950F
:10434000CF93DF93EB010E941821FC01009711F439
:1043500081E00BC083E0DE011D928A95E9F7FD83C1
:10436000EC8383818F5F838380E0DF91CF91089519
:10437000FF920F931F93CF93DF938B01EA01F22EED
:104380000E94A021282F882359F488E69FE199876D
:1043900088878CEF9EE19B878A87FB821D870C872D
:1043A000822FDF91CF911F910F91FF900895FF927F
:1043B0000F931F93CF93DF93082FF92EA82FB92FB8
:1043C000FD0101900020E9F731971E2F181B1930CD
:1043D00008F018E0802F9F2D9C01F90190E006C0A5
:1043E0008191803211F4192F03C09F5F9117C0F3A0
:1043F000112309F43FC0802F9F2D0E941821892B83
:10440000C9F590E0292F30E020583F4FD22FCC271C
:1044100020583040AE0140515F4F8C818823B9F065
:10442000C417D50711F06096F8CFE901C253D14FF8
:104430008881981711F0982FE5CF0E94901D8883EE
:104440008823D1F090E080589F4FD82FCC27209719
:1044500099F08CE0FE0111928A95E9F7CE0104965D
:10446000602F7F2D412F50E00E94865C1C861D86A8
:104470001E861F8680E001C081E0DF91CF911F91F1
:104480000F91FF900895DC011296ED91FC91139726
:1044900080E021E009C0903211F020E004C0222326
:1044A00009F48F5F21E0319690819923A1F7089557
:1044B000582FFB012281338190E001C09F5FF901F9
:1044C000E90FF11D80818032C9F340E012C09F5F87
:1044D000F901E90FF11DE081EE2321F0E032B9F797
:1044E00001C09F5FF901E90FF11D80818032C9F39E
:1044F0004F5F451768F3290F311DC90108956F9269
:104500007F928F929F92BF92CF92DF92EF92FF9213
:104510000F931F93DF93CF9300D000D000D0CDB77F
:10452000DEB77C01FC01C1A0D2A08E010F5F1F4F3E
:10453000C801B60146E050E00E943F5C9BE9692E4D
:104540009BE0792E88E9882E8BE0982EB02E012FE3
:1045500000D000D0F701828D938DEDB7FEB7928326
:10456000818389819A81948383830E94135DF701FB
:10457000828D938DEDB7FEB79283818374826382BF
:104580000E94135DF701828D938DEDB7FEB7928384
:1045900081838B819C81948383830E94135DF701C7
:1045A000828D938DEDB7FEB792838183948283824F
:1045B0000E94135D86E090E0C80ED91E0F900F9008
:1045C0000F900F908B2D902FB60146E050E00E9487
:1045D0003F5C8D819E81892B09F0BACF26960FB65C
:1045E000F894DEBF0FBECDBFCF91DF911F910F9129
:1045F000FF90EF90DF90CF90BF909F908F907F9033
:104600006F900895DF93CF9300D0CDB7DEB70E94AF
:104610005822BE016F5F7F4F40E150E00E94085B6F
:104620000F900F90CF91DF910895DF93CF9300D03B
:10463000CDB7DEB70E945822BE016F5F7F4F4AE0C0
:1046400050E00E94085B0F900F90CF91DF9108958A
:104650000F931F93CF93DF938C01FC0180A18130D6
:1046600019F0823021F406C0CBE7DBE00FC0C4E7CD
:10467000DBE00CC0C2E8DBE009C02196F9018491BF
:10468000F801628D738D90E00E94315D9E01FE0104
:104690008491882391F7DF91CF911F910F91089515
:1046A000CF93DF93EC018F89988D892B09F486C015
:1046B000CE010E944322898FEF89F88DCE010995A2
:1046C00082309105D1F08330910520F4019709F0F3
:1046D0006CC008C08430910509F44AC0059709F000
:1046E00064C051C000D000D08A8D9B8DEDB7FEB75D
:1046F0009283818381EE9BE050C000D000D08A8DF0
:104700009B8DEDB7FEB7928381838DEC9BE0948304
:1047100083830E94135D8A8D9B8DEDB7FEB79283D4
:1047200081838B899C89948383830E94135D8A8D06
:104730009B8DEDB7FEB7928381838BEC9BE09483D6
:1047400083830E94135D8A8D9B8DEDB7FEB79283A4
:1047500081838D899E89948383830E94135D8A8DD2
:104760009B8DEDB7FEB79283818388EC9BE015C0EB
:1047700000D000D08A8D9B8DEDB7FEB792838183E8
:1047800085EB9BE00AC000D000D08A8D9B8DEDB7F1
:10479000FEB7928381838DE99BE0948383830E949B
:1047A000135D0F900F900F900F90188E1F8A1C8A28
:1047B0001B8A1E8A1D8ACE010E942823DF91CF9179
:1047C0000895EF92FF921F93CF93DF93EC017B014B
:1047D0006A8D7B8D8DE090E00E94315DCE010E945C
:1047E00028231D850BC0F70181917F016A8D7B8D88
:1047F000992787FD90950E94315D1150112399F7FB
:104800001C858D85181B07C06A8D7B8D80E290E02A
:104810000E94315D11501123B9F71C858D85181B3D
:1048200007C06A8D7B8D88E090E00E94315D115059
:104830001123B9F7DF91CF911F91FF90EF90089569
:10484000CF93DF93EB018130F1F0813020F08230A3
:1048500009F05FC03FC01D861E86198AE881F98174
:104860008081882309F455C0EF85EF5FE370EF87FF
:10487000F0E03296EE0FFF1FE60FF71F8081918167
:104880009983888346C09889933009F442C08F8504
:104890008150891B8370E82FF0E03296EE0FFF1FE6
:1048A000E60FF71F20813181D9018C91882389F18E
:1048B0009F5F9370988BA081B181FD0101900020D2
:1048C000E9F73197EA1BFB0BED87EE87198ACB01DD
:1048D000B9011DC088898823E1F08150888BEF855C
:1048E000E81BE370F0E03296EE0FFF1FE60FF71FB4
:1048F00080819181DC010D900020E9F71197A81BC0
:10490000B90BAD87AE87198A60817181CE010E9493
:10491000E123DF91CF9108958F929F92BF92CF9222
:10492000DF92EF92FF920F931F93CF93DF93EC01EF
:10493000F62EB72E6A01490183E2FE0111928A9593
:10494000E9F7862F972F60E070E00E945F5CF882A5
:10495000B982D694C794D694C794CC86E8A21AA3F9
:1049600009A3FE012F2D3B2DC9019C01AE01485F1B
:104970005F4F358324838C85280F311D3296E417D1
:10498000F507B9F79B8E8A8EDF91CF911F910F911A
:10499000FF90EF90DF90CF90BF909F908F90089501
:1049A0000F931F93CF93DF93EC0188898823C9F07D
:1049B0000F85081B03704C858881998160E070E049
:1049C00050E00E945F5C10E00E5F1F4F000F111F50
:1049D0000C0F1D1FF80160817181888199810E94EF
:1049E000715C188A81E0898BDF91CF911F910F91C3
:1049F00008959F92AF92BF92CF92DF92EF92FF9273
:104A00000F931F93DF93CF9300D000D000D0CDB78A
:104A1000DEB7182F7B01DB0152968C91823009F0B2
:104A20005DC0123471F0133424F4113409F053C012
:104A300006C0133459F0143409F04DC031C081E080
:104A400001C082E0B7010E94202445C0FB0181899A
:104A5000882319F4CB010E94D024D7011E969C9183
:104A60001E971D968C911D975A966D917C915B9720
:104A7000981768F59F5F1E969C938BE190E00E94CB
:104A8000315DF701628D738D8BE590E00E94315DA1
:104A9000D7015A966D917C915B9783E490E019C0A1
:104AA000FB018189882319F4CB010E94D024D7010E
:104AB0001E968C911E975A966D917C915B978823D8
:104AC00031F081501E968C9388E090E002C087E020
:104AD00090E00E94315DF701128A1EC2813039F4E4
:104AE0001B3511F482E015C2FB01128A03C0DB0101
:104AF00052961C92F70195858485981789F49150F8
:104B0000958791E009C0D701ED91FC91E90FF11D66
:104B10008081319780839F5FF7018485981798F390
:104B2000812F80528F3508F05BC0D70151968C9150
:104B3000882319F4C7010E94D024F7019585868542
:104B40008917E9F4628D738D812F992787FD9095E0
:104B50000E94315DD7011E968C911E97ED91FC91BC
:104B60001197E80FF11D10838F5F1E968C931E978F
:104B70001D968C911D978F5F1D968C93CDC19F5F65
:104B8000F701958706C0E90FF11D82913196808368
:104B90009150D7011E968C911E97ED91FC91119723
:104BA000891788F3E80FF11D10838F5F1E968C9391
:104BB0001E976D917C91C7010E94E123F701168534
:104BC0000AC0D7015A966D917C915B9788E090E07E
:104BD0000E94315D1F5FF7018585181790F39CC116
:104BE0001D3009F025C1D70151968C91519788232A
:104BF00009F049C050962C915097222379F11F96C5
:104C0000EC911F97F0E0E21BF109E370F07032962F
:104C1000EE0FFF1FEE0DFF1D808191818D939C9300
:104C20001BC0D7011F96EC91F0E0E21BF109DF01F8
:104C3000A370B0701296AA0FBB1FAE0DBF1D3197A7
:104C4000E370F0703296EE0FFF1FEE0DFF1D8081B6
:104C500091818D939C932F5F243018F3D7011F9679
:104C6000EC911F97F0E03296EE0FFF1FEE0DFF1D47
:104C70008D919C9111979183808350961C925097AF
:104C800081E051968C93F701628D738D8DE090E0F9
:104C90000E94315DD7015A966D917C915B978AE0B5
:104CA00090E00E94315DF70185850190F081E02D53
:104CB000E80FF11D10828F5FD7011D968C931D9711
:104CC0001E968C911E978F5F1E968C931E978D91CA
:104CD0009C91119713969C938E931297BB2401C0BD
:104CE000B394FC01EB0DF11DE081E03211F0EE23F5
:104CF000B9F7BB2009F492C0F701C1A0D2A08E0180
:104D00000F5F1F4FC801B60146E050E00E943F5CB4
:104D1000902EA12E09811A81D70112968D919C9116
:104D20001397B8014B2D50E00E94485C892B81F409
:104D30008D819E81F701908F878B148B038B8B81E4
:104D40009C81968B858B80E0B7010E94202469C0EE
:104D500086E090E0C80ED91E892D9A2DB60146E056
:104D600050E00E943F5C89819A81892B99F609E87D
:104D70001BE00CC00F5F1F4FF9018491D7015A96B9
:104D80006D917C915B9790E00E94315D9801F801F4
:104D90008491882379F7D7010D911C910AC00F5F88
:104DA0001F4FF701628D738D992787FD90950E94A3
:104DB000315DD8018C91882311F0803281F7F701A1
:104DC000628D738D8AE390E00E94315DD7015A961F
:104DD0006D917C915B9780E290E00E94315D03E9E8
:104DE0001BE007C00F5F1F4FF901849190E00E9404
:104DF000315D9801F8018491D7015A966D917C91AB
:104E00005B97882379F78DE090E00E94315DF70190
:104E1000628D738D8AE090E00E94315DC7010E942F
:104E20002823D7011D961C921D971E961C9274C0B4
:104E3000183009F069C0F7019685992309F45CC020
:104E40008585981729F5628D738D88E090E00E9422
:104E5000315DD7015A966D917C915B9780E290E02D
:104E60000E94315DF701628D738D88E090E00E94B1
:104E7000315DD7011D968C911D9781501D968C93A5
:104E80001D971E968C911E9781501E968C9344C040
:104E90008150F70185879150968705C0E90FF11D74
:104EA000818180839F5FD7011D968C911D97ED9125
:104EB000FC91981798F3C701BF010E94E123F70105
:104EC000628D738D80E290E00E94315DD7011E9665
:104ED0001C9108C0F701628D738D88E090E00E94FC
:104EE000315D1F5FD7011D968C9190E0212F30E03E
:104EF000821793077CF710C0F701628D738D87E0EE
:104F000090E00E94315D08C01F3731F01B3121F461
:104F100081E0D70152968C9326960FB6F894DEBFA7
:104F20000FBECDBFCF91DF911F910F91FF90EF90FA
:104F3000DF90CF90BF90AF909F900895DA012DB78A
:104F40003EB7285030400FB6F8943EBF0FBE2DBF7D
:104F5000EDB7FEB731965A962D913C915B97ADB760
:104F6000BEB712963C932E93119726E231E033831D
:104F7000228384831582668317820E94135D2DB776
:104F80003EB7285F3F4F0FB6F8943EBF0FBE2DBF10
:104F90000895FB01228D338D882349F000D000D085
:104FA000EDB7FEB7328321838FE291E008C000D0D5
:104FB00000D0EDB7FEB73283218386E391E094837E
:104FC00083830E94135D0F900F900F900F900895B0
:104FD000DB0100D000D000D0EDB7FEB731965A9675
:104FE0002D913C915B97ADB7BEB712963C932E9333
:104FF00011972DE331E033832283848315820E944D
:10500000135D8DB79EB706960FB6F8949EBF0FBE80
:105010008DBF089500D000D0FC01828D938DEDB737
:10502000FEB79283818383E491E0948383830E941B
:10503000135D0F900F900F900F90089500D000D047
:10504000FC01828D938DEDB7FEB79283818388E456
:1050500091E0948383830E94135D0F900F900F90D3
:105060000F900895089508950F931F93CF93DF93A2
:10507000182F062FEA01803610F081E01DC090E065
:10508000860F911D8036910514F082E015C00E94B4
:10509000A61C0E94BB0D812F805E0E94FF0D05C0E3
:1050A00080E00E94FF0D899301500023C9F70E9400
:1050B000C00D0E949A1C80E0DF91CF911F910F914B
:1050C00008950F931F93CF93DF93182F062FEA01B4
:1050D000803610F081E01CC090E0860F911D803674
:1050E000910514F082E014C00E94A61C0E94BB0D22
:1050F000812F80560E94FF0D04C089910E94FF0DF0
:1051000001500023D1F70E94C00D0E949A1C80E03C
:10511000DF91CF911F910F9108950E94A61C0E94CC
:10512000BB0D8FE80E94FF0D80E00E94FF0D0E94E2
:10513000C00D0E949A1C08950F931F93CF93DF9385
:10514000182F092F0E94A61C0E94BB0D212F302F63
:10515000C901EC0180E80E94FF0D10E089910E94D6
:10516000FF0D1F5F1730D1F70E94C00D0E949A1CDF
:10517000DF91CF911F910F9108950E949C2808956F
:105180000E949C2808950F931F93CF93DF93182FAD
:10519000092F0E94A61C0E94BB0D212F302FC90190
:1051A000EC0180E00E94FF0D10E0812F0E94FF0DB6
:1051B00089931F5F1730C9F70E94C00D0E949A1C87
:1051C000DF91CF911F910F9108950E94C3280895F8
:1051D0000E94C3280895089508951F93182F110F52
:1051E0001E7011640E94A61C0E94A30D812F0E94B4
:1051F000FF0D83E10E94FF0D812F0E94FF0D182FEC
:105200000E94A50D0E949A1C812F1F9108951F9343
:10521000182F110F1E7011640E94A61C0E94A30D6E
:10522000812F0E94FF0D82E10E94FF0D812F0E94BD
:10523000FF0D182F0E94A50D0E949A1C812F1F910F
:1052400008951F93162F110F1E709091790E80955F
:1052500098239093790E0E94A61C0E94A30D812F83
:1052600080640E94FF0D85E10E94FF0D8091790E00
:105270000E94FF0D0E94A50D0E949A1C1F91089587
:105280001F93162F110F1E709091790E982B9093EB
:10529000790E0E94A61C0E94A30D812F80640E949B
:1052A000FF0D85E10E94FF0D8091790E0E94FF0D98
:1052B0000E94A50D0E949A1C1F9108951F93162FFE
:1052C000110F1E708093790E0E94A61C0E94A30DE0
:1052D000812F80640E94FF0D85E10E94FF0D809167
:1052E000790E0E94FF0D0E94A50D0E949A1C1F912D
:1052F00008951F93162F110F1E709091C70E809561
:1053000098239093C70E0E94A61C0E94A30D812F84
:1053100080640E94FF0D84E10E94FF0D8091C70E02
:105320000E94FF0D0E94A50D0E949A1C1F910895D6
:105330001F93162F110F1E709091C70E982B9093EC
:10534000C70E0E94A61C0E94A30D812F80640E949C
:10535000FF0D84E10E94FF0D8091C70E0E94FF0D9A
:105360000E94A50D0E949A1C1F9108950F931F93F0
:10537000182F062F000F0E700E94A61C0E94A30D6E
:105380001093C70E802F80640E94FF0D84E10E945D
:10539000FF0D8091C70E0E94FF0D0E94A50D0E9477
:1053A0009A1C1F910F9108950F931F93082F162F8A
:1053B000110F1E700E94A61C0E94A30D812F8064F5
:1053C0000E94FF0D81E00E94FF0D802F0E94FF0DC3
:1053D0000E94A50D0E949A1C1F910F9108950F9392
:1053E0001F93082F162F110F1E700E94A61C0E94DB
:1053F000A30D812F80640E94FF0D80E00E94FF0DAD
:10540000802F0E94FF0D0E94A50D0E949A1C1F91E3
:105410000F91089508950895FF920F931F93182FE9
:10542000129510770E94A61C0E94A70D81E00E9491
:10543000FF0D812F80680E94FF0DF82E80E00E94F2
:10544000FF0D082F0E94AC0D0E949A1C9F2D937097
:1054500080E010E0082B192BC8011F910F91FF90DD
:105460000895FF920F931F93182F1295107F0E949B
:10547000A61C0E94A70D81E00E94FF0D812F80775E
:105480000E94FF0DF82E80E00E94FF0D082F0E9461
:10549000AC0D0E949A1C9F2D937080E010E0082BA9
:1054A000192BC8011F910F91FF9008950895089539
:1054B0001F93182F0E94A61C0E94B10D81E10E942B
:1054C000FF0D812F0E94FF0D0E94B60D0E949A1CB5
:1054D0001F91089508950895FF920F931F93182F19
:1054E000062FF42E0E94A61C0E94930D0F71802F90
:1054F000812B0E94FF0D8F2D0E94FF0D0E94950DA4
:105500000E949A1C1F910F91FF9008951F93CF93B3
:10551000DF93182FC82FD0E0C076D0708091900113
:1055200090E0C817D90791F080EA6FE143E00E944C
:105530006C2A85E0D595C7958A95E1F780E86FE1FB
:105540004C2F0E946C2A107610939001DF91CF911E
:105550001F9108950F931F93182F062F0E94862ADC
:1055600080E4612F402F0E946C2A1F910F910895B3
:105570000F931F938C0184EEF80160810E94AA2A88
:1055800085EEF80161810E94AA2A82EEF80162810B
:105590000E94AA2A83EEF80163810E94AA2A80EE63
:1055A000F80164810E94AA2A81EEF80165810E94B7
:1055B000AA2A1F910F9108950F931F93182F062F5A
:1055C0000E94A61C0E94930D802F8F71812B0E9438
:1055D000FF0D80E00E94FF0D182F07FF04C080E040
:1055E0000E94FF0D182F0E94950D0E949A1C812F7A
:1055F0001F910F9108951F93182F0E94862A80E013
:10560000612F0E94DC2A1F9108950F931F938C0134
:1056100000D000D0ADB7BEB712969C938E93119771
:1056200080E49CE014969C938E9313970E94135DE4
:105630000F900F900F900F9081EE0E94FB2A00D0E8
:1056400000D000D0EDB7FEB73196ADB7BEB7129619
:105650001C930E93119721E33CE0338322838483D0
:1056600015820E94135DEDB7FEB736960FB6F8941B
:10567000FEBF0FBEEDBF80EE0E94FB2A00D000D01F
:1056800000D0EDB7FEB73196ADB7BEB712961C93FA
:105690000E93119722E23CE03383228384831582A8
:1056A0000E94135DEDB7FEB736960FB6F894FEBFB5
:1056B0000FBEEDBF83EE0E94FB2A00D000D000D0C9
:1056C000EDB7FEB73196ADB7BEB712961C930E93E9
:1056D000119723E13CE033832283848315820E9467
:1056E000135DEDB7FEB736960FB6F894FEBF0FBE4A
:1056F000EDBF82EE0E94FB2A00D000D000D0EDB7B3
:10570000FEB73196ADB7BEB712961C930E931197A4
:1057100024E03CE033832283848315820E94135D5E
:10572000EDB7FEB736960FB6F894FEBF0FBEEDBFCD
:1057300085EE0E94FB2A00D000D000D0EDB7FEB766
:105740003196ADB7BEB712961C930E93119725EF05
:105750003BE033832283848315820E94135DEDB77F
:10576000FEB736960FB6F894FEBF0FBEEDBF84EEBF
:105770000E94FB2A00D000D000D0EDB7FEB73196D2
:10578000ADB7BEB712961C930E93119726EE3BE071
:1057900033832283848315820E94135DEDB7FEB7A5
:1057A00036960FB6F894FEBF0FBEEDBF1F910F9156
:1057B00008950F931F938C0181EE0E94FB2AF8013C
:1057C000858380EE0E94FB2AF801848383EE0E9489
:1057D000FB2AF801838382EE0E94FB2AF801828370
:1057E00085EE0E94FB2AF801818384EE0E94FB2A49
:1057F000F80180831F910F91089589E30E94FB2A8D
:10580000811181E0089582E70E94FB2A0895CF92DA
:10581000DF92EF92FF920F931F93CF93DF9389E371
:105820000E94FB2A882319F4EE24FF249DC080E007
:10583000609191010E94AA2A6091920181E00E94E8
:10584000AA2A8AE360E00E94DC2A082F10E0109365
:105850009201009391018AE360E00E94DC2A382FD4
:1058600020E0202B312B30939201209391018AE389
:1058700060E00E94DC2AF82E8AE360E00E94DC2AC5
:10588000D82E8AE360E00E94DC2A082F10E08AE329
:1058900060E00E94DC2A40917E0E50917F0E382FEE
:1058A00020E0202B312B27FD03C0EE24FF242FC046
:1058B000EF2CFF249D2D80E0E82AF92ACA010197E8
:1058C0002CEF3FEFE20EF31E8E159F0508F47C01CE
:1058D0000091860E1091870E0E94A61C0E94930DC7
:1058E0008AE30E94FF0D6801E70107C0219780E06D
:1058F0000E94FF0DF60181936F012097B9F70E0DFD
:105900001F1DF80110820E94950D0E949A1C8CE0C8
:10591000609191010E94AA2A609192018DE00E94FB
:10592000AA2A6091910170919201CB0101978F5F3A
:10593000994138F08CE06EEF0E94AA2A8DE069E16F
:105940000CC061508CE00E94AA2A209191013091F4
:105950009201215030408DE0632F0E94AA2A80E8F6
:105960006EE140E40E946C2AC701DF91CF911F9144
:105970000F91FF90EF90DF90CF9008950F931F93BA
:10598000CF93DF938C0113C08CE10E94FB2A81FF2F
:105990000AC080E86FE140E80E946C2A80EA6FE16B
:1059A00040E80E946C2A80E090E00E94DF5080E096
:1059B0006FE10E94DC2A83FDE7CF82E06FEF0E9457
:1059C000AA2A83E069E10E94AA2A602F615086E03A
:1059D0000E94AA2A98012150364E87E0632F0E9428
:1059E000AA2A8AE760E040E00E946C2AC091860EF5
:1059F000D091870E0E94A61C0E94930D8AE703C0D7
:105A00000150104089910E94FF0D01151105C1F749
:105A10000E94950D0E949A1C80E86FE148E00E9468
:105A20006C2ADF91CF911F910F91089584ED61E170
:105A30000E94AA2A82ED61E00E94AA2A80E090E0FA
:105A40000E94DF508AEE0E94FB2A80FDF7CF82ED94
:105A500060E00E94AA2A89ED0E94FB2A811181E060
:105A600008950F931F93982F162F072F84ED692FFA
:105A70000E94AA2A86ED612F0E94AA2A87ED602F34
:105A80000E94AA2A04C080E090E00E94DF508AEEC3
:105A90000E94FB2A80FDF7CF1F910F91089585E0AA
:105AA00090E00E94DF501A9885E090E00E94DF505D
:105AB0001A9A85E090E00E94DF50109292011092B5
:105AC000910188E060E00E94AA2A89E060E00E94DB
:105AD000AA2A8CE060E00E94AA2A8DE060E00E9481
