:100000000C942C080C9451080C9451080C94510831
:100010000C9451080C9451080C9451080C945108FC
:100020000C9451080C9451080C9451080C945108EC
:100030000C9451080C9451080C941C540C945108C5
:100040000C9451080C9451080C9451080C945108CC
:100050000C9451080C9451080C9451080C945108BC
:100060000C9451080C9451080C9451080C945108AC
:100070000C9451080C9451080C9451080C9451089C
:100080000C9451080C9451080C9451080C9451088C
:100090000C9451080C9451080C9451080C9451087C
:1000A0000C9451080C9451080C9451080C9451086C
:1000B0000C9451080C9451080C9451080C9451085C
:1000C0000C9451080C9451080C9451080C9451084C
:1000D0000C9451080C9451080C9451080C9451083C
:1000E0000C9451080C9451080C9451080C9451082C
:1000F0000C9451080C9451080C9451080C9451081C
:100100000C9451080C9451080C9451080C9451080B
:100110000C9451080C9451080C9451080C945108FB
:100120000C9451080C9451080C9451080C945108EB
:100130000C9451080C9451080C9451080C945108DB
:100140000C9451080C9451080C9451080C945108CB
:100150000C9451080C9451080C9451080C945108BB
:100160000C947B0A0C94EB0A0C9451080C945108E3
:100170000C9451080C9451080C9451080C9451089B
:100180000C9451080C9451080C9451080C9451088B
:100190000C9451080C9451080C9451080C9451087B
:1001A0000C9451080C9451080C9451080C9451086B
:1001B0000C9451080C9451080C9451080C9451085B
:1001C0000C9451080C9451080C9451080C9451084B
:1001D0000C9451080C9451080C9451080C9451083B
:1001E0000C9451080C94170A0C9451080C94510863
:1001F0000C945108206C6F636B657220256400209D
:100200006F70656E20202000206C6F636B6564202A
:100210000020287468726573686F6C642025642CF4
:100220002041432076616C7565202564290D0A0004
:10023000416C6C204F4B0D0A004E6F2046696C6577
:100240000D0A000D0A000D0A000D0A000D0A0078C3
:100250004D6F64656D20435243206572726F720D5D
:100260000A0052656D6F746520736964652063616F
:100270006E63656C6C6564206174206672616D6587
:10028000206E6F2025640D0A00784D6F64656D2027
:10029000756E6B6E6F776E20726573706F6E7365BF
:1002A00020307825780D0A0044657669636520253D
:1002B00064206973206E6F7420726573706F6E6452
:1002C000696E6720282564290D0A00426F6F746CDF
:1002D0006F61646572206973206E6F74207265733C
:1002E000706F6E64696E670D0A0043616E2774203B
:1002F0006F70656E2066696C652025730D0A00536A
:10030000797374656D2073746174653A0D0A002009
:10031000204E756D626572206F66207461736B7319
:10032000203A2025640D0A0020204672656552742B
:100330006F7320686561702020203A202564206654
:10034000726565206F662025642062797465730D7F
:100350000A0020204D616C6C6F632068656170201D
:10036000202020203A2025642066726565206F6673
:100370002025642062797465730D0A002020526183
:100380006D206469736320737061636520203A2077
:1003900025642066726565206F6620256420636C85
:1003A0007573746572730D0A00202054656D706555
:1003B00072617475726520202020203A2025642007
:1003C000430D0A002020566F6C7461676520202061
:1003D0002020202020203A20256420560D0A00539A
:1003E000797374656D2073657474696E67733A0D03
:1003F0000A0020204D61632061646472657373207C
:10040000202020203A20002020495020616464727E
:100410006573732020202020203A200020206D6169
:10042000736B2020202020202020202020203A2014
:1004300000202067617465776179202020202020CA
:100440002020203A2000446574656374656420525E
:10045000532034383520646576696365733A0D0A34
:1004600000202043616E27742066696E6420616EEF
:1004700079206465766963650D0A004C6F636B656E
:10048000722073656E736F72732073746174657319
:100490003A0D0A0020204C6F636B65722073656E05
:1004A000736F72732064697361626C65640D0A0016
:1004B00057726974696E6720746F2066696C652E67
:1004C000205072657373204354524C2B4320746F39
:1004D00020717569740D0A0046696C65206C656E43
:1004E0006774683A2025640D0A00586D6F64656D65
:1004F0003A205472616E736D697373696F6E207305
:10050000746172740D0A00506F646E6F737A656E59
:10051000696520726F6C6574790D0A097374657270
:100520006F776E696B2025640D0A09726F6C6574B4
:10053000612020202025640D0A004F7075737A63B6
:100540007A616E696520726F6C6574790D0A097342
:100550007465726F776E696B2025640D0A09726F7E
:100560006C6574612020202025640D0A0009706FDD
:100570007A79636A6120202025640D0A00456E6146
:10058000626C65642025732064656275670D0A00DE
:1005900044697361626C65642025732064656275CB
:1005A000670D0A0068656C70007374617475730080
:1005B000656E63737461740074696D65006465626F
:1005C0007567007270696E670070696E6700787297
:1005D0006563007873656E640078666C61736800AB
:1005E0006469727266006372660065726173657237
:1005F00066006564697472660072656164726600A3
:10060000757000646F776E007370610073706200C4
:1006100073657474696D6500616300656E61626C19
:10062000650064697361626C6500636F6E6669671B
:1006300000697000756470006D61736B006777000E
:100640006D616300736176650073657472004F4B72
:100650000D0A000D0A002121212057206275646FC8
:10066000727A6520527334383520706F7A6F7374E4
:10067000616C6F2025642062616A746F770D0A00D7
:10068000300239024302460249024C024F02620222
:100690008902A802CB02EA02A40503209616A90546
:1006A00015206919B80566203F16C305BA207117D1
:1006B000C905E020A30EE00592213716F9051122A5
:1006C0009E151B06F122390E000000000000A40553
:1006D00003209616A90515206919B80566203F164E
:1006E0001006AF22591031061623C30F3806872390
:1006F000A40F3D0697234A0F34063923C20E400645
:10070000BF236C0E4406ED23670E1B06F122390E43
:100710002206FD224A0E000000000000576172749C
:100720006F73632070726F626B69206E61207765F2
:100730006A736369752025643A2025640D0A0058A0
:100740006D6F64656D3A20726F7A706F637A796E3F
:10075000616E6965206F6462696F72750D0A00755C
:100760006470007463700069636D7000697000618B
:10077000727000756470007463700069636D70005E
:1007800069700061727000416B7475616C6E7920E4
:10079000637A61732025643A25643A25640D0A0062
:1007A0000D0A000D0A000D0A000D0A00467265656B
:1007B00052746F732B2076657220302E3331206295
:1007C00075696C643A2041707220203320323031D8
:1007D000332C2032323A30373A33380D0A00556E16
:1007E0006B6E6F776E207061636B65740D0A0052DB
:1007F0006573746172740D0A00446F6D4F733E002F
:10080000446F6D4F732300446F6D4F734000636DF1
:10081000646C696E653A200023206E6B000D0A003F
:1008200009004F7065726174696F6E206E6F74207D
:10083000616C6C6F7765640D0A004F70657261744E
:10084000696F6E206661696C65640D0A000D0A00AF
:10085000200053796E746178204572726F722E2079
:100860005573653A20004F4B0D0A00094D41414434
:10087000523520307825780D0A00094D4141445207
:100880003420307825780D0A00094D414144523317
:1008900020307825780D0A00094D4141445232201C
:1008A000307825780D0A00094D41414452312030FD
:1008B0007825780D0A00094D4141445230203078A6
:1008C00025780D0A00454E4332386A36302073745D
:1008D000616E2072656A657374726F773A0D0A00F3
:1008E0004E4943207265672064756D70206E6F7489
:1008F00020696D706C656D656E7465640D0A000D20
:100900000A00555247200041434B200050534820D5
:1009100000525354200053594E200046494E2000A7
:10092000466C6167732020203A200041636B204EA3
:10093000756D203A20307825780D0A0053657120B6
:100940004E756D203A20307825780044737420501D
:100950006F72743A2025640D0A0053726320506F41
:1009600072743A2025640D0A005443502048656192
:100970006465720D0A000D0A0044657374202049F5
:10098000503A20000D0A00536F7572636549503A62
:10099000200050726F746F636F6C3A2025640D0AEB
:1009A0000050726F746F636F6C3A205544500D0A9B
:1009B0000050726F746F636F6C3A205443500D0A8D
:1009C0000050726F746F636F6C3A2049434D500D45
:1009D0000A004C656E67746820203A2025640D0A71
:1009E0000056657220202020203A2025640D0A0040
:1009F0004950204865616465720D0A002D3E4453DC
:100A0000543A00205352433A0045746820506163C1
:100A10006B657420547970653A203078257800250C
:100A2000642E25642E25642E256400253032783A04
:100A3000253032783A253032783A253032783A25E6
:100A40003032783A25303278000D0A0047617465FB
:100A5000776179203A20000D0A004E65746D61734C
:100A60006B203A20000D0A00495020416464722036
:100A70003A200064656275675072696E74486578E3
:100A80005461626C65286C656E2D4554485F48451D
:100A9000414445525F4C454E2C2026646174615B95
:100AA0004554485F4845414445525F4C454E5D2999
:100AB0003B0064656275675072696E74486578546E
:100AC00061626C65284554485F4845414445525F22
:100AD0004C454E2C2026646174615B305D293B00DF
:100AE00053656E64696E67204950207061636B6561
:100AF0007420746F20676174657761790D0A005303
:100B0000656E64696E67204950207061636B65741F
:100B1000206F6E206C6F63616C206E65740D0A002F
:100B20004E45542052783A20556E6B6E6F776E208A
:100B30004950207061636B65740D0A004E45542066
:100B400052783A205443502F4950207061636B65AE
:100B5000740D0A004E45542052783A205544502FC7
:100B60004950207061636B65740D0A004E45542036
:100B700052783A2049434D502F4950207061636BA1
:100B800065740D0A00436F64652020203A20307898
:100B900025780D0A000D0A004543484F2052455064
:100BA0004C59004543484F20524551554553540038
:100BB000547970652020203A20000D0A0044737497
:100BC0004970416464723A20000D0A00537263490F
:100BD00070416464723A200049434D502050616373
:100BE0006B65743A0D0A0053656E64696E6720493F
:100BF000434D5020504F4E470D0A005265636569C2
:100C00007665642049434D50207265717565737433
:100C10003A2000556E6B6E6F776E2049434D502021
:100C20007479706552656365697665642049434DE2
:100C30005020726571756573743A20000D0A0020AA
:100C400020002533642020000D0A00202000204DC4
:100C5000592020002D2D2D2D2D2D2D2D2D2D2D2DDF
:100C60002D2D2D2D2D2D2D2D2D2D2D2D2D2D2D2DB4
:100C70002D2D2D2D2D2D2D0D0A0054696D6520452E
:100C800074682041646472657373202020202020E2
:100C90002020495020416464726573730D0A000D71
:100CA0000A0044737450726F746F416464723A2026
:100CB000000D0A0044737448774164647220202058
:100CC0003A20000D0A0053726350726F746F4164D2
:100CD00064723A20000D0A005372634877416464DD
:100CE000722020203A20000D0A00554E4B4E4F57DF
:100CF0004E005245504C59005245515545535400F1
:100D00004F7065726174696F6E2020203A20004137
:100D10005250205061636B65743A0D0A000D0A0051
:100D20002049503A200041525020495020696E20FD
:100D30004D41433A200053656E64696E672041520D
:100D400050205265706C790D0A00526563656976B2
:100D500065642041525020526571756573740D0AA7
:100D60000048545450206E6F7420696D706C656D2E
:100D7000656E7465640D0A004F70656E696E67205C
:100D800054435020636F6E6E656374696F6E2045C7
:100D900052524F523A2061636B20666C6167207734
:100DA00061736E2774207365740D0A004F70656E51
:100DB000696E672054435020636F6E6E656374697B
:100DC0006F6E20736F636B6574207374617465203C
:100DD0006368616E67652053594E5F5245434549CC
:100DE0005645442D3E4553544142494C495348458C
:100DF000440D0A004F70656E696E672054435020A1
:100E0000636F6E6E656374696F6E204552524F5208
:100E10003A2073796E20666C6167207761736E2764
:100E200074207365740D0A004F70656E696E6720DB
:100E300054435020636F6E6E656374696F6E2073E8
:100E40006F636B6574207374617465206368616E91
:100E50006765204C495354454E2D3E53594E5F52C1
:100E6000454345495645440D0A0043616E277420A9
:100E700066696E642054435020736F636B65742001
:100E800077697468206C6F63616C506F7274202591
:100E9000640D0A00466F756E642054435020736FD2
:100EA000636B6574206E6F202564207374617465B4
:100EB000204C495354454E0D0A00466F756E642010
:100EC00054435020736F636B657420737461746551
:100ED0002025640D0A0025640D0A00414E590D0AB3
:100EE000000D0A202073726320706F72742020201E
:100EF000203A2025640D0A202064737420706F72DC
:100F000074202020203A20000D0A20204950202063
:100F100020202020202020203A200055445020630B
:100F20006F6E6669673A000D0A00554450205458A8
:100F30002062756666657220627573790D0A0030ED
:100F4000782532780D0A00526563656976656420FC
:100F5000646174613A200050726F632E20554450D2
:100F6000207061636B6574202864617461206C6516
:100F70006E677468202564290D0A0053656E6469E4
:100F80006E6720554450207061636B65742028643F
:100F9000617461206C656E677468202564290D0A90
:100FA0000020256420726F6C6C6572206472697613
:100FB00065723A20726F6C6C6572203120706F73AD
:100FC0006974696F6E2025642C20726F6C6C657279
:100FD000203220706F736974696F6E202564002C55
:100FE000206669726D776172652025730D0A006253
:100FF0006F6F746C6F61646572206E696520726FCB
:101000007A706F637A616C206F6462696F727520A9
:1010100064616E7963680D0A006E612075727A6191
:10102000647A656E697520776772616E79206A658A
:1010300073742074796C6B6F20626F6F746C6F6166
:101040006465720D0A0072464C4153482074696D04
:10105000656F75740D0A000011241FBECFEFDFE32A
:10106000DEBFCDBF00E00CBF18BE19BE1ABE1BBE4E
:1010700015E2A0E0B0E2EAE9F6EB00E00BBF02C047
:1010800007900D92AA34B107D9F713E3AAE4B5E2A9
:1010900001C01D92A434B107E1F70E9453080C94DB
:1010A0004B5B0C940000AF92BF92CF92DF92EF9215
:1010B000FF920F938BE6E0E5F0E0828388E0809377
:1010C00050008091510083FFFCCF88ED84BF83E006
:1010D00080934000E0E6F6E09FEF948398E09093E1
:1010E000600694E09283E0EAF9E085838091A309A9
:1010F0008461838387E68683178288E1848383E221
:1011000090E00E941B1C8093FE319093FF3183E29C
:1011100090E00E941B1C8093C0329093C1322091BA
:10112000FE313091FF318BE19AE160E070E04CEBF1
:1011300052E001E0FCE1EF2EF2E3FF2ECC24DD24AF
:10114000AA24BB240E94374684E59AE160E070E05F
:1011500044E650E020E030E000E0EAEEEE2EE1E38D
:10116000FE2E0E9437460E94A14880E090E00F9139
:10117000FF90EF90DF90CF90BF90AF9008950E94C6
:101180003E51FDCF809100209091012001978093E6
:10119000002090930120009741F488EE93E0809323
:1011A0000020909301200E941E3608958091003205
:1011B0009091013260E070E048E150E00E941B5ADB
:1011C00008950E94042E0E94CC310E94993E0895F9
:1011D000DF93CF930F92CDB7DEB780910D32909110
:1011E0000E32BE016F5F7F4F4FEF5FEF20E00E9436
:1011F000CB4E882319F0298130E002C02FEF3FEF5A
:10120000C9010F90CF91DF910895FC0186EE9AE01D
:101210008087918788EE98E08287938783E0838335
:101220001486158608950FB6F8940F9280E461E055
:101230000E94BE4C80930D3290930E3280E261E0AA
:101240000E94BE4C8093D9319093DA3180E161E005
:101250000E94BE4C8093FC319093FD3184E061E0AC
:101260000E94BE4C809325329093263281E060E04C
:101270000E94BE4C80930F3290931032009739F049
:1012800060E070E040E050E020E00E94904D0F9060
:101290000FBE08951F920F920FB60F9208B60F92CD
:1012A00009B60F920BB60F92112418BE19BE1BBEC1
:1012B0002F933F934F935F936F937F938F939F935E
:1012C000AF93BF93EF93FF93DF93CF930F92CDB77D
:1012D000DEB78091A00B8983109202208091FC31AF
:1012E0009091FD31BE016F5F7F4F42E050E220E000
:1012F0000E946C4E80910220882311F00E9440537E
:101300000F90CF91DF91FF91EF91BF91AF919F919E
:101310008F917F916F915F914F913F912F910F909E
:101320000BBE0F9009BE0F9008BE0F900FBE0F901E
:101330001F901895DF93CF930F92CDB7DEB78983B7
:101340008091253290912632BE016F5F7F4F4FEF23
:101350005FEF20E00E94904DE0EAFBE08181806237
:1013600081830F90CF91DF9108959C01462F80914A
:10137000FC319091FD31B90150E020E00E94CB4E4C
:1013800008951F920F920FB60F9208B60F9209B6EA
:101390000F920BB60F92112418BE19BE1BBE2F93CD
:1013A0003F934F935F936F937F938F939F93AF93ED
:1013B000BF93EF93FF9380912532909126326EE494
:1013C00075E24FE455E20E94944F813059F48091C8
:1013D000A4068062E0EAF6E0848380914E25809343
:1013E000A00B08C010924F258091A10B8F7DE0EAE1
:1013F000FBE0818380914F25882311F00E944053A8
:10140000FF91EF91BF91AF919F918F917F916F91DC
:101410005F914F913F912F910F900BBE0F9009BE9E
:101420000F9008BE0F900FBE0F901F9018951F923F
:101430000F920FB60F9208B60F920BB60F921124AF
:1014400018BE1BBE8F93EF93FF938091A10B85FD78
:1014500006C08091A4068F7DE0EAF6E08483FF91C8
:10146000EF918F910F900BBE0F9008BE0F900FBEA3
:101470000F901F901895FF920F931F93DF93CF93B8
:101480000F92CDB7DEB7FF248E010F5F1F4F01C053
:10149000F3948091FC319091FD31B8014AE050E025
:1014A00020E00E94CB4E813099F38F2D0F90CF9189
:1014B000DF911F910F91FF90089580910F329091CD
:1014C000103260E070E04FEF5FEF20E00E94CB4E03
:1014D000089580910F329091103260E070E040E00A
:1014E00050E020E00E94904D0895E0EAF9E081810B
:1014F0008062818308951F920F920FB60F9208B6F3
:101500000F9209B60F920BB60F92112418BE19BE96
:101510001BBE2F933F934F935F936F937F938F9354
:101520009F93AF93BF93EF93FF93DF93CF930F926C
:10153000CDB7DEB78091A009898310924D258091A7
:101540000D3290910E32BE016F5F7F4F4DE455E238
:1015500020E00E946C4E80914D25882311F00E945E
:1015600040530F90CF91DF91FF91EF91BF91AF91D9
:101570009F918F917F916F915F914F913F912F91AB
:101580000F900BBE0F9009BE0F9008BE0F900FBEBC
:101590000F901F901895DF93CF930F92CDB7DEB7C2
:1015A00089838091D9319091DA31BE016F5F7F4F8D
:1015B0004FEF5FEF20E00E94904DE0EAF9E081817B
:1015C000806281830F90CF91DF9108950E94CB0AB2
:1015D00080E090E008951F920F920FB60F9208B628
:1015E0000F9209B60F920BB60F92112418BE19BEB6
:1015F0001BBE2F933F934F935F936F937F938F9374
:101600009F93AF93BF93EF93FF938091D9319091C4
:10161000DA316BE475E24CE455E20E94944F81307C
:1016200029F480914B258093A00908C010924C2585
:101630008091A1098F7DE0EAF9E0818380914C25BA
:10164000882311F00E944053FF91EF91BF91AF9119
:101650009F918F917F916F915F914F913F912F91CA
:101660000F900BBE0F9009BE0F9008BE0F900FBEDB
:101670000F901F9018950FB6F8940F9281E061E0DB
:101680000E94BE4C8093C2329093C3320F900FBE23
:101690000FB6F8940F9281E061E00E94BE4C8093F7
:1016A000C2329093C3320F900FBE81E08093200628
:1016B00080EA809340068AEB809360068FEF8093E8
:1016C000800698E29093A0068093E006809300073E
:1016D00080932007089588E190E00E941B1C80936E
:1016E00000329093013208954F925F926F927F92F1
:1016F0009F92AF92BF92CF92DF92EF92FF920F93A1
:101700001F93CF93DF937C01C0910032D0910132BF
:1017100000E010E0992434EFC32E31E0D32E21E114
:10172000A22E22E0B22E98E0692E92E0792E8FEF61
:10173000482E81E0582E8881882309F45AC000D0B1
:1017400000D0EDB7FEB73196ADB7BEB71196ED92AA
:10175000FC921297C282D382C8010196848395833A
:101760000E948257EDB7FEB73696EDBFFEBF2981C6
:101770003A818B819C818217930768F400D00F9285
:10178000ADB7BEB71196ED92FC92129713964D929B
:101790005C92149708C000D00F92EDB7FEB7E182BB
:1017A000F282638274820E9482570F900F900F9092
:1017B0000F908DB79EB708978DBF9EBFEDB7FEB750
:1017C0003196ADB7BEB71196ED92FC921297A282F8
:1017D000B38289819A81848395838B819C8186835E
:1017E00097830E9482579394EDB7FEB73896EDBF6A
:1017F000FEBF0F5F1F4F0430110511F026969BCFDF
:10180000892DDF91CF911F910F91FF90EF90DF9085
:10181000CF90BF90AF909F907F906F905F904F90D0
:101820000895CF93DF93E0910032F09101328081EF
:10183000882339F180E460E00E94CC288EE190E0BA
:101840000E94644AC0910032D091013284E00E942B
:10185000F5298B839C8380E460E00E94F128E0916D
:101860000032F091013241E0238134818181928103
:101870008217930708F040E045838AE090E00E94D9
:10188000644AE0910032F09101328681882349F167
:1018900080E260E00E94CC288EE190E00E94644AE1
:1018A000C0910032D0910132269685E00E94F52940
:1018B0008B839C8380E260E00E94F128E0910032FB
:1018C000F0910132369641E0238134818181928109
:1018D0008217930708F040E045838AE090E00E9479
:1018E000644AE0910032F09101328485882349F105
:1018F00080E160E00E94CC288EE190E00E94644A82
:10190000C0910032D09101322C9686E00E94F529D8
:101910008B839C8380E160E00E94F128E09100329B
:10192000F09101323C9641E02381348181819281A2
:101930008217930708F040E045838AE090E00E9418
:10194000644AE0910032F09101328289882349F1A2
:1019500088E060E00E94CC288EE190E00E94644A1A
:10196000C0910032D0910132629687E00E94F52941
:101970008B839C8388E060E00E94F128E091003234
:10198000F0910132729641E023813481818192810C
:101990008217930708F040E045838AE090E00E94B8
:1019A000644ADF91CF910895DF93CF930F92CDB723
:1019B000DEB7E0ECF8E08383E0ECF9E0838380912C
:1019C000C2329091C332BE016F5F7F4F4AE050E058
:1019D00020E00E94CB4E89810F90CF91DF91089536
:1019E000DF93CF930F92CDB7DEB7E0ECF8E08383BF
:1019F0008091C2329091C332BE016F5F7F4F4AE047
:101A000050E020E00E94CB4E89810F90CF91DF9172
:101A100008958091C20987FFFCCF8091C30980910E
:101A2000C3099091C1099160E0ECF9E091830895B8
:101A3000E0ECF8E0838311828091C20887FFFCCF3D
:101A40008091C3088091C3089091C1089160E0EC37
:101A5000F8E091830895E0E0F6E084818E7F84834E
:101A6000E0E2F6E084818160848384818E7F8483D8
:101A7000E0E4F6E084818061848384818F6E8483D6
:101A8000E0E8F6E08481806C848384818F7D8483A8
:101A90000895E0E2F6E084818E7F84830895E0E299
:101AA000F6E08481816084830895E0E4F6E0848137
:101AB0008F7E84830895E0E4F6E0848180618483EE
:101AC0000895E0E8F6E084818F7784830895E0E864
:101AD000F6E08481806884830895E0ECF9E08081F9
:101AE00083608083E0E8F6E084818F7B84830895BF
:101AF000E0ECF9E080818C7F8083E0E8F6E084818F
:101B0000806484830895E0ECF9E0808183608083C1
:101B1000E0E8F6E084818F7B84830895E0ECF9E0CF
:101B200080818C7F8083E0E8F6E084818064848318
:101B30000895E0ECF9E0808185608083E0E8F6E0DC
:101B40008481806284830895E0ECF9E080818A7F5B
:101B50008083E0E8F6E084818F7D848308951F927E
:101B60000F920FB60F9208B60F9209B60F920BB6EE
:101B70000F92112418BE19BE1BBE2F933F934F9393
:101B80005F936F937F938F939F93AF93BF93EF93E5
:101B9000FF938091C309809350258091C232909128
:101BA000C33260E575E241E555E220E00E946C4EEB
:101BB00080915125882311F00E944053FF91EF91AD
:101BC000BF91AF919F918F917F916F915F914F9155
:101BD0003F912F910F900BBE0F9009BE0F9008BE42
:101BE0000F900FBE0F901F9018950E946B0B0E94D4
:101BF000E03F08951F93CF93DF9380E060E00E9461
:101C0000632880E060E00E948528C8E1D0E080E0A1
:101C10000E94F52965E0969587956A95E1F780938E
:101C20000C328AE090E00E94644A81E00E94F5292B
:101C30009C01880F991F43E0220F331F4A95E1F75B
:101C4000820F931FBE010E942A54609304328AE0DF
:101C500090E00E94644A0E94110C11E0812F0E94C2
:101C600046418AE090E00E94644A1F5F1032B1F75B
:101C7000CECFFC0180A1833049F08DE194E281A3B5
:101C800092A381E080A320E030E002C025E030E0B4
:101C9000C9010895FC0188E996E081A392A380A17F
:101CA000833009F010A280E090E00895FC0180A14B
:101CB000813049F48EEC96E081A392A382E080A368
:101CC00020E030E002C025E030E0C90108950E9424
:101CD000E10880E090E00895CF93DF93EC01898DD7
:101CE000863058F181E0BE010E945F266093DE31AC
:101CF00082E0BE010E945F266093DF3183E0BE0177
:101D00000E945F266093E03184E0BE010E945F265E
:101D10006093E13185E0BE010E945F266093E2316D
:101D200086E0BE010E945F266093E3318EED91E371
:101D30000E94272C20E030E002C022E030E0C90100
:101D4000DF91CF910895CF93DF93EC01898D84309B
:101D500098F081E0BE010E944B2682E0BE010E9405
:101D60004B2683E0BE010E944B2684E0BE010E9408
:101D70004B2620E030E002C022E030E0C901DF91D4
:101D8000CF9108952F923F924F925F926F927F92E0
:101D90008F929F92AF92BF92CF92DF92EF92FF927B
:101DA0000F931F93CF93DF93EC01898D853008F457
:101DB00058C081E0BE010E944B261B012C0182E02D
:101DC000BE010E944B265B016C0183E0BE010E94B4
:101DD0004B263B014C0184E0BE010E944B267B0157
:101DE0008C01E0910232F0910332BC2DAB2D9A2D83
:101DF0008827A30133272227820F931FA41FB51F13
:101E0000820D931DA41DB51D1E2D0027FF24EE2459
:101E10008E0D9F1DA01FB11F86839783A087B1875A
:101E200085E0BE010E944B26DC01CB01E09002322E
:101E3000F09003320E94582EF70184839583898D98
:101E4000863090F086E0BE010E944B26DC01CB017B
:101E5000C0910232D09103320E94582E8A839B8314
:101E600003C022E030E002C020E030E0C901DF9191
:101E7000CF911F910F91FF90EF90DF90CF90BF9087
:101E8000AF909F908F907F906F905F904F903F901A
:101E90002F9008956F927F928F929F92AF92BF92F0
:101EA000CF92DF92EF92FF920F931F93CF93DF9326
:101EB000EC01898D8430B0F181E0BE010E944B2697
:101EC0003B014C0182E0BE010E944B267B018C014C
:101ED00083E0BE010E944B265B016C0184E0BE01E1
:101EE0000E944B26DC01CB01102F0F2DFE2CEE247F
:101EF0006501BB24AA24EA0CFB1C0C1D1D1DE60C6D
:101F0000F71C081D191DB82FAA2799278827E80E46
:101F1000F91E0A1F1B1FC801B7010E94EF3220E003
:101F200030E002C022E030E0C901DF91CF911F9183
:101F30000F91FF90EF90DF90CF90BF90AF909F9068
:101F40008F907F906F900895BC01FC01818D882354
:101F5000B1F081E00E944B2620E230E0261B370BD7
:101F60006FEF7FEFCB0104C09695879577956795C6
:101F70002A95D2F70E94E63220E030E002C022E04B
:101F800030E0C90108956F927F928F929F92AF9235
:101F9000BF92CF92DF92EF92FF920F931F93CF9356
:101FA000DF93EC01898D8430B0F181E0BE010E94A5
:101FB0004B263B014C0182E0BE010E944B267B0177
:101FC0008C0183E0BE010E944B265B016C0184E022
:101FD000BE010E944B26DC01CB01102F0F2DFE2CE1
:101FE000EE246501BB24AA24EA0CFB1C0C1D1D1D5C
:101FF000E60CF71C081D191DB82FAA27992788275A
:10200000E80EF91E0A1F1B1FC801B7010E94DD322E
:1020100020E030E002C022E030E0C901DF91CF9142
:102020001F910F91FF90EF90DF90CF90BF90AF90F6
:102030009F908F907F906F9008950F931F93DF93E1
:10204000CF930F92CDB7DEB78C0181E0B8010E942B
:102050004B26862F69830E94F5292DB73EB728505D
:1020600030402DBF3EBFEDB7FEB73196D8015A962E
:102070002D913C915B97ADB7BEB711962D933C93D4
:1020800012972CE137E022833383698164831582C0
:10209000868397830E948257EDB7FEB73896EDBFCF
:1020A000FEBF80E090E00F90CF91DF911F910F91E4
:1020B0000895FF920F931F93CF93DF93EC0181E07C
:1020C000BE010E944B26F62E82E0BE010E944B26E6
:1020D000062F83E0BE010E944B26162F0E94E727A1
:1020E0005AE08F2D652F0E941E54482F437027E120
:1020F00032E34295407F909117329F7C942B9093CE
:10210000173246EF849F802D11248F0D8F70909190
:102110001732907F982B90931732802F0E941E5475
:10212000682F6770F9016295607F92919F78962B76
:102130009083849F802D1124800F8F709081907FD9
:10214000982B9083812F652F0E941E54582F577013
:10215000F90132975295507F90819F78952B90830B
:10216000849F402D1124410F4F709081907F942BBC
:102170009083CF010E94E12780E090E0DF91CF9132
:102180001F910F91FF900895BC01FC01818D882360
:1021900049F081E00E944B26862F0E94222A20E0EF
:1021A00030E002C022E030E0C90108951F93BC0175
:1021B00081E00E944B26162F80E060E00E94852877
:1021C000812F60E00E94172980E090E01F91089520
:1021D0001F93BC0181E00E944B26162F80E060E037
:1021E0000E946328812F60E00E94A72880E090E091
:1021F0001F910895FF920F931F93CF93DF93EC01EC
:1022000081E0BE010E944B26062F82E0BE010E94A3
:102210004B26162F117083E0BE010E944B26F62E2E
:102220002DB73EB7285030402DBF3EBFEDB7FEB7AB
:1022300031968A8D9B8DADB7BEB711968D939C93C9
:1022400012978AE395E08283938304831582212F7A
:1022500030E02F5F3F4F268337830E9482578F2DB8
:1022600081502DB73EB7285F3F4F2DBF3EBF84360C
:10227000D8F400D000D0EDB7FEB731968A8D9B8D93
:10228000ADB7BEB711968D939C9312972DE635E0AE
:1022900022833383F48215820E9482572DB73EB782
:1022A0002A5F3F4F2DBF3EBF802F612F4F2D0E94D1
:1022B0004B45882319F421E030E002C023E030E0F0
:1022C000C901DF91CF911F910F91FF900895FF9267
:1022D0000F931F93CF93DF93EC01898D823008F425
:1022E00065C081E0BE010E944B26062F0F7382E07D
:1022F000BE010E944B26162F1170898D833030F05D
:1023000083E0BE010E944B26F62E02C0FF24FA9401
:102310002DB73EB7285030402DBF3EBFEDB7FEB7BA
:1023200031968A8D9B8DADB7BEB711968D939C93D8
:10233000129787E095E08283938304831582212F8F
:1023400030E02F5F3F4F268337830E9482578F2DC7
:1023500081502DB73EB7285F3F4F2DBF3EBF84361B
:10236000D8F400D000D0EDB7FEB731968A8D9B8DA2
:10237000ADB7BEB711968D939C9312972DE635E0BD
:1023800022833383F48215820E9482572DB73EB791
:102390002A5F3F4F2DBF3EBF802F612F4F2D0E94E0
:1023A000B744882331F421E030E005C022E030E07A
:1023B00002C023E030E0C901DF91CF911F910F915E
:1023C000FF9008950F931F93CF93DF93EC0100D0FC
:1023D0000F928A8D9B8DADB7BEB711968D939C934E
:1023E00012978AEE94E013968D939C9314970E9413
:1023F00082570F900F900F900F9081E0BE010E94C6
:10240000252664EC72E30E94A81D882309F10A8D39
:102410001B8D81E0BE010E94252600D000D0EDB7C3
:10242000FEB73196ADB7BEB711960D931C931297B8
:102430002AEE32E022833383848395830E9482577D
:10244000EDB7FEB73696EDBFFEBF24E030E002C028
:1024500020E030E0C901DF91CF911F910F910895E5
:10246000EF92FF920F931F93DF93CF930F92CDB70D
:10247000DEB78C0181E0B8010E94252664EC72E38E
:102480000E94A81D882321F1D8015A96ED90FC9056
:102490005B9781E0B8010E94252600D000D0EDB7FF
:1024A000FEB73196ADB7BEB71196ED92FC9212977A
:1024B0002AEE32E022833383848395830E948257FD
:1024C000EDB7FEB73696EDBFFEBF24E030E03AC070
:1024D00084EC92E30E942F20198200D00F92D80141
:1024E0005A968D919C915B97EDB7FEB7818392834D
:1024F00080EB94E0838394830E9482570F900F9027
:102500000F900F908E010F5F1F4F80910D329091B1
:102510000E32B8014FEF5FEF20E00E94CB4E8823D0
:10252000A1F38981833041F00E94CB0A84EC92E3CD
:1025300069810E94291EE9CF84EC92E30E94EC1D80
:1025400020E030E0C9010F90CF91DF911F910F91F2
:10255000FF90EF9008952F923F924F925F926F926B
:102560007F928F929F92AF92BF92CF92DF92EF9223
:10257000FF920F931F93DF93CF93CDB7DEB72797CB
:10258000CDBFDEBF8C0100D00F92DC015A968D9139
:102590009C915B97EDB7FEB7818392838FE397E0C1
:1025A000838394830E9482570F900F900F900F9017
:1025B00081E0B8010E94252664EC72E30E94A81D08
:1025C000882311F1D8015A96ED90FC905B9781E039
:1025D000B8010E94252600D000D0EDB7FEB7319695
:1025E000ADB7BEB71196ED92FC9212972AEE32E08B
:1025F00022833383848395830E948257EDB7FEB78D
:102600003696EDBFFEBF32C0D8015D961D921C927A
:102610005E975F961C9284E1D82EB2E0EB2EF12CEF
:10262000EC0EFD1EF801628D738D83E490E00E9434
:102630009F578091A10986FFFCCF80910D32909128
:102640000E32B70144E650E020E00E94CB4E8823D2
:1026500019F08A81813069F0DA9421F784EC92E3F1
:102660000E94EC1DD8015C961C925C9724E030E03F
:102670004EC184EC92E361E070E00E9451206C0155
:10268000EE24E394AAE0BA2EF3E04F2E512C4C0E28
:102690005D1EE4E02E2E312C2C0E3D1E73E0A72E85
:1026A0003E010894611C711C80910D3290910E3294
:1026B000B20144E650E020E00E94CB4E882319F49A
:1026C00082E0F801CCC080910D3290910E32B101C0
:1026D00041E050E020E00E94CB4E882311F483E0DB
:1026E000CDC08C81982F90959A83FB80F91639F094
:1026F00095E0F801948FF58E168E878F02C18E2D8E
:1027000081508A83F81641F484EC92E36F2D70E0D7
:102710000E9451206C01EF2CFB80FE1481F084E0BC
:10272000D8015C968C935C978C815D968C935D97B9
:102730005E961C925E975F96EC925F97E2C08C2C3F
:102740009D2C30E080910D3290910E32BE016E5F73
:102750007F4F4AE050E020E03F830E94CB4E3F8114
:10276000882341F08A81F40181934F013F5F303823
:1027700049F703C0D8015C96AC9280910D329091DC
:102780000E32BE016B5F7F4F4AE050E020E00E94B6
:10279000CB4E882341F486E0F801848F82E090E0FC
:1027A000858F968FAEC080910D3290910E32BE0112
:1027B0006A5F7F4F4AE050E020E00E94CB4E8823C2
:1027C00061F486E0D8015C968C935C9781E090E0A0
:1027D0005D968D939C935E9794C0EC2DFD2D80E0CB
:1027E00090E020E031919327092E0294302D3F7024
:1027F0003927492F4025440F407E3427402D492753
:10280000407F4695092E000C441F96959695969507
:102810009F7194279827832F2F5F203819F74D81B8
:1028200050E0292F33274217530761F42E8130E0FF
:1028300090702817390731F486E00E94CB0A3AE0FD
:10284000B32E0FC0BA94FA9485E10E94CB0ABB2044
:1028500041F48B81F801858F168EF78E84E0848F8A
:1028600050C080910D3290910E32B30144E650E099
:1028700020E00E94CB4E882331F482E0D8015C96A0
:102880008C935C973EC08981813061F4EF2CE39496
:1028900084EC92E36E2D70E00E9451206C01F801EF
:1028A000148E02CF883149F4D8015D96FC925D9771
:1028B0005E961C925E9787E0E2CF8430C1F485E19A
:1028C0000E94CB0A80910D3290910E32B3014AE002
:1028D00050E020E00E94CB4E882331F08981843083
:1028E00019F486E00E94CB0AF801148E0AC098E021
:1028F000D8015C969C935C975D968C935D975E96F1
:102900001C9284EC92E30E94EC1D20E030E0C901AF
:102910002796CDBFDEBFCF91DF911F910F91FF9022
:10292000EF90DF90CF90BF90AF909F908F907F906F
:102930006F905F904F903F902F900895FF920F936C
:102940001F93CF93DF938C01DC0159968C9159979B
:10295000823008F4E2C082E0B8010E944B26F62ED5
:1029600081E0B8010E942526EC01FF2009F05DC03E
:1029700063E877E043E050E00E94BB56009731F4F3
:1029800080E090E060E00E9405363CC0CE0160E847
:1029900077E042E050E00E94BB56009731F480E0BF
:1029A00090E060E00E94AF322DC0CE016BE777E08F
:1029B00042E050E00E94BB56009731F480E090E086
:1029C00060E00E947E341EC0CE0167E777E042E0FF
:1029D00050E00E94BB56009731F480E090E060E048
:1029E0000E94B13C0FC0CE0163E777E042E050E0C7
:1029F0000E94BB56009709F090C080E090E060E034
:102A00000E94FE3C00D000D0EDB7FEB73196D80151
:102A10005A968D919C915B97ADB7BEB711968D93E9
:102A20009C93129780E995E06AC06FE677E043E0F7
:102A300050E00E94BB56009749F4D8015A968D91F8
:102A40009C915B976F2D0E94053647C0CE016CE6C6
:102A500077E042E050E00E94BB56009749F4D8016D
:102A60005A968D919C915B976F2D0E94AF3235C025
:102A7000CE0167E677E042E050E00E94BB56009747
:102A800049F4D8015A968D919C915B976F2D0E94C5
:102A90007E3423C0CE0163E677E042E050E00E943E
:102AA000BB56009749F4D8015A968D919C915B973B
:102AB0006F2D0E94B13C11C0CE016FE577E042E07E
:102AC00050E00E94BB56009741F5D8015A968D916F
:102AD0009C915B976F2D0E94FE3C00D000D0EDB71B
:102AE000FEB73196D8015A968D919C915B97ADB700
:102AF000BEB711968D939C9312978DE795E08283D4
:102B00009383C483D5830E948257EDB7FEB7369670
:102B1000EDBFFEBF20E030E002C022E030E0C9019E
:102B2000DF91CF911F910F91FF900895FC01828D4D
:102B3000938D0E94F42C80E090E00895DF92EF9254
:102B4000FF920F931F93DF93CF930F92CDB7DEB712
:102B50008C0180E2898381E0B8010E94252664EC23
:102B600072E30E94A81DD8015A96ED90FC905B97E5
:102B70008823F9F081E0B8010E94252600D000D01A
:102B8000EDB7FEB73196ADB7BEB71196ED92FC9298
:102B900012972AEE32E022833383848395830E9446
:102BA0008257EDB7FEB73696EDBFFEBF24E030E0AA
:102BB00054C0A091C832B091C93200D000D04DB7F6
:102BC0005EB74F5F5F4FEDB7FEB7E182F28288EDEF
:102BD00094E0FA018283938312969C91129780E08D
:102BE00011962C91820F911D848395830E948257A8
:102BF0008DB79EB706968DBF9EBF7E010894E11CDF
:102C0000F11C84EC92E3B7010E94701ED82E8981DA
:102C10000E94CB0A89818D3019F48AE00E94CB0A88
:102C2000DD2079F300D00F92D8015A968D919C91B6
:102C30005B97EDB7FEB78183928383E596E083834C
:102C400094830E9482570F900F900F900F9084EC06
:102C500092E30E94EC1D20E030E0C9010F90CF917B
:102C6000DF911F910F91FF90EF90DF900895FC018D
:102C7000828D938D0E94BC2080E090E00895CF93D8
:102C8000DF93EC0185E192E30E94AB27409117327C
:102C9000469546954695709117327F703091163261
:102CA000369536953695609116326F7020911532B3
:102CB000269526952695509115325F708DB79EB753
:102CC0000A978DBF9EBFEDB7FEB731968A8D9B8D5B
:102CD000ADB7BEB711968D939C93129787E897E096
:102CE000828393834670842F880F880F840F870F09
:102CF000848315823E70832F880F880F830F860F81
:102D0000868317822E70822F880F880F820F850F7F
:102D1000808711860E9482578DB79EB70A968DBF15
:102D20009EBF80E090E0DF91CF9108950E947326CE
:102D300080E090E00895EF920F931F939B0160E075
:102D400078E240E051E008E916E0EE240E94882293
:102D50001F910F91EF900895CF93DF93EC01EC8DCD
:102D6000EE2349F1F0E0EE0FFF1FE058F94F859197
:102D700094912DB73EB7285030402DBF3EBFEDB7E0
:102D8000FEB731962A8D3B8DADB7BEB711962D9308
:102D90003C931297828393838D8D9E8D848395833C
:102DA0008F8D868317820E9482572DB73EB7285F8A
:102DB0003F4F2DBF3EBF1C8E1D8E1E8E1F8EDF917E
:102DC000CF910895CF93DF93EC0181E0BE010E9483
:102DD00025260E94C71D882331F0CE010E94AC1623
:102DE00024E030E002C021E030E0C901DF91CF9162
:102DF0000895CF93DF93EC01898D813069F4BE0192
:102E00000E9425260E942F1D882349F0CE010E9492
:102E1000AC1624E030E005C022E030E002C021E042
:102E200030E0C901DF91CF910895FF920F931F9376
:102E3000CF93DF93EC01898D823009F046C081E0A9
:102E4000BE010E944B26F62E82E0BE010E9425267E
:102E50008C018F2D0E945940882331F089E08C8F9E
:102E6000CE010E94AC162EC0C80164EC72E30E9431
:102E7000A81D4A8D5B8D8823C9F000D000D0EDB726
:102E8000FEB73196ADB7BEB711964D935C931297CE
:102E90008AEE92E082839383048315830E94825793
:102EA0008DB79EB706968DBF9EBF0CC084EC92E393
:102EB0006F2D0E946942082F84EC92E30E94EC1D62
:102EC000002331F024E030E005C022E030E002C011
:102ED00020E030E0C901DF91CF911F910F91FF9069
:102EE00008950F931F93DF93CF930F92CDB7DEB763
:102EF0008C01FC01818D8823B9F081E0B8010E942A
:102F00004B26862F69830E945940F801878F69817B
:102F1000882369F089E0848F658F168EC8010E942E
:102F2000AC1620E030E005C022E030E002C021E035
:102F300030E0C9010F90CF91DF911F910F9108955B
:102F4000CF93DF93EC0100D00F92ADB7BEB71196CF
:102F50008D939C9312978CEA97E013968D939C9394
:102F600014970E948257EDB7FEB7C183D2838FEFCB
:102F700092E0838394830E9482570F900F900F906A
:102F80000F900E94E34800D000D0EDB7FEB7319615
:102F9000ADB7BEB71196CD93DC9312972FE033E017
:102FA00022833383848315820E948257EDB7FEB754
:102FB0003696EDBFFEBF0E9493522DB73EB7285004
:102FC00030402DBF3EBFEDB7FEB73196ADB7BEB7AF
:102FD0001196CD93DC93129728E233E0228333835A
:102FE0008483958388EB9BE0868397830E94825736
:102FF000EDB7FEB73896EDBFFEBF0E94291C2DB776
:103000003EB7285030402DBF3EBFEDB7FEB73196DA
:10301000ADB7BEB71196CD93DC93129722E533E09E
:10302000228333838483958380E097E1868397832B
:103030000E948257209104320F900F90EDB7FEB797
:103040003196ADB7BEB71196CD93DC93129789EA4E
:1030500093E082839383248315820E948257209178
:103060000C32EDB7FEB73196ADB7BEB71196CD9322
:10307000DC93129784EC93E08283938324831582FC
:103080000E948257EDB7FEB73696EDBFFEBF0E9495
:103090004B212DB73EB7285030402DBF3EBFEDB776
:1030A000FEB73196ADB7BEB71196CD93DC931297AC
:1030B0002CE733E0228333838483158280E890E019
:1030C000868397830E9482570F900F900F900F90E6
:1030D000EDB7FEB7C183D2838FED93E083839483F2
:1030E0000E948257ADB7BEB71196CD93DC9312976D
:1030F00082EF93E013968D939C9314970E948257CE
:103100000F900F900F900F90CE016EED71E30E9423
:10311000A02E00D00F92EDB7FEB7C183D28389EA0B
:1031200097E0838394830E948257ADB7BEB7119610
:10313000CD93DC93129787E094E013968D939C9344
:1031400014970E9482570F900F900F900F900E943B
:10315000F832FC014081518162817381CE010E946D
:10316000DA2E00D00F92ADB7BEB71196CD93DC9397
:10317000129786EA97E013968D939C9314970E947A
:103180008257EDB7FEB7C183D2838CE194E083838D
:1031900094830E9482570F900F900F900F900E947F
:1031A000F832DC0114964D915D916D917C911797E9
:1031B000CE010E94DA2E00D00F92EDB7FEB7C18388
:1031C000D28383EA97E0838394830E948257ADB7CA
:1031D000BEB71196CD93DC93129781E394E01396DA
:1031E0008D939C9314970E9482570F900F900F908D
:1031F0000F900E94F832FC014085518562857385ED
:10320000CE010E94DA2E00D00F92ADB7BEB7119654
:10321000CD93DC93129780EA97E013968D939C935D
:1032200014970E948257EDB7FEB7C183D28386E41C
:1032300094E0838394830E9482570F900F900F90A5
:103240000F90CE010E94EF3F8823A1F400D00F928F
:10325000ADB7BEB71196CD93DC93129781E694E09B
:1032600013968D939C9314970E9482570F900F9002
:103270000F900F9000D00F92EDB7FEB7C183D283AD
:103280008BE794E0838394830E9482570F900F9082
:103290000F900F90CE010E94740B8823A1F400D0F0
:1032A0000F92ADB7BEB71196CD93DC93129784E918
:1032B00094E013968D939C9314970E9482570F90DD
:1032C0000F900F900F90CE010E94BA3EDF91CF91E8
:1032D0000895EF92FF920F931F93DF93CF93CDB793
:1032E000DEB72E97CDBFDEBF7C01DC0159968C91F5
:1032F0005997882339F45A968D919C915B970E9437
:10330000A01737C081E0B7010E94252664EC72E364
:103310008E010F5F1F4FA80123E00E9457218823D1
:1033200011F1F701028D138D81E0B7010E9425266E
:1033300000D000D0EDB7FEB73196ADB7BEB711964D
:103340000D931C9312972AEE32E0228333838483F9
:1033500095830E948257EDB7FEB73696EDBFFEBF4C
:1033600024E030E008C0C8010E94A017C8010E94F4
:103370007C2120E030E0C9012E96CDBFDEBFCF9189
:10338000DF911F910F91FF90EF900895EF92FF92C0
:103390000F931F93CF93DF93E82EE7017E01F92E61
:1033A000E7010E940D2E0E94A1310E9412360E9458
:1033B00077340EED17E080E090E00E94644A0E94AE
:1033C000162B009729F40E94693E0E94B83CF3CF67
:1033D000E091E431F091E531E484F58480E098E017
:1033E0000E94582EE816F90629F40E9494360E948D
:1033F000F131E1CFE091E431F091E531E484F584FD
:1034000086E098E00E94582EE816F90619F40E940A
:103410004B38D1CF209779F200D00F92EDB7FEB79D
:10342000C183D283038314830E9482570F900F902D
:103430000F900F90C0CFEF92FF920F931F93DF93E7
:10344000CF930F92CDB7DEB78C0100D00F92FC0165
:10345000828D938DEDB7FEB7818392838FEE97E0D7
:10346000838394830E9482570F900F900F900F9048
:103470008DE0B8010E94CC227E010894E11CF11C71
:1034800080910D3290910E32B7014FEF5FEF20E047
:103490000E94CB4E8823A1F38981B8010E94CC22DF
:1034A000C8010E948F25ECCF1F9311E688EC90E0B5
:1034B0000E94644A1093A009F9CFEF92FF92CF9334
:1034C000DF93E82EE7017E01F92EE7018A8D9B8DBF
:1034D0000E943257BE010E94CC22CE010E948F254D
:1034E000F5CF982F80FF02C02FEF01C02FE791FF8B
:1034F00002C0206401C02F6B92FF02C0206201C095
:103500002F7D93FF02C0206101C02F7E94FF02C077
:10351000286001C0277F95FF02C0246001C02B7F77
:1035200096FF03C0922F926002C0922F9D7F87FF6B
:1035300003C0892F81600895892F8E7F089580FFB1
:1035400004C020912406206203C0209124062F7D10
:10355000E0E2F6E0248381FF04C02091240620618C
:1035600003C0209124062F7EE0E2F6E0248382FF50
:1035700004C020912406286003C020912406277FE0
:10358000E0E2F6E0248383FF04C080912406846097
:1035900003C0809124068B7FE0E2F6E084830895E7
:1035A0000F931F93CF93DF93182F82958F700E94F4
:1035B000711A082F812F0E94711A182FC0E0D6E0CF
:1035C0008C8183608C83802F0E949F1A8C818D7FD9
:1035D0008C838C8183608C83812F0E949F1A8C81C5
:1035E0008D7F8C8387EC90E00197F1F700C000009D
:1035F000DF91CF911F910F910895E0E0F6E0948163
:103600009B7F94830E94D01A0895E0E0F6E09481B5
:10361000946094830E94D01A089581E00E94FD1A5C
:103620008FE39FE10197F1F700C000000895CF9369
:10363000DF93809120068C6380932006E0E0F6E023
:103640008091000686608093000680910406836066
:10365000848380910406846084838FE59AEE0197C9
:10366000F1F700C00000809104068B7F8483809175
:1036700004068D7F848383E090E040E256E0C0E062
:10368000D6E0209104062360248320912406237F22
:10369000DA0114962C931497209104062D7F24832D
:1036A000AFE1BEE41197F1F700C00000019739F7D0
:1036B0008091040683608C8382E00E949F1A80912F
:1036C00004068D7F8C838FE99FE00197F1F700C09E
:1036D000000088E20E94FD1A80E80E94FD1A81E045
:1036E0000E94FD1AAFE3BFE11197F1F700C000009F
:1036F00086E00E94FD1A8FE00E94FD1ADF91CF91B3
:103700000895FC0119950FB6F8940F9281E060E0DE
:103710000E94BE4C8093203290932132009739F062
:1037200060E070E040E050E020E00E94904D80E5D5
:103730008093C0098091C1098260E0ECF9E0818347
:103740008091C00980688093C0090F900FBE0895D2
:10375000FC0119950FB6F8940F9281E060E00E9489
:10376000BE4C8093203290932132009739F060E074
:1037700070E040E050E020E00E94904D80E58093B2
:10378000C0088091C1088260E0ECF8E081838091FC
:10379000C00880688093C0080F900FBE0895E0ECC9
:1037A000F9E08081846080830895E0ECF8E0808116
:1037B000846080830895E0ECF9E080818B7F8083D2
:1037C0000895E0ECF8E080818B7F80830895E0EC41
:1037D000F9E08081886080830895E0ECF8E08081E2
:1037E000886080830895E0ECF9E08081877F8083A2
:1037F0000895E0ECF9E08081877F808308958091CF
:1038000020329091213260E070E04FEF5FEF20E0D6
:103810000E94CB4E0895809120329091213260E039
:1038200070E040E050E020E00E94904D089580E07C
:10383000089580E00895CF93DF93EC010E943E54F9
:10384000C80FD91FC093B324D093B424DF91CF9174
:10385000089520914425309145252F5F3F4F809159
:10386000B3249091B424281B390BC9010895FC019D
:10387000A481B58112969C9112978381981741F487
:10388000828111969C911197981710F411968C9340
:10389000A481B58112969C9112978381981748F460
:1038A000828111968C93A481B581838112968C9329
:1038B00012970895E0E0F82FF05880E091E0DF01E2
:1038C0009C011D9221503040E1F708951F9311E0B3
:1038D000E12FF0E0E55DFD4C8081882329F4108321
:1038E000812F0E945A1C04C01F5F103889F710E016
:1038F000812F1F9108951F93282F30E0F901E55D76
:10390000FD4C10811817B9F411E0E12FF0E0E55DEE
:10391000FD4C8081882319F01F5F1038B1F7255DB9
:103920003D4CF9011083E12FF0E0E55DFD4C108383
:10393000812F0E945A1C812F1F9108951F93DF939E
:10394000CF930F92CDB7DEB710E007C069830E9416
:103950007B1C6981882319F01F5F1617B8F30F903D
:10396000CF91DF911F9108958F929F92AF92BF9256
:10397000DF92EF92FF920F931F93DF93CF930F92FB
:10398000CDB7DEB78C01DC010D900020E9F79D0179
:1039900021503040281B293008F028E0F801E20FC0
:1039A000F11D31978081882309F42150F801319667
:1039B00081E004C09191903231F08F5F8217D0F393
:1039C000222359F101C0282FDD2401C0D82EED2C6F
:1039D000FF24C70180589F4F982E882480EFA82E7F
:1039E000B12CA80CB91CB4016C5F7F4FC801422FE9
:1039F00050E029830E94EB562981009781F08A14B8
:103A00009B0429F0E0E1F0E08E0E9F1EECCFF70161
:103A1000E55DFD4C8081D816C9F688249924C4013F
:103A20000F90CF91DF911F910F91FF90EF90DF905A
:103A3000BF90AF909F908F90089580E8EBE2F2E303
:103A4000DF011D928A95E9F780E091E0E0E0F0E87F
:103A5000DF019C011D9221503040E1F70895CF9283
:103A6000DF92EF92FF920F931F93CF93DF93F82E85
:103A7000092FE82FF92FDF010D900020E9F71197AA
:103A80001A2F181B193008F018E02F2D302FF901CC
:103A900080E004C09191903221F08F5F8117D0F3C4
:103AA00001C0182F112309F447C08F2D902F0E94B9
:103AB000B41C009709F040C0EE2401C0E82E8E2D02
:103AC00090E0EC01C058DF4FDC2FCC279E01205145
:103AD0003F4F4C814423D1F0C217D30711F06096B9
:103AE000F8CF855D9D4CDC018C91E81639F70E947A
:103AF000661CEE2DF0E0E55DFD4C80838823F1F03F
:103B0000C82FD0E0C058DF4FDC2FCC272097B1F072
:103B10006E01EC2FFD2D8CE0DF011D928A95E9F7F7
:103B2000CE0104966F2D702F412F50E00E94F95660
:103B30001C861D861E861F8680E001C081E0DF9105
:103B4000CF911F910F91FF90EF90DF90CF9008954C
:103B5000EF92FF92CF93DF93EB010E94B41CFC0124
:103B6000009779F07E012C2F3F2D83E0D9011D9223
:103B70008A95E9F7EC83FD8383818F5F838380E0FF
:103B800001C081E0DF91CF91FF90EF9008950E94F6
:103B9000B41CFC010097E1F08381882381F01AC0F6
:103BA000822F90E0DC01A55DBD4C3C91321711F4F1
:103BB000108201C03083855D9D4CDC011C92208108
:103BC000222371F780E111928A95E9F780E0089548
:103BD00081E0089582E00895DC011496ED91FC9156
:103BE00015972381222331F02150238386E01D92F3
:103BF0008A95E9F70895CF93DF93FC010FC0822FD8
:103C000090E0EC01C55DDD4C3881321711F41C9257
:103C100001C03C93855D9D4CDC011C92A481B58163
:103C20002C91222361F711961C92A481B5811296E2
:103C30001C92A481B5811C961D921D921D921C920E
:103C40001F97108211821282138280E0DF91CF9140
:103C500008951F93CF93DF93EC01162FEC81FD8124
:103C60008081882339F40E94661C882349F1EC8105
:103C7000FD8180838A81882369F4EC81FD818081C4
:103C80006B810E949E1C8823E9F090E080589F4F32
:103C900018828983E881F98110838A818F5F8A8302
:103CA000882321F48B818F5F8B8305C08881998164
:103CB000019688839983CE010E94371C80E003C05F
:103CC00081E001C082E0DF91CF911F910895282FFC
:103CD000FB0184859585622F0E94291E90E008953E
:103CE0000F931F93CF93DF93EC018B01EC81FD8148
:103CF00082816B81681730F0861721F591818A8166
:103D0000981700F18A81882341F480810E949E1CCB
:103D100090E080589F4F18828983E881F9818081E3
:103D2000F80180838A818F5F8A83882321F48B81C5
:103D30008F5F8B8305C088819981019688839983E1
:103D400080E001C081E0DF91CF911F910F91089534
:103D5000DF93CF930F92CDB7DEB7FC0184859585B5
:103D6000BE016F5F7F4F0E94701E882319F4298166
:103D700030E002C02FEF3FEFC9010F90CF91DF91EC
:103D800008958F929F92AF92BF92DF92EF92FF922F
:103D90000F931F93CF93DF93EC014B015A010C81DA
:103DA0001D81F8018081882321F40E94661CF8019E
:103DB00080838A8100E011E0081B1109F501E08091
:103DC000F18010821182DD244EC08A818823A9F4FB
:103DD000DD2039F4EC81FD8180816B810E949E1C85
:103DE00003C08D2D0E947B1CD82E882309F444C06B
:103DF00090E080589F4F18828983888199810E15A1
:103E00001F05B0F4B401A8010E94C956800E911E8E
:103E10001A82E01AF10AF50180819181800F911FC9
:103E2000808391838B818F5F8B8300E011E01BC0C7
:103E3000B401A7010E94C9568A818E0D8A83F501BB
:103E4000808191818E0D9F1D808391838D2D90E0C7
:103E500080589F4F982F88272A81820F911D888331
:103E60009983EE24FF24E114F10409F0AECFCE01D2
:103E70000E94371C80E001C081E0DF91CF911F914B
:103E80000F91FF90EF90DF90BF90AF909F908F9039
:103E900008958F929F92BF92CF92DF92EF92FF92FE
:103EA0000F931F93CF93DF93EC014B016A01EC81D9
:103EB000FD818081882329F4FA011082118281E03A
:103EC00078C022818B81821740F0281709F07DC0CD
:103ED00031819A81391708F478C030E0281B310904
:103EE000818190E04A81841B9109820F931FF60122
:103EF000008111818017910708F48C01F60110826E
:103F000011828A81E12CE1E0FE2EE81AF108BB243F
:103F100049C08A818823A1F4BB2039F4EC81FD815A
:103F200080816B810E949E1C03C08B2D0E947B1C94
:103F3000B82E8823E9F190E080589F4F188289833A
:103F400068817981E016F106B8F4C401A7010E94E6
:103F5000C9568E0C9F1C1A828B818F5F8B830E1922
:103F60001F09F601808191818E0D9F1D80839183B1
:103F7000E12C71E0F72E16C0C401A8010E94C956B9
:103F800088819981800F911F888399838A81800F0E
:103F90008A83F60180819181800F911F80839183B4
:103FA00000E010E00115110509F0B3CF80E001C079
:103FB00083E0DF91CF911F910F91FF90EF90DF9001
:103FC000CF90BF909F908F900895F601108211823C
:103FD00082E0EFCFEF92FF920F931F93CF93DF9387
:103FE000EC016115710519F41A821B822EC08B0138
:103FF00001501040EC80FD80F7018081882321F47E
:104000000E94661CF70180830A831B83EC81FD817B
:104010008081612F0E949E1C082F8823C1F0CE0151
:104020000E94371C2A812F5F2A83222321F48B814F
:104030008F5F8B830AC0802F90E080589F4F982F0E
:104040008827820F911D8883998380E001C081E0D9
:10405000DF91CF911F910F91FF90EF900895CF9333
:10406000DF93EC010097B9F0EC81FD8181818A83B7
:1040700092819B83882389F0808162810E949E1CAB
:1040800090E080589F4F982F88272A81820F911D9A
:104090008883998302C081E001C080E0DF91CF91E5
:1040A0000895BF92CF92DF92EF92FF920F931F93EA
:1040B000CF93DF938C016B016115710509F44FC03B
:1040C000DC011496ED90FC901597F7018081882310
:1040D00021F40E94661CD7018C93D8011496ED91AF
:1040E000FC91159780818823D1F10894C108D108EB
:1040F0007601F694E794BE2C6E2D0E949E1C8823B8
:1041000071F1D8011496ED91FC911597C0FE0FC086
:104110009281E91638F0B394B2821496ED91FC9135
:104120001597118280E0EC01C058DF471AC09281D8
:104130009E1538F4E282D8011496ED91FC91159702
:1041400005C09E1529F4918197FD02C090E89183E6
:10415000C82FD0E0C058DF4FDC2FCC2702C0C0E012
:10416000D0E0CE01DF91CF911F910F91FF90EF90A2
:10417000DF90CF90BF9008952F923F924F925F9221
:104180006F927F929F92AF92BF92CF92DF92EF9207
:10419000FF920F931F93CF93DF938C0185EB94E2F3
:1041A000B8010E94CB57AA244EEC242E44E2342EB0
:1041B00001C0A82ECA2CDD24E601C058DF4FDC2F39
:1041C000CC2720EF622E712C6C0E7D1EBC80BB2094
:1041D00009F448C08B2D90E0B8010E949F577E01E2
:1041E00099249394BB2061F0D7011596BC90159744
:1041F000BB2031F08B2D90E0B8010E949F5706C084
:1042000080E290E0B8010E949F57BB2493940894E9
:10421000E11CF11CB92DB83029F7EDB7FEB738977E
:10422000EDBFFEBF3196ADB7BEB711960D931C938F
:104230001297228233825A80442489819201280F66
:10424000311D248335838B81868317820E947257A8
:104250008DB79EB708968DBF9EBFC615D70511F0C6
:104260006096B4CFF601E55DFD4C80818A1509F0BA
:10427000A0CFDF91CF911F910F91FF90EF90DF9032
:10428000CF90BF90AF909F907F906F905F904F9036
:104290003F902F900895EBEAF2E380E0929199230A
:1042A00009F48F5F92E3EC32F907C1F70895EF92BA
:1042B000FF920F931F93DF93CF930F92CDB7DEB78B
:1042C0008B017A0129830E94A81D2981882361F42A
:1042D00047E65EE1F7014087518748EA5EE14287A1
:1042E00053872383048715870F90CF91DF911F9108
:1042F0000F91FF90EF9008950F931F93CF93DF934B
:104300008C01FC01C485D585CE010E94EC1DC8013D
:104310000E940857EC81FD818381DF91CF911F912D
:104320000F9108950F931F93CF93DF938C01DC01BE
:104330009096EC919097E33040F4F0E0EE0FFF1F81
:10434000E952FB4DC081D1810EC0C9EFD7E00BC04F
:104350002196FC018491D8015A966D917C915B97CE
:1043600090E00E949F57CE01FE012491222381F705
:10437000DF91CF911F910F910895FF920F931F939B
:10438000CF93DF93EC018B016A8D7B8D8DE090E004
:104390000E949F57CE010E949221FD840BC0F8011C
:1043A00081918F016A8D7B8D992787FD90950E9461
:1043B0009F57FA94FF2099F70C858D85081B07C03D
:1043C0006A8D7B8D80E290E00E949F570150002310
:1043D000B9F70C858D85081B07C06A8D7B8D88E039
:1043E00090E00E949F5701500023B9F7DF91CF91D1
:1043F0001F910F91FF900895EF92FF92CF93DF935B
:10440000FB018130F9F0813020F0823009F055C095
:1044100032C015861686118AA081B1818C918823BD
:1044200009F44BC0A785AF5FA370A787B0E01296D1
:10443000AA0FBB1FA60FB71F8D919C911197808368
:1044400091833BC080898330C1F1A785A150A81B0F
:10445000A370B0E01296AA0FBB1FA60FB71F6D91F5
:104460007C91DB019C91992341F18F5F8370808B5C
:10447000E62EE70113C080898823F9F08150808BF4
:10448000A785A81BA370B0E01296AA0FBB1FA60FAA
:10449000B71F6C9111967C91A62FED017E01F72E2E
:1044A000D7010D900020E9F71197AE19BF09A58734
:1044B000A687118ACF010E94BD21DF91CF91FF9085
:1044C000EF9008951F93CF93DF93EC0188898823A1
:1044D000C1F01F85181B13704C858881998160E09D
:1044E00070E050E00E94D256E12FF0E03296EE0FDD
:1044F000FF1FEC0FFD1F60817181888199810E94EF
:10450000E456188A81E0898BDF91CF911F9108953D
:104510006F927F928F929F92AF92BF92CF92DF92D3
:10452000EF920F931F93CF93DF93EC016B015A012E
:10453000490183E2DE011D928A95E9F7CB0160E033
:1045400070E00E94D256C882D982B694A794B694DD
:10455000A794AC86E8A209A31AA3CC82DD82BB246F
:10456000CA0CDB1CCE82DF82CA0CDB1CC886D98653
:10457000AC0CBD1CAA86BB868A8E9B8EDF91CF9128
:104580001F910F91EF90DF90CF90BF90AF909F90D1
:104590008F907F906F9008958F929F92AF92BF926D
:1045A000CF92DF92EF92FF920F931F93DF93CF93FF
:1045B00000D000D0CDB7DEB7082F7B01DB015296CB
:1045C0008C915297823009F05EC0023471F003344E
:1045D00024F4013409F054C006C0033459F0043403
:1045E00009F04EC031C081E001C082E0B7010E94F5
:1045F000FC2146C0FB018189882319F4CB010E946C
:104600006222D7011E968C911E971D969C911D9734
:104610005A966D917C915B97891770F58F5F1E9606
:104620008C938BE190E00E949F57F701628D738D10
:104630008BE590E00E949F57D7015A966D917C912F
:104640005B9783E490E01AC0FB018189882319F409
:10465000CB010E946222D7011E968C911E975A961A
:104660006D917C915B97882339F081501E968C93D5
:104670001E9788E090E002C087E090E00E949F577C
:10468000F701128A27C2813039F40B3511F482E028
:104690001DC2FB01128A04C0DB0152961C92529784
:1046A000F70185859485891791F48150858781E08C
:1046B0000AC0D701ED91FC91E80FF11DDF011197C0
:1046C00090819C938F5FF7019485891790F3802FD9
:1046D00080528F3508F05BC0D70151968C9151976D
:1046E000882319F4C7010E946222F7018585968507
:1046F0009817F1F4628D738D802F992787FD90951F
:104700000E949F57D7011E968C911E97ED91FC91A8
:104710001197E80FF11D00838F5F1E968C931E97F3
:104720001D968C911D978F5F1D968C931D97D2C1FE
:104730008F5FF701858708C0680F711DFB013197F6
:104740009081DB019C938150F70196856081718196
:10475000981790F3690F711DDB010C939F5F96878B
:1047600060817181C7010E94BD21F70106850AC0E1
:10477000D7015A966D917C915B9788E090E00E94FA
:104780009F570F5FF7018585081790F3A3C10D3080
:1047900009F027C1D70151968C915197882309F0D0
:1047A00049C050964C915097442379F11F968C91B3
:1047B0001F9790E0FC01E41BF109E370F070329662
:1047C000EE0FFF1FEE0DFF1D208131812D933C93D5
:1047D000119719C0FC01E41BF109DF01A370B0704F
:1047E0001296AA0FBB1FAE0DBF1D3197E370F0707C
:1047F0003296EE0FFF1FEE0DFF1D208131812D93AC
:104800003C9311974F5F443028F3D7011F96EC91EA
:104810001F97F0E03296EE0FFF1FEE0DFF1D8D91FA
:104820009C9111978083918350961C92509781E0C0
:1048300051968C93F701628D738D8DE090E00E940C
:104840009F57D7015A966D917C915B978AE090E0D3
:104850000E949F57F70185850190F081E02DE80FB8
:10486000F11D10828F5FD7011D968C931D971E96A8
:104870008C911E978F5F1E968C931E978D919C91A5
:10488000119712968D939C93139720E001C02F5F90
:10489000A22EBB24FC01EA0DFB1D3081303211F049
:1048A0003323A9F7222309F491C0F701C1A0D2A0B4
:1048B0008E010F5F1F4FC801B60146E050E00E9415
:1048C000B256902E812E09811A81D70112968D91B0
:1048D0009C911397B801A5010E94BB56009781F4E3
:1048E0008D819E81F701878B908F038B148B8B8139
:1048F0009C81858B968B80E0B7010E94FC2169C06A
:1049000086E090E0C80ED91E892D982DB60146E0AC
:1049100050E00E94B25689819A810097A1F60EE07C
:1049200018E00CC00F5F1F4FFC018491D7015A960D
:104930006D917C915B9790E00E949F57C801F801B0
:104940002491222379F7D7010D911C91119708C06A
:10495000F701628D738D992787FD90950E949F576F
:10496000D8018D918D01882311F0803289F7F701EC
:10497000628D738D8AE390E00E949F57D7015A960B
:104980006D917C915B9780E290E00E949F5708E1D7
:1049900018E007C00F5F1F4FFC01849190E00E9458
:1049A0009F57C801F8012491D7015A966D917C91C7
:1049B0005B97222379F78DE090E00E949F57F701E3
:1049C000628D738D8AE090E00E949F57C7010E941C
:1049D0009221D7011D961C921D971E961C921E9720
:1049E00079C0083009F06DC0F7018685882309F485
:1049F00060C09585891731F5628D738D88E090E0F0
:104A00000E949F57D7015A966D917C915B9780E2E7
:104A100090E00E949F57F701628D738D88E090E0CF
:104A20000E949F57D7011D968C911D9781501D960E
:104A30008C931D971E968C911E9781501E968C9379
:104A40001E9748C09150F70195878150868706C010
:104A5000FB01E80FF11D918190838F5FD7011D96B7
:104A60009C911D976D917C911197891788F3C701CF
:104A70000E94BD21F701628D738D80E290E00E945B
:104A80009F57D7011E960C911E9708C0F701628DA3
:104A9000738D88E090E00E949F570F5FD7011D96AD
:104AA0002C911D9730E0802F90E02817390774F77C
:104AB00011C0F701628D738D87E090E00E949F57CF
:104AC00009C00F3739F00B3129F481E0D701529634
:104AD0008C9352972696CDBFDEBFCF91DF911F9169
:104AE0000F91FF90EF90DF90CF90BF90AF909F908D
:104AF0008F900895DC011296ED91FC91139791E04F
:104B000080E009C0203221F4992321F48F5F02C094
:104B100090E001C091E021912223A1F708950F9325
:104B20001F93CF93DF93EC010F89188D01151105A9
:104B300009F486C00E947A25898FCE01F801199563
:104B400082309105E1F08330910528F481309105A0
:104B500009F06DC009C08430910509F44BC085305F
:104B6000910509F064C051C000D00F928A8D9B8DD1
:104B7000EDB7FEB78183928386E698E050C000D0FF
:104B80000F928A8D9B8DEDB7FEB78183928382E56C
:104B900098E0838394830E9482578A8D9B8DEDB722
:104BA000FEB7818392838B899C89838394830E943F
:104BB00082578A8D9B8DEDB7FEB78183928380E506
:104BC00098E0838394830E9482578A8D9B8DEDB7F2
:104BD000FEB7818392838D899E89838394830E940B
:104BE00082578A8D9B8DEDB7FEB7818392838DE4CA
:104BF00098E015C000D00F928A8D9B8DEDB7FEB75F
:104C0000818392838AE398E00AC000D00F928A8D54
:104C10009B8DEDB7FEB78183928382E298E0838318
:104C200094830E9482570F900F900F900F901F8ACD
:104C3000188E1B8A1C8A1D8A1E8ACE010E94922110
:104C4000DF91CF911F910F910895FB012281338154
:104C500090E001C09F5FF901E90FF11D40814032F2
:104C6000C9F340E012C09F5FF901E90FF11D5081C7
:104C7000552321F05032B9F701C09F5FF901E90FC8
:104C8000F11D50815032C9F34F5F481768F3290F67
:104C9000311DC9010895DF93CF930F920F92CDB7C5
:104CA000DEB70E942526BE016F5F7F4F4AE050E0CD
:104CB0000E946D550F900F90CF91DF910895DF9373
:104CC000CF930F920F92CDB7DEB70E942526BE017B
:104CD0006F5F7F4F40E150E00E946D550F900F9045
:104CE000CF91DF9108958F929F92AF92BF92CF9212
:104CF000DF92EF92FF920F931F93DF93CF9300D039
:104D000000D0CDB7DEB78C01FC01E1A0F2A06E01AE
:104D10000894C11CD11CC601B70146E050E00E94B6
:104D2000B25690E2A92E98E0B92E8DE1882E88E047
:104D3000982EC601DC2CC92E00D00F92F801828D6E
:104D4000938DEDB7FEB78183928389819A818383A6
:104D500094830E948257F801828D938DEDB7FEB740
:104D600081839283A382B4820E948257F801828D4C
:104D7000938DEDB7FEB7818392838B819C81838372
:104D800094830E948257F801828D938DEDB7FEB710
:104D900081839283838294820E94825786E090E08E
:104DA000E80EF91E0F900F900F900F908D2D9C2DF7
:104DB000B70146E050E00E94B2568D819E81009777
:104DC00009F0BACF2696CDBFDEBFCF91DF911F91FC
:104DD0000F91FF90EF90DF90CF90BF90AF909F909A
:104DE0008F90089500D00F92FC01828D938DEDB7C6
:104DF000FEB7818392838DED94E2838394830E9436
:104E000082570F900F900F900F90089500D00F923F
:104E1000FC01828D938DEDB7FEB78183928380EE86
:104E200094E2838394830E9482570F900F900F9097
:104E30000F90089500D000D0EDB7FEB73196DB019A
:104E40005A962D913C915B97ADB7BEB711962D93B5
:104E50003C93129725EE34E22283338384831582B8
:104E60000E9482578DB79EB706968DBF9EBF08954C
:104E7000FB01228D338D882349F000D00F92EDB7CE
:104E8000FEB7218332838BEE94E208C000D00F92EC
:104E9000EDB7FEB72183328382EF94E2838394835C
:104EA0000E9482570F900F900F900F9008952DB78A
:104EB0003EB7285030402DBF3EBFEDB7FEB731960C
:104EC000DA015A962D913C915B97ADB7BEB711961A
:104ED0002D933C93129729EF34E22283338384830A
:104EE0001582668317820E9482572DB73EB7285FCE
:104EF0003F4F2DBF3EBF089508950895EF92FF9252
:104F00001F93DF93CF930F920F92CDB7DEB78983B4
:104F10009A830E94FF1B0E94990D89819A81482FD4
:104F2000592F7A0180E00E94D40C10E0812F0E945A
:104F3000D40CF70181937F011F5F1730B9F70E94EE
:104F4000A40D0E940B1C0F900F90CF91DF911F9129
:104F5000FF90EF9008950E947E2708950E947E277B
:104F60000895EF92FF920F931F93DF93CF930F92C9
:104F70000F92CDB7DEB789839A830E94FF1B0E94F0
:104F8000990D8981482F9A81592F7A0180E80E94D2
:104F9000D40C8701095F1F4FF70181917F010E94A7
:104FA000D40CE016F106C1F70E94A40D0E940B1C60
:104FB0000F900F90CF91DF911F910F91FF90EF9085
:104FC00008950E94B12708950E94B12708950E9474
:104FD000FF1B0E94990D8FE80E94D40C80E00E9474
:104FE000D40C0E94A40D0E940B1C0895EF92FF9216
:104FF0001F93DF93CF930F92CDB7DEB7162F7A01B1
:105000008036F8F4282F30E0260F311D2036310588
:10501000D4F489830E94FF1B0E94990D89818056D8
:105020000E94D40C06C0F70181917F010E94D40C2C
:1050300011501123C1F70E94A40D0E940B1C80E0A7
:1050400003C081E001C082E00F90CF91DF911F91FA
:10505000FF90EF900895EF92FF921F93DF93CF930D
:105060000F92CDB7DEB7162F7A01803600F5282FC4
:1050700030E0260F311D20363105DCF489830E9493
:10508000FF1B0E94990D8981805E0E94D40C07C08D
:1050900080E00E94D40CF70181937F01115011230D
:1050A000B9F70E94A40D0E940B1C80E003C081E0B0
:1050B00001C082E00F90CF91DF911F91FF90EF90A0
:1050C0000895089508951F93DF93CF930F92CDB75E
:1050D000DEB7182F660F6E7069830E94FF1B0E9457
:1050E000610D6981862F80640E94D40C80E00E944B
:1050F000D40C812F0E94D40C0E94670D0E940B1CBF
:105100000F90CF91DF911F9108951F93DF93CF935D
:105110000F92CDB7DEB7182F660F6E7069830E94AD
:10512000FF1B0E94610D6981862F80640E94D40C50
:1051300081E00E94D40C812F0E94D40C0E94670D44
:105140000E940B1C0F90CF91DF911F9108951F9328
:10515000DF93CF930F92CDB7DEB7182F660F6E7027
:1051600069830E94FF1B0E94610D109324326981A4
:10517000862F80640E94D40C84E10E94D40C80911C
:1051800024320E94D40C0E94670D0E940B1C0F90C9
:10519000CF91DF911F910895DF93CF930F92CDB7F9
:1051A000DEB7660F6E7090912432982B9093243264
:1051B00069830E94FF1B0E94610D6981862F8064B4
:1051C0000E94D40C84E10E94D40C809124320E946D
:1051D000D40C0E94670D0E940B1C0F90CF91DF91A1
:1051E0000895DF93CF930F92CDB7DEB7660F6E7041
:1051F00090912432809589238093243269830E9480
:10520000FF1B0E94610D6981862F80640E94D40C6F
:1052100084E10E94D40C809124320E94D40C0E941C
:10522000670D0E940B1C0F90CF91DF910895DF93C3
:10523000CF930F92CDB7DEB7660F6E708093D731E4
:1052400069830E94FF1B0E94610D6981862F806423
:105250000E94D40C85E10E94D40C8091D7310E9429
:10526000D40C0E94670D0E940B1C0F90CF91DF9110
:105270000895DF93CF930F92CDB7DEB7660F6E70B0
:105280009091D731982B9093D73169830E94FF1B5F
:105290000E94610D6981862F80640E94D40C85E193
:1052A0000E94D40C8091D7310E94D40C0E94670DCB
:1052B0000E940B1C0F90CF91DF910895DF93CF9345
:1052C0000F92CDB7DEB7660F6E709091D731809593
:1052D00089238093D73169830E94FF1B0E94610D4F
:1052E0006981862F80640E94D40C85E10E94D40CD1
:1052F0008091D7310E94D40C0E94670D0E940B1C34
:105300000F90CF91DF9108951F93DF93CF930F926A
:10531000CDB7DEB7182F110F1E7011640E94FF1B4E
:105320000E94610D812F0E94D40C82E10E94D40C56
:10533000812F0E94D40C89830E94670D0E940B1C50
:1053400089810F90CF91DF911F9108951F93DF9373
:10535000CF930F92CDB7DEB7182F110F1E701164C7
:105360000E94FF1B0E94610D812F0E94D40C83E1DB
:105370000E94D40C812F0E94D40C89830E94670D57
:105380000E940B1C89810F90CF91DF911F9108958E
:10539000089508951F93DF93CF930F92CDB7DEB793
:1053A000182F1295107F0E94FF1B0E946D0D81E047
:1053B0000E94D40C812F80770E94D40C182F80E09B
:1053C0000E94D40C89830E94780D0E940B1C512FDF
:1053D000537040E08981282F30E0242B352BC90100
:1053E0000F90CF91DF911F9108951F93DF93CF937B
:1053F0000F92CDB7DEB7182F129510770E94FF1BC2
:105400000E946D0D81E00E94D40C812F80680E9463
:10541000D40C182F80E00E94D40C89830E94780D50
:105420000E940B1C512F537040E08981282F30E0DF
:10543000242B352BC9010F90CF91DF911F91089537
:10544000089508951F93182F0E94FF1B0E94830D3B
:1054500081E10E94D40C812F0E94D40C0E948E0DF9
:105460000E940B1C1F910895089508951F93DF93C8
:10547000CF930F920F92CDB7DEB7182F4A8369836F
:105480000E94FF1B0E94490D6981862F8F71812B1D
:105490000E94D40C4A81842F0E94D40C0E944F0D8C
:1054A0000E940B1C0F900F90CF91DF911F910895D8
:1054B0001F93CF93DF93182FC82FD0E0C076D07002
:1054C0002091522530E0C217D30791F080EA6FE1B6
:1054D00043E00E94362AAE0185E0559547958A95AE
:1054E000E1F780E86FE10E94362A1076109352258A
:1054F000DF91CF911F9108951F93DF93CF930F9268
:10550000CDB7DEB7182F69830E94582A80E4612F37
:1055100049810E94362A0F90CF91DF911F91089503
:105520001F93DF93CF930F92CDB7DEB7162F8983EA
:105530000E94FF1B0E94490D912F9F718981892B29
:105540000E94D40C80E00E94D40C17FF03C080E0BE
:105550000E94D40C89830E944F0D0E940B1C8981EC
:105560000F90CF91DF911F910895DF93CF930F920A
:10557000CDB7DEB7682F69830E94582A80E0698121
:105580000E94902A0F90CF91DF91089589E30E94A5
:10559000B52A91E0882309F490E0892F089584EDDD
:1055A00061E10E947C2A82ED61E00E947C2A80E019
:1055B00090E00E94644A8AEE0E94B52A80FDF7CFEF
:1055C00082ED60E00E947C2A89ED0E94B52A91E07C
:1055D000882309F490E0892F089582E70E94B52A74
:1055E00008951F93DF93CF930F92CDB7DEB7982F17
:1055F000162F84ED692F79830E947C2A86ED612F16
:105600000E947C2A87ED7981672F0E947C2A04C042
:1056100080E090E00E94644A8AEE0E94B52A80FDF4
:10562000F7CF0F90CF91DF911F910895CF92DF9226
:10563000EF92FF920F931F93CF93DF9389E30E9422
:10564000B52A882309F49EC080E0609153250E940A
:105650007C2A6091542581E00E947C2A8AE360E0E4
:105660000E94902AC82FD0E0C0935325D093542590
:105670008AE360E00E94902A382F20E0C22BD32BCF
:10568000C0935325D09354258AE360E00E94902A6A
:10569000C82E8AE360E00E94902AE82E8AE360E048
:1056A0000E94902A082F10E08AE360E00E94902A6E
:1056B0004091DC315091DD31382F20E0022B132B4B
:1056C00007FF2FC0CC2DD0E03E2D20E0C22BD32BE6
:1056D0004150504024974C175D0708F4EA01C090F0
:1056E000E431D090E5310E94FF1B0E94490D8AE30E
:1056F0000E94D40C76018E0108C00150104080E059
:105700000E94D40CF70181937F0101151105A9F7BF
:10571000F601EC0FFD1F10820E944F0D0E940B1C22
:1057200002C0C0E0D0E08CE0609153250E947C2A4A
:10573000609154258DE00E947C2A609153257091E0
:105740005425CB010197F9E18F3F9F0738F08CE09A
:105750006EEF0E947C2A8DE069E10CC061508CE004
:105760000E947C2A209153253091542521503040AD
:105770008DE0632F0E947C2A80E86EE140E40E9465
:10578000362A02C0C0E0D0E0CE01DF91CF911F9158
:105790000F91FF90EF90DF90CF9008950F931F939C
:1057A000CF93DF93EC0113C08CE10E94B52A81FFF7
:1057B0000AC080E86FE140E80E94362A80EA6FE183
:1057C00040E80E94362A80E090E00E94644A80E02F
:1057D0006FE10E94902A83FDE7CF82E06FEF0E9485
:1057E0007C2A83E069E10E947C2ACE018150682FE7
:1057F00086E00E947C2A9E012150364E87E0632F6E
:105800000E947C2A8AE760E040E00E94362A0091EC
:10581000E4311091E5310E94FF1B0E94490D8AE797
:1058200004C02197F80181918F010E94D40C209728
:10583000C1F70E944F0D0E940B1C80E86FE148E009
:105840000E94362ADF91CF911F910F910895CF9337
:10585000DF93EC0184EE68810E947C2A85EE6981E9
:105860000E947C2A82EE6A810E947C2A83EE6B81F0
:105870000E947C2A80EE6C810E947C2A81EE6D81E0
:105880000E947C2ADF91CF91089585E090E00E94EC
:10589000644A85E090E00E94644A85E090E00E94BE
:1058A000644A109253251092542588E060E00E94CB
:1058B0007C2A89E060E00E947C2A8CE060E00E9403
:1058C0007C2A8DE060E00E947C2A8AE06EEF0E94D4
:1058D0007C2A8BE069E10E947C2A84E06FEF0E94C1
:1058E0007C2A85E069E10E947C2A86E06FEF0E94B5
:1058F0007C2A87E06FE10E947C2A88E362EB0E94A9
:105900007C2A88E26FE30E947C2A89E260E30E949D
:105910007C2A80E369EF0E947C2A81E367EF0E9482
:105920007C2A80EC6DE00E947C2A81EC60E00E9481
:105930007C2A80E862EC42E30E94362A86EC62E12F
:105940000E947C2A87EC6CE00E947C2A84EC62E155
:105950000E947C2A8AEC6CED0E947C2A8BEC65E02C
:105960000E947C2A8EED91E30E94272C80E160E06A
:1059700071E00E94F12A8FE10E94582A80E86BE1D1
:1059800040EC0E94362A80E86FE144E00E94362A0B
:1059900085E090E00E94644A84E166E774E00E943A
:1059A000F12A82E090E00E94644A0895CF93DF9349
:1059B000EC0181EE0E94B52A8D8380EE0E94B52A0B
:1059C0008C8383EE0E94B52A8B8382EE0E94B52AD7
:1059D0008A8385EE0E94B52A898384EE0E94B52AC7
:1059E0008883DF91CF910895CF93DF93EC0100D0AE
:1059F0000F92ADB7BEB711968D939C93129785EC1D
:105A000098E013968D939C9314970E9482570F9061
:105A10000F900F900F9081EE0E94B52A00D000D019
:105A2000EDB7FEB73196ADB7BEB71196CD93DC9307
:105A3000129726EB38E022833383848315820E94F9
:105A40008257EDB7FEB73696EDBFFEBF80EE0E94DF
:105A5000B52A00D000D0EDB7FEB73196ADB7BEB7CE
:105A60001196CD93DC93129727EA38E02283338393
:105A7000848315820E948257EDB7FEB73696EDBF3C
:105A8000FEBF83EE0E94B52A00D000D0EDB7FEB76E
:105A90003196ADB7BEB71196CD93DC93129728E936
:105AA00038E022833383848315820E948257EDB7C6
:105AB000FEB73696EDBFFEBF82EE0E94B52A00D03B
:105AC00000D0EDB7FEB73196ADB7BEB71196CD9306
:105AD000DC93129729E838E022833383848315828C
