:103800000C94341C0C94511C0C94511C0C94511CA1
:103810000C94511C0C94511C0C94511C0C94511C74
:103820000C94511C0C94511C0C94511C0C94511C64
:103830000C94511C0C94511C0C94511C0C94511C54
:103840000C94511C0C94511C0C94511C0C94511C44
:103850000C94511C0C94511C0C94511C0C94511C34
:103860000C94511C0C94511C11241FBECFEFD4E0BA
:10387000DEBFCDBF11E0A0E0B1E0E6E7FFE302C0AC
:1038800005900D92A433B107D9F711E0A4E3B1E09C
:1038900001C01D92A93EB107E1F70E94841D0C945E
:1038A000B91F0C94001C9C01409161015091620170
:1038B00083E0FA0180935700E89507B600FCFDCF3E
:1038C000D9011092E80131E00CC0E22FF0E08D91B7
:1038D0009D910C0130935700E89511242E5F2093A1
:1038E000E8012091E80127FFF0CF85E0FA018093FD
:1038F0005700E89507B600FCFDCF08959CE09BB902
:103900008093C6008091C00086FFFCCF8091C000EC
:1039100080648093C0001BB808951092E401109257
:10392000E3011092590110925801109260018AE04F
:10393000809357010895AC011092590110925801DB
:10394000109234013CE035C0FA01E20FF11DE08134
:103950003BB9E093C6008091C00086FFFCCF809108
:10396000C00080648093C0001BB880915801909182
:1039700059019E27092E0294702D7F707927E92F17
:10398000E025EE0FE07E7E27E02DE927E07FE6953B
:10399000092E000CEE1F9695969596959F719E2781
:1039A0009827872F90935901809358012F5F209378
:1039B000340120913401261708F4C6CF2091580114
:1039C000909159018CE08BB99093C6008091C00012
:1039D00086FFFCCF8091C00080648093C0001BB83C
:1039E0008CE08BB92093C6008091C00086FFFCCF8D
:1039F0008091C00080648093C0001BB81092590170
:103A000010925801089581E180935700E895E0E015
:103A1000F0E0099508959EE107C0B19B05C0B19AF9
:103A2000915011F40E94031D8091C00087FFF5CFD3
:103A30008091C600089588E7B19BFECFB19A81506E
:103A4000D9F7109257010E94031D2091E501909132
:103A5000E6011092E4011092E301109259011092D4
:103A60005801109260013AE03093570180915C0157
:103A7000891709F048C080915F01821709F043C09F
:103A800090915D018091350120915B01981721F0A3
:103A90002138C9F50E941B1D213839F487E090E0D8
:103AA0009093E4018093E3010895223821F480E0AB
:103AB00091E06BE020C0203809F580915E018132F1
:103AC00018F080E280935E0160915E0160930E01C8
:103AD00090E00AC0E92FF0E0DF01A95CBE4F8C91B5
:103AE000E55FFE4F84839F5F9617A0F390933401A8
:103AF0006C5F8BE091E00E949B1C08958FE291E047
:103B000064E00E949B1C08957F928F929F92AF92D7
:103B1000BF92CF92DF92EF92FF920F931F93CF93BA
:103B2000DF93F89480E19EE0909389008093880071
:103B3000109280008DE0809381001092E401109239
:103B4000E3011092590110925801109260014AE06D
:103B50004093570114B888E385B917B833E038B9F2
:103B60008CE68AB91BB883B190E088739070959504
:103B7000879580935D0126B12370282B20935D01EA
:103B80001092C00088E18093C10087E08093C2005A
:103B90001092C5003093C40010925A01E0E47E2ECA
:103BA00074E0872E912CC5E0D0E066E0A62EB12C03
:103BB00052E0E52EF12C43E0C42ED12C01E010E0C0
:103BC000D5C0B19B10C0B19A91508BB187258BB9EC
:103BD000992349F4109257013093590120935801C9
:103BE00060933401F3C08091C00087FFEACF6091F9
:103BF000C6003627032E0294802D8F708327732FE3
:103C00007025770F707E8727702D7327707F7695CC
:103C1000032E000C771F3695369536953F71372762
:103C20003227282F4330510509F449C0443051054B
:103C300038F44130510529F14230510588F50DC065
:103C40004530510509F477C04530510508F451C09D
:103C50004630510509F096C07DC0909357013093CE
:103C6000590120935801609334016A3529F4109367
:103C7000E4010093E3017AC01092590110925801B7
:103C800075C0909357013093590120935801609368
:103C9000340160933501F092E401E092E30166C0E3
:103CA0009093570130935901209358016093340148
:103CB00060935B01D092E401C092E30157C09093FE
:103CC0005701309359012093580160933401609358
:103CD0005E019092E4018092E301662309F046C000
:103CE000D093E401C093E3012093E5013093E60112
:103CF0003DC0A90190935701309359012093580179
:103D00006093340190916001903228F4E92FF0E043
:103D1000E95CFE4F60839F5F9093600180915E013C
:103D2000891721F5D093E401C093E3014093E501A5
:103D30005093E6011BC09093570130935901209393
:103D400058016093340160935C01B092E401A09249
:103D5000E3010CC09093570130935901209358010F
:103D60006093340160935F010E94251D4091E3013F
:103D70005091E401909157012091580130915901DF
:103D8000609134014730510509F01BCF3093590140
:103D9000209358016093340188E28093570198E2A0
:103DA0003CE023E4B19B14C0B19A3BB92093C60018
:103DB0008091C00086FFFCCF8091C000806480931A
:103DC000C0001BB8915021F4109257010E94031DAE
:103DD0008091C00087FFE6CF8091C600813011F747
:103DE00010923601109257011092620110926101F7
:103DF00001E03CE0F32E25E1E22E90E8C92ED12C23
:103E000086E0B82E0E940B1D8093E7010E940B1DD7
:103E1000982F909590935A018091E701081709F027
:103E200078C0091709F075C010E0C0E0D0E00E942A
:103E30000B1D8093340190913601E92FF0E0ED598C
:103E4000FE4F80839F5F90933601D8270D2E0294FA
:103E5000802D8F708D279D2F9025990F907E89271B
:103E6000902D9D27907F96950D2E000C991FD6952D
:103E7000D695D695DF71D927DC27C82F1F5F10385C
:103E800009F0D5CF0E940B1D182F0E940B1DD09357
:103E9000E701C0935A011D17A1F58C1791F55E9AA1
:103EA0001BC09601281B3109C9018D599E4F0E94E4
:103EB000531C209161013091620120583F4F309393
:103EC0006201209361018091360180588093360110
:103ED0002050384308F07ACF80913601882309F7C3
:103EE000FBB8B092C6008091C00086FFFCCF0F5F88
:103EF0008091C00080648093C0001BB8109257016D
:103F00001BC0FBB8E092C6008091C00086FFFCCFCA
:103F100007C0FBB8E092C6008091C00086FFFCCFCE
:103F20008091C00080648093C0001BB85D9A80912E
:103F300057018F5F8093570180915701843010F0B3
:103F40005D9A07C00E940B1D80933401843009F0F4
:103F500059CF8CE08BB985E18093C6008091C00079
:103F600086FFFCCF8091C00080648093C0001BB8A6
:063F70002DCFF894FFCFF5
:103F76005A008207FFFF62302E36315A0080080051
:103F8600000000000000000000000000000000002B
:103F96000000000000000000000000000000005AC1
:043FA60000FF000018
:0400000300003800C1
:00000001FF
