:100000000C94D3090C94F8090C94F8090C94F80991
:100010000C94F8090C94F8090C94F8090C94F8095C
:100020000C94F8090C94F8090C94F8090C94F8094C
:100030000C94E3550C94F8090C94F8090C94F80905
:100040000C94F8090C94340D0C94090C0C943D0B91
:100050000C94E00A0C94F8090C94F8090C94F80933
:100060000C94F8090C94F8090C94F8090C94F8090C
:100070000C94F8090C94F8090C94C40B0C94F90A2C
:100080000C94F8090C94F8090C94F809206C6F632F
:100090006B657220256400206F70656E2020200043
:1000A000206C6F636B656420002028746872657330
:1000B000686F6C642025642C2041432076616C7548
:1000C00065202564290D0A00416C6C204F4B0D0AF8
:1000D000004E6F2046696C650D0A000D0A000D0A7E
:1000E000000D0A000D0A00784D6F64656D204352C3
:1000F00043206572726F720D0A0052656D6F7465F0
:1001000020736964652063616E63656C6C6564204F
:100110006174206672616D65206E6F2025640D0A22
:1001200000784D6F64656D20756E6B6E6F776E2015
:10013000726573706F6E736520307825780D0A00D4
:10014000446576696365202564206973206E6F7449
:1001500020726573706F6E64696E6720282564294C
:100160000D0A00426F6F746C6F6164657220697371
:10017000206E6F7420726573706F6E64696E670DA8
:100180000A0043616E2774206F70656E2066696C8B
:10019000652025730D0A0053797374656D2073749F
:1001A0006174653A0D0A0020204E756D62657220FB
:1001B0006F66207461736B73203A2025640D0A000A
:1001C00020204672656552746F73206865617020E7
:1001D00020203A2025642066726565206F66202500
:1001E000642062797465730D0A0020204D616C6C87
:1001F0006F63206865617020202020203A202564EC
:100200002066726565206F662025642062797465BA
:10021000730D0A00202052616D206469736320739E
:100220007061636520203A20256420667265652030
:100230006F6620256420636C7573746572730D0A94
:1002400000202054656D70657261747572652020A0
:100250002020203A20256420430D0A002020566FDC
:100260006C746167652020202020202020203A2007
:10027000256420560D0A0053797374656D207365EB
:100280007474696E67733A0D0A0020204D61632013
:100290006164647265737320202020203A2000205E
:1002A00020495020616464726573732020202020EF
:1002B000203A200020206D61736B20202020202018
:1002C0002020202020203A200020206761746577BC
:1002D00061792020202020202020203A2000446521
:1002E0007465637465642052532034383520646526
:1002F00076696365733A0D0A00202043616E2774A6
:100300002066696E6420616E792064657669636534
:100310000D0A004C6F636B65722073656E736F72AC
:1003200073207374617465733A0D0A0020204C6F5A
:10033000636B65722073656E736F7273206469738B
:1003400061626C65640D0A0057726974696E67209A
:10035000746F2066696C652E20507265737320433C
:1003600054524C2B4320746F20717569740D0A0030
:1003700046696C65206C656E6774683A2025640D6B
:100380000A00586D6F64656D3A205472616E736D2A
:10039000697373696F6E2073746172740D0A005013
:1003A0006F646E6F737A656E696520726F6C6574C9
:1003B000790D0A09737465726F776E696B20256415
:1003C0000D0A09726F6C6574612020202025640D70
:1003D0000A004F7075737A637A616E696520726F77
:1003E0006C6574790D0A09737465726F776E696B49
:1003F0002025640D0A09726F6C657461202020202D
:1004000025640D0A0009706F7A79636A61202020E3
:1004100025640D0A00456E61626C656420257320B9
:1004200064656275670D0A0044697361626C656496
:100430002025732064656275670D0A0068656C701D
:10044000005072696E742068656C702073747269F4
:100450006E6700737461747573007B66696C656E9A
:10046000616D657D205072696E7420646576696384
:100470006520737461747573206F6E205654592013
:100480006F7220777269746520746F2066696C657D
:1004900000656E6373746174005072696E742045F8
:1004A0006E632032386A363020726567697374650E
:1004B00072730074696D65005072696E742074699E
:1004C0006D65006465627567005B6172707C69636D
:1004D0006D707C69707C7463707C7564705D205B8A
:1004E0006C6576656C5D2077726974652064656201
:1004F000756720696E666F2E204C6576656C2030BE
:100500002064697361626C65206465627567696EF9
:1005100067007270696E67005B4465766963652089
:100520006E6F5D2053656E642070696E6720746F16
:1005300020527334383520646576696365007069CC
:100540006E67005B41315D205B41325D205B413372
:100550005D205B41345D2053656E64732070696E6D
:1005600067207468726F7567687420657468657257
:100570006E65740078726563005B66696C65206EF9
:10058000616D655D20726563656976652066696C7D
:1005900065207573696E6720784D6F64656D0078AE
:1005A00073656E64005B66696C65206E616D655D88
:1005B0002073656E642066696C65207573696E676B
:1005C00020784D6F64656D0078666C617368005BC0
:1005D000646576696365206E6F5D205B66696C6536
:1005E000206E616D655D20666C6173682064657660
:1005F00069636520636F6E6E656374656420746FF4
:100600002052733438350064697272660050726922
:100610006E742072616D6469736B2066696C6573BA
:1006200000637266005B66696C65206E616D655D76
:10063000206372656174652072616D2066696C6506
:100640000065726173657266005B66696C65206E39
:10065000616D655D2065726173652066696C6520FA
:1006600066726F6D2072616D206469736B006564E2
:1006700069747266005B66696C65206E616D655DAC
:1006800020656469742066696C65206C6F636174B1
:100690006564206F6E2072616D206469736B0072F7
:1006A0006561647266005B66696C65206E616D658C
:1006B0005D20726561642066696C65206C6F6361A2
:1006C000746564206F6E2072616D206469736B00C5
:1006D0007570005B647269766572206E6F5D205B79
:1006E0006368616E6E656C5D207B76616C75657D9F
:1006F000206D6F766520757000646F776E005B64A7
:100700007269766572206E6F5D205B6368616E6EE4
:10071000656C5D207B76616C75657D206D6F76659F
:1007200020646F776E00737061005B76616C756535
:100730005D2073657420706F727420410073706265
:10074000005B76616C75655D2073657420706F72F7
:100750007420420073657474696D65005B685D2088
:100760005B6D5D205B735D207365742074696D65DE
:10077000202832346820666F726D617429006163CD
:10078000005B6368616E6E656C20302D375D207292
:1007900065616420616E616C6F672076616C756560
:1007A00000656E61626C6500456E61626C65206D0E
:1007B0006F64650064697361626C65005669657792
:1007C000206D6F646500636F6E66696700436F6ECE
:1007D000666967757265206D6F6465006970005B9E
:1007E00041315D205B41325D205B41335D205B41E7
:1007F000345D2073657420495020616464726573B0
:100800007300756470005B41315D205B41325D2097
:100810005B41335D205B41345D205B73726320700C
:100820006F72745D207B64737420706F72747D20AE
:100830007365742075647020636C69656E742049FB
:1008400050206164647265737320616E6420706F00
:10085000727473006D61736B005B6D61736B5D200F
:10086000736574206D61736B006777005B41315D68
:10087000205B41325D205B41335D205B41345D2074
:100880007365742064656661756C74206761746556
:10089000776179006D6163005B41315D205B4132BE
:1008A0005D205B41335D205B41345D205B41355D04
:1008B000205B41365D20736574204D4143206164A7
:1008C00064726573730073617665005361766520A9
:1008D000636F6E66696775726174696F6E007365C8
:1008E0007472005B76616C75655D2073657420724F
:1008F0006573697374616E63652076616C756500FC
:100900004F4B0D0A000D0A0021212120572062754E
:10091000646F727A6520527334383520706F7A6F45
:100920007374616C6F2025642062616A746F770D47
:100930000A00C800D100DB00DE00E100E400E700AF
:10094000FA0021014001630182013C044104D618F0
:1009500053045A04B31AB304B804611812051805F5
:100960004E143E054305D00F07060D0659189F0685
:10097000A606B617A107A807660F00000000000032
:100980003C044104D61853045A04B31A9104990440
:10099000AE17B304B8046118C304C904C91612051C
:1009A00018054E143E054305D00F74057905D5147E
:1009B0009F05A5054813C805CF05741407060D0645
:1009C0005918210625063114410649061A146E06E7
:1009D00075069A139F06A606B617D006D306C6124A
:1009E000F906FE06501226072A073E123D07410768
:1009F0002C12DE08E3081A1254075C07B3117E07B5
:100A000081073C11B407BC07770FC607CD07830FDA
:100A10000000000000003C044104D61853045A04AE
:100A2000B31AB304B804611854075C07B311DC07A8
:100A3000DF07E41054085908C41069086C086C10EA
:100A400002080608EF0F94089808990FC608CB080B
:100A5000940FA107A807660FB407BC07770F000023
:100A600000000000576172746F73632070726F62D0
:100A70006B69206E612077656A73636975202564F0
:100A80003A2025640D0A00586D6F64656D3A207236
:100A90006F7A706F637A796E616E6965206F6462D8
:100AA000696F72750D0A0075647000746370006977
:100AB000636D70006970006172700075647000741D
:100AC00063700069636D700069700061727000414D
:100AD0006B7475616C6E7920637A61732025643A5A
:100AE00025643A25640D0A000D0A000D0A000D0A5E
:100AF000000D0A004672656552746F732B2076658F
:100B00007220302E3331206275696C643A204A7548
:100B10006C20313720323031312C2031383A3337A4
:100B20003A34390D0A00556E6B6E6F776E20706126
:100B3000636B65740D0A00526573746172740D0AFB
:100B400000446F6D4F733E00446F6D4F732300443C
:100B50006F6D4F734000636D646C696E653A200081
:100B600023206E6B000D0A0009004F7065726174DE
:100B7000696F6E206E6F7420616C6C6F7765640DA9
:100B80000A004F7065726174696F6E206661696CEE
:100B900065640D0A000D0A00200053796E746178B7
:100BA000204572726F722E205573653A20004F4BAC
:100BB0000D0A00094D414144523520307825780D09
:100BC0000A00094D414144523420307825780D0AFD
:100BD00000094D414144523320307825780D0A00F8
:100BE000094D414144523220307825780D0A0009E0
:100BF0004D414144523120307825780D0A00094D8D
:100C0000414144523020307825780D0A00454E434A
:100C100032386A3630207374616E2072656A65738B
:100C200074726F773A0D0A004E494320726567204F
:100C300064756D70206E6F7420696D706C656D6584
:100C40006E7465640D0A000D0A005552472000417C
:100C5000434B200050534820005253542000535916
:100C60004E200046494E2000466C616773202020CC
:100C70003A200041636B204E756D203A2030782574
:100C8000780D0A00536571204E756D203A2030783A
:100C900025780044737420506F72743A2025640DD7
:100CA0000A0053726320506F72743A2025640D0A53
:100CB00000544350204865616465720D0A000D0AB6
:100CC0000044657374202049503A20000D0A0053F7
:100CD0006F7572636549503A200050726F746F638C
:100CE0006F6C3A2025640D0A0050726F746F636F49
:100CF0006C3A205544500D0A0050726F746F636F48
:100D00006C3A205443500D0A0050726F746F636F39
:100D10006C3A2049434D500D0A004C656E6774686B
:100D200020203A2025640D0A0056657220202020DC
:100D3000203A2025640D0A00495020486561646509
:100D4000720D0A002D3E4453543A00205352433A48
:100D500000457468205061636B6574205479706538
:100D60003A20307825780025642E25642E25642EBF
:100D7000256400253032783A253032783A253032F1
:100D8000783A253032783A253032783A2530327840
:100D9000000D0A0047617465776179203A20000DE3
:100DA0000A004E65746D61736B203A20000D0A00D5
:100DB00049502041646472203A200064656275677E
:100DC0005072696E744865785461626C65286C6510
:100DD0006E2D4554485F4845414445525F4C454E51
:100DE0002C2026646174615B4554485F484541444A
:100DF00045525F4C454E5D293B0064656275675006
:100E000072696E744865785461626C65284554480F
:100E10005F4845414445525F4C454E2C2026646155
:100E200074615B305D293B0053656E64696E6720B9
:100E30004950207061636B657420746F2067617422
:100E4000657761790D0A0053656E64696E672049A4
:100E500050207061636B6574206F6E206C6F6361EE
:100E60006C206E65740D0A004E45542052783A206D
:100E7000556E6B6E6F776E204950207061636B65A5
:100E8000740D0A004E45542052783A205443502F96
:100E90004950207061636B65740D0A004E45542003
:100EA00052783A205544502F4950207061636B6549
:100EB000740D0A004E45542052783A2049434D5053
:100EC0002F4950207061636B65740D0A00436F6495
:100ED000652020203A20307825780D0A000D0A0080
:100EE0004543484F205245504C59004543484F20F8
:100EF0005245515545535400547970652020203A8D
:100F000020000D0A004473744970416464723A20F1
:100F1000000D0A005372634970416464723A200004
:100F200049434D50205061636B65743A0D0A00537C
:100F3000656E64696E672049434D5020504F4E479F
:100F40000D0A0052656365697665642049434D501A
:100F500020726571756573743A2000556E6B6E6F03
:100F6000776E2049434D50207479706552656365F2
:100F7000697665642049434D5020726571756573CB
:100F8000743A20000D0A0020200025336420200040
:100F90000D0A00202000204D592020002D2D2D2D40
:100FA0002D2D2D2D2D2D2D2D2D2D2D2D2D2D2D2D71
:100FB0002D2D2D2D2D2D2D2D2D2D2D2D2D2D2D0D81
:100FC0000A0054696D652045746820416464726547
:100FD0007373202020202020202049502041646469
:100FE000726573730D0A000D0A0044737450726FBA
:100FF000746F416464723A20000D0A0044737448AF
:1010000077416464722020203A20000D0A00537258
:101010006350726F746F416464723A20000D0A006D
:101020005372634877416464722020203A20000D97
:101030000A00554E4B4E4F574E005245504C5900EA
:1010400052455155455354004F7065726174696F34
:101050006E2020203A2000415250205061636B6581
:10106000743A0D0A000D0A002049503A20004152FE
:101070005020495020696E204D41433A200053656D
:101080006E64696E6720415250205265706C790D14
:101090000A005265636569766564204152502052AA
:1010A0006571756573740D0A0048545450206E6F55
:1010B0007420696D706C656D656E7465640D0A00F1
:1010C0004F70656E696E672054435020636F6E6E7B
:1010D000656374696F6E204552524F523A206163C6
:1010E0006B20666C6167207761736E27742073656F
:1010F000740D0A004F70656E696E6720544350206E
:10110000636F6E6E656374696F6E20736F636B657A
:1011100074207374617465206368616E6765205321
:10112000594E5F52454345495645442D3E4553541B
:101130004142494C49534845440D0A004F70656E81
:10114000696E672054435020636F6E6E65637469E7
:101150006F6E204552524F523A2073796E20666C62
:101160006167207761736E2774207365740D0A00C0
:101170004F70656E696E672054435020636F6E6ECA
:10118000656374696F6E20736F636B65742073742D
:10119000617465206368616E6765204C49535445EE
:1011A0004E2D3E53594E5F52454345495645440DD9
:1011B0000A0043616E27742066696E6420544350B0
:1011C00020736F636B65742077697468206C6F633C
:1011D000616C506F72742025640D0A00466F756E45
:1011E000642054435020736F636B6574206E6F20CE
:1011F0002564207374617465204C495354454E0D29
:101200000A00466F756E642054435020736F636B01
:1012100065742073746174652025640D0A0025646B
:101220000D0A00414E590D0A000D0A202073726309
:1012300020706F7274202020203A2025640D0A202F
:101240002064737420706F7274202020203A200074
:101250000D0A20204950202020202020202020205E
:101260003A200055445020636F6E6669673A000D5E
:101270000A005544502054582062756666657220F5
:10128000627573790D0A0030782532780D0A0052A4
:101290006563656976656420646174613A20005015
:1012A000726F632E20554450207061636B6574200B
:1012B0002864617461206C656E67746820256429F8
:1012C0000D0A0053656E64696E67205544502070A6
:1012D00061636B6574202864617461206C656E675E
:1012E0007468202564290D0A0020256420726F6C23
:1012F0006C6572206472697665723A20726F6C6CEC
:101300006572203120706F736974696F6E20256477
:101310002C20726F6C6C6572203220706F73697450
:10132000696F6E202564002C206669726D7761728A
:10133000652025730D0A000D0A4F4B0D0A00626FE0
:101340006F746C6F61646572206E696520726F7A6C
:10135000706F637A616C206F6462696F727520646C
:10136000616E7963680D0A006E612075727A61643E
:101370007A656E697520776772616E79206A657328
:10138000742074796C6B6F20626F6F746C6F616422
:1013900065720D0A0072464C4153482074696D65B0
:1013A0006F75740D0A0011241FBECFEFD0E1DEBFB0
:1013B000CDBF11E0A0E0B1E0E8E4FBEB00E00BBF43
:1013C00002C007900D92A838B107D9F785B7806899
:1013D00085BF85B78E6085BF1FE0A8E8B1E001C07A
:1013E0001D92A43EB107E1F70E94260A0C94A25D6B
:1013F0000C940000809100018150809300018823AB
:1014000029F484E6809300010E941E3608950E940C
:101410009C53FDCFFF920F931F93DF93CF9300D088
:10142000CDB7DEB70E94D4489A8389838E010F5FBF
:101430001F4F84E0F82EC80164E670E00E94F94D69
:10144000809162008F2580936200F5CFAF92BF92AA
:10145000CF92DF92EF92FF920F931F930E940B1F88
:101460000E94080F87EF9CE00E94F11B0E94A60CCF
:1014700083E290E00E941B1C90939F0E80939E0E2F
:1014800083E290E00E941B1C9093610F8093600F99
:101490000E94610F0E94C70A0BE61EE0C8010E946D
:1014A000D20A80919E0E90919F0EB8010E941A1B45
:1014B0000E946F3F0E94D53CE091A20EF091A30ED6
:1014C0000EE81EE04285538524853585C80165EC0C
:1014D0007EE00E94212D8091600F9091610FB801F4
:1014E0000E941A1B20919E0E30919F0E8CE89BE16A
:1014F00060E070E04CEB52E001E0BAEBEB2EBEE0B6
:10150000FB2ECC24DD24AA24BB240E94564E20911D
:10151000600F3091610F8EE79BE160E070E04CEB73
:1015200052E0A1EBEA2EAEE0FA2E0E94564E85E282
:101530009FE060E070E044EF51E020E030E0F6EA48
:10154000EF2EFEE0FF2E0E94564E8AE09AE060E009
:1015500070E044E650E020E030E0E9ECEE2EEEE012
:10156000FE2E0E94564E0E94734F80E090E01F9125
:101570000F91FF90EF90DF90CF90BF90AF900895C4
:101580000E94BD2D0E942F340E94BB3D0895809182
:10159000A00E9091A10E60E070E048E150E00E9442
:1015A0009B5C0895FC018CE99BE09187808788E82B
:1015B0009CE09387828783E0838315861486089551
:1015C0001F920F920FB60F9211248F93559905C059
:1015D000809165008F7E809365008F910F900FBE84
:1015E0000F901F901895EAE9F0E080818062808377
:1015F00008951F920F920FB60F920BB60F921124FF
:101600002F933F934F935F936F937F938F939F930A
:10161000AF93BF93EF93FF9380917B0E90917C0EDD
:1016200069E871E04AE851E00E94C84F813029F42E
:101630008091890180939C0007C010928A0180915B
:101640009A008F7D80939A0080918A01882311F0FF
:101650000E946656FF91EF91BF91AF919F918F913C
:101660007F916F915F914F913F912F910F900BBEA2
:101670000F900FBE0F901F9018951F920F920FB6EC
:101680000F920BB60F9211242F933F934F935F93BA
:101690006F937F938F939F93AF93BF93EF93FF933A
:1016A0008091C30E9091C40E6CE871E04DE851E05A
:1016B0000E94C84F813049F4809165008061809319
:1016C000650080918C018CB903C010928D015598F2
:1016D00080918D01882311F00E946656FF91EF9151
:1016E000BF91AF919F918F917F916F915F914F913A
:1016F0003F912F910F900BBE0F900FBE0F901F9038
:101700001895DF93CF930F92CDB7DEB78983809181
:101710007B0E90917C0EBE016F5F7F4F4FEF5FEFAE
:1017200020E00E947C51EAE9F0E0808180628083C1
:101730000F90CF91DF9108950E94810B80E090E09F
:1017400008958091AF0E9091B00E60E070E040E09F
:1017500050E020E00E947C510895DF93CF930F92D8
:10176000CDB7DEB789838091C30E9091C40EBE01C0
:101770006F5F7F4F4FEF5FEF20E00E947C51559AE3
:101780000F90CF91DF9108951F920F920FB60F9295
:101790000BB60F9211242F933F934F935F936F9348
:1017A0007F938F939F93AF93BF93EF93FF93DF93B9
:1017B000CF930F92CDB7DEB780919C0089831092B2
:1017C0008B018091AD0E9091AE0EBE016F5F7F4F89
:1017D0004BE851E020E00E94485080918B01882323
:1017E00011F00E9466560F90CF91DF91FF91EF911B
:1017F000BF91AF919F918F917F916F915F914F9129
:101800003F912F910F900BBE0F900FBE0F901F9026
:1018100018951F920F920FB60F920BB60F921124CC
:101820002F933F934F935F936F937F938F939F93E8
:10183000AF93BF93EF93FF93DF93CF930F92CDB707
:10184000DEB78CB189831092010180919C0E90913A
:101850009D0EBE016F5F7F4F41E051E020E00E948E
:10186000485080910101882311F00E9466560F9024
:10187000CF91DF91FF91EF91BF91AF919F918F91A8
:101880007F916F915F914F913F912F910F900BBE80
:101890000F900FBE0F901F9018958091AF0E9091F2
:1018A000B00E60E070E04FEF5FEF20E00E94B050BC
:1018B0000895EF92FF921F93DF93CF930F92CDB7CE
:1018C000DEB710E07E010894E11CF11C01C01F5F2F
:1018D00080919C0E90919D0EB7014AE050E020E06F
:1018E0000E94B050813099F3812F0F90CF91DF91FA
:1018F0001F91FF90EF9008959C01462F80919C0EC0
:1019000090919D0EB90150E020E00E94B0500895E2
:10191000DF93CF930F92CDB7DEB78091AD0E90914C
:10192000AE0EBE016F5F7F4F4FEF5FEF20E00E9472
:10193000B050882319F42FEF3FEF03C08981282F7F
:1019400030E0C9010F90CF91DF9108950FB6F89460
:101950000F9280E461E00E9474529093AE0E8093E7
:10196000AD0E80E261E00E94745290937C0E8093F1
:101970007B0E80E161E00E94745290939D0E8093F3
:101980009C0E84E061E00E9474529093C40E809398
:10199000C30E81E060E00E9474529093B00E809379
:1019A000AF0E009739F060E070E040E050E020E0DA
:1019B0000E947C510F900FBE87E089B91092900071
:1019C000809399001092980088ED8AB996E89093D8
:1019D000950088E980939A0090939D0008958FB9AF
:1019E0006F98779BFECF8EB18FB16F9A089588B3B1
:1019F000806C88BBC5981B9AE5E6F0E08081886022
:101A0000808308951B9808951B9A0895E5E6F0E0F9
:101A10008081877F80830895E5E6F0E0808188609B
:101A200080830895C7980895C79A08958DB18360FB
:101A30008DB9C69808958DB18C7F8DB9C69A0895D9
:101A40008DB183608DB9C69808958DB18C7F8DB9A5
:101A5000C69A08958DB185608DB9C59A08958DB1E6
:101A60008A7F8DB9C59808951F920F920FB60F9275
:101A70000BB60F9211242F933F934F935F936F9365
:101A80007F938F939F93AF93BF93EF93FF938FB108
:101A900080938E018091620F9091630F6EE871E0E8
:101AA0004FE851E020E00E94485080918F01882348
:101AB00011F00E946656FF91EF91BF91AF919F91F7
:101AC0008F917F916F915F914F913F912F910F90E7
:101AD0000BBE0F900FBE0F901F901895DF93CF9302
:101AE0000F92CDB7DEB78FB98091620F9091630FDF
:101AF000BE016F5F7F4F4AE050E020E00E94B0508F
:101B000089810F90CF91DF9108950F931F93E091FA
:101B1000A00EF091A10E8081882341F180E460E065
:101B20000E94D7288EE190E00E94BB4D0091A00E4C
:101B30001091A10E84E00E944B29F80194838383C5
:101B400080E460E00E94B828E091A00EF091A10E20
:101B500040E023813481818192818217930708F4C8
:101B600041E045838AE090E00E94BB4DE091A00EE9
:101B7000F091A10E8681882359F180E260E00E94F5
:101B8000D7288EE190E00E94BB4D0091A00E1091ED
:101B9000A10E0A5F1F4F85E00E944B29F801948334
:101BA000838380E260E00E94B828E091A00EF0916B
:101BB000A10E369640E02381348181819281821783
:101BC000930708F441E045838AE090E00E94BB4D12
:101BD000E091A00EF091A10E8485882359F180E157
:101BE00060E00E94D7288EE190E00E94BB4D0091FA
:101BF000A00E1091A10E045F1F4F86E00E944B299A
:101C0000F8019483838380E160E00E94B828E0912A
:101C1000A00EF091A10E3C9640E023813481818199
:101C200092818217930708F441E045838AE090E0AF
:101C30000E94BB4DE091A00EF091A10E82898823F5
:101C400059F188E060E00E94D7288EE190E00E9480
:101C5000BB4D0091A00E1091A10E0E5E1F4F87E0AC
:101C60000E944B29F8019483838388E060E00E94FE
:101C7000B828E091A00EF091A10E729640E0238169
:101C80003481818192818217930708F441E0458372
:101C90008AE090E00E94BB4D1F910F9108954F92F2
:101CA0005F926F927F928F929F92AF92BF92DF92DC
:101CB000EF92FF920F931F93CF93DF937C010091DC
:101CC000A00E1091A10EDD24C0E0D0E03CE8432E30
:101CD00030E0532E29EA622E20E0722E90EA892EFF
:101CE00090E0992E87E9A82E80E0B82ED8018C913B
:101CF000882309F46CC000D000D000D0EDB7FEB747
:101D00003196ADB7BEB71296FC92EE921197538200
:101D100042822196D583C48321970E94EF59EDB763
:101D2000FEB736960FB6F894FEBF0FBEEDBFD801D2
:101D300011962D913C91129713968D919C91149729
:101D40008217930748F400D000D0EDB7FEB7F282B7
:101D5000E182B482A3820CC000D000D0ADB7BEB780
:101D60001296FC92EE92119714969C928E92139773
:101D70000E94EF590F900F900F900F90EDB7FEB7A4
:101D800038970FB6F894FEBF0FBEEDBF3196ADB7D2
:101D9000BEB71296FC92EE92119773826282D801BE
:101DA00011968D919C9112979583848313968D91B2
:101DB0009C911497978386830E94EF59D394EDB733
:101DC000FEB738960FB6F894FEBF0FBEEDBF219652
:101DD000C430D10519F00A5F1F4F88CF8D2DDF91D8
:101DE000CF911F910F91FF90EF90DF90BF90AF9038
:101DF0009F908F907F906F905F904F90089588E1B3
:101E000090E00E941B1C9093A10E8093A00E089559
:101E10000FB6F8940F9281E061E00E9474529093A3
:101E2000630F8093620F0F900FBE87EF87BB81ED2A
:101E300088BB11BA8EE082B98CE083B98FE08093C1
:101E400061008FE18093640008951F9380E060E05B
:101E50000E942E2980E060E00E94132980E00E9409
:101E60004B2965E0969587956A95E1F78093AC0ECE
:101E70008AE090E00E94BB4D81E00E944B299C01CA
:101E800053E0880F991F5A95E1F7220F331F820FF5
:101E9000931F68E170E00E94CB566093A40E8AE025
:101EA00090E00E94BB4D0E94850D11E0812F0E94A1
:101EB000C6468AE090E00E94BB4D1F5F1032B1F72A
:101EC000CDCF0E94FF0E0E949C480895FC0180A186
:101ED000833019F425E030E008C080E899E092A34F
:101EE00081A381E080A320E030E0C9010895FC01D6
:101EF0008AE499E092A381A380A1833009F010A223
:101F000080E090E00895FC0180A1813019F025E087
:101F100030E008C086E19AE092A381A382E080A32A
:101F200020E030E0C90108950E94C00A80E090E0FE
:101F30000895CF93DF93EC01898D863018F422E069
:101F400030E02AC081E0BE010E9441226093800EF1
:101F500082E0BE010E9441226093810E83E0BE01B7
:101F60000E9441226093820E84E0BE010E944122C1
:101F70006093830E85E0BE010E9441226093840E2F
:101F800086E0BE010E9441226093850E80E89EE0BB
:101F90000E94F72920E030E0C901DF91CF91089538
:101FA000CF93DF93EC01898D843018F422E030E088
:101FB00012C081E0BE010E94542282E0BE010E9454
:101FC000542283E0BE010E94542284E0BE010E949C
:101FD000542220E030E0C901DF91CF9108956F9243
:101FE0007F928F929F92AF92BF92CF92DF92EF92A9
:101FF000FF920F931F93CF93DF93EC01898D853070
:1020000018F422E030E058C081E0BE010E94542262
:102010003B014C0182E0BE010E9454227B018C01F5
:1020200083E0BE010E9454225B016C0184E0BE018A
:102030000E945422E091A20EF091A30E102F0F2DBA
:10204000FE2CEE246501BB24AA24EA0CFB1C0C1D0B
:102050001D1DE60CF71C081D191D962F88277727D4
:102060006627E60EF71E081F191FE682F782008713
:10207000118785E0BE010E945422DC01CB01009152
:10208000A20E1091A30E0E94C62DF80195838483A1
:10209000898D863078F086E0BE010E945422DC01F2
:1020A000CB010091A20E1091A30E0E94C62DF80143
:1020B0009383828320E030E0C901DF91CF911F91AB
:1020C0000F91FF90EF90DF90CF90BF90AF909F90D7
:1020D0008F907F906F9008956F927F928F929F92D2
:1020E000AF92BF92CF92DF92EF92FF920F931F9326
:1020F000CF93DF93EC01898D843018F422E030E037
:1021000033C081E0BE010E9454223B014C0182E0B9
:10211000BE010E9454227B018C0183E0BE010E941B
:1021200054225B016C0184E0BE010E945422102FF6
:102130000F2DFE2CEE246501BB24AA24EA0CFB1C07
:102140000C1D1D1DE60CF71C081D191D962F882758
:1021500077276627E60EF71E081F191FC801B7016B
:102160000E94F53120E030E0C901DF91CF911F914D
:102170000F91FF90EF90DF90CF90BF90AF909F9026
:102180008F907F906F900895FC01818D882319F4C2
:1021900022E030E017C081E0BF010E94542220E21B
:1021A00030E0261B370B6FEF7FEF8FEF9FEF04C000
:1021B00096958795779567952A95D2F70E94EC3189
:1021C00020E030E0C90108956F927F928F929F9234
:1021D000AF92BF92CF92DF92EF92FF920F931F9335
:1021E000CF93DF93EC01898D843018F422E030E046
:1021F00033C081E0BE010E9454223B014C0182E0C9
:10220000BE010E9454227B018C0183E0BE010E942A
:1022100054225B016C0184E0BE010E945422102F05
:102220000F2DFE2CEE246501BB24AA24EA0CFB1C16
:102230000C1D1D1DE60CF71C081D191D962F882767
:1022400077276627E60EF71E081F191FC801B7017A
:102250000E94E33120E030E0C901DF91CF911F916E
:102260000F91FF90EF90DF90CF90BF90AF909F9035
:102270008F907F906F900895FF920F931F938C0122
:1022800081E0B8010E945422F62E862F0E944B292D
:102290002DB73EB7285030400FB6F8943EBF0FBE62
:1022A0002DBFEDB7FEB73196D8015A962D913C91CE
:1022B0005B97ADB7BEB712963C932E93119724E669
:1022C0003AE033832283F4821582978386830E94C7
:1022D000EF592DB73EB7285F3F4F0FB6F8943EBF7A
:1022E0000FBE2DBF80E090E01F910F91FF900895E9
:1022F000CF93DF93EC018C8D882371F1E82FF0E010
:10230000EE0FFF1FEE5CF64F259134918DB79EB70F
:1023100008970FB6F8949EBF0FBE8DBFEDB7FEB7FE
:1023200031968A8D9B8DADB7BEB712969C938E93D6
:102330001197338322838D8D9E8D958384838F8D1A
:10234000868317820E94EF598DB79EB708960FB605
:10235000F8949EBF0FBE8DBF1C8E1E8E1D8E1F8ECD
:10236000DF91CF910895EF92FF920F931F938C010D
:1023700081E0B8010E945422F62E82E0B8010E944A
:102380005422E62E83E0B8010E945422162F0E94A8
:10239000CC278F2D6AE00E94BF56282F2370A5EB13
:1023A000BEE02295207F9091B50E9F7C922B90935A
:1023B000B50E46EF5FEF849F802D11248F0D8F7037
:1023C0009091B50E907F982B9093B50E8E2D0E9414
:1023D000BF56282F2770FD012295207F92919F786C
:1023E000922B9083849F802D11248E0D8F7090816D
:1023F000907F982B9083812F0E94BF56282F2770A3
:1024000012972295207F9C919F78922B9C93849F7A
:10241000802D1124810F8F709C91907F982B9C931D
:10242000CD010E94FF2780E090E01F910F91FF9067
:10243000EF900895FC01818D882319F422E030E0AB
:1024400009C081E0BF010E945422862F0E94972973
:1024500020E030E0C90108951F93BC0181E00E9493
:102460005422162F80E060E00E941329812F60E043
:102470000E949D2880E090E01F9108951F93BC0169
:1024800081E00E945422162F80E060E00E942E29F5
:10249000812F60E00E94F52880E090E01F91089570
:1024A000FF920F931F93CF93DF93EC0181E0BE0166
:1024B0000E945422F62E82E0BE010E945422162F62
:1024C000117083E0BE010E945422062F2DB73EB743
:1024D000285030400FB6F8943EBF0FBE2DBFEDB769
:1024E000FEB731968A8D9B8DADB7BEB712969C9381
:1024F0008E93119782ED93E093838283F482158209
:10250000812F90E00196978386830E94EF59802F58
:1025100081502DB73EB7285F3F4F0FB6F8943EBFAE
:102520000FBE2DBF8436F8F400D000D000D0EDB738
:10253000FEB731968A8D9B8DADB7BEB712969C9330
:102540008E93119785E094E09383828304831582B0
:102550000E94EF592DB73EB72A5F3F4F0FB6F89450
:102560003EBF0FBE2DBF8F2D612F402F0E947B409D
:10257000882319F023E030E002C021E030E0C901F7
:10258000DF91CF911F910F91FF900895FF920F93CC
:102590001F93CF93DF93EC01898D823018F422E0F2
:1025A00030E06FC081E0BE010E945422F62E2FE37E
:1025B000F22282E0BE010E945422062F0170898D12
:1025C000833010F41FEF05C083E0BE010E94542247
:1025D000162F8DB79EB708970FB6F8949EBF0FBE03
:1025E0008DBFEDB7FEB731968A8D9B8DADB7BEB767
:1025F00012969C938E9311978FE993E09383828335
:10260000F4821582802F90E00196978386830E9442
:10261000EF59812F81502DB73EB7285F3F4F0FB63E
:10262000F8943EBF0FBE2DBF8436F8F400D000D022
:1026300000D0EDB7FEB731968A8D9B8DADB7BEB792
:1026400012969C938E93119785E094E093838283F6
:10265000148315820E94EF592DB73EB72A5F3F4F72
:102660000FB6F8943EBF0FBE2DBF8F2D602F412FA8
:102670000E94B73F882319F023E030E002C021E038
:1026800030E0C901DF91CF911F910F91FF90089524
:102690000F931F93CF93DF93EC0100D000D08A8D6E
:1026A0009B8DADB7BEB712969C938E93119782E81F
:1026B00093E014969C938E9313970E94EF590F907A
:1026C0000F900F900F9081E0BE010E94972164E669
:1026D0007FE00E94DF20882319F420E030E024C04E
:1026E0000A8D1B8D81E0BE010E94972100D000D091
:1026F00000D0EDB7FEB73196ADB7BEB712961C93BA
:102700000E93119722E831E03383228395838483EB
:102710000E94EF5924E030E0EDB7FEB736960FB6D1
:10272000F894FEBF0FBEEDBFC901DF91CF911F919D
:102730000F910895EF92FF920F931F93DF93CF9322
:102740000F92CDB7DEB77C0181E0B7010E949721DF
:1027500064E67FE00E94DF20882341F1D7015A968A
:102760000D911C915B9781E0B7010E94972100D0E9
:1027700000D000D0EDB7FEB73196ADB7BEB7129618
:102780001C930E93119722E831E0338322839583C3
:1027900084830E94EF5924E030E0EDB7FEB736960F
:1027A0000FB6F894FEBF0FBEEDBF3BC084E69FE0BE
:1027B0000E94891D198200D000D0D7015A968D91B0
:1027C0009C915B97EDB7FEB79283818388E493E099
:1027D000948383830E94EF590F900F900F900F9076
:1027E0007E010894E11CF11C8091AD0E9091AE0E1B
:1027F000B7014FEF5FEF20E00E94B0508823A1F3B4
:102800008981833041F00E94810B84E69FE06981D9
:102810000E94551EE9CF84E69FE00E94E01E20E062
:1028200030E0C9010F90CF91DF911F910F91FF9080
:10283000EF900895CF93DF93EC0181E0BE010E94F9
:1028400097210E94B720882319F421E030E005C0C9
:10285000CE010E94781124E030E0C901DF91CF91D0
:102860000895CF93DF93EC01898D813019F022E038
:1028700030E010C081E0BE010E9497210E94162125
:10288000882319F421E030E005C0CE010E947811C0
:1028900024E030E0C901DF91CF9108951F93CF93D9
:1028A000DF93EC01898D882319F422E030E017C012
:1028B00081E0BE010E945422162F862F0E940445FB
:1028C0008F8F882319F421E030E009C089E08C8FD4
:1028D0001D8F1E8ECE010E94781120E030E0C901CC
:1028E000DF91CF911F910895FF920F931F93CF9384
:1028F000DF93EC01898D823019F022E030E04EC088
:1029000081E0BE010E945422F62E82E0BE010E94A8
:1029100097218C018F2D0E940445882331F089E096
:102920008C8FCE010E94781137C0C80164E67FE029
:102930000E94DF204A8D5B8D8823F9F000D000D003
:1029400000D0EDB7FEB73196ADB7BEB712965C9327
:102950004E93119782E891E09383828315830483D9
:102960000E94EF5924E030E08DB79EB706960FB66F
:10297000F8949EBF0FBE8DBF11C084E69FE06F2DFF
:102980000E94B041182F84E69FE00E94E01E1123B0
:1029900019F420E030E002C024E030E0C901DF910A
:1029A000CF911F910F91FF9008952F923F924F92D8
:1029B0005F926F927F928F929F92AF92BF92CF92CF
:1029C000DF92EF92FF920F931F93DF93CF9300D08C
:1029D00000D000D0CDB7DEB77C0100D000D0DC0144
:1029E0005A968D919C915B97EDB7FEB79283818348
:1029F00087E89AE0948383830E94EF590F900F90A9
:102A00000F900F9081E0B7010E94972164E67FE06C
:102A10000E94DF20882341F1D7015A960D911C9125
:102A20005B9781E0B7010E94972100D000D000D0D1
:102A3000EDB7FEB73196ADB7BEB712961C930E93A5
:102A4000119722E831E033832283958384830E94A7
:102A5000EF5924E030E0EDB7FEB736960FB6F894A4
:102A6000FEBF0FBEEDBF7BC1D7015E961C921E92CA
:102A70005D975F961C9204E1B2E0CB2ED12CCC0E78
:102A8000DD1EF701628D738D83E490E00E940D5A84
:102A900080919B0086FFFCCF8091AD0E9091AE0E91
:102AA000B60144E650E020E00E94B050882319F0BF
:102AB0008A81813061F0015021F784E69FE00E9415
:102AC000E01ED7015C961C9224E030E048C184E609
:102AD0009FE061E070E00E94231D6C015C01AAE0B0
:102AE0009A2E11E0F3E08F2EE5E02E2E312C2C0EE5
:102AF0003D1E76E0472E512C4C0E5D1E3E01089483
:102B0000611C711C8091AD0E9091AE0EBE016D5F87
:102B10007F4F44E650E020E00E94B050882309F443
:102B2000DDC08091AD0E9091AE0EBE016C5F7F4F07
:102B300041E050E020E00E94B050882319F483E087
:102B4000D701BDC09C81892F80958A830B8108178E
:102B500039F085E0F701848F058F168E978FF9C0C5
:102B6000812F81508A83081711F0012F08C084E655
:102B70009FE0602F70E00E94231D6C015C011B81AF
:102B8000101779F084E0D7015C968C935C978C8168
:102B90005D968C935D975E961C925E975F960C9304
:102BA000D8C000E08091AD0E9091AE0EBE016E5F78
:102BB0007F4F4AE050E020E00E94B050882341F06F
:102BC0008A81F60181936F010F5F003859F703C0C6
:102BD000D7015C968C928091AD0E9091AE0EB101B2
:102BE0004AE050E020E00E94B050882341F486E0A3
:102BF000F701848F82E090E0968F858FAAC0809144
:102C0000AD0E9091AE0EB2014AE050E020E00E947D
:102C1000B050882361F486E0D7015C968C935C9772
:102C200081E090E05E969C938E935D9792C090E0D9
:102C300040E050E0F50181915F015827052E029494
:102C4000802D8F708527252F2025220F207E82271B
:102C5000202D2527207F2695052E000C221F569516
:102C6000569556955F7152275427482F9F5F90388D
:102C700009F78D8190E0252F33278217930761F4A0
:102C80008E8190E050708417950731F486E00E94A1
:102C9000810B4AE0942E16C09A94115085E10E944F
:102CA000810B992079F48B81D7015D968C935D9788
:102CB0005E961C925E975F961C935F9784E05C968D
:102CC0008C9347C08091AD0E9091AE0EB30144E657
:102CD00050E020E00E94B050882319F482E0F70110
:102CE00016C09981913069F41F5F84E69FE0612FDF
:102CF00070E00E94231D6C01D7015C961C925C0160
:102D000001CF983131F4F701158F168E87E0848F4B
:102D100020C09430C9F485E10E94810B8091AD0EF2
:102D20009091AE0EB3014AE050E020E00E94B05016
:102D3000882331F08981843019F486E00E94810B68
:102D4000D7015C961C9205C088E0F701848F958FAF
:102D5000168E84E69FE00E94E01E20E030E0C9016C
:102D600026960FB6F894DEBF0FBECDBFCF91DF9190
:102D70001F910F91FF90EF90DF90CF90BF90AF9099
:102D80009F908F907F906F905F904F903F902F908B
:102D90000895FF920F931F93CF93DF93EC01898DDA
:102DA000823008F4D2C082E0BE010E945422F62E86
:102DB00081E0BE010E9497218C01FF2009F05BC0D9
:102DC0006BEC7AE043E050E00E942459892B31F407
:102DD00080E090E060E00E9411362CC0C80168ECF1
:102DE0007AE042E050E00E942459892B31F480E0DF
:102DF00090E060E00E94B5311DC0C80163EC7AE04C
:102E000042E050E00E942459892B31F480E090E0A8
:102E100060E00E9486340EC0C8016FEB7AE042E0A9
:102E200050E00E942459892BB1F480E090E060E0EA
:102E30000E94643A00D000D000D0EDB7FEB73196C2
:102E40008A8D9B8DADB7BEB712969C938E931197CA
:102E500088E294E05AC0C8016BEB7AE042E050E0AF
:102E60000E942459892B09F070C080E090E060E056
:102E70000E94263DDFCF67EB7AE043E050E00E94FE
:102E80002459892B31F48A8D9B8D6F2D0E94113628
:102E90002CC0C80164EB7AE042E050E00E94245963
:102EA000892B31F48A8D9B8D6F2D0E94B5311DC009
:102EB000C8016FEA7AE042E050E00E942459892B71
:102EC00031F48A8D9B8D6F2D0E9486340EC0C8010F
:102ED0006BEA7AE042E050E00E942459892B31F5F8
:102EE0008A8D9B8D6F2D0E94643A00D000D000D057
:102EF000EDB7FEB731968A8D9B8DADB7BEB71296F2
:102F00009C938E93119785E194E09383828315833C
:102F100004830E94EF5920E030E08DB79EB70696FB
:102F20000FB6F8949EBF0FBE8DBF11C0C80167EAEF
:102F30007AE042E050E00E942459892B31F48A8DD6
:102F40009B8D6F2D0E94263DD0CF22E030E0C9013D
:102F5000DF91CF911F910F91FF900895FC01828D19
:102F6000938D0E94442A80E090E00895CF92DF92F2
:102F7000EF92FF920F931F93DF93CF930F92CDB7F2
:102F8000DEB78C0180E2898381E0B8010E9497213D
:102F900064E67FE00E94DF20D8015A96ED90FC9015
:102FA0005B97882319F181E0B8010E94972100D036
:102FB00000D000D0EDB7FEB73196ADB7BEB71296D0
:102FC000FC92EE92119722E831E0338322839583BD
:102FD00084830E94EF5924E030E0EDB7FEB73696C7
:102FE0000FB6F894FEBF0FBEEDBF58C02091680F1A
:102FF0003091690F00D000D000D0ADB7BEB71196A8
:10300000EDB7FEB7F282E18280E793E013969C93DE
:103010008E931297F901928180E02181820F911D98
:1030200015969C938E9314970E94EF598DB79EB777
:1030300006960FB6F8949EBF0FBE8DBF6E01089422
:10304000C11CD11C84E69FE0B6010E94031EF82E2D
:1030500089810E94810B89818D3019F48AE00E9458
:10306000810BFF2079F300D000D0D8015A968D91C2
:103070009C915B97EDB7FEB79283818385E099E0E1
:10308000948383830E94EF590F900F900F900F90BD
:1030900084E69FE00E94E01E20E030E0C9010F902E
:1030A000CF91DF911F910F91FF90EF90DF90CF9024
:1030B0000895FC01828D938D0E94371C80E090E082
:1030C00008950F931F93CF93DF938C0183EB9EE0C2
:1030D0000E9427282091B50E22952F704091B50EA1
:1030E0004F707091B40E72957F705091B40E5F70F6
:1030F000A091B30EA295AF706091B30E6F708DB7B3
:103100009EB70A970FB6F8949EBF0FBE8DBFEDB75E
:10311000FEB73196E8018A8D9B8DCDB7DEB79A83D5
:1031200089838FEC9AE093838283822F837090E06F
:103130009C0113E0220F331F1A95E1F7880F991FA6
:10314000280F391F420F44831582872F877090E024
:103150009C0173E0220F331F7A95E1F7880F991FC6
:10316000280F391F520F568317828A2F877090E0DD
:103170009C0103E0220F331F0A95E1F7880F991F86
:10318000280F391F620F608711860E94EF598DB793
:103190009EB70A960FB6F8949EBF0FBE8DBF80E013
:1031A00090E0DF91CF911F910F9108950E94BE2171
:1031B00080E090E00895CF93DF93EC0100D000D041
:1031C000ADB7BEB712969C938E93119784EF9AE099
:1031D00014969C938E9313970E94EF59EDB7FEB708
:1031E000D283C18387E991E0948383830E94EF595E
:1031F0000F900F900F900F900E94DF4800D000D0EA
:1032000000D0EDB7FEB73196ADB7BEB71296DC93DE
:10321000CE93119727EA31E033832283848315828A
:103220000E94EF59EDB7FEB736960FB6F894FEBF81
:103230000FBEEDBF0E9433552DB73EB7285030402A
:103240000FB6F8943EBF0FBE2DBFEDB7FEB7319657
:10325000ADB7BEB71296DC93CE93119720EC31E058
:1032600033832283958384838CE19CE097838683D8
:103270000E94EF59EDB7FEB738960FB6F894FEBF2F
:103280000FBEEDBF0E940D1C2DB73EB72850304039
:103290000FB6F8943EBF0FBE2DBFEDB7FEB7319607
:1032A000ADB7BEB71296DC93CE9311972AEE31E0FC
:1032B000338322839583848380E097E19783868399
:1032C0000E94EF592091A40E0F900F90EDB7FEB71A
:1032D0003196ADB7BEB71296DC93CE93119781E4C9
:1032E00092E093838283248315820E94EF59209178
:1032F000AC0EEDB7FEB73196ADB7BEB71296DC9304
:10330000CE9311978CE592E0938382832483158278
:103310000E94EF59EDB7FEB736960FB6F894FEBF90
:103320000FBEEDBF0E94291C2DB73EB7285030407C
:103330000FB6F8943EBF0FBE2DBFEDB7FEB7319666
:10334000ADB7BEB71296DC93CE93119724E132E06D
:10335000338322838483158280E890E09783868379
:103360000E94EF590F900F900F900F90EDB7FEB79E
:10337000D283C18387E792E0948383830E94EF59CD
:10338000ADB7BEB71296DC93CE9311978AE892E060
:1033900014969C938E9313970E94EF590F900F9061
:1033A0000F900F90CE0160E87EE00E94C13000D007
:1033B00000D0EDB7FEB7D283C18381EF9AE094834A
:1033C00083830E94EF59ADB7BEB71296DC93CE93BC
:1033D00011978FE992E014969C938E9313970E9415
:1033E000EF590F900F900F900F900E94FE31FC014B
:1033F0004081518162817381CE010E945F2F00D094
:1034000000D0EDB7FEB7D283C1838EEE9AE09483ED
:1034100083830E94EF59ADB7BEB71296DC93CE936B
:10342000119784EB92E014969C938E9313970E94CD
:10343000EF590F900F900F900F900E94FE31FC01FA
:103440004481558166817781CE010E945F2F00D033
:1034500000D0ADB7BEB71296DC93CE9311978BEE2A
:103460009AE014969C938E9313970E94EF59EDB7B0
:10347000FEB7D283C18389EC92E0948383830E9458
:10348000EF590F900F900F900F900E94FE31DC01CA
:1034900018964D915D916D917C911B97CE010E9484
:1034A0005F2F00D000D0EDB7FEB7D283C18388EE86
:1034B0009AE0948383830E94EF59ADB7BEB712960A
:1034C000DC93CE9311978EED92E014969C938E939D
:1034D00013970E94EF590F900F900F900F90CE010D
:1034E0000E943F41882381F400D000D0EDB7FEB7A1
:1034F000D283C18389EF92E0948383830E94EF5942
:103500000F900F900F900F9000D000D0ADB7BEB7C6
:103510001296DC93CE93119783E193E014969C93DB
:103520008E9313970E94EF590F900F900F900F906A
:10353000CE010E944F0E882381F400D000D0EDB759
:10354000FEB7D283C1838CE293E0948383830E948D
:10355000EF590F900F900F900F90CE010E942D3DCC
:10356000DF91CF910895EF92FF920F931F93DF9316
:10357000CF93CDB7DEB72E970FB6F894DEBF0FBE50
:10358000CDBF7C01DC0159968C915997882339F481
:103590005A968D919C915B970E94DB183BC081E00D
:1035A000B7010E94972164E67FE08E010F5F1F4FF5
:1035B000A80123E00E94F720882331F1F701028D52
:1035C000138D81E0B7010E94972100D000D000D078
:1035D000EDB7FEB73196ADB7BEB712961C930E93FA
:1035E000119722E831E033832283958384830E94FC
:1035F000EF5924E030E0EDB7FEB736960FB6F894F9
:10360000FEBF0FBEEDBF08C0C8010E94DB18C80195
:103610000E94F01E20E030E0C9012E960FB6F8940B
:10362000DEBF0FBECDBFCF91DF911F910F91FF90F5
:10363000EF900895EF920F931F939B0160E078E263
:1036400040E051E00AE419E0EE240E94CB231F91F0
:103650000F91EF900895EF92FF920F931F93CF93E6
:10366000DF93EC010E94952D0E9454340E948A3908
:103670000E947F3486E2E82E8BE0F82E8AE090E00C
:103680000E94BB4D0E94462B892B29F40E94403F8B
:103690000E946B3AF3CFE091860EF091870E04857D
:1036A000158580E098E00E94C62D0817190729F4B7
:1036B0000E943F370E946833E1CFE091860EF0917F
:1036C000870E0485158586E098E00E94C62D0817B0
:1036D000190719F40E949639D1CF209779F200D0BA
:1036E00000D0EDB7FEB7D283C183F482E3820E949B
:1036F000EF590F900F900F900F90C0CFCF93DF93A3
:10370000EC018A8D9B8D0E949C59BE010E94382439
:10371000CE010E948F22F5CFDF92EF92FF920F939E
:103720001F93DF93CF930F92CDB7DEB78C0100D0FC
:1037300000D0FC01828D938DEDB7FEB7928381831B
:1037400087E39BE0948383830E94EF590F900F904F
:103750000F900F908DE0B8010E9438247E010894EC
:10376000E11CF11C88E0D82E8091AD0E9091AE0E38
:10377000B7014FEF5FEF20E00E94B0508823A1F324
:103780008981B8010E943824C8010E948F2280914B
:1037900062008D2580936200E7CF6A9A08956A9847
:1037A00008956B9A08956B98089580E0089580E0DD
:1037B00008958091BE0E9091BF0E60E070E040E0F1
:1037C00050E020E00E947C5108958091BE0E9091BF
:1037D000BF0E60E070E04FEF5FEF20E00E94B0505E
:1037E0000895FC0109950FB6F8940F9281E060E00E
:1037F0000E9474529093BF0E8093BE0E009739F0D2
:1038000060E070E040E050E020E00E947C5180EDFC
:103810008DB9709A0F900FBE089520918601309156
:1038200087012F5F3F4F8091020190910301281B78
:10383000390BC90108950F931F938C010E94DF5625
:10384000080F191F10930301009302011F910F919C
:103850000895EAE4FFE090E08081882309F49F5F07
:1038600031978EE0EB3CF807B9F7892F08952F9236
:103870003F924F925F927F928F929F92AF92BF92B0
:10388000CF92DF92EF92FF920F931F93CF93DF932C
:103890004C0184E091E0B4010E94395A77242DE173
:1038A000222E21E0322EE72CFF2420E830E0E20E29
:1038B000F31EDE2DCC2780E89FEFE80EF91E80EF87
:1038C000482E512C4C0E5D1E1C81112309F44BC057
:1038D000812F90E0B4010E940D5A6E0101E0112386
:1038E00059F0D60115961C91112331F0812F90E0EB
:1038F000B4010E940D5A06C080E290E0B4010E941B
:103900000D5A10E00F5F0894C11CD11C083039F724
:10391000EDB7FEB738970FB6F894FEBF0FBEEDBFF8
:103920003196ADB7BEB712969C928E9211973382A4
:103930002282BA80AA2489819501280F311D3583FE
:1039400024838B81868317820E94DE598DB79EB7B0
:1039500008960FB6F8949EBF0FBE8DBFC415D5054F
:1039600011F06096B1CFABECBEE0EA0EFB1EF701A2
:103970008081871511F0782E96CFDF91CF911F911E
:103980000F91FF90EF90DF90CF90BF90AF909F90FE
:103990008F907F905F904F903F902F90089521E0FF
:1039A000422F50E0FA01E553F14F8081882369F4FA
:1039B0002083E0E0F22FF05880E091E0DF01AC01DD
:1039C0001D9241505040E1F704C02F5F203841F76D
:1039D00020E0822F0895A82FB0E0FD01E553F14FBC
:1039E00020812817F9F421E0E22FF0E0E553F14FB0
:1039F0008081882319F02F5F2038B1F7A553B14F8C
:103A00002C93822F90E0FC01E553F14F2083E0E0FE
:103A1000F22FF05880E091E0DF01AC011D9241509F
:103A20005040E1F7822F08950F931F93062F10E067
:103A300005C00E94EB1C882319F01F5F1017C8F304
:103A40001F910F910895CF92DF92EF92FF921F93F3
:103A5000CF93DF937C016B016115710509F44EC0B2
:103A6000DC011496CD91DC9115978881882319F497
:103A70000E94CF1C8883D7011496ED91FC91159775
:103A800080818823D9F10894C108D108E601D69530
:103A9000C7951C2F6C2F0E94141D982F882371F13D
:103AA000D7011496ED91FC911597C0FE0FC082814D
:103AB000C81738F01F5F12831496ED91FC9115978B
:103AC0001182392F20E020583F471AC082818C177D
:103AD00038F4C283D7011496ED91FC91159705C077
:103AE0008C1729F4818187FD02C080E88183892FAA
:103AF00090E080589F4F382F222702C020E030E00E
:103B0000C901DF91CF911F91FF90EF90DF90CF908F
:103B10000895CF93DF93EC01009711F481E017C073
:103B2000EC81FD8191819A8382818B83992371F04D
:103B3000808162810E94141D90E080589F4F982FD1
:103B400088272A81820F911D9983888380E0DF91E5
:103B5000CF910895EF92FF920F931F93CF93DF932E
:103B6000EC016115710519F41A821B8244C08B01A6
:103B700001501040EC80FD80F7018081882321F402
:103B80000E94CF1CF70180830A831B83EC81FD8197
:103B90008081612F0E94141D382F882311F481E049
:103BA0002BC0EC81FD8192818B81981729F49A8139
:103BB0008181891708F49183EC81FD8192818B8149
:103BC000981730F48A818183EC81FD818B81828317
:103BD0002A812F5F2A83222321F48B818F5F8B839D
:103BE0000AC0832F90E080589F4F982F8827820F1C
:103BF000911D9983888380E0DF91CF911F910F9170
:103C0000FF90EF9008950F931F93CF93DF93EC01F4
:103C10008B01EC81FD8182816B81681730F0861702
:103C200021F591818A81981700F18A81882341F4D6
:103C300080810E94141D90E080589F4F18828983D4
:103C4000E881F9818081F80180838A818F5F8A838E
:103C5000882321F48B818F5F8B8305C088819981B4
:103C600001969983888380E001C081E0DF91CF9144
:103C70001F910F910895DF93CF930F92CDB7DEB7C9
:103C8000FC0184859585BE016F5F7F4F0E94031EF6
:103C9000882319F02FEF3FEF03C08981282F30E0F0
:103CA000C9010F90CF91DF9108951F93CF93DF93B8
:103CB000EC01162FEC81FD818081882349F40E945C
:103CC000CF1C882311F481E03EC0EC81FD8180830C
:103CD0008A81882379F4EC81FD8180816B810E9447
:103CE000141D882311F482E02EC090E080589F4F6D
:103CF00018828983E881F98110838A818F5F8A83A2
:103D0000882321F48B818F5F8B8305C08881998103
:103D1000019699838883EC81FD8192818B8198172C
:103D200029F49A818181891708F49183EC81FD81BE
:103D300092818B81981730F48A818183EC81FD8197
:103D40008B81828380E0DF91CF911F910895282F8E
:103D5000FB0184859585622F0E94551E90E0089591
:103D6000CF93DF939C010EC0A82FB0E0FD01E55377
:103D7000F14FE081E81711F4188201C0E883A553E0
:103D8000B14F1C92D9011496CD91DC911597888181
:103D9000882351F719821496ED91FC9115971282A0
:103DA0001496ED91FC911597148615861686178644
:103DB000F9011082118212821382DF91CF9108954E
:103DC000DC011496ED91FC9115978381882339F0DD
:103DD0008150838386E0FD0111928A95E9F7089569
:103DE000EF92FF920F931F938C01DC011C96ED90D4
:103DF000FC901D97C7010E94E01EC8010E947159E6
:103E0000D7011496ED91FC91159783811F910F9125
:103E1000FF90EF90089580E8EBECFEE0DF011D924B
:103E20008A95E9F780E091E0E0E0F0E8DF019C01AD
:103E30001D9221503040E1F708959F92AF92BF92BA
:103E4000CF92DF92EF92FF920F931F93CF93DF9366
:103E5000EC015B016A01EC81FD818081882329F4FA
:103E6000FA011182108281E077C022813B813217F2
:103E700040F0231709F07CC091818A81981708F4DB
:103E800077C0822F90E0831B91092181422F50E05F
:103E90002A81421B5109480F591FF601E080F18029
:103EA0004E155F0508F47A01F601118210828A81AD
:103EB00000E011E0081B1109992449C08A81882378
:103EC000B1F4992039F4EC81FD8180816B810E94ED
:103ED000141D03C0892D0E94EB1C982E882311F419
:103EE00083E03AC090E080589F4F188289836881B0
:103EF00079810E151F05B0F4C501A8010E94325941
:103F0000A00EB11E1A828B818F5F8B83E01AF10A9B
:103F1000F60180819181800F911F9183808300E061
:103F200011E015C0C501A7010E943259888199810D
:103F30008E0D9F1D998388838A818E0D8A83F60159
:103F4000808191818E0D9F1D9183808304C0E11437
:103F5000F10409F0B3CF80E0DF91CF911F910F9171
:103F6000FF90EF90DF90CF90BF90AF909F9008951B
:103F7000F6011182108282E0EFCF8F929F92BF9262
:103F8000CF92DF92EF92FF920F931F93CF93DF9325
:103F9000EC016B014A010C811D81F80180818823AD
:103FA00021F40E94CF1CF80180838A8100E011E097
:103FB000081B1109F401E080F18011821082BB24FA
:103FC0004EC08A818823B1F4BB2039F4EC81FD8195
:103FD00080816B810E94141D03C08B2D0E94EB1CFD
:103FE000B82E882311F481E056C090E080589F4F8E
:103FF00018828983888199810E151F05B0F4B60156
:10400000A8010E943259C00ED11E1A82E01AF10A8C
:10401000F40180819181800F911F918380838B8136
:104020008F5F8B8300E011E01AC0B601A7010E94E8
:1040300032598A818E0D8A83F401808191818E0D9F
:104040009F1D918380838B2D90E080589F4F982FE8
:1040500088272A81820F911D9983888304C0E114E7
:10406000F10409F0AECFEC81FD8192818B8198172C
:1040700029F49A818181891708F49183EC81FD816B
:1040800092818B81981730F48A818183EC81FD8144
:104090008B81828380E0DF91CF911F910F91FF9000
:1040A000EF90DF90CF90BF909F908F900895AF9248
:1040B000BF92CF92DF92EF92FF920F931F93CF9315
:1040C000DF936C01FC0101900020E9F73197FE2E8F
:1040D000F81A88E08F1510F4A8E0FA2EF601EF0D1B
:1040E000F11D31978081882309F4FA94F60191E05B
:1040F00007C081813196803211F4F92E05C09F5F8F
:104100009F15B8F3FF2029F1EE240E2D10E0005882
:104110001F4FD02FCC2700581040E0EFAE2EB12C0F
:10412000AC0EBD1EBE016C5F7F4FC6014F2D50E02F
:104130000E945459009779F0CA15DB0511F060967A
:10414000F1CF0553114FF8018081E81611F0E82EE8
:10415000DCCFC0E0D0E0CE01DF91CF911F910F9175
:10416000FF90EF90DF90CF90BF90AF900895CF93E6
:10417000DF930E945720EC01009711F481E01CC0EE
:104180008B81882381F082E017C0A82FB0E0FD0169
:10419000E553F14FE081E81711F4188201C0E8837C
:1041A000A553B14F1C928881882379F780E1FE01E5
:1041B00011928A95E9F780E0DF91CF910895CF932E
:1041C000DF93EB010E945720FC01009711F481E07E
:1041D0000BC083E0DE011D928A95E9F7FD83EC8335
:1041E00083818F5F838380E0DF91CF910895FF9279
:1041F0000F931F93CF93DF938B01EA01F22E0E945E
:10420000DF20282F882359F487EA9EE19987888741
:104210008BE39EE19B878A87FB821D870C87822F19
:10422000DF91CF911F910F91FF900895FF920F930F
:104230001F93CF93DF93082FF92EA82FB92FFD01DD
:1042400001900020E9F731971E2F181B193008F054
:1042500018E0802F9F2D9C01F90190E006C081910C
:10426000803211F4192F03C09F5F9117C0F31123FF
:1042700009F43FC0802F9F2D0E945720892BC9F53C
:1042800090E0292F30E020583F4FD22FCC272058E4
:104290003040AE0140515F4F8C818823B9F0C41784
:1042A000D50711F06096F8CFE901C553D14F888149
:1042B000981711F0982FE5CF0E94CF1C8883882390
:1042C000D1F090E080589F4FD82FCC27209799F0BD
:1042D0008CE0FE0111928A95E9F7CE010496602FD9
:1042E0007F2D412F50E00E9462591C861D861E863C
:1042F0001F8680E001C081E0DF91CF911F910F9177
:10430000FF900895DC011296ED91FC91139780E0E7
:1043100021E009C0903211F020E004C0222309F40A
:104320008F5F21E0319690819923A1F70895582F4E
:10433000FB012281338190E001C09F5FF901E90F09
:10434000F11D80818032C9F340E012C09F5FF90106
:10435000E90FF11DE081EE2321F0E032B9F701C051
:104360009F5FF901E90FF11D80818032C9F34F5F32
:10437000451768F3290F311DC90108956F927F9287
:104380008F929F92BF92CF92DF92EF92FF920F9304
:104390001F93DF93CF9300D000D000D0CDB7DEB70E
:1043A0007C01FC01C1A0D2A08E010F5F1F4FC8018C
:1043B000B60146E050E00E941B5998E6692E9BE04A
:1043C000792E85E6882E8BE0982EB02E012F00D016
:1043D00000D0F701828D938DEDB7FEB79283818374
:1043E00089819A81948383830E94EF59F701828D9A
:1043F000938DEDB7FEB792838183748263820E94AE
:10440000EF59F701828D938DEDB7FEB792838183CB
:104410008B819C81948383830E94EF59F701828D65
:10442000938DEDB7FEB792838183948283820E943D
:10443000EF5986E090E0C80ED91E0F900F900F90B4
:104440000F908B2D902FB60146E050E00E941B5933
:104450008D819E81892B09F0BACF26960FB6F894EC
:10446000DEBF0FBECDBFCF91DF911F910F91FF90A7
:10447000EF90DF90CF90BF909F908F907F906F9044
:104480000895DF93CF9300D0CDB7DEB70E94972178
:10449000BE016F5F7F4F40E150E00E94E4570F90F4
:1044A0000F90CF91DF910895DF93CF9300D0CDB7D8
:1044B000DEB70E949721BE016F5F7F4F4AE050E058
:1044C0000E94E4570F900F90CF91DF9108950F93C2
:1044D0001F93CF93DF938C01FC0180A1813019F0F1
:1044E000823021F406C0C8E4DBE00FC0C1E4DBE0A9
:1044F0000CC0CFE4DBE009C02196F9018491F801FA
:10450000628D738D90E00E940D5A9E01FE01849190
:10451000882391F7DF91CF911F910F910895CF9349
:10452000DF93EC018F89988D892B09F486C0CE0129
:104530000E948221898FEF89F88DCE010995823002
:104540009105D1F08330910520F4019709F06CC0FA
:1045500008C08430910509F44AC0059709F064C089
:1045600051C000D000D08A8D9B8DEDB7FEB79283ED
:1045700081838EEA9BE050C000D000D08A8D9B8D55
:10458000EDB7FEB7928381838AE99BE094838383AE
:104590000E94EF598A8D9B8DEDB7FEB79283818380
:1045A0008B899C89948383830E94EF598A8D9B8D8C
:1045B000EDB7FEB79283818388E99BE09483838380
:1045C0000E94EF598A8D9B8DEDB7FEB79283818350
:1045D0008D899E89948383830E94EF598A8D9B8D58
:1045E000EDB7FEB79283818385E99BE015C000D0CB
:1045F00000D08A8D9B8DEDB7FEB79283818382E8D0
:104600009BE00AC000D000D08A8D9B8DEDB7FEB72D
:10461000928381838AE69BE0948383830E94EF598F
:104620000F900F900F900F90188E1F8A1C8A1B8A74
:104630001E8A1D8ACE010E946722DF91CF910895C4
:10464000EF92FF921F93CF93DF93EC017B016A8D72
:104650007B8D8DE090E00E940D5ACE010E94672272
:104660001D850BC0F70181917F016A8D7B8D992794
:1046700087FD90950E940D5A1150112399F71C85C2
:104680008D85181B07C06A8D7B8D80E290E00E94AB
:104690000D5A11501123B9F71C858D85181B07C0C1
:1046A0006A8D7B8D88E090E00E940D5A1150112395
:1046B000B9F7DF91CF911F91FF90EF900895CF93BD
:1046C000DF93EB018130F1F0813020F0823009F08E
:1046D0005FC03FC01D861E86198AE881F9818081EE
:1046E000882309F455C0EF85EF5FE370EF87F0E0B2
:1046F0003296EE0FFF1FE60FF71F8081918199839D
:10470000888346C09889933009F442C08F858150D0
:10471000891B8370E82FF0E03296EE0FFF1FE60F43
:10472000F71F20813181D9018C91882389F19F5F06
:104730009370988BA081B181FD0101900020E9F771
:104740003197EA1BFB0BED87EE87198ACB01B90184
:104750001DC088898823E1F08150888BEF85E81B94
:10476000E370F0E03296EE0FFF1FE60FF71F808137
:104770009181DC010D900020E9F71197A81BB90B7E
:10478000AD87AE87198A60817181CE010E94202396
:10479000DF91CF9108958F929F92BF92CF92DF9237
:1047A000EF92FF920F931F93CF93DF93EC01F62EBE
:1047B000B72E6A01490183E2FE0111928A95E9F759
:1047C000862F972F60E070E00E943B59F882B982F3
:1047D000D694C794D694C794CC86E8A21AA309A30A
:1047E000FE012F2D3B2DC9019C01AE01485F5F4F9B
:1047F000358324838C85280F311D3296E417F50705
:10480000B9F79B8E8A8EDF91CF911F910F91FF9008
:10481000EF90DF90CF90BF909F908F9008950F936F
:104820001F93CF93DF93EC0188898823C9F00F850C
:10483000081B03704C858881998160E070E050E02E
:104840000E943B5910E00E5F1F4F000F111F0C0F0D
:104850001D1FF80160817181888199810E944D59E5
:10486000188A81E0898BDF91CF911F910F91089574
:104870009F92AF92BF92CF92DF92EF92FF920F93EF
:104880001F93DF93CF9300D000D000D0CDB7DEB719
:10489000182F7B01DB0152968C91823009F05DC0AC
:1048A000123471F0133424F4113409F053C006C0EB
:1048B000133459F0143409F04DC031C081E001C007
:1048C00082E0B7010E945F2345C0FB0181898823F4
:1048D00019F4CB010E940F24D7011E969C911E97BC
:1048E0001D968C911D975A966D917C915B979817A8
:1048F00068F59F5F1E969C938BE190E00E940D5A95
:10490000F701628D738D8BE590E00E940D5AD701FF
:104910005A966D917C915B9783E490E019C0FB01FE
:104920008189882319F4CB010E940F24D7011E9698
:104930008C911E975A966D917C915B97882331F0EC
:1049400081501E968C9388E090E002C087E090E052
:104950000E940D5AF701128A1EC2813039F41B35AC
:1049600011F482E015C2FB01128A03C0DB015296EA
:104970001C92F70195858485981789F49150958745
:1049800091E009C0D701ED91FC91E90FF11D808103
:10499000319780839F5FF7018485981798F3812F63
:1049A00080528F3508F05BC0D70151968C918823D7
:1049B00019F4C7010E940F24F70195858685891790
:1049C000E9F4628D738D812F992787FD90950E9460
:1049D0000D5AD7011E968C911E97ED91FC9111975F
:1049E000E80FF11D10838F5F1E968C931E971D9606
:1049F0008C911D978F5F1D968C93CDC19F5FF701A2
:104A0000958706C0E90FF11D829131968083915000
:104A1000D7011E968C911E97ED91FC9111978917E5
:104A200088F3E80FF11D10838F5F1E968C931E97FD
:104A30006D917C91C7010E942023F70116850AC061
:104A4000D7015A966D917C915B9788E090E00E9427
:104A50000D5A1F5FF7018585181790F39CC11D3013
:104A600009F025C1D70151968C915197882309F0FF
:104A700049C050962C915097222379F11F96EC91C2
:104A80001F97F0E0E21BF109E370F0703296EE0F31
:104A9000FF1FEE0DFF1D808191818D939C931BC0A4
:104AA000D7011F96EC91F0E0E21BF109DF01A37042
:104AB000B0701296AA0FBB1FAE0DBF1D3197E370E9
:104AC000F0703296EE0FFF1FEE0DFF1D8081918179
:104AD0008D939C932F5F243018F3D7011F96EC9190
:104AE0001F97F0E03296EE0FFF1FEE0DFF1D8D9128
:104AF0009C9111979183808350961C92509781E0EE
:104B000051968C93F701628D738D8DE090E00E9439
:104B10000D5AD7015A966D917C915B978AE090E08F
:104B20000E940D5AF70185850190F081E02DE80F74
:104B3000F11D10828F5FD7011D968C931D971E96D5
:104B40008C911E978F5F1E968C931E978D919C91D2
:104B5000119713969C938E931297BB2401C0B39424
:104B6000FC01EB0DF11DE081E03211F0EE23B9F70D
:104B7000BB2009F492C0F701C1A0D2A08E010F5F43
:104B80001F4FC801B60146E050E00E941B59902E0D
:104B9000A12E09811A81D70112968D919C911397AC
:104BA000B8014B2D50E00E942459892B81F48D814E
:104BB0009E81F701908F878B148B038B8B819C8157
:104BC000968B858B80E0B7010E945F2369C086E0E9
:104BD00090E0C80ED91E892D9A2DB60146E050E00E
:104BE0000E941B5989819A81892B99F606E51BE061
:104BF0000CC00F5F1F4FF9018491D7015A966D9138
:104C00007C915B9790E00E940D5A9801F801849185
:104C1000882379F7D7010D911C910AC00F5F1F4FB0
:104C2000F701628D738D992787FD90950E940D5A2B
:104C3000D8018C91882311F0803281F7F701628DC1
:104C4000738D8AE390E00E940D5AD7015A966D91B8
:104C50007C915B9780E290E00E940D5A00E61BE099
:104C600007C00F5F1F4FF901849190E00E940D5A19
:104C70009801F8018491D7015A966D917C915B97C8
:104C8000882379F78DE090E00E940D5AF701628D3C
:104C9000738D8AE090E00E940D5AC7010E9467223E
:104CA000D7011D961C921D971E961C9274C0183039
:104CB00009F069C0F7019685992309F45CC08585E0
:104CC000981729F5628D738D88E090E00E940D5A47
:104CD000D7015A966D917C915B9780E290E00E949B
:104CE0000D5AF701628D738D88E090E00E940D5A95
:104CF000D7011D968C911D9781501D968C931D9701
:104D00001E968C911E9781501E968C9344C08150A4
:104D1000F70185879150968705C0E90FF11D8181C4
:104D200080839F5FD7011D968C911D97ED91FC911B
:104D3000981798F3C701BF010E942023F701628DE5
:104D4000738D80E290E00E940D5AD7011E961C914F
:104D500008C0F701628D738D88E090E00E940D5AC3
:104D60001F5FD7011D968C9190E0212F30E08217B4
:104D700093077CF710C0F701628D738D87E090E098
:104D80000E940D5A08C01F3731F01B3121F481E019
:104D9000D70152968C9326960FB6F894DEBF0FBEBD
:104DA000CDBFCF91DF911F910F91FF90EF90DF90DA
:104DB000CF90BF90AF909F900895DA012DB73EB786
:104DC000285030400FB6F8943EBF0FBE2DBFEDB750
:104DD000FEB731965A962D913C915B97ADB7BEB711
:104DE00012963C932E93119726E231E0338322836F
:104DF00084831582668317820E94EF592DB73EB7D0
:104E0000285F3F4F0FB6F8943EBF0FBE2DBF0895E9
:104E1000FB01228D338D882349F000D000D0EDB7FF
:104E2000FEB7328321838FE291E008C000D000D02A
:104E3000EDB7FEB73283218386E391E094838383C9
:104E40000E94EF590F900F900F900F900895DB0183
:104E500000D000D000D0EDB7FEB731965A962D9114
:104E60003C915B97ADB7BEB712963C932E931197CA
:104E70002DE331E033832283848315820E94EF592E
:104E80008DB79EB706960FB6F8949EBF0FBE8DBF26
:104E9000089500D000D0FC01828D938DEDB7FEB750
:104EA0009283818383E491E0948383830E94EF590A
:104EB0000F900F900F900F90089500D000D0FC013C
:104EC000828D938DEDB7FEB79283818388E491E064
:104ED000948383830E94EF590F900F900F900F904F
:104EE0000895089508950F931F93CF93DF93182F7C
:104EF000062FEA01803610F081E01DC090E0860F99
:104F0000911D8036910514F082E015C00E94E51BCA
:104F10000E942A0D812F805E0E946E0D05C080E0E8
:104F20000E946E0D899301500023C9F70E942F0D36
:104F30000E94D91B80E0DF91CF911F910F910895BE
:104F40000F931F93CF93DF93182F062FEA0180361C
:104F500010F081E01CC090E0860F911D8036910515
:104F600014F082E014C00E94E51B0E942A0D812FDC
:104F700080560E946E0D04C089910E946E0D0150F2
:104F80000023D1F70E942F0D0E94D91B80E0DF91F2
:104F9000CF911F910F9108950E94E51B0E942A0D49
:104FA0008FE80E946E0D80E00E946E0D0E942F0D12
:104FB0000E94D91B08950F931F93CF93DF93182F4F
:104FC000092F0E94E51B0E942A0D212F302FC901B5
:104FD000EC0180E80E946E0D10E089910E946E0D38
:104FE0001F5F1730D1F70E942F0D0E94D91BDF9150
:104FF000CF911F910F9108950E94DB2708950E9481
:10500000DB2708950F931F93CF93DF93182F092F5A
:105010000E94E51B0E942A0D212F302FC901EC01AF
:1050200080E00E946E0D10E0812F0E946E0D89932A
:105030001F5F1730C9F70E942F0D0E94D91BDF9107
:10504000CF911F910F9108950E94022808950E9408
:1050500002280895089508951F93182F110F1E70A8
:1050600011640E94E51B0E94120D812F0E946E0D9B
:1050700083E10E946E0D812F0E946E0D182F0E94F9
:10508000140D0E94D91B812F1F9108951F93182F73
:10509000110F1E7011640E94E51B0E94120D812FDA
:1050A0000E946E0D82E10E946E0D812F0E946E0D96
:1050B000182F0E94140D0E94D91B812F1F91089553
:1050C0001F93162F110F1E709091790E80959823C3
:1050D0009093790E0E94E51B0E94120D812F80642F
:1050E0000E946E0D85E10E946E0D8091790E0E94E6
:1050F0006E0D0E94140D0E94D91B1F9108951F93DD
:10510000162F110F1E709091790E982B9093790E97
:105110000E94E51B0E94120D812F80640E946E0D7B
:1051200085E10E946E0D8091790E0E946E0D0E94A5
:10513000140D0E94D91B1F9108951F93162F110F54
:105140001E708093790E0E94E51B0E94120D812F24
:1051500080640E946E0D85E10E946E0D8091790E33
:105160000E946E0D0E94140D0E94D91B1F9108957C
:105170001F93162F110F1E709091C20E80959823C9
:105180009093C20E0E94E51B0E94120D812F806435
:105190000E946E0D84E10E946E0D8091C20E0E94ED
:1051A0006E0D0E94140D0E94D91B1F9108951F932C
:1051B000162F110F1E709091C20E982B9093C20E55
:1051C0000E94E51B0E94120D812F80640E946E0DCB
:1051D00084E10E946E0D8091C20E0E946E0D0E94AD
:1051E000140D0E94D91B1F9108950F931F93182F20
:1051F000062F000F0E700E94E51B0E94120D1093E7
:10520000C20E802F80640E946E0D84E10E946E0D9C
:105210008091C20E0E946E0D0E94140D0E94D91B37
:105220001F910F9108950F931F93082F162F110FA1
:105230001E700E94E51B0E94120D812F80640E9447
:105240006E0D81E00E946E0D802F0E946E0D0E94F7
:10525000140D0E94D91B1F910F9108950F931F9356
:10526000082F162F110F1E700E94E51B0E94120DB1
:10527000812F80640E946E0D80E00E946E0D802F51
:105280000E946E0D0E94140D0E94D91B1F910F9158
:10529000089508950895FF920F931F93182F129564
:1052A00010770E94E51B0E94160D81E00E946E0D92
:1052B000812F80680E946E0DF82E80E00E946E0D96
:1052C000082F0E941B0D0E94D91B9F2D937080E018
:1052D00010E0082B192BC8011F910F91FF90089522
:1052E000FF920F931F93182F1295107F0E94E51BBA
:1052F0000E94160D81E00E946E0D812F80770E9422
:105300006E0DF82E80E00E946E0D082F0E941B0D7E
:105310000E94D91B9F2D937080E010E0082B192B61
:10532000C8011F910F91FF900895089508951F934C
:10533000182F0E94E51B0E94200D81E10E946E0D36
:10534000812F0E946E0D0E94250D0E94D91B1F9176
:10535000089508950895FF920F931F93182F062F15
:10536000F42E0E94E51B0E94020D0F71802F812BED
:105370000E946E0D8F2D0E946E0D0E94040D0E94E2
:10538000D91B1F910F91FF9008951F93CF93DF9327
:10539000182FC82FD0E0C076D0708091900190E097
:1053A000C817D90791F080EA6FE143E00E94AB296A
:1053B00085E0D595C7958A95E1F780E86FE14C2F98
:1053C0000E94AB29107610939001DF91CF911F912D
:1053D00008950F931F93182F062F0E94C52980E46C
:1053E000612F402F0E94AB291F910F9108950F93B9
:1053F0001F938C0184EEF80160810E94E92985EEFB
:10540000F80161810E94E92982EEF80162810E941F
:10541000E92983EEF80163810E94E92980EEF80111
:1054200064810E94E92981EEF80165810E94E929E1
:105430001F910F9108950F931F93182F062F0E940D
:10544000E51B0E94020D802F8F71812B0E946E0D33
:1054500080E00E946E0D182F07FF04C080E00E94BC
:105460006E0D182F0E94040D0E94D91B812F1F91D1
:105470000F9108951F93182F0E94C52980E0612F76
:105480000E941B2A1F9108950F931F938C0100D037
:1054900000D0ADB7BEB712969C938E9311978DE056
:1054A0009CE014969C938E9313970E94EF590F9053
:1054B0000F900F900F9081EE0E943A2A00D000D0FA
:1054C00000D0EDB7FEB73196ADB7BEB712961C93BC
:1054D0000E9311972EEF3BE0338322838483158252
:1054E0000E94EF59EDB7FEB736960FB6F894FEBF9F
:1054F0000FBEEDBF80EE0E943A2A00D000D000D04F
:10550000EDB7FEB73196ADB7BEB712961C930E93AA
:1055100011972FEE3BE033832283848315820E9410
:10552000EF59EDB7FEB736960FB6F894FEBF0FBE33
:10553000EDBF83EE0E943A2A00D000D000D0EDB734
:10554000FEB73196ADB7BEB712961C930E93119766
:1055500020EE3BE033832283848315820E94EF593F
:10556000EDB7FEB736960FB6F894FEBF0FBEEDBF8F
:1055700082EE0E943A2A00D000D000D0EDB7FEB7EC
:105580003196ADB7BEB712961C930E93119721EDCD
:105590003BE033832283848315820E94EF59EDB769
:1055A000FEB736960FB6F894FEBF0FBEEDBF85EE80
:1055B0000E943A2A00D000D000D0EDB7FEB7319655
:1055C000ADB7BEB712961C930E93119722EC3BE039
:1055D00033832283848315820E94EF59EDB7FEB78F
:1055E00036960FB6F894FEBF0FBEEDBF84EE0E9454
:1055F0003A2A00D000D000D0EDB7FEB73196ADB753
:10560000BEB712961C930E93119723EB3BE03383A6
:105610002283848315820E94EF59EDB7FEB7369638
:105620000FB6F894FEBF0FBEEDBF1F910F91089506
:105630000F931F938C0181EE0E943A2AF801858313
:1056400080EE0E943A2AF801848383EE0E943A2A6F
:10565000F801838382EE0E943A2AF801828385EE64
:105660000E943A2AF801818384EE0E943A2AF801C6
:1056700080831F910F91089589E30E943A2A811136
:1056800081E0089582E70E943A2A0895CF92DF923E
:10569000EF92FF920F931F93CF93DF9389E30E94C2
:1056A0003A2A882319F4EE24FF249DC080E06091FB
:1056B00091010E94E9296091920181E00E94E9290B
:1056C0008AE360E00E941B2A082F10E010939201E9
:1056D000009391018AE360E00E941B2A382F20E0AA
:1056E000202B312B30939201209391018AE360E0CB
:1056F0000E941B2AF82E8AE360E00E941B2AD82E03
:105700008AE360E00E941B2A082F10E08AE360E031
:105710000E941B2A40917E0E50917F0E382F20E070
:10572000202B312B27FD03C0EE24FF242FC0EF2CAC
:10573000FF249D2D80E0E82AF92ACA0101972CEF69
:105740003FEFE20EF31E8E159F0508F47C010091D9
:10575000860E1091870E0E94E51B0E94020D8AE3BF
:105760000E946E0D6801E70107C0219780E00E944A
:105770006E0DF60181936F012097B9F70E0D1F1D75
:10578000F80110820E94040D0E94D91B8CE06091E8
:1057900091010E94E929609192018DE00E94E9291E
:1057A0006091910170919201CB0101978F5F9941B6
:1057B00038F08CE06EEF0E94E9298DE069E10CC0C1
:1057C00061508CE00E94E929209191013091920171
:1057D000215030408DE0632F0E94E92980E86EE17E
:1057E00040E40E94AB29C701DF91CF911F910F9137
:1057F000FF90EF90DF90CF9008950F931F93CF937A
:10580000DF938C0113C08CE10E943A2A81FF0AC009
:1058100080E86FE140E80E94AB2980EA6FE140E850
:105820000E94AB2980E090E00E94BB4D80E06FE1D8
:105830000E941B2A83FDE7CF82E06FEF0E94E929D7
:1058400083E069E10E94E929602F615086E00E94AF
:10585000E92998012150364E87E0632F0E94E929FB
:105860008AE760E040E00E94AB29C091860ED091AB
:10587000870E0E94E51B0E94020D8AE703C00150BB
:10588000104089910E946E0D01151105C1F70E940B
:10589000040D0E94D91B80E86FE148E00E94AB290B
:1058A000DF91CF911F910F91089584ED61E10E94E6
:1058B000E92982ED61E00E94E92980E090E00E9400
:1058C000BB4D8AEE0E943A2A80FDF7CF82ED60E060
:1058D0000E94E92989ED0E943A2A811181E0089508
:1058E0000F931F93982F162F072F84ED692F0E9477
:1058F000E92986ED612F0E94E92987ED602F0E943A
:10590000E92904C080E090E00E94BB4D8AEE0E942D
:105910003A2A80FDF7CF1F910F91089585E090E01E
:105920000E94BB4D1A9885E090E00E94BB4D1A9AE8
:1059300085E090E00E94BB4D10929201109291017F
:1059400088E060E00E94E92989E060E00E94E9299E
:105950008CE060E00E94E9298DE060E00E94E92986
:105960008AE06EEF0E94E9298BE069E10E94E92953
:1059700084E06FEF0E94E92985E069E10E94E9294E
:1059800086E06FEF0E94E92987E06FE10E94E92934
:1059900088E360EB0E94E92988E26FE30E94E9292D
:1059A00089E260E30E94E92980E369EF0E94E92926
:1059B00081E367EF0E94E92980EC6DE00E94E9290C
:1059C00081EC60E00E94E92980E862EC42E30E94F9
:1059D000AB2986EC62E10E94E92987EC6CE00E9429
:1059E000E92984EC62E10E94E9298AEC6CED0E94CD
:1059F000E9298BEC65E00E94E92980E89EE00E949D
:105A0000F72980E160E071E00E94702C8FE10E9434
:105A1000C52980E86BE140EC0E94AB2980E86FE18A
:105A200044E00E94AB2985E090E00E94BB4D84E1F8
:105A300066E774E00E94702C82E090E00E94BB4D0B
:105A40000895FC01DB0184E59DE29187808787E36F
:105A50009DE29387828783E08383758764871196AD
:105A60005C934E9313963C932E9312970895DF9375
:105A7000CF930F92CDB7DEB7DC011C96ED91FC9170
:105A80001D9780819181BE016F5F7F4F4FEF5FEF68
:105A900020E00E94B0502981332727FD3095C901AD
:105AA0000F90CF91DF910895DF93CF930F92CDB7F1
:105AB000DEB78983FB010484F585E02D8281938123
:105AC000BE016F5F7F4F4FEF5FEF20E00E947C5180
:105AD00080E090E00F90CF91DF91089508950895B0
